:100000000C94B1010C94D9010C94D9010C94D90130
:100010000C94D9010C94D9010C94D9010C94D901F8
:100020000C94D9010C94D9010C941B0D0C948C0BDD
:100030000C94D9010C94D9010C94D9010C94D901D8
:100040000C94230A0C94D9010C94D9010C94D90175
:100050000C94D9010C94D9010C94D9010C94D901B8
:100060000C946D0A0C94D9010000000000000000FF
:10007000002F000000000700070000147F147F1409
:1000800000242A7F2A12006264081323003649558F
:10009000225000000503000000001C224100000067
:1000A00041221C000014083E08140008083E0808FD
:1000B000000000A060000008080808080000606058
:1000C0000000002010080402003E5149453E000097
:1000D000427F4000004261514946002141454B3179
:1000E000001814127F10002745454539003C4A4945
:1000F00049300001710905030036494949360006B7
:100100004949291E0000363600000000563600001E
:100110000008142241000014141414140000412299
:10012000140800020151090600324959513E007C71
:100130001211127C007F49494936003E414141225B
:10014000007F4141221C007F49494941007F090944
:100150000901003E4149497A007F0808087F0000F4
:10016000417F4100002040413F01007F08142241AF
:10017000007F40404040007F020C027F007F040867
:10018000107F003E4141413E007F09090906003EC3
:100190004151215E007F09192946004649494931EC
:1001A0000001017F0101003F4040403F001F20400F
:1001B000201F003F4038403F0063140814630007CD
:1001C0000870080700615149454300007F41410024
:1001D00000552A552A55000041417F0000040201C4
:1001E00002040040404040400000010204000020A2
:1001F00054545478007F48444438003844444420E0
:1002000000384444487F00385454541800087E098C
:1002100001020018A4A4A47C007F08040478000054
:10022000447D4000004080847D00007F1028440011
:100230000000417F4000007C04180478007C080422
:10024000047800384444443800FC2424241800185E
:10025000242418FC007C080404080048545454204A
:1002600000043F444020003C4040207C001C2040D3
:10027000201C003C4030403C004428102844001C16
:10028000A0A0A07C004464544C44000008774100C6
:100290000000006300000000417708000008040827
:1002A0000804003A4040207A003D4040403D002193
:1002B00054545479007D1211127D0039444444395C
:1002C000003D4242423D000205020000007E01491D
:1002D0005573007C1010081C000101010101FC5F36
:1002E000DC60E461C462F663D664B065DF66B5675E
:1002F000AF68FFFFAE2000B0C8001040813FA1A64C
:10030000A83FA4D301D5F0D922DA12DB208D140046
:1003100000000800020100000304070000000000C4
:1003200000000000000000250028002B0000000055
:1003300000240027002A0004040404040404040226
:100340000202020202030303030303010204081072
:10035000204080010204081020010204081020003F
:10036000510D11241FBECFEFD8E0DEBFCDBF11E08D
:10037000A0E0B1E0E4EFF5E202C005900D92A23BEF
:10038000B107D9F725E0A2EBB1E001C01D92A93178
:10039000B207E1F711E0C1EBD1E004C02197FE0103
:1003A0000E94D712C03BD107C9F70E94FB0D0C94E5
:1003B000F8120C94000090E0FC01E55BFC4F2491E6
:1003C000895C9C4FFC018491882399F090E0880F10
:1003D000991FFC01E35DFC4FA591B491FC01ED5D1B
:1003E000FC4F859194918FB7F894EC91E22BEC93AC
:1003F0008FBF0895CF93DF93FC0129E18EE241E0A6
:1004000050E033E071E0908190769036D1F49181A4
:100410009093C903A091C903A1501092C8039FEF04
:100420006091C8036A1790F4C091C803CE0FDF2F04
:10043000D11D688196276091C8036F5F6093C803E0
:10044000EFCF9081929596709E5FE2CFAE0FBF2F57
:10045000B11D9C93F8949091C703913059F49091F9
:10046000C603981738F01092C70390916F009D7FD4
:1004700090936F0078949091C703913039F49091E4
:10048000C603943108F4BFCF70E0BDCF9091C7038D
:1004900091110EC0F89490916F009F7D90936F0022
:1004A000B59B09C090916F00906290936F00789413
:1004B0007111A9CF51C0A091C403B091C5039C9103
:1004C0006091C303EA0102C0CC0FDD1F6A95E2F719
:1004D0009C2B9C9360918400709185006A5A7C4F9C
:1004E0007093C2036093C1036091C1037091C20312
:1004F00070938900609388007894F093C003E09330
:10050000BF031092C8031092BE0390819093BD0365
:100510003093C7031092C603B19A90916F00926016
:1005200090936F009091C7039330E1F39091BE03D5
:10053000992381F0E091BB03F091BC03E757FF4F93
:100540008081918101969183808383E090E0DF91A7
:10055000CF9108959091C7038B3108F081502150BD
:1005600009F050CF809155049091560401969093D4
:1005700056048093550486E090E0E9CF90E0FC01BA
:10058000E15FFC4F2491FC01E55BFC4F3491FC01E1
:10059000E95CFC4FE491EE23C9F0222339F02330CB
:1005A00001F1A8F4213019F1223029F1F0E0EE0F29
:1005B000FF1FED5DFC4FA591B4918FB7F894EC91BE
:1005C000611126C030953E233C938FBF089527309C
:1005D000A9F02830C9F0243049F7809180008F7D40
:1005E00003C0809180008F7780938000DFCF84B537
:1005F0008F7784BDDBCF84B58F7DFBCF8091B0003A
:100600008F778093B000D2CF8091B0008F7DF9CFEB
:100610003E2BDACF3FB7F8948091B6039091B703A1
:10062000A091B803B091B90326B5A89B05C02F3F90
:1006300019F00196A11DB11D3FBFBA2FA92F982F08
:100640008827BC01CD01620F711D811D911D42E003
:10065000660F771F881F991F4A95D1F7089508954F
:100660000895AF92BF92CF92DF92EF92FF920F93D5
:100670001F93CF93DF936C017B018B01040F151F38
:10068000EB015E01AE18BF08C017D10759F06991A0
:10069000D601ED91FC910190F081E02DC601099504
:1006A000892B79F7C501DF91CF911F910F91FF90B1
:1006B000EF90DF90CF90BF90AF9008958093BB00F4
:1006C00084E88093BC0080E491E02091BC0027FD89
:1006D00008950197D1F78091BA0384608093BA039B
:1006E000089594EA9093BC0020E431E09091BC001E
:1006F00097FF0CC08093BB0084E88093BC0080E42B
:1007000091E02091BC0027FF0AC0089521503109D3
:1007100069F78091BA0381608093BA0308950197C5
:1007200081F78091BA038260F7CF1F93CF93DF9355
:10073000EC01142F4F83688785E090E09D838C83C4
:100740008FEF6623D9F081E0860F0E94710384E861
:100750008093BC0080E491E02091BC0027FF03C09F
:100760008091BB0008C00197B9F78091BA038061FE
:100770008093BA0380E094E99093BC0090E0809568
:10078000909502C0959587951A95E2F780FD15C062
:1007900080E08E832FB7F8948091B9049091BA04C9
:1007A000A091BB04B091BC042FBF88839983AA8316
:1007B000BB83DF91CF911F91089583E0EACFEF9241
:1007C000FF920F931F93CF93DF93182FE92E062FDD
:1007D00088E70E94710380E00E945E03F12EC12F22
:1007E000DE2D89910E945E038C2F8F198017C8F32C
:1007F00084E98093BC00DF91CF911F910F91FF900E
:10080000EF900895CF93DF9300D000D01F92CDB723
:10081000DEB7E6E8F2E0808361836055698391E2A8
:100820009A8392E0980F9F709B8390E0029624E059
:10083000959587952A95E1F7805F8C838FE78D8367
:1008400065E0CE0101960E94DF030F900F900F909C
:100850000F900F90DF91CF910895813820F4683088
:1008600010F40C94020408950F931F93CF93DF9319
:10087000893009F45CC0C82F8A30A0F5883009F4AB
:100880003EC0809186028A3708F082C0C03208F4E8
:100890007FC0C052EFEDF2E0E491CE1708F07DC0CA
:1008A00088E70E94710380E40E945E03F6E0CF9F18
:1008B000E001112410E000E0C859DF4FFE01E00F15
:1008C000F11F84910E945E030F5F1F4F06301105D8
:1008D000A9F784E98093BC00809186028A5F8093A7
:1008E000860256C08A3081F16091870280E0CD3067
:1008F00041F6DF91CF911F910F910C942D048091BF
:1009000086028150982F990F890F60918702880F76
:100910000E942D0480E20E9434048091860281505E
:10092000982F990F890F60918702880FE2CF8091ED
:100930008602609187028D3028F48C5F982F990F82
:10094000890FF3CF8EE7D5CF60918702673000F52E
:100950006F5F90918602892F880FF2CF9F5F292FBA
:1009600030E0220F331FA90141525D4FFA018491FB
:100970008F3F71F0F901E252FD4FE491E052FF0B1D
:10098000EC17FD0759F7FA01C491CF3F09F088CF62
:10099000DF91CF911F910F91089590E0D0E0DFCFCC
:1009A0001F93CF93DF93182FEC019C2F911B8991FC
:1009B000882319F00E943404F8CF892F90E0DF914A
:1009C000CF911F910895CF92DF92EF92FF920F93F4
:1009D0001F93CF93DF93CDB7DEB7A1970FB6F894EF
:1009E000DEBF0FBECDBF6B01BC0190E080E019A25D
:1009F0008E010F5D1F4F0D2C000CEE08FF08A701A4
:100A000096010E94B512E62FCA01B901EA30F4F44A
:100A1000E05DD801EE938D01232B242B252B21F0B3
:100A2000AC17BD0761F78E01C8010E94D004A196E2
:100A30000FB6F894DEBF0FBECDBFDF91CF911F91EF
:100A40000F91FF90EF90DF90CF900895E95CE1CF98
:100A500090E080E00895089520916302260F3327E7
:100A6000331F21323105ECF420918104FC0190E028
:100A700080E0243069F082E00895A0916302219122
:100A8000AC014D5B5D4FA40FB52FB11D2C930196AA
:100A9000861798F380916302680F6093630280E089
:100AA000089581E008951092810481E0809380048C
:100AB00010925B0461E082E10E94BE0261E083E18A
:100AC0000E94BE02E9EBF0E080818E7F808380810E
:100AD0008D7F808388E48093B80085E48093BC0098
:100AE0000895CF93DF9391E0909342028823B9F069
:100AF000C091B800D091BA008091BC008A7B8093ED
:100B0000BC0060E082E10E94BE0260E083E10E94DE
:100B1000BE020E945305D093BA00C093B800DF9183
:100B2000CF9108958F929F92AF92BF92CF92DF9212
:100B3000EF92FF920F931F93CF93DF93D091AA046C
:100B4000D13208F0D7C0182FC091A9040E940A031F
:100B50006B017C018091810481116BC082E08093E4
:100B60008104109380048FEF80937F0410927E04A1
:100B7000D0937D04A9E8B4E0EDE5F4E080E0D8137B
:100B800091C010925C0480915C04CC0FC82BC09380
:100B90005C0480915B04813009F088C010925B0492
:100BA0000E940A036B017C0180915C048093BB006E
:100BB0008091830490918404A0918504B09186046F
:100BC000892B8A2B8B2BA1F00E940A0300918304AE
:100BD0001091840420918504309186046C197D095C
:100BE0008E099F09061717072807390708F442C01E
:100BF0008091BC0083FDD8CF85EC8093BC000E941F
:100C00000A036B017C0180918104823009F450C099
:100C100080917F048F3F09F46FC080917F04803200
:100C200009F46CC080917F04803309F469C084E0CA
:100C300026C08091830490918404A0918504B09192
:100C40008604892B8A2B8B2B09F484CF0E940A03FC
:100C50008090830490908404A0908504B0908604D2
:100C60006C197D098E099F0986169706A806B90694
:100C700008F070CF809182040E94710585E0109287
:100C800088041092AA0410928704DF91CF911F91DB
:100C90000F91FF90EF90DF90CF90BF90AF909F901B
:100CA0008F9008959D9191938F5F69CF85EEA5CF29
:100CB0008091830490918404A0918504B09186046E
:100CC000892B8A2B8B2B09F49ECF0E940A0300915B
:100CD00083041091840420918504309186046C195A
:100CE0007D098E099F09061717072807390708F09D
:100CF0008ACFC0CF81E0C3CF80E0C1CF82E0BFCF39
:100D000083E0BDCF0895E0918C0380918B03E817B9
:100D100030F4F0E0E357FC4F808190E008958FEFCE
:100D20009FEF089590918C0380918B032FEF3FEFFD
:100D3000981748F4E92FF0E0E357FC4F208130E0AA
:100D40009F5F90938C03C901089580918B039091CC
:100D50008C03891B990B0895CF92DF92EF92FF923B
:100D60000F931F93CF93DF937C01CB018A012091D6
:100D70008704222389F0EB016B01C40ED51ECC152C
:100D8000DD0569F06991D701ED91FC910190F08149
:100D9000E02DC7010995F3CF642F0E942C05C801EF
:100DA000DF91CF911F910F91FF90EF90DF90CF9047
:100DB0000895CF93DF931F92CDB7DEB7698320915B
:100DC00087042223F9F02091AA04203258F021E070
:100DD00030E0FC013383228390E080E00F90DF91CC
:100DE000CF91089580918804E82FF0E0E757FB4FFA
:100DF000998190838F5F809388048093AA0481E017
:100E000090E0ECCF61E0CE0101960E942C05F7CF77
:100E10006093590470935A0491E0909387048093EF
:100E2000A904109288041092AA048BEA94E00E940C
:100E3000D90681E00C94920590E080E008959C0131
:100E4000DC01A058BF4FEC9191E09E0F9C93E20F04
:100E5000F32FF11D608397FD1C920895CF93DF93CC
:100E6000EC01C83E83E0D80778F480E30E943404A4
:100E7000C436D10548F480E30E943404CA30D10559
:100E800018F480E30E9434046AE070E0CE01DF9140
:100E9000CF910C94E3041F93CF93DF93142FD09141
:100EA0008C02D60FC82FCC0FC80FCC0F6D2F8C2FF4
:100EB0000E942D04115020F080E20E943404FACFE9
:100EC0006D2F8C2FDF91CF911F910C942D04909159
:100ED0008C02690F982F990F890F880F0C942D049D
:100EE000CF93809100018F5F863041F180930001A4
:100EF000C0919F02C87FE091000186E0E89FF00169
:100F00001124EE5FFE4F8081C82BC0939F0261E0E9
:100F10008CE00E946707E2E0F1E030E020E0C7707B
:100F20008081C8130EC046E0429FC001439F900DD0
:100F300011248D5F9E4FCF910C94D004109200012C
:100F4000D7CF2F5F3F4F36962630310549F788E6D9
:100F500091E0F1CF8091B2039091B303EDE8F2E01C
:100F60009C012F773327238B880F892F881F990B9C
:100F70009195878B81E0848B0895AF92BF92CF9239
:100F8000DF92EF92FF920F931F93CF93DF93CDB732
:100F9000DEB7C058D1090FB6F894DEBF0FBECDBF83
:100FA000CE0101966C0180E8F60111928A95E9F76D
:100FB00010E05E01F1E8AF0EB11C04E9612F80E0A2
:100FC0000E94020488E70E94710380E40E945E038D
:100FD0007601F70181917F010E945E03EA14FB0410
:100FE000C1F70093BC001F5F183041F760E080E05C
:100FF0000E940204C058DF4F0FB6F894DEBF0FBE48
:10100000CDBFDF91CF911F910F91FF90EF90DF90B7
:10101000CF90BF90AF90089585ED8093BC008091F4
:10102000830490918404A0918504B091860407966E
:10103000A11DB11D23E0B695A795979587952A9593
:10104000D1F72091BC0024FD03C0109281040895C3
:1010500040918304509184046091850470918604CA
:10106000452B462B472B69F30097A105B10541F0AD
:101070002AE22A95F1F700C00197A109B109E1CF51
:10108000809182040C9471052F923F924F925F924F
:101090006F927F928F929F92AF92BF92CF92DF9288
:1010A000EF92FF920F931F93CF93DF9300D000D066
:1010B000CDB7DEB79C838B837C0141E8E40EF11C45
:1010C0006C0150E8C50ED11C8C010E571F4F8D5777
:1010D0009F4F2C018B819C818C579F4F4C01222468
:1010E0002A94AB80BC8097E8A90EB11CEB81FC81EF
:1010F000EB57FF4FFA83E983F7018081F601908176
:10110000891709F4BAC0EB81FC81E80FF11D30802A
:1011100037FE6DC0F8019081891739F0F501208103
:1011200031812F5F3F4F31832083F8018083F201AB
:101130002082832D8076F401803609F441C0832D0E
:10114000829586708E5F8083F8012081F401808112
:10115000820F9927991F813891059CF180E8682EAC
:10116000621AF894F6014081F8018081841708F032
:1011700044C0F42FF81B8F2FF60180837894F80178
:1011800060814617E8F5712C50E06B817C81CB01C2
:10119000860D971D0E94DD12F80160814B815C81F4
:1011A000460F511DBA01A3018B819C810E94DD1263
:1011B000F7018081F8019081891BF7018083F80194
:1011C0001082F70190819F5F9083F8018081392F11
:1011D000381B97FF02C0F7011082F2012081F40151
:1011E00090819317A9F03226F201308285CFF40165
:1011F00080818111E6CF3082A7CF862D840FBCCFAE
:10120000461B50E08B819C81860F911DBC01CCCF89
:1012100032122AC04B815C81480F511DCA01E981FD
:10122000FA81408151814F5F5F4F51834083F701C5
:101230003081F80130830097B1F20F900F900F903A
:101240000F90DF91CF911F910F91FF90EF90DF9062
:10125000CF90BF90AF909F908F907F906F905F9056
:101260004F903F902F900895F501808191810196D4
:101270009183808390E080E0DACF90E080E0DDCF62
:101280001F93CF93DF93182FD62FCBE4C627C82701
:1012900064EB82EB91E00E941F07612F82EB91E0EB
:1012A0000E941F076D2F82EB91E00E941F076C2F99
:1012B00082EB91E00E941F076FEF82EB91E00E94AA
:1012C0001F0782EB91E00E94440890938A03809369
:1012D0008903009731F00E94FA01DF91CF911F91AD
:1012E000089580E0FACF9F92AF92BF92CF92DF92A3
:1012F000EF92FF920F931F93CF93DF9399E0899F13
:10130000F0011124E357FD4F01811581212F30E0B9
:10131000220F232F221F330B200F311D232B11F0FF
:101320008C3178F060E08AE3DF91CF911F910F91CB
:10133000FF90EF90DF90CF90BF90AF909F900C9474
:101340004009D82F9080A280B380C480D680E780E7
:10135000F084C3E1C827C027C127C925CA25CB25EA
:10136000CC25CD25CE25CF2567EE82EB91E00E94DE
:101370001F076EE082EB91E00E941F076D2F82EB4A
:1013800091E00E941F07692D82EB91E00E941F07E8
:10139000602F82EB91E00E941F076A2D82EB91E0A3
:1013A0000E941F076B2D82EB91E00E941F0765E0F2
:1013B00082EB91E00E941F076C2D82EB91E00E946E
:1013C0001F07612F82EB91E00E941F076D2D82EBBA
:1013D00091E00E941F076E2D82EB91E00E941F0793
:1013E0006F2D82EB91E00E941F076C2F6F7782EBCD
:1013F00091E00E941F076FEF82EB91E00E941F07B0
:1014000082EB91E00E94440890938A0380938903C1
:10141000009769F0DF91CF911F910F91FF90EF90AE
:10142000DF90CF90BF90AF909F900C94FA01DF9126
:10143000CF911F910F91FF90EF90DF90CF90BF90D1
:10144000AF909F9008951F920F920FB60F921124A4
:101450002F933F938F939F93AF93BF938091B90442
:101460009091BA04A091BB04B091BC043091B50333
:1014700023E0230F2D3758F50196A11DB11D2093B0
:10148000B5038093B9049093BA04A093BB04B093BE
:10149000BC048091B6039091B703A091B803B091BA
:1014A000B9030196A11DB11D8093B6039093B703B4
:1014B000A093B803B093B903BF91AF919F918F915F
:1014C0003F912F910F900FBE0F901F90189526E817
:1014D000230F0296A11DB11DD2CF1F920F920FB6FE
:1014E0000F9211242F933F934F935F936F937F93AA
:1014F0008F939F93AF93BF93EF93FF938091B90026
:10150000887F803609F44AC0F0F5883209F4A7C014
:1015100018F5803109F49BC0B8F4882309F4F9C0A8
:10152000883009F494C0FF91EF91BF91AF919F91E2
:101530008F917F916F915F914F913F912F910F907C
:101540000FBE0F901F901895883109F488C0803223
:1015500051F780937F0414C0803409F49DC040F497
:101560008033B9F38833F9F680937F0485ECB0C0FB
:10157000803509F485C0883509F496C0883499F619
:101580000E940C08D0CF883909F48CC038F5883710
:1015900029F050F4883611F0803729F683E08093E3
:1015A00081041092850257C0883809F47BC08039C5
:1015B00019F0803809F0B7CF80918502803208F0A9
:1015C00071C0E091850281E08E0F80938502809149
:1015D000BB00F0E0EB59FD4F80833DC0803B39F00C
:1015E000E0F4803A09F479C0883A09F09CCF84E0AD
:1015F000809381041092640210926302E0918A0247
:10160000F0918B0209958091630281110FC081E0F6
:10161000809363021092430209C0803C09F4A6CF74
:10162000883C09F4A3CF883B09F07DCFE0916402A8
:1016300081E08E0F80936402F0E0ED5BFD4F8081CE
:101640008093BB00909164028091630229C08091D5
:101650005C048093BB0085EC8093BC0064CF9091C8
:101660007E0480917D04981758F5E0917E0481E016
:101670008E0F80937E04F0E0E35AFB4F8081E9CF28
:10168000E0917E0481E08E0F80937E048091BB0008
:10169000F0E0E35AFB4F808390917E0480917D04BB
:1016A0009817C8F285E8D8CFE0917E0481E08E0FCC
:1016B00080937E048091BB00F0E0E35AFB4F80836F
:1016C0008091800481115CCF81E080935B0484EA87
:1016D0008093BC001092810426CF85EC8093BC00DF
:1016E0001092810480918502803230F4E09185026D
:1016F000F0E0EB59FD4F10826091850270E0E091BF
:101700008802F091890285E692E00995109285029F
:101710000ACF10927F0434CF1F920F920FB60F9210
:101720001124CF92DF92EF92FF920F931F932F938A
:101730003F934F935F936F937F938F939F93AF9359
:10174000BF93CF93EF93FF93B19A8091C103909190
:10175000C20380549C4F9093C2038093C103809135
:10176000C1039091C2039093890080938800809177
:101770004102882371F010924102189B26C081E03B
:101780008093C703B59A80916F00806280936F0049
:101790001CC08091C6038F5F8093C6038091C703EE
:1017A000843009F043C08091C603893030F58091C0
:1017B000BD0390E0959587958093BD03189B05C068
:1017C0008091BD0380688093BD03FF91EF91CF911D
:1017D000BF91AF919F918F917F916F915F914F9149
:1017E0003F912F911F910F91FF90EF90DF90CF903D
:1017F0000F900FBE0F901F901895B59A80916F00B3
:10180000806280936F008091BB039091BC03189914
:1018100029C0FC01E957FF4F808191810196918396
:1018200080831092C60381E08093C7038091C70331
:101830008330E9F5E091C403F091C50380812091E4
:10184000C30333B190E0022E02C0959587950A94A8
:10185000E2F7832780FD11C01092C60382E08093D7
:10186000C70325C06091BD030E941F0780E090E080
:10187000892BB9F20E940000D4CF8091C603893031
:1018800008F043C03091BD0381E090E001C0880FB3
:101890002A95EAF7908130FF36C0809589238083AE
:1018A0008091BD0390E0959587958093BD038091CD
:1018B000C703823099F48091C603811196C0E091EC
:1018C000C403F091C50380819091C30321E030E00F
:1018D00001C0220F9A95EAF7822B80838091C7037B
:1018E000813009F072CF8091C603882309F44ACF72
:1018F0008091C603883308F468CF1092C7038091A3
:101900006F008D7F43CF892BCACF8091C60389306A
:1019100059F4308181E090E001C0880F2A95EAF700
:10192000809583238083C3CF8091C8038F5F80938A
:10193000C8039091C903891750F51092C60380918E
:10194000BF039091C003A091C803A80FB92FB11D88
:101950008C918093BD03808141E050E001C0440F31
:101960002A95EAF7842B80838091840090918500EA
:101970008A5A9C4F9093C2038093C1038091C10304
:101980009091C203909389008093880090CF81E06A
:101990008093BE03E090BF03F090C003C090BB03F0
:1019A000D090BC03F70180818076803679F4C181C4
:1019B00010E000E00C1778F4F701E00FF11F6081F0
:1019C000C6010E941F070F5F1F4FF4CFC081C29551
:1019D000C670CE5FEDCF80E090E0892B11F00E94C1
:1019E00000001092C60381E03ACF8091C6038F3089
:1019F00008F474CFE091C403F091C50320813091C5
:101A0000C30381E090E001C0880F3A95EAF7809522
:101A1000822380831092C60381E08093C703E09104
:101A2000BB03F091BC03E357FF4F80819181019686
:101A30009183808353CF1F920F920FB60F92112480
:101A40008F939F93EF93FF93B59AEFE6F0E0808139
:101A50008F7D8083809186009091870080529E4F79
:101A60009093C2038093C1038091C1039091C203FC
:101A70009093890080938800B19A808182608083EE
:101A800084E08093C7031092C60381E080934102F3
:101A9000FF91EF919F918F910F900FBE0F901F902C
:101AA0001895CF93DF93EBEAF4E01382128288EE6D
:101AB00093E0A0E0B0E084839583A683B7838EE4AF
:101AC00091E091838083C2E1D5E086E0888380E85D
:101AD000898388E08A831B821C821D821E8286E0A5
:101AE0000E94DB012FB7F8948091B9049091BA0459
:101AF000A091BB04B091BC042FBF8B839C83AD83AA
:101B0000BE838091010190E09093B8048093B70464
:101B1000EDEBF4E01382128280E691E09183808302
:101B200014821582168217828AE090E0918780875E
:101B3000128613861486158616861786108A928B4F
:101B4000818B138A148A158A168A178A108E118E31
:101B5000938F828F148E158E168E178E10A211A25F
:101B600012A294A383A315A216A217A210A611A6CF
:101B700012A613A695A784A716A617A610AA11AA9F
:101B800012AA13AA14AA96AB85AB17AA10AE11AE6F
:101B900012AE13AE14AE15AE97AF86AF1092FD0421
:101BA0001092FE041092FF0410920005109201059D
:101BB0001092020510920305909305058093040589
:101BC000109206051092070510920805109209055B
:101BD00010920A0510920B0510920E0510920F0537
:101BE000109210051092110510920C0510920D051F
:101BF000DF91CF910895CF93DF93CDB7DEB76C9788
:101C00000FB6F894DEBF0FBECDBF789484B5826066
:101C100084BD84B5816084BD85B5826085BD85B590
:101C2000816085BD80916E00816080936E0010920E
:101C30008100809181008260809381008091810089
:101C4000816080938100809180008160809380001A
:101C50008091B10084608093B1008091B000816078
:101C60008093B00080917A00846080937A008091A4
:101C70007A00826080937A0080917A0081608093FC
:101C80007A0080917A00806880937A001092C10077
:101C9000EDE8F2E01082399643E0E938F407D1F735
:101CA00083E380939F02EAECF3E08FE8DF011D926B
:101CB0008A95E9F787E00E94DB01E2E5F3E02491F1
:101CC000EEE3F3E0E491F0E0EE0FFF1FED5DFC4F7B
:101CD0004591549180E091E031E0291741F08F5F08
:101CE000932F082E01C0990F0A94EAF7F6CF50936C
:101CF000C5034093C4038093C3038AEC93E090939D
:101D0000BC038093BB032098E091C403F091C5030A
:101D100020813091C30381E090E001C0880F3A95A3
:101D2000EAF78095822380831092800011E010935F
:101D300081001092C703B59A80916F0080628093F2
:101D40006F0080918100887F816080938100109274
:101D50008C0310928B03109288041092AA040E94A4
:101D600053058FE293E090938B0280938A0280E385
:101D700093E0909389028093880289E38093010124
:101D8000109387048093A90481E00E949205811139
:101D900007C08091B103882309F4F4C081E011C029
:101DA00081E280930101109387048093A90410922B
:101DB00088041092AA0481E00E949205882349F3C6
:101DC00080E08093B1031092B90088E48093B8005A
:101DD00084E08093BC00E4EFF2E0DE0111969E0106
:101DE000245E3F4FCD0144914D9331962A173B0716
:101DF000D1F72FEA2C8F6CE10E94DF030E94BD0710
:101E000080910905882309F450C01092B90098E424
:101E10009093B80094E09093BC000E9471038FEF00
:101E20000E945E0384E98093BC0050E040E0609132
:101E3000090581EC94E00E94950341E050E0609137
:101E400009058AEC94E00E94950342E050E060911D
:101E5000090583ED94E00E94950343E050E0609112
:101E600009058CED94E00E94950344E050E06091F8
:101E7000090585EE94E00E94950345E050E06091ED
:101E800009058EEE94E00E94950346E050E06091D3
:101E9000090587EF94E00E94950347E050E06091C8
:101EA000090580E095E00E9495030E94BD0761E06E
:101EB00080E00E9467078DE691E00E94D00462E016
:101EC00081E00E94670783E891E00E94D0048CEFD4
:101ED0000E94340489E891E00E94D00484E0809359
:101EE0008C0261E080E00E94670786E991E00E9431
:101EF000D00481E0809300010E94700719E045EC56
:101F0000342E50E0A52E50E0B52E99249A9435E059
:101F1000832E2FB7F8948091B9049091BA04A091C0
:101F2000BB04B091BC042FBF40911505509116051C
:101F30006091170570911805841B950BA60BB70BC4
:101F40004597A105B10508F46DC02FB7F8948091AD
:101F5000B9049091BA04A091BB04B091BC042FBF06
:101F60008093150590931605A0931705B093180557
:101F70000091130580911405013CA0F08195809398
:101F8000140512C08091010190E09093B8048093F1
:101F9000B7046FEF70E00E9408071092B003109230
:101FA000AF03FCCE003250F380911405080F00936C
:101FB0001305F09012058F2D0E94DB01011105C061
:101FC00060E08F2D0E94BE022DC00F3F11F461E032
:101FD000F8CFEF2DF0E0E15FFC4FE491E33009F43E
:101FE00050C040F4E130D1F0E23009F445C007FDC3
:101FF000EECFE6CFE73009F450C0E83009F455C021
:10200000E430A9F780918000806280938000802F67
:1020100090E090938B0080938A0004C084B5806820
:1020200084BD07BD8AEC93E00E944408FC019093B4
:102030008A0380938903892B59F001810C3140F484
:1020400080818B3B09F4E3C0C0F58A3B09F4E1C011
:102050008091B10381110DC120E090E080E020FD6E
:1020600081C226FD42C227FD5DC2A114B10409F45C
:1020700050CF0E9400004BCF84B5806284BD08BD64
:10208000D1CF80918000806880938000802F90E085
:102090009093890080938800C5CF8091B0008068BC
:1020A0008093B0000093B300BDCF8091B0008062F8
:1020B0008093B0000093B400B5CF8F3B09F47AC091
:1020C0008F3E31F682818C3118F6D38004814581B0
:1020D00036812085F1849285E384C484189FF001C1
:1020E0001124E357FD4FD08201834283338324833D
:1020F000F5829683E782C0866FE78FE60E944009EB
:1021000040E160E080E00E944B0760E080E00E94D8
:1021100067078CE991E00E94D004802F90E0FF20B7
:1021200031F0B0E8FB9E90011124820F931F0E94B2
:102130002E0760E08CE00E946707E2E0F1E030E00B
:1021400020E08D2D87709081891389C0E6E0E29FA1
:10215000C001E39F900D11248D5F9E4F0E94D0041B
:1021600063E080E00E94670782EA91E00E94D00469
:10217000D12CDC2CCC24EC0CFD2CF11CE114F0E176
:10218000FF0690F480E30E9434044FEFE416F1045C
:1021900009F050F480E30E94340480E1E816F10471
:1021A00018F480E30E94340460E170E0C7010E94EB
:1021B000E3044ECF4281EDE8F2E081E092854913DD
:1021C00003C096850917C9F08F5F39968C31B1F736
:1021D000EDE8F2E081E090E0282F3185307381F462
:1021E000189FF001199FF00D1124E357FD4F418313
:1021F0000583822F222309F42BCF0E94730928CF55
:10220000019639968C31910539F720E0F2CF802F75
:10221000F4CF8281081320C00023E1F0109FF00169
:102220001124E357FD4F808180638083802F0E94BB
:102230007309E0918903F0918A038281811108CFAB
:10224000109FF0011124E357FD4F80818F7E806243
:102250008083FECE82E0D1CF0111EBCFF9CE2F5F8C
:102260003F4F36962630310509F06DCF88E691E074
:1022700075CFE091AF03F091B003EE0FFF1FEE5B5F
:10228000FE4F608171818091B7049091B8040E94E3
:1022900008079AE3C92E91E0D92EF12CE12C01E038
:1022A0002090B7040E940A032B013C018091810415
:1022B000811161C0009381040093800490927F0497
:1022C00010927E0410927D0400935C0480915C0463
:1022D000220C282A20925C0480915B04813009F052
:1022E0009DC010925B040E940A032B013C01809167
:1022F0005C048093BB008091830490918404A0913E
:102300008504B0918604892B8A2B8B2BA1F00E9427
:102310000A032091830430918404409185045091F4
:10232000860464197509860997092617370748072F
:10233000590708F441C08091BC0083FDD8CF30928A
:10234000BC000E940A032B013C0180918104813072
:1023500009F468C080917E04811186C080917E045A
:10236000ADE5B4E0EDE8F3E090E0981751F12D9180
:1023700021939F5FFACF8091830490918404A09170
:102380008504B0918604892B8A2B8B2B09F48ECF80
:102390000E940A03209183043091840440918504B3
:1023A000509186046419750986099709261737071D
:1023B0004807590708F07ACF809182040E9471057E
:1023C00080E010928C0380938B038BEA94E00E9450
:1023D0009206F601419151916F012091590430917B
:1023E0005A04822793278417950709F03FC020914C
:1023F000AF033091B003829EC001839E900D1124E3
:102400008A5D9E4FE80EF91ED7018C91082E000CB4
:10241000990B9093AE038093AD031ECEA5EEA093CF
:10242000BC008FCF8091830490918404A091850497
:10243000B0918604892B8A2B8B2B09F486CF0E94BE
:102440000A032091830430918404409185045091C3
:1024500086046419750986099709261737074807FE
:10246000590708F072CFA8CF81E07ACFBFEFEB1AFF
:10247000FB0AE4E0EE16F10409F012CF8091AD03FF
:102480009091AE03009799F01092AE031092AD03B5
:10249000882309F4E1CD833221F18A3221F180537E
:1024A00090E020E88A3008F4DACD20E8D6CD6FEF4E
:1024B00070E08091B7049091B8040E940807809161
:1024C000AF039091B00301968430910529F0909369
:1024D000B0038093AF03C0CD1092B0031092AF034E
:1024E000BBCD21E0BACD20E4B8CD1092B403109258
:1024F000B3031092B2030E94AA0747E061E085E0AF
:102500000E944B07B2CD2430C0F46091B2037091A9
:10251000B3033AE0369FA001379F500D1124840F7A
:10252000951F07C0823409F4A0CD2091B403211176
:10253000EACF9093B3038093B2032F5F2093B40349
:1025400044E061E085E00E944B0761E085E00E9485
:1025500067078091B2039091B3030E942E070E94F7
:10256000AA0783CD0E94700780CDA1E21A2EAA1B74
:10257000BB1BFD010DC0AA1FBB1FEE1FFF1FA21733
:10258000B307E407F50720F0A21BB30BE40BF50B30
:10259000661F771F881F991F1A9469F760957095B9
:1025A000809590959B01AC01BD01CF010895EE0F80
:1025B000FF1F0590F491E02D09946817790768F4DE
:1025C000FB01DC01E40FF51FA40FB51F02C0029050
:1025D0000E9241505040D8F708950C94EF12FB0131
:1025E000DC0102C001900D9241505040D8F708958F
:0425F000F894FFCF8D
:1025F40001390731323841000432384120000331B7
:1026040032382000003238202000023134202000EB
:10261400014D2A2A2000313233410034353642003C
:1026240037383943002A302344001000200040008A
:102634008000FE00FD00FB00F70000000000D9064A
:10264400AC061C078206A50692068306000000005D
:10265400280531031C072B053F202020004652414A
:102664004E5A20322E312028616B61204449535048
:102674004129002863294B72006D656C736F667481
:102684002032303233004E65753A2000416C743A82
:1026940020005468726F74746C6549443A20307831
:0226A400000034
:00000001FF
