:100000000C94B1010C94D9010C94D9010C94D90130
:100010000C94D9010C94D9010C94D9010C94D901F8
:100020000C94D9010C94D9010C9482110C94F30F07
:100030000C94D9010C94D9010C94D9010C94D901D8
:100040000C948A0E0C94D9010C94D9010C94D9010A
:100050000C94D9010C94D9010C94D9010C94D901B8
:100060000C94D40E0C94D901000000000000000094
:10007000002F000000000700070000147F147F1409
:1000800000242A7F2A12006264081323003649558F
:10009000225000000503000000001C224100000067
:1000A00041221C000014083E08140008083E0808FD
:1000B000000000A060000008080808080000606058
:1000C0000000002010080402003E5149453E000097
:1000D000427F4000004261514946002141454B3179
:1000E000001814127F10002745454539003C4A4945
:1000F00049300001710905030036494949360006B7
:100100004949291E0000363600000000563600001E
:100110000008142241000014141414140000412299
:10012000140800020151090600324959513E007C71
:100130001211127C007F49494936003E414141225B
:10014000007F4141221C007F49494941007F090944
:100150000901003E4149497A007F0808087F0000F4
:10016000417F4100002040413F01007F08142241AF
:10017000007F40404040007F020C027F007F040867
:10018000107F003E4141413E007F09090906003EC3
:100190004151215E007F09192946004649494931EC
:1001A0000001017F0101003F4040403F001F20400F
:1001B000201F003F4038403F0063140814630007CD
:1001C0000870080700615149454300007F41410024
:1001D00000552A552A55000041417F0000040201C4
:1001E00002040040404040400000010204000020A2
:1001F00054545478007F48444438003844444420E0
:1002000000384444487F00385454541800087E098C
:1002100001020018A4A4A47C007F08040478000054
:10022000447D4000004080847D00007F1028440011
:100230000000417F4000007C04180478007C080422
:10024000047800384444443800FC2424241800185E
:10025000242418FC007C080404080048545454204A
:1002600000043F444020003C4040207C001C2040D3
:10027000201C003C4030403C004428102844001C16
:10028000A0A0A07C004464544C44000008774100C6
:100290000000006300000000417708000008040827
:1002A0000804003A4040207A003D4040403D002193
:1002B00054545479007D1211127D0039444444395C
:1002C000003D4242423D000205020000007E01491D
:1002D0005573007C1010081C000101010101FC5F36
:1002E000DC60E461C462F663D664B065DF66B5675E
:1002F000AF68FFFFAE2000B0C8001040813FA1A64C
:10030000A83FA4D301D5F0D922DA12DB208D140046
:1003100000000800020100000304070000000000C4
:1003200000000000000000250028002B0000000055
:1003300000240027002A0004040404040404040226
:100340000202020202030303030303010204081072
:10035000204080010204081020010204081020003F
:10036000B81111241FBECFEFD8E0DEBFCDBF13E020
:10037000A0E0B1E0E8EDFEE202C005900D92A03DE4
:10038000B107D9F727E0A0EDB3E001C01D92AF3669
:10039000B207E1F711E0C1EBD1E004C02197FE0103
:1003A0000E944217C03BD107C9F70E9459120C9412
:1003B0006A170C94000090E0FC01E55BFC4F24916F
:1003C000895C9C4FFC018491882399F090E0880F10
:1003D000991FFC01E35DFC4FA591B491FC01ED5D1B
:1003E000FC4F859194918FB7F894EC91E22BEC93AC
:1003F0008FBF0895CF93DF93FC0129E18EE241E0A6
:1004000050E033E071E0908190769036D1F49181A4
:1004100090930306A0910306A150109202069FEF4D
:10042000609102066A1790F4C0910206CE0FDF2F8A
:10043000D11D68819627609102066F5F6093020666
:10044000EFCF9081929596709E5FE2CFAE0FBF2F57
:10045000B11D9C93F89490910106913059F49091BC
:100460000006981738F01092010690916F009D7F5A
:1004700090936F00789490910106913039F49091A7
:100480000006943108F4BFCF70E0BDCF9091010613
:1004900091110EC0F89490916F009F7D90936F0022
:1004A000B59B09C090916F00906290936F00789413
:1004B0007111A9CF51C0A091FE05B091FF059C918B
:1004C0006091FD05EA0102C0CC0FDD1F6A95E2F7DD
:1004D0009C2B9C9360918400709185006A5A7C4F9C
:1004E0007093FC056093FB056091FB057091FC0522
:1004F00070938900609388007894F093FA05E093F4
:10050000F905109202061092F80590819093F70574
:100510003093010610920006B19A90916F0092609C
:1005200090936F00909101069330E1F39091F8055C
:10053000992381F0E091F505F091F605E757FF4F1B
:100540008081918101969183808383E090E0DF91A7
:10055000CF910895909101068B3108F08150215080
:1005600009F050CF80918F0690919006019690935C
:10057000900680938F0686E090E0E9CF90E0FC0142
:10058000E15FFC4F2491FC01E55BFC4F3491FC01E1
:10059000E95CFC4FE491EE23C9F0222339F02330CB
:1005A00001F1A8F4213019F1223029F1F0E0EE0F29
:1005B000FF1FED5DFC4FA591B4918FB7F894EC91BE
:1005C000611126C030953E233C938FBF089527309C
:1005D000A9F02830C9F0243049F7809180008F7D40
:1005E00003C0809180008F7780938000DFCF84B537
:1005F0008F7784BDDBCF84B58F7DFBCF8091B0003A
:100600008F778093B000D2CF8091B0008F7DF9CFEB
:100610003E2BDACF3FB7F8948091F0059091F10529
:10062000A091F205B091F30526B5A89B05C02F3F18
:1006300019F00196A11DB11D3FBFBA2FA92F982F08
:100640008827BC01CD01620F711D811D911D42E003
:10065000660F771F881F991F4A95D1F708958F92CB
:100660009F92AF92BF92CF92DF92EF92FF924B0197
:100670005C010E940A036B017C010E940A036C1951
:100680007D098E099F09683E734081059105A8F395
:1006900021E0821A9108A108B10888EEC80E83E013
:1006A000D81EE11CF11C81149104A104B10429F7A6
:1006B000FF90EF90DF90CF90BF90AF909F908F9082
:1006C00008952FB7F8946091EC057091ED05809135
:1006D000EE059091EF052FBF08950F931F93CF93D1
:1006E000DF930E94610300916B0710916C072091CA
:1006F0006D0730916E07601B710B820B930B653198
:1007000071058105910508F452C00E946103609350
:100710006B0770936C0780936D0790936E07C09181
:10072000690780916A07C13C20F0819580936A0730
:1007300002C0C032D0F380916A07C80FC093690726
:10074000D09168078D2F0E94DB01C11108C060E0C5
:100750008D2FDF91CF911F910F910C94BE02CF3F4F
:1007600011F461E0F5CFED2FF0E0E15FFC4FE49193
:10077000E33039F138F4E130B1F0E230E9F0C7FDAF
:10078000F0CFE5CFE73041F1E83071F1E430B9F76F
:1007900080918000806280938000D0E0D0938B00B5
:1007A000C0938A0004C084B5806884BDC7BDDF9152
:1007B000CF911F910F91089584B5806284BDC8BD0B
:1007C000F6CF80918000806880938000D0E0D09345
:1007D0008900C0938800EBCF8091B000806880933F
:1007E000B000C093B300E3CF8091B00080628093EB
:1007F000B000C093B400DBCF08950895AF92BF92CC
:10080000CF92DF92EF92FF920F931F93CF93DF93DC
:100810006C017B018B01040F151FEB015E01AE180B
:10082000BF08C017D10759F06991D601ED91FC912D
:100830000190F081E02DC6010995892B79F7C5015A
:10084000DF91CF911F910F91FF90EF90DF90CF90AC
:10085000BF90AF9008958093BB0084E88093BC0064
:1008600080E491E02091BC0027FD08950197D1F725
:100870008091F40584608093F405089594EA909340
:10088000BC0020E431E09091BC0097FF0CC0809345
:10089000BB0084E88093BC0080E491E02091BC0020
:1008A00027FF0AC008952150310969F78091F405A6
:1008B00081608093F4050895019781F78091F40594
:1008C0008260F7CF1F93CF93DF93EC01142F4F83F8
:1008D000688785E090E09D838C838FEF6623D9F055
:1008E00081E0860F0E943E0484E88093BC0080E48F
:1008F00091E02091BC0027FF03C08091BB0008C09D
:100900000197B9F78091F40580618093F40580E048
:1009100094E99093BC0090E08095909502C09595E5
:1009200087951A95E2F780FD0CC080E08E830E94C7
:100930006103688379838A839B83DF91CF911F91C1
:10094000089583E0F3CFEF92FF920F931F93CF931D
:10095000DF937C018B0188E70E943E0480E40E94C3
:100960002B04E7010E0D1F1DC017D10751F484E9B8
:100970008093BC00DF91CF911F910F91FF90EF907A
:10098000089589910E942B04EFCFEF92FF920F936D
:100990001F93CF93DF93182FE92E062F88E70E942D
:1009A0003E0480E00E942B04F12EC12FDE2D8991A0
:1009B0000E942B048C2F8F198017C8F384E9809331
:1009C000BC00DF91CF911F910F91FF90EF900895A0
:1009D000CF93DF9300D000D01F92CDB7DEB7E5E113
:1009E000F4E0808361836055698391E29A8392E0A9
:1009F000980F9F709B8390E0029624E095958795D1
:100A00002A95E1F7805F8C838FE78D8365E0CE01C7
:100A100001960E94C5040F900F900F900F900F90B9
:100A2000DF91CF910895813820F4683010F40C9450
:100A3000E80408950F931F93CF93DF93893009F44F
:100A40005CC0C82F8A30A0F5883009F43EC0809180
:100A500015048A3708F082C0C03208F47FC0C05243
:100A6000EFEDF2E0E491CE1708F07DC088E70E9438
:100A70003E0480E40E942B04F6E0CF9FE0011124A5
:100A800010E000E0C859DF4FFE01E00FF11F849134
:100A90000E942B040F5F1F4F06301105A9F784E950
:100AA0008093BC00809115048A5F8093150456C022
:100AB0008A3081F16091160480E0CD3041F6DF91FB
:100AC000CF911F910F910C941305809115048150C3
:100AD000982F990F890F60911604880F0E941305B3
:100AE00080E20E941A05809115048150982F990F79
:100AF000890F60911604880FE2CF809115046091F0
:100B000016048D3028F48C5F982F990F890FF3CF3E
:100B10008EE7D5CF60911604673000F56F5F909136
:100B20001504892F880FF2CF9F5F292F30E0220F05
:100B3000331FA90141525D4FFA0184918F3F71F03B
:100B4000F901E252FD4FE491E052FF0BEC17FD0773
:100B500059F7FA01C491CF3F09F088CFDF91CF91C7
:100B60001F910F91089590E0D0E0DFCF1F93CF93B6
:100B7000DF93182FEC019C2F911B8991882319F08A
:100B80000E941A05F8CF892F90E0DF91CF911F9135
:100B90000895CF92DF92EF92FF920F931F93CF931E
:100BA000DF93CDB7DEB7A1970FB6F894DEBF0FBEC7
:100BB000CDBF282F30E050E040E019A28E010F5D3C
:100BC0001F4F6B01770FEE08FF08CA01B901A7019B
:100BD00096010E942017605DF80162938F01211534
:100BE00031054105510521F0EC17FD0771F78E0124
:100BF000C8010E94B605A1960FB6F894DEBF0FBEDD
:100C0000CDBFDF91CF911F910F91FF90EF90DF90BB
:100C1000CF900895CF92DF92EF92FF920F931F93A0
:100C2000CF93DF93CDB7DEB7A1970FB6F894DEBFB1
:100C30000FBECDBF6B01BC0190E080E019A28E0118
:100C40000F5D1F4F0D2C000CEE08FF08A701960149
:100C50000E942017E62FCA01B901EA30F4F4E05DE2
:100C6000D801EE938D01232B242B252B21F0AC17DB
:100C7000BD0761F78E01C8010E94B605A1960FB6A7
:100C8000F894DEBF0FBECDBFDF91CF911F910F91C2
:100C9000FF90EF90DF90CF900895E95CE1CF90E076
:100CA00080E0089508952091F203260F3327331F23
:100CB00021323105ECF42091DB06FC0190E080E06C
:100CC000243069F082E00895A091F2032191AC01F3
:100CD0004E525C4FA40FB52FB11D2C930196861771
:100CE00098F38091F203680F6093F20380E0089517
:100CF00081E008951092DB0681E08093DA0610927D
:100D0000B50661E082E10E94BE0261E083E10E94DB
:100D1000BE02E9EBF0E080818E7F808380818D7F51
:100D2000808388E48093B80085E48093BC000895B4
:100D3000CF93DF9391E09093D1038823B9F0C091D2
:100D4000B800D091BA008091BC008A7B8093BC002F
:100D500060E082E10E94BE0260E083E10E94BE0288
:100D60000E947A06D093BA00C093B800DF91CF9169
:100D70000895CF92DF92EF92FF920F931F93CF933C
:100D8000DF93D091040781E0D13208F09CC0C0917C
:100D900003070E940A036B017C018091DB0681112D
:100DA0006CC082E08093DB0681E08093DA068FEFEF
:100DB0008093D9061092D806D093D706A3EEB6E05A
:100DC000E7EBF6E080E0D8138DC01092B606809174
:100DD000B606CC0FC82BC093B6068091B5068130FD
:100DE00009F084C01092B5060E940A036B017C01D1
:100DF0008091B6068093BB008091DD069091DE065F
:100E0000A091DF06B091E006892B8A2B8B2BA1F0F5
:100E10000E940A030091DD061091DE062091DF0694
:100E20003091E0066C197D098E099F090617170796
:100E30002807390708F442C08091BC0083FDD8CF51
:100E400085EC8093BC000E940A036B017C018091B9
:100E5000DB06823009F44CC08091D9068F3F09F43B
:100E600069C08091D906803209F466C08091D906A4
:100E7000803309F463C084E026C08091DD06909140
:100E8000DE06A091DF06B091E006892B8A2B8B2B22
:100E900009F483CF0E940A030091DD061091DE065B
:100EA0002091DF063091E0066C197D098E099F09BB
:100EB000061717072807390708F06FCF8091DC065F
:100EC0000E94980685E01092E206109204071092A4
:100ED000E106DF91CF911F910F91FF90EF90DF908E
:100EE000CF9008959D9191938F5F6DCF85EEA9CF9F
:100EF0008091DD069091DE06A091DF06B091E006BC
:100F0000892B8A2B8B2B09F4A2CF0E940A03009114
:100F1000DD061091DE062091DF063091E0066C19A7
:100F20007D098E099F09061717072807390708F05A
:100F30008ECFC4CF80E0C7CF82E0C5CF83E0C3CFE0
:100F4000CF92DF92EF92FF920F931F93CF93DF9395
:100F5000D82FC62F613208F098C00E940A036B0197
:100F60007C018091DB0681116BC081E08093DB0600
:100F70008093DA069FEF9093D9061092D8069C0FC3
:100F80009093D7068093B6068091B606DD0FD82BD6
:100F9000D093B6068091B506813009F078C01092E2
:100FA000B5060E940A036B017C018091B60680930E
:100FB000BB008091DD069091DE06A091DF06B09126
:100FC000E006892B8A2B8B2BA1F00E940A0300914B
:100FD000DD061091DE062091DF063091E0066C19E7
:100FE0007D098E099F09061717072807390708F496
:100FF00048C08091BC0083FDD8CF85EC8093BC00B5
:101000000E940A036B017C018091DB06813009F4A8
:1010100040C08091D8068C1710F4C091D806E7EB39
:10102000F6E0A3E9B6E080E08C1355C08C2FDF9189
:10103000CF911F910F91FF90EF90DF90CF90089587
:101040008091DD069091DE06A091DF06B091E0066A
:10105000892B8A2B8B2B09F484CF0E940A030091E1
:10106000DD061091DE062091DF063091E0066C1956
:101070007D098E099F09061717072807390708F009
:1010800070CF8091DC060E949806C0E0CFCF85EE3D
:10109000B5CF8091DD069091DE06A091DF06B0917C
:1010A000E006892B8A2B8B2B09F4AECF0E940A0312
:1010B0000091DD061091DE062091DF063091E006FA
:1010C0006C197D098E099F0906171707280739072C
:1010D00008F09ACFD6CF91919D938F5FA5CF0895B9
:1010E000E091B0058091AF05E81730F4F0E0ED56DF
:1010F000F94F808190E008958FEF9FEF08959091D0
:10110000B0058091AF052FEF3FEF981748F4E92F16
:10111000F0E0ED56F94F208130E09F5F9093B005ED
:10112000C90108958091AF059091B005891B990B75
:101130000895CF92DF92EF92FF920F931F93CF9378
:10114000DF937C01CB018A012091E106222389F003
:10115000EB016B01C40ED51ECC15DD0569F069915C
:10116000D701ED91FC910190F081E02DC701099527
:10117000F3CF642F0E945306C801DF91CF911F91D6
:101180000F91FF90EF90DF90CF900895CF93DF9372
:101190001F92CDB7DEB769832091E1062223F9F0D3
:1011A00020910407203258F021E030E0FC01338325
:1011B000228390E080E00F90DF91CF91089580919D
:1011C000E206E82FF0E0ED51F94F998190838F5FAF
:1011D0008093E2068093040781E090E0ECCF61E029
:1011E000CE0101960E945306F7CF6093B306709329
:1011F000B40691E09093E106809303071092E20613
:101200001092040785E097E00E94C6080C94B90686
:1012100090E080E008959C01DC01A058BF4FEC9164
:1012200091E09E0F9C93E20FF32FF11D608397FDD9
:101230001C920895823081F020F4813049F00C94A2
:101240001A05833061F08430D1F785E991E002C05E
:101250008AE791E00C94B60582E891E0FBCF8BE839
:1012600091E0F8CFCF93DF93EC01C11580E1D8076F
:1012700080F480E30E941A05CF3FD10509F048F4BD
:1012800080E30E941A05C031D10518F480E30E9462
:101290001A0560E170E0CE01DF91CF910C940A064F
:1012A000CF93DF93EC01C83E83E0D80778F480E366
:1012B0000E941A05C436D10548F480E30E941A053D
:1012C000CA30D10518F480E30E941A056AE070E084
:1012D000CE01DF91CF910C940A06CF93C82F6AE01C
:1012E00070E082958F700E94C9056AE070E08C2FD3
:1012F0008F70CF910C94C9051F93CF93DF93142F58
:10130000D091E605D60FC82FCC0FC80FCC0F6D2F8C
:101310008C2F0E941305115020F080E20E941A05C4
:10132000FACF6D2F8C2FDF91CF911F910C94130565
:101330009091E605690F982F990F890F880F0C94EB
:1013400013050C94B605CF93809100018F5F863012
:1013500041F180930001C091C504C87FE091000174
:1013600086E0E89FF0011124EE5FFE4F8081C82BDC
:10137000C093C50461E08CE00E949809E2E0F1E0CE
:1013800030E020E0C7708081C8130EC046E0429F65
:10139000C001439F900D11248D5F9E4FCF910C94FF
:1013A000A10910920001D7CF2F5F3F4F369626300C
:1013B000310549F780EA91E0F1CF8091E7059091FE
:1013C000E805E3EBF4E09C012F773327238B880FAC
:1013D000892F881F990B9195878B81E0848B0895C5
:1013E000EF92FF921F93CF93DF93CDB7DEB7C05834
:1013F000D1090FB6F894DEBF0FBECDBFCE01019666
:101400007C0180E8F70111928A95E9F710E0612FDD
:1014100080E00E94130560E870E0C7010E94A30409
:101420001F5F1830A1F760E080E00E94E804C05818
:10143000DF4F0FB6F894DEBF0FBECDBFDF91CF9167
:101440001F91FF90EF900895AF92BF92DF92EF92BD
:10145000FF920F931F93CF93DF93CDB7DEB7D82EB4
:10146000162FEDB6FEB6663120F588E0D81609F1E4
:101470006D2D80E00E941305012F000F010F000F5A
:1014800010E08DB79EB7801B910B0FB6F8949EBFEE
:101490000FBE8DBF01965C01A80170E060E00E9464
:1014A0005A17B801C5010E94A3046D2D80E00E9467
:1014B00013050FB6F894FEBE0FBEEDBE0FB6F8943E
:1014C000FEBE0FBEEDBEDF91CF911F910F91FF9039
:1014D000EF90DF90BF90AF900895CF93C1E065E1AA
:1014E0008C2F0E94240ACF5FC830C9F781E0809317
:1014F000E60560E080E00E94980985EA91E00E949C
:10150000B60562E081E00E94980987EB91E00E94B5
:10151000B6056AE070E08091B8050E94C90563E0F5
:1015200081E00E94980981EC91E00E94B6058091CB
:10153000BA0590E0982F88272091B905820F911D58
:101540000E94320964E081E00E9498098DEC91E0EC
:101550000E94B6058091BB050E941A0965E081E0F2
:101560000E94980987ED91E00E94B6058091BC0524
:101570000E941A0966E081E00E94980981EE91E0DC
:101580000E94B6058091C105853529F48BEE91E066
:10159000CF910C94B6058F3F19F485EF91E0F8CF09
:1015A000CF910C941A05CF92DF92EF92FF92CF93D6
:1015B000DF93D82F0E946103C090AE04D090AF0497
:1015C000E090B004F090B104C091B204AB01BC0152
:1015D0004C195D096E097F0928EE33E0C29FC001F6
:1015E000C39F900D1124092E000CAA0BBB0B84176E
:1015F0009507A607B70758F461E08C2F0E94980959
:1016000084E692E00E94A109CF5FC093B2040E94D9
:101610006103AB01BC014C195D096E097F0928EE1D
:1016200033E0D29FC001D39F900D1124092E000CEE
:10163000AA0BBB0B84179507A607B70778F465E1DB
:1016400080E00E94240A61E080E00E9498098EEF09
:1016500091E00E94A1090E946D03FDCFDF91CF911F
:10166000FF90EF90DF90CF900895CF93DF9380911C
:10167000B505882361F1C0910101CC2341F1D1E08E
:10168000D093E106C09303071092E206109204077C
:1016900067EF85E097E00E94C6080E94B906D093E4
:1016A000E1061092E2061092040761E08C2F0E947E
:1016B000A0071092B0058093AF0585E097E00E94E7
:1016C0007F08C82F0E94B90681E0C73E09F080E07C
:1016D000DF91CF91089585ED8093BC008091DD0668
:1016E0009091DE06A091DF06B091E0060796A11D5D
:1016F000B11D23E0B695A795979587952A95D1F7C3
:101700002091BC0024FD03C01092DB060895409197
:10171000DD065091DE066091DF067091E006452BF4
:10172000462B472B69F30097A105B10541F02AE24A
:101730002A95F1F700C00197A109B109E1CF809185
:10174000DC060C9498062F923F924F925F926F9214
:101750007F928F929F92AF92BF92CF92DF92EF9241
:10176000FF920F931F93CF93DF9300D000D0CDB79C
:10177000DEB79C838B837C0141E8E40EF11C6C0195
:1017800050E8C50ED11C8C010E571F4F8D579F4F2F
:101790002C018B819C818C579F4F4C0122242A94D1
:1017A000AB80BC8097E8A90EB11CEB81FC81EB57A4
:1017B000FF4FFA83E983F7018081F6019081891751
:1017C00009F4BAC0EB81FC81E80FF11D308037FECF
:1017D0006DC0F8019081891739F0F50120813181C0
:1017E0002F5F3F4F31832083F8018083F2012082F5
:1017F000832D8076F401803609F441C0832D8295D3
:1018000086708E5F8083F8012081F4018081820FD1
:101810009927991F813891059CF180E8682E621AFA
:10182000F894F6014081F8018081841708F044C0E3
:10183000F42FF81B8F2FF60180837894F8016081D4
:101840004617E8F5712C50E06B817C81CB01860D49
:10185000971D0E944817F80160814B815C81460FFB
:10186000511DBA01A3018B819C810E944817F70189
:101870008081F8019081891BF7018083F801108233
:10188000F70190819F5F9083F8018081392F381B89
:1018900097FF02C0F7011082F2012081F4019081CC
:1018A0009317A9F03226F201308285CFF4018081AE
:1018B0008111E6CF3082A7CF862D840FBCCF461B87
:1018C00050E08B819C81860F911DBC01CCCF3212E0
:1018D0002AC04B815C81480F511DCA01E981FA8100
:1018E000408151814F5F5F4F51834083F7013081C9
:1018F000F80130830097B1F20F900F900F900F9086
:10190000DF91CF911F910F91FF90EF90DF90CF90DB
:10191000BF90AF909F908F907F906F905F904F900F
:101920003F902F900895F5018081918101969183D8
:10193000808390E080E0DACF90E080E0DDCF1F93FD
:10194000CF93DF93182FD62FCBE4C627C82764EB9D
:101950008BE194E00E940B09612F8BE194E00E94DF
:101960000B096D2F8BE194E00E940B096C2F8BE12A
:1019700094E00E940B096FEF8BE194E00E940B0949
:101980008BE194E00E94A30B9093AB048093AA0494
:10199000009731F00E94FA01DF91CF911F910895D5
:1019A00080E0FACF9F92AF92BF92CF92DF92EF92F8
:1019B000FF920F931F93CF93DF93482F50E099E04E
:1019C000899FF0011124ED54FB4F01811581909105
:1019D000EA0591110AC0212F30E0220F232F221F88
:1019E000330B200F311D232B11F08C3178F060E088
:1019F0008AE3DF91CF911F910F91FF90EF90DF90DD
:101A0000CF90BF90AF909F900C949F0CD82F89E0FF
:101A1000849FF001859FF00D1124ED54FB4F9080C1
:101A2000A280B380C480D680E780F084C3E1CD2754
:101A3000C027C127C925CA25CB25CC25CD25CE2534
:101A4000CF2567EE8BE194E00E940B096EE08BE1FD
:101A500094E00E940B096D2F8BE194E00E940B092A
:101A6000692D8BE194E00E940B09602F8BE194E0DB
:101A70000E940B096A2D8BE194E00E940B096B2DEB
:101A80008BE194E00E940B0965E08BE194E00E94F9
:101A90000B096C2D8BE194E00E940B09612F8BE107
:101AA00094E00E940B096D2D8BE194E00E940B09DC
:101AB0006E2D8BE194E00E940B096F2D8BE194E079
:101AC0000E940B096C2F6F778BE194E00E940B0949
:101AD0006FEF8BE194E00E940B098BE194E00E9490
:101AE000A30B9093AB048093AA04009769F0DF9155
:101AF000CF911F910F91FF90EF90DF90CF90BF900B
:101B0000AF909F900C94FA01DF91CF911F910F91AC
:101B1000FF90EF90DF90CF90BF90AF909F9008958F
:101B2000FF920F931F93CF93DF9384E096E00E9480
:101B3000A30BFC019093AB048093AA04892B59F06A
:101B4000C181CC3140F480818B3B09F4AFC048F4B3
:101B50008A3B09F4ADC0DF91CF911F910F91FF90A7
:101B600008958F3B09F46FC08F3EA9F792819C3195
:101B700090F70381F4804581368120851185828527
:101B8000D385C48559E0959FF0011124ED54FB4F96
:101B90000083F18242833383248315838683D78332
:101BA000C0876FE78FE60E949F0C2C2F30E0322F0A
:101BB0002227C9018D0F911DEC019093AD048093F4
:101BC000AC048091EA058111C6CF40E160E00E943B
:101BD0007C0960E080E00E94980982E192E00E9426
:101BE000A1098F2D90E0112331F040E8149F90015E
:101BF0001124820F931F0E94500960E08CE00E9424
:101C00009809E2E0F1E030E020E0077080810813FD
:101C100077C046E0429FC001439F900D11248D5F25
:101C20009E4F0E94A10963E080E00E94980988E12C
:101C300092E00E94A109CE01DF91CF911F910F91F7
:101C4000FF900C9432094281A3EBB4E0FD0181E0E6
:101C50009285491303C09685C917D1F08F5F3996D5
:101C60008C31B1F781E090E0282F19963C911997BB
:101C70003073A9F439E0389FF001399FF00D112439
:101C8000ED54FB4F4183C583822F222309F463CF98
:101C9000DF91CF911F910F91FF900C94D20C019680
:101CA00019968C31910501F720E0EECF8C2FF0CF03
:101CB00082818C1322C0CC23F1F049E0C49FF00153
:101CC0001124ED54FB4F8081806380838C2F0E9410
:101CD000D20CE091AA04F091AB04828181113BCF38
:101CE00059E0C59FF0011124ED54FB4F80818F7E98
:101CF0008062808330CF82E0CBCFC111EACF2BCF7F
:101D00002F5F3F4F36962630310509F07FCF80EAAE
:101D100091E087CF1F920F920FB60F9211242F934D
:101D20003F938F939F93AF93BF938091EC059091D6
:101D3000ED05A091EE05B091EF053091EB0523E0A4
:101D4000230F2D3758F50196A11DB11D2093EB05EA
:101D50008093EC059093ED05A093EE05B093EF050D
:101D60008091F0059091F105A091F205B091F305F5
:101D70000196A11DB11D8093F0059093F105A093EC
:101D8000F205B093F305BF91AF919F918F913F9171
:101D90002F910F900FBE0F901F90189526E8230FDC
:101DA0000296A11DB11DD2CF1F920F920FB60F92B6
:101DB00011242F933F934F935F936F937F938F9350
:101DC0009F93AF93BF93EF93FF938091B900887F68
:101DD000803609F44AC0F0F5883209F4A7C018F536
:101DE000803109F49BC0B8F4882309F4F9C0883025
:101DF00009F494C0FF91EF91BF91AF919F918F91A2
:101E00007F916F915F914F913F912F910F900FBEF6
:101E10000F901F901895883109F488C0803251F7CF
:101E20008093D90614C0803409F49DC040F48033F7
:101E3000B9F38833F9F68093D90685ECB0C08035C4
:101E400009F485C0883509F496C0883499F60E9453
:101E50006B0BD0CF883909F48CC038F5883729F05E
:101E600050F4883611F0803729F683E08093DB0642
:101E70001092140457C0883809F47BC0803919F0D7
:101E8000803809F0B7CF80911404803208F071C017
:101E9000E091140481E08E0F809314048091BB00C4
:101EA000F0E0EC50FC4F80833DC0803B39F0E0F423
:101EB000803A09F479C0883A09F09CCF84E0809395
:101EC000DB061092F3031092F203E0911904F091F3
:101ED0001A0409958091F20381110FC081E080936B
:101EE000F2031092D20309C0803C09F4A6CF883CCB
:101EF00009F4A3CF883B09F07DCFE091F30381E0A3
:101F00008E0F8093F303F0E0EE52FC4F80818093BC
:101F1000BB009091F3038091F20329C08091B60633
:101F20008093BB0085EC8093BC0064CF9091D80671
:101F30008091D706981758F5E091D80681E08E0F6A
:101F40008093D806F0E0E954F94F8081E9CFE09121
:101F5000D80681E08E0F8093D8068091BB00F0E018
:101F6000E954F94F80839091D8068091D70698174D
:101F7000C8F285E8D8CFE091D80681E08E0F809333
:101F8000D8068091BB00F0E0E954F94F808380913E
:101F9000DA0681115CCF81E08093B50684EA8093F4
:101FA000BC001092DB0626CF85EC8093BC0010921B
:101FB000DB0680911404803230F4E0911404F0E0E8
:101FC000EC50FC4F10826091140470E0E091170413
:101FD000F091180484EF93E00995109214040ACF4D
:101FE0001092D90634CF1F920F920FB60F92112480
:101FF000CF92DF92EF92FF920F931F932F933F9315
:102000004F935F936F937F938F939F93AF93BF9300
:10201000CF93EF93FF93B19A8091FB059091FC05CC
:1020200080549C4F9093FC058093FB058091FB05A9
:102030009091FC0590938900809388008091D00353
:10204000882371F01092D003189B26C081E0809302
:102050000106B59A80916F00806280936F001CC06A
:10206000809100068F5F8093000680910106843086
:1020700009F043C080910006893030F58091F70562
:1020800090E0959587958093F705189B05C0809102
:10209000F70580688093F705FF91EF91CF91BF918D
:1020A000AF919F918F917F916F915F914F913F91F0
:1020B0002F911F910F91FF90EF90DF90CF900F9095
:1020C0000FBE0F901F901895B59A80916F00806297
:1020D00080936F008091F5059091F605189929C0BD
:1020E000FC01E957FF4F80819181019691838083A4
:1020F0001092000681E080930106809101068330F2
:10210000E9F5E091FE05F091FF0580812091FD0544
:1021100033B190E0022E02C0959587950A94E2F7BC
:10212000832780FD11C01092000682E08093010693
:1021300025C06091F7050E940B0980E090E0892B93
:10214000B9F20E940000D4CF80910006893008F0D7
:1021500043C03091F70581E090E001C0880F2A95D7
:10216000EAF7908130FF36C0809589238083809183
:10217000F70590E0959587958093F7058091010686
:10218000823099F480910006811196C0E091FE059D
:10219000F091FF0580819091FD0521E030E001C0C4
:1021A000220F9A95EAF7822B808380910106813075
:1021B00009F072CF80910006882309F44ACF8091FC
:1021C0000006883308F468CF1092010680916F00F2
:1021D0008D7F43CF892BCACF80910006893059F477
:1021E000308181E090E001C0880F2A95EAF7809560
:1021F00083238083C3CF809102068F5F8093020682
:1022000090910306891750F5109200068091F90508
:102210009091FA05A0910206A80FB92FB11D8C91DB
:102220008093F705808141E050E001C0440F2A957A
:10223000EAF7842B808380918400909185008A5AEC
:102240009C4F9093FC058093FB058091FB0590913A
:10225000FC05909389008093880090CF81E0809363
:10226000F805E090F905F090FA05C090F505D090DA
:10227000F605F70180818076803679F4C18110E01F
:1022800000E00C1778F4F701E00FF11F6081C60140
:102290000E940B090F5F1F4FF4CFC081C295C6701B
:1022A000CE5FEDCF80E090E0892B11F00E9400001E
:1022B0001092000681E03ACF809100068F3008F43A
:1022C00074CFE091FE05F091FF0520813091FD056E
:1022D00081E090E001C0880F3A95EAF7809582236B
:1022E00080831092000681E080930106E091F5055D
:1022F000F091F605E357FF4F80819181019691831C
:10230000808353CF1F920F920FB60F9211248F9399
:102310009F93EF93FF93B59AEFE6F0E080818F7D76
:102320008083809186009091870080529E4F909389
:10233000FC058093FB058091FB059091FC05909333
:10234000890080938800B19A80818260808384E0D4
:10235000809301061092000681E08093D003FF91E4
:10236000EF919F918F910F900FBE0F901F90189536
:10237000CF93DF93E5E0F7E01382128288EE93E0DB
:10238000A0E0B0E084839583A683B78380E691E0E4
:1023900091838083C8E6D7E086E0888380E88983DC
:1023A00088E08A831B821C821D821E8286E00E9436
:1023B000DB010E9461036B837C838D839E8380910C
:1023C000010190E09093120780931107E3E1F7E099
:1023D0001382128282E791E09183808314821582B6
:1023E000168217828AE090E0918780871286138692
:1023F0001486158616861786108A928B818B138A0F
:10240000148A158A168A178A108E118E938F828FDE
:10241000148E158E168E178E10A211A212A294A3DE
:1024200083A315A216A217A210A611A612A613A680
:1024300095A784A716A617A610AA11AA12AA13AACE
:1024400014AA96AB85AB17AA10AE11AE12AE13AE9E
:1024500014AE15AE97AF86AF109253071092540783
:10246000109255071092560710925707109258076E
:102470001092590790935B0780935A0710925C075C
:1024800010925D0710925E0710925F07109260072E
:102490001092610710926407109265071092660708
:1024A000109267071092620710926307DF91CF9135
:1024B0000895CF93DF93CDB7DEB76C970FB6F8943E
:1024C000DEBF0FBECDBF789484B5826084BD84B575
:1024D000816084BD85B5826085BD85B5816085BD1F
:1024E00080916E00816080936E00109281008091D7
:1024F000810082608093810080918100816080935F
:102500008100809180008160809380008091B10083
:1025100084608093B1008091B00081608093B000AE
:1025200080917A00846080937A0080917A00826042
:1025300080937A0080917A00816080937A00809104
:102540007A00806880937A001092C100E3EBF4E097
:102550008FEA95E0108239968E179F07D9F783E3AB
:102560008093C504E4E0F6E08FE8DF011D928A95D0
:10257000E9F787E00E94DB01E2E5F3E02491EEE376
:10258000F3E0E491F0E0EE0FFF1FED5DFC4F4591AD
:10259000549180E091E031E0291741F08F5F932F53
:1025A000082E01C0990F0A94EAF7F6CF5093FF0561
:1025B0004093FE058093FD0584E096E09093F60538
:1025C0008093F5052098E091FE05F091FF052081AC
:1025D0003091FD0581E090E001C0880F3A95EAF75F
:1025E0008095822380831092800011E010938100F7
:1025F00010920106B59A80916F00806280936F00FF
:1026000080918100887F8160809381001092B00565
:102610001092AF051092E206109204070E947A060B
:102620008CEF93E090931A04809319048DEF93E05C
:10263000909318048093170489E380930101109309
:10264000E106809303070E94B906811107C08091BB
:10265000B505882309F4E5C081E010C081E28093CC
:1026600001011093E106809303071092E206109295
:1026700004070E94B906882351F380E08093B505D2
:102680001092B90088E48093B80084E08093BC0085
:10269000E4EFF2E0DE0111969E01245E3F4FCD0192
:1026A00044914D9331962A173B07D1F72FEA2C8F8F
:1026B0006CE10E94C5040E94F00980915F078823A5
:1026C00009F450C01092B90098E49093B80094E0D7
:1026D0009093BC000E943E048FEF0E942B0484E97B
:1026E0008093BC0050E040E060915F0787E197E095
:1026F0000E94620441E050E060915F0780E297E051
:102700000E94620442E050E060915F0789E297E036
:102710000E94620443E050E060915F0782E397E02B
:102720000E94620444E050E060915F078BE397E011
:102730000E94620445E050E060915F0784E497E006
:102740000E94620446E050E060915F078DE497E0EC
:102750000E94620447E050E060915F0786E597E0E1
:102760000E9462040E94F00961E080E00E949809E2
:1027700087E292E00E94B60562E081E00E9498093B
:102780008DE392E00E94B6058CEF0E941A0583E467
:1027900092E00E94B60584E08093E60561E080E067
:1027A0000E9498090E94350B882309F44CC160ED02
:1027B00077E080E090E00E942F030E94350B882391
:1027C00009F441C160E080E00E94980980E592E050
:1027D0000E94A10981E08093EA05E6EBF5E086EE30
:1027E00095E011928E179F07E1F781E08093B20484
:1027F0000E9461036093AE047093AF048093B004B1
:102800009093B1040091AC041091AD040115110531
:10281000C1F40E946D030E94900D8FE00E94D30AC4
:10282000F1CF8091010190E09093120780931107FE
:102830006FEF70E00E94F5081092B4051092B30596
:102840000BCF64E670E080E090E00E942F03E12E61
:10285000FF24AE2C902EABE0BA2EB026BE24B6E2FA
:10286000CB2EB1E0DB2E11270E946D03F601719093
:102870006F01FFE2F71508F4E4C0872C8B2465EEA6
:102880008BE194E00E940B0960E18BE194E00E94EF
:102890000B0961E08BE194E00E940B0962E08BE19F
:1028A00094E00E940B0962E08BE194E00E940B0926
:1028B00060E18BE194E00E940B09692D8BE194E0CB
:1028C0000E940B096A2D8BE194E00E940B09672D91
:1028D0008BE194E00E940B0960E08BE194E00E94A0
:1028E0000B0960E18BE194E00E940B0960E08BE151
:1028F00094E00E940B0960E08BE194E00E940B09D8
:1029000060E08BE194E00E940B0960E08BE194E0D1
:102910000E940B09682D6F778BE194E00E940B09F0
:102920006FEF8BE194E00E940B098BE194E00E9431
:10293000A30B9093AB048093AA04009711F00E941C
:10294000FA0181E08093B2040E9461036093AE04B7
:102950007093AF048093B0049093B10484E096E048
:102960000E94A30B9093AB048093AA04009709F4F0
:1029700064C0DC018C918A3B21F460E08AE30E9410
:102980009F0CA091AA04B091AB048C91853E09F0F4
:1029900054C011968C911197803109F04EC0149655
:1029A0008C911497823009F048C015968C91159738
:1029B00090E09C0156E0220F331F5A95E1F72078F2
:1029C000332717964C9117974F77242BBC01769598
:1029D000762F662777956795772716964C911697E9
:1029E0004F77460F572F511D0417150731F5E21683
:1029F000F30619F513962C9113972234F1F445E060
:102A0000880F991F4A95E1F780781896EC911897EE
:102A1000EF77E82B1A969C911A97F0E89F9F900108
:102A200011241B969C919F77920FE03308F01CCFE6
:102A3000F0E0EA54FA4F908317CF85E00E94D30A62
:102A40008DCF0E946D0A8091EA05811109C086E64A
:102A500092E00E94A10981E0809300010E94A309F5
:102A600095E0E92E2AE0D22E30E0632E30E0732E7E
:102A70000E946D030E94900D8091B505811122C0C6
:102A800020E080E020FD9AC026FD9AC027FF9AC072
:102A90009091EA0591119EC0833609F095C010927D
:102AA000E9051092E8051092E7050E94DD0947E06C
:102AB00061E085E00E947C0961147104C9F20E9402
:102AC0000000D6CFA090B305B090B405F0901107E8
:102AD000C0901207F501EE0FFF1FEC5AFE4F608108
:102AE00071818F2D9C2D0E94F5080CE411E0912C32
:102AF000812C61E08F2D0E94A0071092B005809379
:102B0000AF0585E097E00E947F08D8014D915D9167
:102B10008D012091B3063091B40682279327841744
:102B2000950791F4EA9CF001EB9CF00D1124E85C10
:102B3000FE4FE80DF91D8081082E000C990B909333
:102B4000B2058093B1059CCFBFEF8B1A9B0AE4E0DE
:102B50008E16910471F68091B1059091B20500979F
:102B600091F01092B2051092B105882309F488CF34
:102B7000833201F18A3201F1805320E88A3008F46F
:102B800081CF20E87ECF6FEF70E08F2D9C2D0E94CB
:102B9000F508FFEFAF1ABF0A84E0A816B10429F0C8
:102BA000B092B405A092B3056BCF1092B405109209
:102BB000B30566CF21E065CF20E463CF82E668CF1E
:102BC00083E666CF82E464CF823609F00AC10E94B0
:102BD000A30972CF813019F40E946D0A6DCF823043
:102BE00009F082C011E065E1812F0E94240A1F5F75
:102BF0001830C9F781E08093E60560E080E00E942C
:102C000098098CE692E00E94B60562E081E00E949D
:102C100098098EE792E00E94B605C090C20562E076
:102C200070E08C2D0E94C90563E081E00E94980944
:102C30008091B805863180F58C2D8370823031F11A
:102C4000833039F18130F9F088E892E00E94B605CE
:102C500014E0612F81E00E94980986E293E0C6FCAF
:102C600002C088E393E00E94B60561E0610F81E055
:102C70000E94980989E493E0C7FC02C08DE593E0C7
:102C80000E94B60519CF89E992E0E0CF87EA92E089
:102C9000DDCF8CEB92E0DACFEC2DEF70F0E0ED5A67
:102CA000F94E0C94421724166316661666166916BA
:102CB00072166C16721672167216721672167216DA
:102CC00072166F16241689EC92E0C0CF8DED92E05B
:102CD000BDCF80EF92E0BACF8DEF92E0B7CF80E129
:102CE00093E0B4CF13E0B5CF833009F0E5CEFF24F5
:102CF000F39465E18F2D0E94240AF394A8E0FA1260
:102D0000F8CF81E08093E60560E080E00E949809BA
:102D10008DE693E00E94B60562E081E00E9498098A
:102D20008FE793E00E94B6056AE070E08091C305EA
:102D30000E94C9058EE20E941A056AE070E0809147
:102D4000C4050E94C90563E081E00E94980989E8F2
:102D500093E00E94B6058091C5050E946D098EE240
:102D60000E941A058091C6050E946D098EE20E949C
:102D70001A058091C7050E946D0964E081E00E94F8
:102D8000980983E993E00E94B6058091E1058F3FA1
:102D9000A1F48DE993E00E94B60565E081E00E9410
:102DA000980984EB93E00E94B605F090E205BFEF2E
:102DB000FB120DC08EEB93E063CF811103C088EA54
:102DC00093E0E9CF6AE070E00E94C905E6CF87ECA6
:102DD00093E00E94B6056AE070E08F2D0E94C9055D
:102DE0006BCE823409F468CE2091E90590E022236D
:102DF00071F0243080F46091E7057091E805D69E6B
:102E0000A001D79E500D1124840F952F911D9093F2
:102E1000E8058093E7052F5F2093E90544E061E032
:102E200085E00E947C0961E085E00E94980980911C
:102E3000E7059091E8050E9450090E94DD093CCE0B
:102E4000A1E21A2EAA1BBB1BFD010DC0AA1FBB1FAE
:102E5000EE1FFF1FA217B307E407F50720F0A21B20
:102E6000B30BE40BF50B661F771F881F991F1A948D
:102E700069F760957095809590959B01AC01BD01B7
:102E8000CF010895EE0FFF1F0590F491E02D0994F6
:102E90006817790768F4FB01DC01E40FF51FA40F44
:102EA000B51F02C002900E9241505040D8F70895CD
:102EB0000C946117DC0101C06D9341505040E0F764
:102EC0000895FB01DC0102C001900D924150504079
:082ED000D8F70895F894FFCF34
:102ED80001390731323841000432384120000331CA
:102EE80032382000003238202000023134202000FF
:102EF800014D2A2A2000020304050608090A0B0CC2
:102F08000D0E0F10112B2CFF3132334100343536A2
:102F1800420037383943002A30234400100020008B
:102F280040008000FE00FD00FB00F70000000000EC
:102F3800C608990808096F0892087F0870080000F9
:102F480000004F06FE030809520641546D6567618B
:102F5800380041546D65676138380041546D6567C4
:102F6800613136380041546D65676133323850003D
:102F78003F2020200046524544492D5356202D20FD
:102F880050617274203100535620322020203A209C
:102F980000535620332C20343A20307800535620E2
:102FA800352020203A2000535620362020203A2071
:102FB80000535631312020203A20006F706572612D
:102FC80074696E670073656C667465737400436F2B
:102FD8006D6D756E69636174696F6E206572726F6D
:102FE8007200416C743A20005468726F74746C6596
:102FF80049443A203078004652414E5A20322E3108
:103008002028616B612044495350412900286329D5
:103018004B72006D656C736F66742032303233000A
:103028004469737061746368204652454449206E50
:103038006F772E2E2E004E65753A20004652454475
:10304800492D5356202D205061727420320053565A
:1030580031322020203A2000756E6B6E6F776E201B
:10306800486172647761726500496E63722E2D45FE
:103078006E636F64657200496E63722E2D456E63D0
:103088006F6465722053776974636800416E616C80
:103098006F672E2D506F746900496E63722E2D452F
:1030A8006E636F6465722046312D463400416E614F
:1030B8006C6F672E2D506F74692046312D46340091
:1030C8004D61747269782D4652454449004D6174CA
:1030D8007269782D4652454449202853574429009F
:1030E800465245444920772E204252414B452D42B5
:1030F8007574746F6E0054776F2053686966742016
:10310800627574746F6E73004F6E652053686966DC
:103118007420627574746F6E00466F72772D4F66F7
:10312800662D5265762D53776974636800466F7211
:10313800772D5265762D537769746368004652453A
:1031480044492D5356202D2050617274203300536A
:103158005631332C31343A2000535631352D31371E
:103168003A2000535634332020203A20006E6F2036
:103178004F50435F494D4D004F50435F494D4D20DF
:1031880061637400535634342020203A20006E6F57
:10319800204252414B45004252414B453A2046009D
:00000001FF
