:100000000C94B1010C94D9010C94D9010C94D90130
:100010000C94D9010C94D9010C94D9010C94D901F8
:100020000C94D9010C94D9010C94BF0C0C94300B96
:100030000C94D9010C94D9010C94D9010C94D901D8
:100040000C94C7090C94D9010C94D9010C94D901D2
:100050000C94D9010C94D9010C94D9010C94D901B8
:100060000C94110A0C94D90100000000000000005B
:10007000002F000000000700070000147F147F1409
:1000800000242A7F2A12006264081323003649558F
:10009000225000000503000000001C224100000067
:1000A00041221C000014083E08140008083E0808FD
:1000B000000000A060000008080808080000606058
:1000C0000000002010080402003E5149453E000097
:1000D000427F4000004261514946002141454B3179
:1000E000001814127F10002745454539003C4A4945
:1000F00049300001710905030036494949360006B7
:100100004949291E0000363600000000563600001E
:100110000008142241000014141414140000412299
:10012000140800020151090600324959513E007C71
:100130001211127C007F49494936003E414141225B
:10014000007F4141221C007F49494941007F090944
:100150000901003E4149497A007F0808087F0000F4
:10016000417F4100002040413F01007F08142241AF
:10017000007F40404040007F020C027F007F040867
:10018000107F003E4141413E007F09090906003EC3
:100190004151215E007F09192946004649494931EC
:1001A0000001017F0101003F4040403F001F20400F
:1001B000201F003F4038403F0063140814630007CD
:1001C0000870080700615149454300007F41410024
:1001D00000552A552A55000041417F0000040201C4
:1001E00002040040404040400000010204000020A2
:1001F00054545478007F48444438003844444420E0
:1002000000384444487F00385454541800087E098C
:1002100001020018A4A4A47C007F08040478000054
:10022000447D4000004080847D00007F1028440011
:100230000000417F4000007C04180478007C080422
:10024000047800384444443800FC2424241800185E
:10025000242418FC007C080404080048545454204A
:1002600000043F444020003C4040207C001C2040D3
:10027000201C003C4030403C004428102844001C16
:10028000A0A0A07C004464544C44000008774100C6
:100290000000006300000000417708000008040827
:1002A0000804003A4040207A003D4040403D002193
:1002B00054545479007D1211127D0039444444395C
:1002C000003D4242423D000205020000007E01491D
:1002D0005573007C1010081C000101010101FC5F36
:1002E000DC60E461C462F663D664B065DF66B5675E
:1002F000AF68FFFFAE2000B0C8001040813FA1A64C
:10030000A83FA4D301D5F0D922DA12DB208D140046
:1003100000000800020100000304070000000000C4
:1003200000000000000000250028002B0000000055
:1003300000240027002A0004040404040404040226
:100340000202020202030303030303010204081072
:10035000204080010204081020010204081020003F
:10036000F50C11241FBECFEFD8E0DEBFCDBF11E0EA
:10037000A0E0B1E0EAE9F5E202C005900D92A03BF1
:10038000B107D9F725E0A0EBB1E001C01D92A7317C
:10039000B207E1F711E0C1EBD1E004C02197FE0103
:1003A0000E94AA12C03BD107C9F70E949E0D0C946F
:1003B000CB120C94000090E0FC01E55BFC4F249113
:1003C000895C9C4FFC018491882399F090E0880F10
:1003D000991FFC01E35DFC4FA591B491FC01ED5D1B
:1003E000FC4F859194918FB7F894EC91E22BEC93AC
:1003F0008FBF0895CF93DF93FC0129E18EE241E0A6
:1004000050E033E071E0908190769036D1F49181A4
:100410009093C703A091C703A1501092C6039FEF0A
:100420006091C6036A1790F4C091C603CE0FDF2F08
:10043000D11D688196276091C6036F5F6093C603E4
:10044000EFCF9081929596709E5FE2CFAE0FBF2F57
:10045000B11D9C93F8949091C503913059F49091FB
:10046000C403981738F01092C50390916F009D7FD8
:1004700090936F0078949091C503913039F49091E6
:10048000C403943108F4BFCF70E0BDCF9091C50391
:1004900091110EC0F89490916F009F7D90936F0022
:1004A000B59B09C090916F00906290936F00789413
:1004B0007111A9CF51C0A091C203B091C3039C9107
:1004C0006091C103EA0102C0CC0FDD1F6A95E2F71B
:1004D0009C2B9C9360918400709185006A5A7C4F9C
:1004E0007093C0036093BF036091BF037091C0031A
:1004F00070938900609388007894F093BE03E09332
:10050000BD031092C6031092BC0390819093BB036D
:100510003093C5031092C403B19A90916F0092601A
:1005200090936F009091C5039330E1F39091BC03D9
:10053000992381F0E091B903F091BA03E757FF4F97
:100540008081918101969183808383E090E0DF91A7
:10055000CF9108959091C5038B3108F081502150BF
:1005600009F050CF809153049091540401969093D8
:1005700054048093530486E090E0E9CF90E0FC01BE
:10058000E15FFC4F2491FC01E55BFC4F3491FC01E1
:10059000E95CFC4FE491EE23C9F0222339F02330CB
:1005A00001F1A8F4213019F1223029F1F0E0EE0F29
:1005B000FF1FED5DFC4FA591B4918FB7F894EC91BE
:1005C000611126C030953E233C938FBF089527309C
:1005D000A9F02830C9F0243049F7809180008F7D40
:1005E00003C0809180008F7780938000DFCF84B537
:1005F0008F7784BDDBCF84B58F7DFBCF8091B0003A
:100600008F778093B000D2CF8091B0008F7DF9CFEB
:100610003E2BDACF3FB7F8948091B4039091B503A5
:10062000A091B603B091B70326B5A89B05C02F3F94
:1006300019F00196A11DB11D3FBFBA2FA92F982F08
:100640008827BC01CD01620F711D811D911D42E003
:10065000660F771F881F991F4A95D1F7089508954F
:100660000895AF92BF92CF92DF92EF92FF920F93D5
:100670001F93CF93DF936C017B018B01040F151F38
:10068000EB015E01AE18BF08C017D10759F06991A0
:10069000D601ED91FC910190F081E02DC601099504
:1006A000892B79F7C501DF91CF911F910F91FF90B1
:1006B000EF90DF90CF90BF90AF9008958093BB00F4
:1006C00084E88093BC0080E491E02091BC0027FD89
:1006D00008950197D1F78091B80384608093B8039F
:1006E000089594EA9093BC0020E431E09091BC001E
:1006F00097FF0CC08093BB0084E88093BC0080E42B
:1007000091E02091BC0027FF0AC0089521503109D3
:1007100069F78091B80381608093B80308950197C9
:1007200081F78091B8038260F7CF1F93CF93DF9357
:10073000EC01142F4F83688785E090E09D838C83C4
:100740008FEF6623D9F081E0860F0E94710384E861
:100750008093BC0080E491E02091BC0027FF03C09F
:100760008091BB0008C00197B9F78091B803806100
:100770008093B80380E094E99093BC0090E080956A
:10078000909502C0959587951A95E2F780FD15C062
:1007900080E08E832FB7F8948091B7049091B804CD
:1007A000A091B904B091BA042FBF88839983AA831A
:1007B000BB83DF91CF911F91089583E0EACFEF9241
:1007C000FF920F931F93CF93DF93182FE92E062FDD
:1007D00088E70E94710380E00E945E03F12EC12F22
:1007E000DE2D89910E945E038C2F8F198017C8F32C
:1007F00084E98093BC00DF91CF911F910F91FF900E
:10080000EF900895CF93DF9300D000D01F92CDB723
:10081000DEB7E5EFF1E0808361836055698391E2A3
:100820009A8392E0980F9F709B8390E0029624E059
:10083000959587952A95E1F7805F8C838FE78D8367
:1008400065E0CE0101960E94DF030F900F900F909C
:100850000F900F90DF91CF910895813820F4683088
:1008600010F40C94020408950F931F93CF93DF9319
:10087000893009F45CC0C82F8A30A0F5883009F4AB
:100880003EC08091F5018A3708F082C0C03208F47A
:100890007FC0C052EFEDF2E0E491CE1708F07DC0CA
:1008A00088E70E94710380E40E945E03F6E0CF9F18
:1008B000E001112410E000E0C859DF4FFE01E00F15
:1008C000F11F84910E945E030F5F1F4F06301105D8
:1008D000A9F784E98093BC008091F5018A5F809339
:1008E000F50156C08A3081F16091F60180E0CD308B
:1008F00041F6DF91CF911F910F910C942D048091BF
:10090000F5018150982F990F890F6091F601880F9A
:100910000E942D0480E20E9434048091F5018150F0
:10092000982F990F890F6091F601880FE2CF80917F
:10093000F5016091F6018D3028F48C5F982F990FA6
:10094000890FF3CF8EE7D5CF6091F601673000F5C0
:100950006F5F9091F501892F880FF2CF9F5F292F4C
:1009600030E0220F331FA90141525D4FFA018491FB
:100970008F3F71F0F901E252FD4FE491E052FF0B1D
:10098000EC17FD0759F7FA01C491CF3F09F088CF62
:10099000DF91CF911F910F91089590E0D0E0DFCFCC
:1009A000CF92DF92EF92FF920F931F93CF93DF933B
:1009B000CDB7DEB7A1970FB6F894DEBF0FBECDBF9F
:1009C0006B01BC0190E080E019A28E010F5D1F4F0A
:1009D0000D2C000CEE08FF08A70196010E9488125A
:1009E000E62FCA01B901EA30A4F4E05DD801EE9324
:1009F0008D01232B242B252B71F4D02E78019E2DD5
:100A00009D19F70181917F01882351F00E943404E0
:100A1000F6CFE95CEBCFAC17BD07F1F68E01EDCF59
:100A2000892F90E0A1960FB6F894DEBF0FBECDBF20
:100A3000DF91CF911F910F91FF90EF90DF90CF90BA
:100A4000089590E080E0089508952091D201260F46
:100A50003327331F21323105ECF420917F04FC0150
:100A600090E080E0243069F082E00895A091D20106
:100A70002191AC014E545E4FA40FB52FB11D2C93A4
:100A80000196861798F38091D201680F6093D20186
:100A900080E0089581E0089510927F0481E08093C2
:100AA0007E041092590461E082E10E94BE0261E07E
:100AB00083E10E94BE02E9EBF0E080818E7F8083BB
:100AC00080818D7F808388E48093B80085E4809363
:100AD000BC000895CF93DF9391E09093B1018823F8
:100AE000B9F0C091B800D091BA008091BC008A7B67
:100AF0008093BC0060E082E10E94BE0260E083E17E
:100B00000E94BE020E944C05D093BA00C093B80068
:100B1000DF91CF9108958F929F92AF92BF92CF9223
:100B2000DF92EF92FF920F931F93CF93DF93D091B9
:100B3000A804D13208F0D7C0182FC091A7040E9492
:100B40000A036B017C0180917F0481116BC082E0FC
:100B500080937F0410937E048FEF80937D04109226
:100B60007C04D0937B04A7E8B4E0EBE5F4E080E0FC
:100B7000D81391C010925A0480915A04CC0FC82BFC
:100B8000C0935A0480915904813009F088C01092B2
:100B900059040E940A036B017C0180915A048093DE
:100BA000BB008091810490918204A0918304B09154
:100BB0008404892B8A2B8B2BA1F00E940A030091BD
:100BC00081041091820420918304309184046C1973
:100BD0007D098E099F09061717072807390708F4AA
:100BE00042C08091BC0083FDD8CF85EC8093BC00CF
:100BF0000E940A036B017C0180917F04823009F41A
:100C000050C080917D048F3F09F46FC080917D04B6
:100C1000803209F46CC080917D04803309F469C08E
:100C200084E026C08091810490918204A091830485
:100C3000B0918404892B8A2B8B2B09F484CF0E94DA
:100C40000A038090810490908204A0908304B09065
:100C500084046C197D098E099F0986169706A806DB
:100C6000B90608F070CF809180040E946A0585E083
:100C7000109286041092A80410928504DF91CF91FF
:100C80001F910F91FF90EF90DF90CF90BF90AF90AA
:100C90009F908F9008959D9191938F5F69CF85EE7E
:100CA000A5CF8091810490918204A0918304B0919A
:100CB0008404892B8A2B8B2B09F49ECF0E940A0374
:100CC0000091810410918204209183043091840466
:100CD0006C197D098E099F09061717072807390720
:100CE00008F08ACFC0CF81E0C3CF80E0C1CF82E0DF
:100CF000BFCF83E0BDCF0895E0918E0280918D0239
:100D0000E81730F4F0E0E157FD4F808190E008955E
:100D10008FEF9FEF089590918E0280918D022FEFBB
:100D20003FEF981748F4E92FF0E0E157FD4F20819D
:100D300030E09F5F90938E02C901089580918D02EB
:100D400090918E02891B990B0895CF92DF92EF92BA
:100D5000FF920F931F93CF93DF937C01CB018A0106
:100D600020918504222389F0EB016B01C40ED51E6E
:100D7000CC15DD0569F06991D701ED91FC910190E9
:100D8000F081E02DC7010995F3CF642F0E9425055E
:100D9000C801DF91CF911F910F91FF90EF90DF90ED
:100DA000CF900895CF93DF931F92CDB7DEB76983BD
:100DB000209185042223F9F02091A804203258F0D4
:100DC00021E030E0FC013383228390E080E00F904B
:100DD000DF91CF91089580918604E82FF0E0E957E4
:100DE000FB4F998190838F5F809386048093A80442
:100DF00081E090E0ECCF61E0CE0101960E942505F4
:100E0000F7CF609357047093580491E09093850452
:100E10008093A704109286041092A80489EA94E0B3
:100E20000E94D20681E00C948B0590E080E008954A
:100E30009C01DC01A058BF4FEC9191E09E0F9C9368
:100E4000E20FF32FF11D608397FD1C920895CF935D
:100E5000DF93EC01C83E83E0D80778F480E30E947A
:100E60003404C436D10548F480E30E943404CA3007
:100E7000D10518F480E30E9434046AE070E0CE01EA
:100E8000DF91CF910C94D0041F93CF93DF93142F55
:100E9000D091FB01D60FC82FCC0FC80FCC0F6D2FF0
:100EA0008C2F0E942D04115020F080E20E94340407
:100EB000FACF6D2F8C2FDF91CF911F910C942D04C1
:100EC0009091FB01690F982F990F890F880F0C944F
:100ED0002D04CF93DF93EC018991882319F00E94B0
:100EE0003404FACFDF91CF910895CF938091000120
:100EF0008F5F863041F180930001C091C602C87FA8
:100F0000E091000186E0E89FF0011124EF5FFE4FC1
:100F10008081C82BC093C60261E08CE00E9460070C
:100F2000E1E0F1E030E020E0C7708081C8130EC03E
:100F300046E0429FC001439F900D11248E5F9E4F5B
:100F4000CF910C94690710920001D7CF2F5F3F4FCC
:100F500036962630310549F787E691E0F1CFAF921A
:100F6000BF92CF92DF92EF92FF920F931F93CF9396
:100F7000DF93CDB7DEB7C058D1090FB6F894DEBF06
:100F80000FBECDBFCE0101966C0180E8F601119233
:100F90008A95E9F710E05E01F1E8AF0EB11C04E9B3
:100FA000612F80E00E94020488E70E94710380E4C0
:100FB0000E945E037601F70181917F010E945E032A
:100FC000EA14FB04C1F70093BC001F5F183041F71F
:100FD00060E080E00E940204C058DF4F0FB6F89432
:100FE000DEBF0FBECDBFDF91CF911F910F91FF905C
:100FF000EF90DF90CF90BF90AF90089585ED8093F4
:10100000BC008091810490918204A0918304B091EE
:1010100084040796A11DB11D23E0B695A795979569
:1010200087952A95D1F72091BC0024FD03C010922A
:101030007F0408954091810450918204609183045B
:1010400070918404452B462B472B69F30097A1052B
:10105000B10541F02AE22A95F1F700C00197A109F4
:10106000B109E1CF809180040C946A052F923F92E0
:101070004F925F926F927F928F929F92AF92BF92A8
:10108000CF92DF92EF92FF920F931F93CF93DF9354
:1010900000D000D0CDB7DEB79C838B837C0141E8C4
:1010A000E40EF11C6C0150E8C50ED11C8C010E57EA
:1010B0001F4F8D579F4F2C018B819C818C579F4FC9
:1010C0004C0122242A94AB80BC8097E8A90EB11C65
:1010D000EB81FC81EB57FF4FFA83E983F7018081B5
:1010E000F6019081891709F4BAC0EB81FC81E80F01
:1010F000F11D308037FE6DC0F8019081891739F0FD
:10110000F501208131812F5F3F4F31832083F8012A
:101110008083F2012082832D8076F401803609F4E9
:1011200041C0832D829586708E5F8083F801208177
:10113000F4018081820F9927991F813891059CF1D4
:1011400080E8682E621AF894F6014081F8018081E7
:10115000841708F044C0F42FF81B8F2FF60180830A
:101160007894F80160814617E8F5712C50E06B81A6
:101170007C81CB01860D971D0E94B012F801608121
:101180004B815C81460F511DBA01A3018B819C816B
:101190000E94B012F7018081F8019081891BF7014C
:1011A0008083F8011082F70190819F5F9083F8019E
:1011B0008081392F381B97FF02C0F7011082F2019E
:1011C0002081F40190819317A9F03226F201308238
:1011D00085CFF40180818111E6CF3082A7CF862DA3
:1011E000840FBCCF461B50E08B819C81860F911DE4
:1011F000BC01CCCF32122AC04B815C81480F511DFB
:10120000CA01E981FA81408151814F5F5F4F51836B
:101210004083F7013081F80130830097B1F20F90DD
:101220000F900F900F90DF91CF911F910F91FF9032
:10123000EF90DF90CF90BF90AF909F908F907F9076
:101240006F905F904F903F902F900895F5018081AF
:10125000918101969183808390E080E0DACF90E0E5
:1012600080E0DDCF9F92AF92BF92CF92DF92EF925C
:10127000FF920F931F93CF93DF93D82F89E0D89FCE
:10128000F0011124EC54FD4F9080A180B280C38006
:10129000D480E580F68007811085C3E1CD27C9257C
:1012A000CA25CB25CC25CD25CE25CF25C027C127C6
:1012B00067EE8CEF91E00E9418076EE08CEF91E0F2
:1012C0000E9418076D2F8CEF91E00E941807692D7E
:1012D0008CEF91E00E9418076A2D8CEF91E00E943C
:1012E00018076B2D8CEF91E00E9418076C2D8CEF86
:1012F00091E00E94180765E08CEF91E00E941807CA
:101300006D2D8CEF91E00E9418076E2D8CEF91E00F
:101310000E9418076F2D8CEF91E00E941807602F34
:101320008CEF91E00E941807612F8CEF91E00E94F2
:1013300018076C2F6F778CEF91E00E9418076FEF02
:101340008CEF91E00E9418078CEF91E00E94360824
:1013500090938C0280938B02009769F0DF91CF917C
:101360001F910F91FF90EF90DF90CF90BF90AF90C3
:101370009F900C94FA01DF91CF911F910F91FF90F4
:10138000EF90DF90CF90BF90AF909F9008951F9205
:101390000F920FB60F9211242F933F938F939F9329
:1013A000AF93BF938091B7049091B804A091B90412
:1013B000B091BA043091B30323E0230F2D3758F5D1
:1013C0000196A11DB11D2093B3038093B7049093A0
:1013D000B804A093B904B093BA048091B403909177
:1013E000B503A091B603B091B7030196A11DB11D3D
:1013F0008093B4039093B503A093B603B093B7035F
:10140000BF91AF919F918F913F912F910F900FBE00
:101410000F901F90189526E8230F0296A11DB11D6D
:10142000D2CF1F920F920FB60F9211242F933F939A
:101430004F935F936F937F938F939F93AF93BF93DC
:10144000EF93FF938091B900887F803609F44AC0FA
:10145000F0F5883209F4A7C018F5803109F49BC073
:10146000B8F4882309F4F9C0883009F494C0FF91D6
:10147000EF91BF91AF919F918F917F916F915F910C
:101480004F913F912F910F900FBE0F901F90189585
:10149000883109F488C0803251F780937D0414C0EC
:1014A000803409F49DC040F48033B9F38833F9F6F1
:1014B00080937D0485ECB0C0803509F485C0883503
:1014C00009F496C0883499F60E94FE07D0CF883977
:1014D00009F48CC038F5883729F050F4883611F0BB
:1014E000803729F683E080937F041092F40157C07F
:1014F000883809F47BC0803919F0803809F0B7CFFB
:101500008091F401803208F071C0E091F40181E033
:101510008E0F8093F4018091BB00F0E0EC52FE4FFF
:1015200080833DC0803B39F0E0F4803A09F479C013
:10153000883A09F09CCF84E080937F041092D30115
:101540001092D201E091F901F091FA010995809190
:10155000D20181110FC081E08093D2011092B201BB
:1015600009C0803C09F4A6CF883C09F4A3CF883B8E
:1015700009F07DCFE091D30181E08E0F8093D301FC
:10158000F0E0EE54FE4F80818093BB009091D30138
:101590008091D20129C080915A048093BB0085ECD0
:1015A0008093BC0064CF90917C0480917B04981759
:1015B00058F5E0917C0481E08E0F80937C04F0E08C
:1015C000E55AFB4F8081E9CFE0917C0481E08E0FEA
:1015D00080937C048091BB00F0E0E55AFB4F808350
:1015E00090917C0480917B049817C8F285E8D8CF4D
:1015F000E0917C0481E08E0F80937C048091BB009D
:10160000F0E0E55AFB4F808380917E0481115CCF2E
:1016100081E08093590484EA8093BC0010927F0497
:1016200026CF85EC8093BC0010927F048091F4015A
:10163000803230F4E091F401F0E0EC52FE4F108281
:101640006091F40170E0E091F701F091F80184ED10
:1016500091E009951092F4010ACF10927D0434CFE5
:101660001F920F920FB60F921124CF92DF92EF923A
:10167000FF920F931F932F933F934F935F936F931B
:101680007F938F939F93AF93BF93CF93EF93FF93EA
:10169000B19A8091BF039091C00380549C4F909366
:1016A000C0038093BF038091BF039091C0039093C8
:1016B0008900809388008091B001882371F0109296
:1016C000B001189B26C081E08093C503B59A809134
:1016D0006F00806280936F001CC08091C4038F5F95
:1016E0008093C4038091C503843009F043C0809186
:1016F000C403893030F58091BB0390E095958795C0
:101700008093BB03189B05C08091BB0380688093C6
:10171000BB03FF91EF91CF91BF91AF919F918F91BB
:101720007F916F915F914F913F912F911F910F91F9
:10173000FF90EF90DF90CF900F900FBE0F901F9013
:101740001895B59A80916F00806280936F008091A8
:10175000B9039091BA03189929C0FC01E957FF4FCA
:10176000808191810196918380831092C40381E0EE
:101770008093C5038091C5038330E9F5E091C203EE
:10178000F091C30380812091C10333B190E0022E18
:1017900002C0959587950A94E2F7832780FD11C0D2
:1017A0001092C40382E08093C50325C06091BB03FF
:1017B0000E94180780E090E0892BB9F20E94000097
:1017C000D4CF8091C403893008F043C03091BB036B
:1017D00081E090E001C0880F2A95EAF7908130FF00
:1017E00036C08095892380838091BB0390E09595D6
:1017F00087958093BB038091C503823099F48091D3
:10180000C403811196C0E091C203F091C3038081AB
:101810009091C10321E030E001C0220F9A95EAF7D0
:10182000822B80838091C503813009F072CF809133
:10183000C403882309F44ACF8091C403883308F491
:1018400068CF1092C50380916F008D7F43CF892BA5
:10185000CACF8091C403893059F4308181E090E08F
:1018600001C0880F2A95EAF7809583238083C3CF30
:101870008091C6038F5F8093C6039091C703891739
:1018800050F51092C4038091BD039091BE03A091C6
:10189000C603A80FB92FB11D8C918093BB03808123
:1018A00041E050E001C0440F2A95EAF7842B808381
:1018B00080918400909185008A5A9C4F9093C00338
:1018C0008093BF038091BF039091C00390938900E0
:1018D0008093880090CF81E08093BC03E090BD03AB
:1018E000F090BE03C090B903D090BA03F701808195
:1018F0008076803679F4C18110E000E00C1778F42E
:10190000F701E00FF11F6081C6010E9418070F5F09
:101910001F4FF4CFC081C295C670CE5FEDCF80E07F
:1019200090E0892B11F00E9400001092C40381E026
:101930003ACF8091C4038F3008F474CFE091C20392
:10194000F091C30320813091C10381E090E001C098
:10195000880F3A95EAF78095822380831092C4031A
:1019600081E08093C503E091B903F091BA03E35796
:10197000FF4F8081918101969183808353CF1F9285
:101980000F920FB60F9211248F939F93EF93FF93B3
:10199000B59AEFE6F0E080818F7D808380918600AC
:1019A0009091870080529E4F9093C0038093BF0315
:1019B0008091BF039091C003909389008093880029
:1019C000B19A80818260808384E08093C503109205
:1019D000C40381E08093B001FF91EF919F918F91BB
:1019E0000F900FBE0F901F901895CF93DF93E9EAE9
:1019F000F4E01382128288EE93E0A0E0B0E08483EA
:101A00009583A683B7838DE491E091838083C0E1C1
:101A1000D5E086E0888380E8898388E08A831B821A
:101A20001C821D821E8286E00E94DB012FB7F89483
:101A30008091B7049091B804A091B904B091BA0410
:101A40002FBF8B839C83AD83BE8389E390E090930B
:101A5000B6048093B504EBEBF4E0138212828FE5B9
:101A600091E09183808314821582168217828AE026
:101A700090E09187808712861386148615861686D5
:101A80001786108A928B818B138A148A158A168A7C
:101A9000178A108E118E938F828F148E158E168E4C
:101AA000178E10A211A212A294A383A315A216A2AC
:101AB00017A210A611A612A613A695A784A716A66C
:101AC00017A610AA11AA12AA13AA14AA96AB85AB3C
:101AD00017AA10AE11AE12AE13AE14AE15AE97AF7C
:101AE00086AF1092FB041092FC041092FD04109239
:101AF000FE041092FF0410920005109201059093CD
:101B000003058093020510920405109205051092BA
:101B1000060510920705109208051092090510920B
:101B20000C0510920D0510920E0510920F051092E3
:101B30000A0510920B05DF91CF910895CF93DF93A3
:101B4000CDB7DEB76C970FB6F894DEBF0FBECDBF32
:101B5000789484B5826084BD84B5816084BD85B588
:101B6000826085BD85B5816085BD80916E00816094
:101B700080936E001092810080918100826080933A
:101B8000810080918100816080938100809180003C
:101B90008160809380008091B10084608093B10067
:101BA0008091B00081608093B00080917A00846061
:101BB00080937A0080917A00826080937A0080918D
:101BC0007A00816080937A0080917A0080688093A7
:101BD0007A001092C100E4EBF2E01082399643E003
:101BE000E03BF407D1F783E38093C602E8ECF3E02F
:101BF0008FE8DF011D928A95E9F787E00E94DB01FB
:101C0000E2E5F3E02491EEE3F3E0E491F0E0EE0F9F
:101C1000FF1FED5DFC4F4591549180E091E031E074
:101C2000291741F08F5F932F082E01C0990F0A9456
:101C3000EAF7F6CF5093C3034093C2038093C103E6
:101C400088EC93E09093BA038093B9032098E091D5
:101C5000C203F091C30320813091C10381E090E081
:101C600001C0880F3A95EAF780958223808310920D
:101C7000800011E0109381001092C503B59A809105
:101C80006F00806280936F0080918100887F816007
:101C90008093810010928E0210928D021092860421
:101CA0001092A8040E944C058FE293E09093FA01F1
:101CB0008093F90180E393E09093F8018093F7011A
:101CC0001093850489E38093A70481E00E948B052B
:101CD000882349F11093850481E28093A704109230
:101CE00086041092A80481E00E948B0581111DC01A
:101CF00081E09091B302911114C0882331F081E208
:101D000090E09093B6048093B5046FEF70E08091FB
:101D1000B5049091B6040E9401071092B20210928D
:101D2000B10281E003C080E0E4CF80E08093B302A1
:101D30001092B90088E48093B80084E08093BC00DE
:101D4000E4EFF2E0DE0111969E01245E3F4FCD01EB
:101D500044914D9331962A173B07D1F72FEA2C8FE8
:101D60006CE10E94DF030E94AF0780910705882382
:101D700009F450C01092B90098E49093B80094E030
:101D80009093BC000E9471038FEF0E945E0384E970
:101D90008093BC0050E040E0609107058FEB94E039
:101DA0000E94950341E050E06091070588EC94E0C3
:101DB0000E94950342E050E06091070581ED94E0B8
:101DC0000E94950343E050E0609107058AED94E09E
:101DD0000E94950344E050E06091070583EE94E093
:101DE0000E94950345E050E0609107058CEE94E079
:101DF0000E94950346E050E06091070585EF94E06E
:101E00000E94950347E050E0609107058EEF94E053
:101E10000E9495030E94AF0761E080E00E94600786
:101E20008BE691E00E94690762E081E00E94600712
:101E300081E891E00E9469078CEF0E94340487E8F2
:101E400091E00E94690784E08093FB0161E080E0FB
:101E50000E94600784E991E00E94690781E0809315
:101E600000010E94750719E055EC352E60E0A62EA2
:101E700060E0B62E01E045E0842E2FB7F894809103
:101E8000B7049091B804A091B904B091BA042FBFDF
:101E90004091130550911405609115057091160538
:101EA000841B950BA60BB70B4597A105B10508F44C
:101EB0005EC02FB7F8948091B7049091B804A091B8
:101EC000B904B091BA042FBF809313059093140501
:101ED000A0931505B09316059091110580911205F8
:101EE000913C20F081958093120502C09032D0F38E
:101EF000F0901205F90EF0921105E09010058E2D6C
:101F00000E94DB01F11005C060E08E2D0E94BE0230
:101F10002EC0BFEFFB1202C061E0F7CFEE2DF0E064
:101F2000E15FFC4FE491E33009F451C040F4E1304B
:101F3000D1F0E23009F446C0F7FCEECFE5CFE73050
:101F400009F451C0E83009F456C0E430A9F7809193
:101F500080008062809380008F2D90E090938B00B2
:101F600080938A0004C084B5806884BDF7BC88EC87
:101F700093E00E943608FC0190938C0280938B02C0
:101F8000892B61F0F1804BE14F1540F080818B3B54
:101F900009F404C1C0F58A3B09F402C18091B3027F
:101FA00081112EC120E090E080E020FD81C226FD5D
:101FB00064C227FD80C2A114B10409F45ECF0E945F
:101FC000000059CF84B5806284BDF8BCD0CF809129
:101FD00080008068809380008F2D90E0909389002E
:101FE00080938800C4CF8091B00080688093B00057
:101FF000F092B300BCCF8091B00080628093B000BB
:10200000F092B400B4CF8F3B09F49CC08F3E31F600
:1020100082818C3118F6C380F48045813681208519
:10202000D1849285E3849484189FF0011124EC54A8
:10203000FD4FC082F182428333832483D58296830D
:10204000E782908664EB8CEF91E00E9418076FE6C0
:102050008CEF91E00E9418076FE78CEF91E00E94EF
:1020600018076BE58CEF91E00E9418076FEF8CEF7B
:1020700091E00E9418078CEF91E00E94360890933F
:102080008C0280938B02009711F00E94FA0140E1CC
:1020900060E080E00E94440760E080E00E9460070A
:1020A0008AE991E00E9469078F2D90E0DD2031F0F0
:1020B000A0E8DA9E90011124820F931F0E94270747
:1020C00060E08CE00E946007E1E0F1E030E020E0B9
:1020D0008C2D87709081891389C0B6E0B29FC001B2
:1020E000B39F900D11248E5F9E4F0E94690763E09D
:1020F00080E00E94600780EA91E00E946907892DD4
:1021000090E0982F8827E80EF92EF11CE114E0E109
:10211000FE0690F480E30E943404FFEFEF16F10412
:1021200009F050F480E30E94340440E1E416F10425
:1021300018F480E30E94340460E170E0C7010E945B
:10214000D0042CCF4281E4EBF2E081E09285491388
:1021500003C09685F916C1F08F5F39968C31B1F7BF
:10216000E4EBF2E021E030E0822F9185907379F486
:10217000129FF001139FF00D1124EC54FD4F418389
:10218000F582222309F40ACF0E94320907CF2F5F7C
:102190003F4F39962C31310539F700CF8F2DF4CFD1
:1021A0008281F81220C0FF20E1F01F9DF001112470
:1021B000EC54FD4F8081806380838F2D0E94320913
:1021C000E0918B02F0918C0282818111E7CE1F9DFC
:1021D000F0011124EC54FD4F80818F7E806280835A
:1021E000DDCE82E0D1CFF110EBCFD8CE2F5F3F4FC5
:1021F00036962630310509F06DCF87E691E075CF30
:10220000E091B102F091B202EE0FFF1FEF5BFE4FC3
:10221000608171818091B5049091B6040E9401079C
:1022200029E3C22E21E0D22EF12CE12C99249A949C
:102230002090B5040E940A032B013C0180917F0489
:10224000811161C000937F0400937E0490927D040D
:1022500010927C0410927B0400935A0480915A04DB
:10226000220C282A20925A0480915904813009F0C6
:102270009DC0109259040E940A032B013C018091D9
:102280005A048093BB008091810490918204A091B4
:102290008304B0918404892B8A2B8B2BA1F00E949C
:1022A0000A0320918104309182044091830450916B
:1022B00084046419750986099709261737074807A2
:1022C000590708F441C08091BC0083FDD8CF3092FB
:1022D000BC000E940A032B013C0180917F048130E5
:1022E00009F468C080917C04811186C080917C04CF
:1022F000ABE5B4E0EFE8F2E090E0981751F12D91F2
:1023000021939F5FFACF8091810490918204A091E4
:102310008304B0918404892B8A2B8B2B09F48ECFF4
:102320000E940A0320918104309182044091830429
:10233000509184046419750986099709261737078F
:102340004807590708F07ACF809180040E946A05F7
:1023500080E010928E0280938D0289EA94E00E94C0
:102360008B06D6014D915D916D01209157043091FE
:102370005804822793278417950709F03FC02091BE
:10238000B1023091B202829EC001839E900D112451
:102390008B5D9E4FE80EF91EF7018081082E000C20
:1023A000990B9093B0028093AF02FCCD85EE8093A1
:1023B000BC008FCF8091810490918204A09183040E
:1023C000B0918404892B8A2B8B2B09F486CF0E9431
:1023D0000A0320918104309182044091830450913A
:1023E0008404641975098609970926173707480771
:1023F000590708F072CFA8CF81E07ACFFFEFEF1A2C
:10240000FF0A44E0E416F10409F012CF8091AF0214
:102410009091B002009799F01092B0021092AF0222
:10242000882309F4BFCD833221F18A3221F1805310
:1024300090E020E88A3008F4B8CD20E8B4CD6FEF02
:1024400070E08091B5049091B6040E9401078091DC
:10245000B1029091B20201968430910529F09093D7
:10246000B2028093B1029ECD1092B2021092B102DC
:1024700099CD21E098CD20E496CD1092B203109230
:10248000B1031092B00347E061E085E00E94440789
:1024900092CD2430D8F46091B0037091B1033AE04A
:1024A000369FA001379F500D1124840F951F0AC03D
:1024B0000E94750780CD823409F47DCD2091B2034E
:1024C0002111E7CF9093B1038093B0032F5F209346
:1024D000B20344E061E085E00E94440761E085E0EA
:1024E0000E946007E090B003F090B103C7010E9422
:1024F0002707C7018F7799278093C702EE0CEF2C2F
:10250000EE1CFF08F194E092CB020093C80253CD79
:10251000A1E21A2EAA1BBB1BFD010DC0AA1FBB1FE7
:10252000EE1FFF1FA217B307E407F50720F0A21B59
:10253000B30BE40BF50B661F771F881F991F1A94C6
:1025400069F760957095809590959B01AC01BD01F0
:10255000CF010895EE0FFF1F0590F491E02D09942F
:102560006817790768F4FB01DC01E40FF51FA40F7D
:10257000B51F02C002900E9241505040D8F7089506
:102580000C94C212FB01DC0102C001900D9241507B
:0A2590005040D8F70895F894FFCFEB
:10259A000107313238410004323841200003313218
:1025AA003820000032382020000231342020000177
:1025BA004D2A2A2000313233410034353642003761
:1025CA00383943002A30234400100020004000809C
:1025DA0000FE00FD00FB00F70000000000D206A587
:1025EA000615077B069E068B067C06000000002166
:1025FA00053103150724053F2020004652414E5A53
:10260A0020322E302028616B6120444953504129E1
:10261A00002863294B72006D656C736F66742032F3
:10262A00303139004E65753A2000416C743A200009
:10263A005468726F74746C6549443A2030780000AB
:00000001FF
