:100000000C945D000C9485000C9485000C94850084
:100010000C9485000C9485000C9485000C9485004C
:100020000C9485000C9485000C94E50A0C945609F8
:100030000C9485000C9485000C9485000C9485002C
:100040000C94ED070C9485000C9485000C948500AD
:100050000C9485000C9485000C9485000C9485000C
:100060000C9437080C948500000000080002010081
:100070000003040700000000000000000000000072
:10008000250028002B0000000000240027002A0083
:10009000040404040404040402020202020203032E
:1000A0000303030301020408102040800102040836
:1000B00010200102040810201B0B11241FBECFEFDB
:1000C000D8E0DEBFCDBF11E0A0E0B1E0ECE6F0E2A9
:1000D00002C005900D92A039B107D9F724E0A0E93C
:1000E000B1E001C01D92A63BB207E1F710E0CDE5FB
:1000F000D0E004C02197FE010E941310CC35D10737
:10010000C9F70E94710B0C9434100C94000090E01D
:10011000FC01EC55FF4F249180579F4FFC018491C7
:10012000882399F090E0880F991FFC01EA57FF4F50
:10013000A591B491FC01E458FF4F859194918FB73C
:10014000F894EC91E22BEC938FBF0895CF93DF935B
:10015000FC0129E18EE241E050E033E071E0908162
:1001600090769036D1F491819093A303A091A3034C
:10017000A1501092A2039FEF6091A2036A1790F41E
:10018000C091A203CE0FDF2FD11D68819627609109
:10019000A2036F5F6093A203EFCF90819295967058
:1001A0009E5FE2CFAE0FBF2FB11D9C93F89490914C
:1001B000A103913059F49091A003981738F0109250
:1001C000A10390916F009D7F90936F007894909120
:1001D000A103913039F49091A003943108F4BFCF7A
:1001E00070E0BDCF9091A10391110EC0F894909151
:1001F0006F009F7D90936F00B59B09C090916F0039
:10020000906290936F0078947111A9CF51C0A09122
:100210009E03B0919F039C9160919D03EA0102C0EF
:10022000CC0FDD1F6A95E2F79C2B9C9360918400B4
:10023000709185006A5A7C4F70939C0360939B0376
:1002400060919B0370919C03709389006093880078
:100250007894F0939A03E09399031092A20310927A
:1002600098039081909397033093A1031092A00379
:10027000B19A90916F00926090936F009091A1035A
:100280009330E1F390919803992381F0E0919503E5
:10029000F0919603E757FF4F8081918101969183FA
:1002A000808383E090E0DF91CF9108959091A10346
:1002B0008B3108F08150215009F050CF80912F04EC
:1002C0009091300401969093300480932F0486E03F
:1002D00090E0E9CF90E0FC01E859FF4F2491FC0148
:1002E000EC55FF4F3491FC01E057FF4FE491EE23B2
:1002F000C9F0222339F0233001F1A8F4213019F19B
:10030000223029F1F0E0EE0FFF1FE458FF4FA591D6
:10031000B4918FB7F894EC91611126C030953E23CB
:100320003C938FBF08952730A9F02830C9F02430BE
:1003300049F7809180008F7D03C0809180008F7786
:1003400080938000DFCF84B58F7784BDDBCF84B509
:100350008F7DFBCF8091B0008F778093B000D2CF9C
:100360008091B0008F7DF9CF3E2BDACF3FB7F89464
:100370008091910390919203A0919303B091940383
:1003800026B5A89B05C02F3F19F00196A11DB11DF0
:100390003FBFBA2FA92F982F8827BC01CD01620F2C
:1003A000711D811D911D42E0660F771F881F991FE7
:1003B0004A95D1F7089508950895AF92BF92CF92CC
:1003C000DF92EF92FF920F931F93CF93DF936C0115
:1003D0007B018B01040F151FEB015E01AE18BF08F6
:1003E000C017D10759F06991D601ED91FC910190A8
:1003F000F081E02DC6010995892B79F7C501DF91C0
:10040000CF911F910F91FF90EF90DF90CF90BF9011
:10041000AF90089508952091B201260F3327331F1E
:1004200021323105ECF420915B04FC0190E080E086
:10043000243069F082E00895A091B2012191AC01CD
:100440004E565E4FA40FB52FB11D2C930196861703
:1004500098F38091B201680F6093B20180E0089533
:1004600081E0089510925B0481E080935A04109219
:10047000350461E082E10E946A0161E083E10E944B
:100480006A01E9EBF0E080818E7F808380818D7F3F
:10049000808388E48093B80085E48093BC0008954D
:1004A000CF93DF9391E0909391018823B9F0C091AD
:1004B000B800D091BA008091BC008A7B8093BC00C8
:1004C00060E082E10E946A0160E083E10E946A01CB
:1004D0000E943202D093BA00C093B800DF91CF914E
:1004E00008958F929F92AF92BF92CF92DF92EF9238
:1004F000FF920F931F93CF93DF93D0918404D13257
:1005000008F0D7C0182FC09183040E94B6016B0178
:100510007C0180915B0481116BC082E080935B045D
:1005200010935A048FEF8093590410925804D0937B
:100530005704A3E6B4E0E7E3F4E080E0D81391C009
:100540001092360480913604CC0FC82BC093360429
:1005500080913504813009F088C0109235040E94E2
:10056000B6016B017C01809136048093BB008091C1
:100570005D0490915E04A0915F04B0916004892BAA
:100580008A2B8B2BA1F00E94B60100915D04109183
:100590005E0420915F04309160046C197D098E091E
:1005A0009F09061717072807390708F442C08091EA
:1005B000BC0083FDD8CF85EC8093BC000E94B601BF
:1005C0006B017C0180915B04823009F450C0809102
:1005D00059048F3F09F46FC080915904803209F4A7
:1005E0006CC080915904803309F469C084E026C04E
:1005F00080915D0490915E04A0915F04B0916004CD
:10060000892B8A2B8B2B09F484CF0E94B601809012
:100610005D0490905E04A0905F04B09060046C193B
:100620007D098E099F0986169706A806B90608F067
:1006300070CF80915C040E94500285E010926204A9
:100640001092840410926104DF91CF911F910F9159
:10065000FF90EF90DF90CF90BF90AF909F908F90E2
:1006600008959D9191938F5F69CF85EEA5CF80917D
:100670005D0490915E04A0915F04B0916004892BA9
:100680008A2B8B2B09F49ECF0E94B60100915D044A
:1006900010915E0420915F04309160046C197D0913
:1006A0008E099F09061717072807390708F08ACF10
:1006B000C0CF81E0C3CF80E0C1CF82E0BFCF83E075
:1006C000BDCF0895E0916B0280916A02E81730F483
:1006D000F0E0E459FD4F808190E008958FEF9FEFA7
:1006E000089590916B0280916A022FEF3FEF981767
:1006F00048F4E92FF0E0E459FD4F208130E09F5F9E
:1007000090936B02C901089580916A0290916B02E7
:10071000891B990B0895CF92DF92EF92FF920F936E
:100720001F93CF93DF937C01CB018A012091610459
:10073000222389F0EB016B01C40ED51ECC15DD051B
:1007400069F06991D701ED91FC910190F081E02D64
:10075000C7010995F3CF642F0E940B02C801DF91F6
:10076000CF911F910F91FF90EF90DF90CF90089560
:10077000CF93DF931F92CDB7DEB7698320916104D9
:100780002223F9F020918404203258F021E030E057
:10079000FC013383228390E080E00F90DF91CF91C2
:1007A000089580916204E82FF0E0ED59FB4F9981A4
:1007B00090838F5F809362048093840481E090E053
:1007C000ECCF61E0CE0101960E940B02F7CF60935F
:1007D00033047093340491E0909361048093830414
:1007E000109262041092840485E894E00E94B80399
:1007F00081E00C94710290E080E008959C01DC019E
:10080000A058BF4FEC9191E09E0F9C93E20FF32F05
:10081000F11D608397FD1C920895CF93DF93EC0147
:1008200060E08E810E946A0161E08E810E946A010F
:1008300060E08E810E946A018BE891E00197F1F7F8
:10084000DF91CF910895CF92DF92EF92FF920F93B5
:100850001F93CF93DF936C017C0187E0E80EF11CBE
:10086000D0E0C0E0062F10E0B8010C2E02C0759554
:1008700067950A94E2F76170F70181917F010E9408
:100880006A012196C430D10579F7C601DF91CF9175
:100890001F910F91FF90EF90DF90CF900C940D047B
:1008A000CF92DF92EF92FF920F931F93CF93DF933C
:1008B000EC01F62E642F8C810E946A018D818F3F9E
:1008C00019F060E00E946A010F2D10E08F8584FF0F
:1008D00025C06E0187E0C80ED11CF12CE12CB801B7
:1008E0000E2C02C0759567950A94E2F76170F601C7
:1008F00081916F010E946A01FFEFEF1AFF0A88E001
:10090000E816F10461F7CE01DF91CF911F910F91AD
:10091000FF90EF90DF90CF900C940D04B80184E02D
:10092000759567958A95E1F7CE010E9423046F2D96
:10093000CE01DF91CF911F910F91FF90EF90DF904B
:10094000CF900C94230440E0682F87E994E00C9446
:100950005004CF93DF93823029F49091A6049860DD
:100960009093A6048093AA041092AB0480E4809331
:10097000AC0480E18093AD0480E58093AE04809167
:100980009B040E94870080919C048F3F11F00E947D
:10099000870080919D040E948700C7E9D4E09E01F2
:1009A000275934408091A60484FD0AC084E090E079
:1009B0002196281739073CF48E810E948700EFCFDB
:1009C00088E090E0F5CF8BE39DE00197F1F760E0E0
:1009D00080919B040E946A0160E080919D040E94C6
:1009E0006A0180919C048F3F19F060E00E946A01C7
:1009F0008091A60484FD39C063E087E994E00E94F9
:100A00002304CBE4D6E4CE010197F1F763E087E954
:100A100094E00E9423042197F1F763E087E994E0D2
:100A20000E94230483E592E00197F1F762E087E9F1
:100A300094E00E9423048091A60480620E94A30493
:100A400084E08093A7048CE00E94A30481E00E94CC
:100A5000A3048BE39FE10197F1F782E08093A80460
:100A600086E0DF91CF910C94A30480620E94A304DE
:100A70008BE496E40197F1F78091A60480620E94CE
:100A8000A30483E592E00197F1F78091A6048062C8
:100A90000E94A304D0CF9091AA04691710F06FEFC1
:100AA000690FE62FF0E0E956FB4F9489890F8068C3
:100AB0000C94A30441E00E94500481E090E008956A
:100AC00041E0682F87E994E00E94500481E090E0C3
:100AD00008951F93CF93DF93D82F162FC42F0E9412
:100AE0004B05C15020F080E20E946005FACF612FD3
:100AF0008D2FDF91CF911F910C944B0585ED809345
:100B0000BC0080915D0490915E04A0915F04B0915F
:100B100060040796A11DB11D23E0B695A795979592
:100B200087952A95D1F72091BC0024FD03C010922F
:100B30005B04089540915D0450915E0460915F04F0
:100B400070916004452B462B472B69F30097A10554
:100B5000B10541F02AE22A95F1F700C00197A109F9
:100B6000B109E1CF80915C040C9450022F923F9226
:100B70004F925F926F927F928F929F92AF92BF92AD
:100B8000CF92DF92EF92FF920F931F93CF93DF9359
:100B900000D000D0CDB7DEB79C838B837C0141E8C9
:100BA000E40EF11C6C0150E8C50ED11C8C010E57EF
:100BB0001F4F8D579F4F2C018B819C818C579F4FCE
:100BC0004C0122242A94AB80BC8097E8A90EB11C6A
:100BD000EB81FC81EB57FF4FFA83E983F7018081BA
:100BE000F6019081891709F4BAC0EB81FC81E80F06
:100BF000F11D308037FE6DC0F8019081891739F002
:100C0000F501208131812F5F3F4F31832083F8012F
:100C10008083F2012082832D8076F401803609F4EE
:100C200041C0832D829586708E5F8083F80120817C
:100C3000F4018081820F9927991F813891059CF1D9
:100C400080E8682E621AF894F6014081F8018081EC
:100C5000841708F044C0F42FF81B8F2FF60180830F
:100C60007894F80160814617E8F5712C50E06B81AB
:100C70007C81CB01860D971D0E941910F8016081BF
:100C80004B815C81460F511DBA01A3018B819C8170
:100C90000E941910F7018081F8019081891BF701EA
:100CA0008083F8011082F70190819F5F9083F801A3
:100CB0008081392F381B97FF02C0F7011082F201A3
:100CC0002081F40190819317A9F03226F20130823D
:100CD00085CFF40180818111E6CF3082A7CF862DA8
:100CE000840FBCCF461B50E08B819C81860F911DE9
:100CF000BC01CCCF32122AC04B815C81480F511D00
:100D0000CA01E981FA81408151814F5F5F4F518370
:100D10004083F7013081F80130830097B1F20F90E2
:100D20000F900F900F90DF91CF911F910F91FF9037
:100D3000EF90DF90CF90BF90AF909F908F907F907B
:100D40006F905F904F903F902F900895F5018081B4
:100D5000918101969183808390E080E0DACF90E0EA
:100D600080E0DDCF9F92AF92BF92CF92DF92EF9261
:100D7000FF920F931F93CF93DF93D82F89E0D89FD3
:100D8000F0011124EF56FD4F9080A180B280C38006
:100D9000D480E580F68007811085C3E1CD27C92581
:100DA000CA25CB25CC25CD25CE25CF25C027C127CB
:100DB00067EE89ED91E00E94FE036EE089ED91E01F
:100DC0000E94FE036D2F89ED91E00E94FE03692DC4
:100DD00089ED91E00E94FE036A2D89ED91E00E9469
:100DE000FE036B2D89ED91E00E94FE036C2D89EDD1
:100DF00091E00E94FE0365E089ED91E00E94FE0310
:100E00006D2D89ED91E00E94FE036E2D89ED91E03C
:100E10000E94FE036F2D89ED91E00E94FE03602F7A
:100E200089ED91E00E94FE03612F89ED91E00E941F
:100E3000FE036C2F6F7789ED91E00E94FE036FEF48
:100E400089ED91E00E94FE0389ED91E00E94B605D4
:100E50009093690280936802009769F0DF91CF91C7
:100E60001F910F91FF90EF90DF90CF90BF90AF90C8
:100E70009F900C94A600DF91CF911F910F91FF904E
:100E8000EF90DF90CF90BF90AF909F900895CF925A
:100E9000DF92EF92FF920F931F93CF93DF93CDB723
:100EA000DEB7A1970FB6F894DEBF0FBECDBF8C01A1
:100EB000083E83E0180778F480E30E94600504365A
:100EC000110548F480E30E9460050A30110518F40A
:100ED00080E30E946005980150E040E019A28E0175
:100EE0000F5D1F4F8AE0C82ED12CE12CF12CCA01D6
:100EF000B901A70196010E94F10F605DF8016293AC
:100F00008F01211531054105510589F7309761F0B1
:100F100001900020E9F73197AF01401B510BB80158
:100F200087E994E00E94DD01A1960FB6F894DEBF38
:100F30000FBECDBFDF91CF911F910F91FF90EF902A
:100F4000DF90CF900895009769F0FC010190002098
:100F5000E9F73197AF01481B590BBC0187E994E0D1
:100F60000C94DD010895CF93809100018F5F86304E
:100F700041F180930001C091A302C87FE09100017C
:100F800086E0E89FF0011124EF5FFE4F8081C82BBF
:100F9000C093A30261E08CE00E944B05E1E0F1E028
:100FA00030E020E0C7708081C8130EC046E0429F49
:100FB000C001439F900D11248E5F9E4FCF910C94E2
:100FC000A30710920001D7CF2F5F3F4F36962630F0
:100FD000310549F787E691E0F1CF1F920F920FB6E6
:100FE0000F9211242F933F938F939F93AF93BF93AF
:100FF0008091930490919404A0919504B0919604EB
:101000003091900323E0230F2D3758F50196A11D51
:10101000B11D209390038093930490939404A09324
:101020009504B09396048091910390919203A091BE
:101030009303B09194030196A11DB11D8093910378
:1010400090939203A0939303B0939403BF91AF91B5
:101050009F918F913F912F910F900FBE0F901F90F6
:10106000189526E8230F0296A11DB11DD2CF1F921D
:101070000F920FB60F9211242F933F934F935F93CC
:101080006F937F938F939F93AF93BF93EF93FF9350
:101090008091B900887F803609F44AC0F0F5883223
:1010A00009F4A7C018F5803109F49BC0B8F488236F
:1010B00009F4F9C0883009F494C0FF91EF91BF9111
:1010C000AF919F918F917F916F915F914F913F91E0
:1010D0002F910F900FBE0F901F901895883109F433
:1010E00088C0803251F78093590414C0803409F4C9
:1010F0009DC040F48033B9F38833F9F680935904E6
:1011000085ECB0C0803509F485C0883509F496C0F7
:10111000883499F60E947E05D0CF883909F48CC0B6
:1011200038F5883729F050F4883611F0803729F6E1
:1011300083E080935B041092D40157C0883809F48F
:101140007BC0803919F0803809F0B7CF8091D40185
:10115000803208F071C0E091D40181E08E0F80935D
:10116000D4018091BB00F0E0EC54FE4F80833DC081
:10117000803B39F0E0F4803A09F479C0883A09F00C
:101180009CCF84E080935B041092B3011092B20173
:10119000E091D701F091D80109958091B2018111B8
:1011A0000FC081E08093B2011092920109C0803C8F
:1011B00009F4A6CF883C09F4A3CF883B09F07DCF82
:1011C000E091B30181E08E0F8093B301F0E0EE5621
:1011D000FE4F80818093BB009091B3018091B2015A
:1011E00029C0809136048093BB0085EC8093BC00BD
:1011F00064CF9091580480915704981758F5E09166
:10120000580481E08E0F80935804F0E0E95CFB4FB6
:101210008081E9CFE091580481E08E0F80935804DB
:101220008091BB00F0E0E95CFB4F80839091580413
:10123000809157049817C8F285E8D8CFE0915804F8
:1012400081E08E0F809358048091BB00F0E0E95C50
:10125000FB4F808380915A0481115CCF81E08093A1
:10126000350484EA8093BC0010925B0426CF85ECA1
:101270008093BC0010925B048091D401803230F4E2
:10128000E091D401F0E0EC54FE4F10826091D40163
:1012900070E0E091D501F091D60184EB91E00995E1
:1012A0001092D4010ACF1092590434CF1F920F929A
:1012B0000FB60F921124CF92DF92EF92FF920F930D
:1012C0001F932F933F934F935F936F937F938F93CE
:1012D0009F93AF93BF93CF93EF93FF93B19A809176
:1012E0009B0390919C0380549C4F90939C0380930C
:1012F0009B0380919B0390919C0390938900809322
:10130000880080919001882371F010929001189BC1
:1013100026C081E08093A103B59A80916F0080621E
:1013200080936F001CC08091A0038F5F8093A00307
:101330008091A103843009F043C08091A0038930DB
:1013400030F58091970390E095958795809397036A
:10135000189B05C080919703806880939703FF9145
:10136000EF91CF91BF91AF919F918F917F916F91AD
:101370005F914F913F912F911F910F91FF90EF90AF
:10138000DF90CF900F900FBE0F901F901895B59AD9
:1013900080916F00806280936F008091950390919F
:1013A0009603189929C0FC01E957FF4F808191816C
:1013B0000196918380831092A00381E08093A10322
:1013C0008091A1038330E9F5E0919E03F0919F03A2
:1013D000808120919D0333B190E0022E02C095954B
:1013E00087950A94E2F7832780FD11C01092A0032D
:1013F00082E08093A10325C0609197030E94FE03C1
:1014000080E090E0892BB9F20E940000D4CF809157
:10141000A003893008F043C03091970381E090E049
:1014200001C0880F2A95EAF7908130FF36C0809579
:10143000892380838091970390E095958795809389
:1014400097038091A103823099F48091A0038111C8
:1014500096C0E0919E03F0919F03808190919D033F
:1014600021E030E001C0220F9A95EAF7822B8083B9
:101470008091A103813009F072CF8091A00388236D
:1014800009F44ACF8091A003883308F468CF109202
:10149000A10380916F008D7F43CF892BCACF8091AC
:1014A000A003893059F4308181E090E001C0880FB9
:1014B0002A95EAF7809583238083C3CF8091A20386
:1014C0008F5F8093A2039091A303891750F5109228
:1014D000A0038091990390919A03A091A203A80F71
:1014E000B92FB11D8C9180939703808141E050E02A
:1014F00001C0440F2A95EAF7842B808380918400F1
:10150000909185008A5A9C4F90939C0380939B03F3
:1015100080919B0390919C03909389008093880015
:1015200090CF81E080939803E0909903F0909A0324
:10153000C0909503D0909603F70180818076803625
:1015400079F4C18110E000E00C1778F4F701E00FA6
:10155000F11F6081C6010E94FE030F5F1F4FF4CF91
:10156000C081C295C670CE5FEDCF80E090E0892B40
:1015700011F00E9400001092A00381E03ACF809108
:10158000A0038F3008F474CFE0919E03F0919F0385
:10159000208130919D0381E090E001C0880F3A9551
:1015A000EAF78095822380831092A00381E08093E4
:1015B000A103E0919503F0919603E357FF4F8081DB
:1015C000918101969183808353CF1F920F920FB622
:1015D0000F9211248F939F93EF93FF93B59AEFE6A9
:1015E000F0E080818F7D80838091860090918700DC
:1015F00080529E4F90939C0380939B0380919B030A
:1016000090919C039093890080938800B19A808187
:101610008260808384E08093A1031092A00381E024
:1016200080939001FF91EF919F918F910F900FBE4A
:101630000F901F901895CF93DF93E5E8F4E01382A5
:10164000128288EE93E0A0E0B0E084839583A683C5
:10165000B7838DE491E091838083CFEAD4E086E084
:10166000888380E8898388E08A831B821C821D82AC
:101670001E8286E00E9487002FB7F8948091930421
:1016800090919404A0919504B09196042FBF8B8300
:101690009C83AD83BE8389E390E090939204809312
:1016A0009104E7E9F4E0138212828FE591E09183DF
:1016B00080838CE084838FEF85838BE0868389E051
:1016C000878385E0808784E0818783E08287138633
:1016D000148615861686178681E0DF91CF910C94CB
:1016E000A904789484B5826084BD84B5816084BD8A
:1016F00085B5826085BD85B5816085BD80916E00B0
:10170000816080936E0010928100809181008260E0
:10171000809381008091810081608093810080911D
:1017200080008160809380008091B100846080930C
:10173000B1008091B00081608093B00080917A0008
:10174000846080937A0080917A00826080937A002E
:1017500080917A00816080937A0080917A0080681D
:1017600080937A001092C1008DE893E0E1E9F2E005
:10177000108239968E179F07D9F783E38093A302CF
:10178000E4EAF3E08FE8DF011D928A95E9F787E04C
:101790000E948700EBEAF0E02491E7E9F0E0E491B1
:1017A000F0E0EE0FFF1FE458FF4F4591549180E0A9
:1017B00091E031E0291741F08F5F932F082E01C08F
:1017C000990F0A94EAF7F6CF50939F0340939E0334
:1017D00080939D0384EA93E090939603809395030E
:1017E0002098E0919E03F0919F03208130919D030A
:1017F00081E090E001C0880F3A95EAF78095822356
:10180000808310928000C1E0C09381001092A103F8
:10181000B59A80916F00806280936F008091810003
:10182000887F81608093810010926B0210926A021F
:1018300010926204109284040E9432028BED91E0B7
:101840009093D8018093D7018CED91E09093D601CD
:101850008093D501C093610489E38093830481E080
:101860000E947102882349F1C093610481E2809350
:101870008304109262041092840481E00E94710239
:1018800081111DC081E090919002911114C08823B4
:1018900031F081E290E090939204809391046FEF95
:1018A00070E080919104909192040E94E70310925D
:1018B0008F0210928E0281E003C080E0E4CF80E0CE
:1018C0008093900282E00E94A9048BE691E00E943E
:1018D000A30761E080E00E944B0585E791E00E944C
:1018E000A30785EF0E9460058BE791E00E94A307A4
:1018F0000E94B6014B015C01A0EDCA2EA7E0DA2ED2
:10190000E12CF12C0E94B601681979098A099B091A
:10191000683E734081059105A8F3B1E0CB1AD10868
:10192000E108F108E8EE8E0EE3E09E1EA11CB11C5A
:10193000C114D104E104F10429F781E00E94A30459
:101940008BE39FE10197F1F761E080E00E944B0596
:1019500083E891E00E94A30781E0809300010E9448
:10196000B307C9E075EE872EE5EC9E2EF0E0CF2E92
:10197000F0E0DF2ED1E056E0352E65E0A62E2FB741
:10198000F8948091930490919404A0919504B0915F
:1019900096042FBF4091B2045091B3046091B404F7
:1019A0007091B504841B950BA60BB70B4597A10549
:1019B000B10508F45DC02FB7F8948091930490911D
:1019C0009404A0919504B09196042FBF8093B20423
:1019D0009093B304A093B404B093B5041091B004F1
:1019E0008091B104113C20F081958093B10402C034
:1019F0001032D0F38091B104180F1093B00400910D
:101A0000AF04802F0E948700111105C060E0802F75
:101A10000E946A012DC01F3F11F461E0F8CFE02F52
:101A2000F0E0E859FF4FE491E33009F450C040F48E
:101A3000E130D1F0E23009F445C017FDEECFE6CF3A
:101A4000E73009F450C0E83009F455C0E430A9F794
:101A500080918000806280938000812F90E090933D
:101A60008B0080938A0004C084B5806884BD17BD54
:101A700084EA93E00E94B605FC019093690280938A
:101A80006802892B59F011811C3140F480818B3B15
:101A900009F4EBC0C0F58A3B09F4E9C080919002DB
:101AA000811118C120E090E080E020FD67C226FD92
:101AB0004AC227FD66C2C114D10409F460CF0E9456
:101AC000000059CF84B5806284BD18BDD1CF80910C
:101AD0008000806880938000812F90E0909389003F
:101AE00080938800C5CF8091B00080688093B0005B
:101AF0001093B300BDCF8091B00080628093B0009E
:101B00001093B400B5CF8F3B09F483C08F3E31F6FC
:101B100002810C3118F6A38174816581568140855C
:101B2000318522859385848510E0C09FF001C19F97
:101B3000F00D1124EF56FD4FA08371836283538310
:101B40004483358326839783808764EB89ED91E016
:101B50000E94FE036FE689ED91E00E94FE036FE7AD
:101B600089ED91E00E94FE036BE589ED91E00E9412
:101B7000FE036FEF89ED91E00E94FE0389ED91E095
:101B80000E94B6059093690280936802009711F055
:101B90000E94A60040E160E080E00E94690560E0EC
:101BA00080E00E944B0589E891E00E94A307C09F56
:101BB000F001C19FF00D1124EF56FD4F8581882360
:101BC00009F47BC020E8829FC00111242181820F8B
:101BD000911D0E94470760E08CE00E944B05C09F6A
:101BE000F001C19FF00D1124EF56FD4F8081E1E01F
:101BF000F1E030E020E087709081891361C0329E6F
:101C0000C001339E900D11248E5F9E4F0E94A3074A
:101C100045CF4281E1E9F2E081E09285491303C0BA
:101C200096851917C1F08F5F39968C31B1F7E1E9CC
:101C3000F2E021E030E0822F9185907379F4C29F29
:101C4000F001C39FF00D1124EF56FD4F4183158322
:101C5000222309F423CF0E94B20620CF2F5F3F4FEB
:101C600039962C31310539F719CF812FF4CF828184
:101C7000181320C01123E1F0C19FF0011124EF5689
:101C8000FD4F808180638083812F0E94B206E091A6
:101C90006802F09169028281811100CFC19FF00139
:101CA0001124EF56FD4F80818F7E80628083F6CEB7
:101CB00082E0D1CF1111EBCFF1CE818190E089CFBD
:101CC0002F5F3F4F36962630310509F095CF87E6D6
:101CD00091E09CCFE0918E02F0918F02EE0FFF1FFA
:101CE000EF5BFE4F6081718180919104909192042D
:101CF0000E94E70349E3E42E41E0F42E10E000E007
:101D0000BB24BA94209091040E94B6012B013C019F
:101D100080915B04811161C0D0935B04D0935A041D
:101D2000B09259041092580410925704D09336047C
:101D300080913604220C282A2092360480913504A2
:101D4000813009F09CC0109235040E94B6012B012D
:101D50003C01809136048093BB0080915D0490919A
:101D60005E04A0915F04B0916004892B8A2B8B2BB9
:101D7000A1F00E94B60120915D0430915E04409173
:101D80005F04509160046419750986099709261744
:101D900037074807590708F441C08091BC0083FD0C
:101DA000D8CF9092BC000E94B6012B013C018091DB
:101DB0005B04813009F466C080915804811184C0AD
:101DC00080915804A7E3B4E0ECE6F2E090E09817C5
:101DD00051F12D9121939F5FFACF80915D049091F5
:101DE0005E04A0915F04B0916004892B8A2B8B2B39
:101DF00009F48ECF0E94B60120915D0430915E04FB
:101E000040915F045091600464197509860997092F
:101E1000261737074807590708F07ACF80915C04E6
:101E20000E94500280E010926B0280936A0285E863
:101E300094E00E947103D7014D915D917D01209145
:101E40003304309134048227932784179507F1F5E2
:101E500020918E0230918F02A29EC001A39E900D10
:101E600011248B5D9E4F080F191FF8018081082EE9
:101E7000000C990B90938D0280938C0213CE80926C
:101E8000BC0091CF80915D0490915E04A0915F04AD
:101E9000B0916004892B8A2B8B2B09F488CF0E9488
:101EA000B60120915D0430915E0440915F04509131
:101EB00060046419750986099709261737074807CA
:101EC000590708F074CFAACF81E07CCF0F5F1F4F76
:101ED0000430110509F016CF80918C0290918D028B
:101EE000009799F010928D0210928C02882309F4C9
:101EF000D9CD833221F18A3221F1805390E020E85C
:101F00008A3008F4D2CD20E8CECD6FEF70E080911A
:101F10009104909192040E94E70380918E02909127
:101F20008F0201968430910529F090938F0280935F
:101F30008E02B8CD10928F0210928E02B3CD21E0A6
:101F4000B2CD20E4B0CD10928F0310928E03109288
:101F50008D0347E061E085E00E946905ACCD243047
:101F6000D8F460918D0370918E033AE0369FA00102
:101F7000379F500D1124840F951F0AC00E94B3078C
:101F80009ACD823409F497CD20918F032111E7CFA8
:101F900090938E0380938D032F5F20938F0344E0F3
:101FA00061E085E00E94690561E085E00E944B05E3
:101FB00080918D0390918E030E94470780918D033D
:101FC00090918E039C012F7733272093A402880FD2
:101FD000892F881F990B91958093A802D093A50211
:101FE0006ACDA1E21A2EAA1BBB1BFD010DC0AA1FC0
:101FF000BB1FEE1FFF1FA217B307E407F50720F072
:10200000A21BB30BE40BF50B661F771F881F991FEC
:102010001A9469F760957095809590959B01AC0135
:10202000BD01CF010895EE0FFF1F0590F491E02D43
:1020300009946817790768F4FB01DC01E40FF51FC8
:10204000A40FB51F02C002900E9241505040D8F725
:1020500008950C942B10FB01DC0102C001900D923D
:0C20600041505040D8F70895F894FFCF8D
:10206C00010731323841000432384120000331324B
:10207C0038200000323820200002313420200001AA
:10208C004D2A2A2000313233410034353642003794
:10209C00383943002A3023440010002000400080CF
:1020AC0000FE00FD00FB00F70000000000B8038BF1
:1020BC0003FB036103840371036203000000005AF5
:1020CC0005DD01FB030A023F2020004652414E5A17
:1020DC0020322E30002863294B72006D656C736FB3
:1020EC006674004E65753A2000416C743A2000000D
:00000001FF
