:100000000C948A010C94B2010C94B2010C947A10F5
:100010000C947A100C947A100C94B2010C94B201E6
:100020000C94B2010C94B2010C94A0130C94111214
:100030000C94B2010C94B2010C94B2010C94B20174
:100040000C9430100C94B2010C94B2010C94B201D7
:100050000C94B2010C94B2010C94B2010C94B20154
:100060000C94F2100C94B2014E65753A20006D6547
:100070006C736F6674002863294B7200323032361D
:1000800000202F2000322E370044495350412000D9
:1000900041546D656761333238500041546D656776
:1000A000613136380041546D65676138380041541C
:1000B0006D6567613800535620332C343A30780030
:1000C000535620323A00416C743A2000436F6D6DF4
:1000D000756E696361742E6572726F7200436F6E24
:1000E0006E656374204652454449202020005265C5
:1000F0006C65617365202A2D427574746F6E0053B0
:100100005620363A00535620353A00756E6B6E6FA6
:10011000776E204653003132384120465300323842
:1001200041204653003132382046530031342046B6
:10013000530032384D204653003238204653005386
:100140005631303A002D2D2D00535620382C393A97
:1001500000535631323A0073656C667465737400EF
:100160006F7065726174696E6700535631313A0081
:100170004F6E6520536869667420627574746F6E83
:100180000054776F20536869667420627574746FC9
:100190006E00465245444920772E204252414B453D
:1001A000005357442D4652454449004D61747269CD
:1001B000782D465245444900416E612E2D506F7492
:1001C000692046312D463400496E63722E2D456EEE
:1001D000632E2046312D463400756E6B6E6F776E40
:1001E00020486172647761726500416E616C6F676F
:1001F0002E2D506F746900496E63722E456E632E0A
:100200002053776974636800496E63722E2D456EC2
:10021000636F64657200756E6B6E6F776E204861F8
:1002200072647761726500466F72772D4F66662D36
:100230005265762D537700466F72772D5265762D75
:10024000537700535631352D31373A0053563133F9
:100250002C31343A004252414B453A2046006E6FF1
:10026000204252414B4500535634343A004F5043DC
:100270005F494D4D20616374006E6F204F50435FA6
:10028000494D4D00535634333A002E2E2E2E2E2E2D
:100290002E2E2E2E2E2E2E2E2E2E003C20303030A6
:1002A000203E20202020202020202E0053563138B0
:1002B0002E2E2E33340000000000240027002A00D8
:1002C0000000000800020100000304070000000015
:1002D00000000000000000002300260029000000AC
:1002E0000000250028002B00040404040404040476
:1002F00002020202020203030303030301020408D1
:10030000102040800102040810200102040810207F
:10031000D613031D11241FBECFEFD8E0DEBFCDBF23
:1003200026E0AAEBB1E001C01D92A73DB207E1F7BC
:1003300011E0A0E0B1E0E4E2FBE302C005900D9221
:10034000AA3BB107D9F711E0C9E8D1E004C0219771
:10035000FE010E94411DC838D107C9F70E94F3145D
:100360000C94851D0C940000CF93DF93FC0129E1D0
:100370008EE241E050E033E071E09081907690367B
:10038000D1F4918190937A05A0917A05A1501092B1
:1003900079059FEF609179056A1790F4C09179050E
:1003A000CE0FDF2FD11D68819627609179056F5F91
:1003B00060937905EFCF9081929596709E5FE2CF22
:1003C000AE0FBF2FB11D9C93F8949091780591309A
:1003D00059F490917705981738F01092780590911C
:1003E0006F009D7F90936F00789490917805913085
:1003F00039F490917705943108F4BFCF70E0BDCF08
:100400009091780591110EC0F89490916F009F7DA6
:1004100090936F00B59B09C090916F00906290938C
:100420006F0078947111A9CF51C0A0917505B0915A
:1004300076059C9160917405EA0102C0CC0FDD1F26
:100440006A95E2F79C2B9C936091840070918500E3
:100450006A5A7C4F709373056093720560917205C0
:100460007091730570938900609388007894F0937D
:100470007105E09370051092790510926F059081D7
:1004800090936E053093780510927705B19A90910C
:100490006F00926090936F00909178059330E1F334
:1004A00090916F05992381F0E0916C05F0916D05B5
:1004B000E757FF4F8081918101969183808383E08C
:1004C00090E0DF91CF910895909178058B3108F0FD
:1004D0008150215009F050CF809106069091070677
:1004E0000196909307068093060686E090E0E9CF98
:1004F000833081F028F4813099F08230A9F008959A
:100500008730A9F08830C9F08430B1F48091800040
:100510008F7D03C0809180008F7780938000089545
:1005200084B58F7784BD089584B58F7DFBCF80918E
:10053000B0008F778093B00008958091B0008F7DD8
:10054000F9CF1F93CF93DF93282F30E0F901E054C8
:10055000FD4F8491F901E450FD4FD491F901E85128
:10056000FD4FC491CC23A9F0162F81110E9478026F
:10057000EC2FF0E0EE0FFF1FE252FD4FA591B4917A
:100580008FB7F894EC91111108C0D095DE23DC935D
:100590008FBFDF91CF911F910895DE2BF8CFCF93BE
:1005A000DF9390E0FC01E450FD4F249188519D4F72
:1005B000FC0184918823C9F090E0880F991FFC0109
:1005C000EA54FD4FA591B491FC01E252FD4FC59153
:1005D000D49161110DC09FB7F8948C91209582231E
:1005E0008C938881282328839FBFDF91CF91089522
:1005F000623051F49FB7F8943C91822F8095832309
:100600008C93E8812E2BEFCF8FB7F894EC912E2BA3
:100610002C938FBFEACF3FB7F8948091D704909185
:10062000D804A091D904B091DA0426B5A89B05C0DE
:100630002F3F19F00196A11DB11D3FBFBA2FA92F61
:10064000982F8827BC01CD01620F711D811D911D5E
:1006500042E0660F771F881F991F4A95D1F70895CA
:100660002FB7F8946091D3047091D4048091D5048D
:100670009091D6042FBF08950F931F93CF93DF93CC
:100680000E9430030091D3061091D4062091D50624
:100690003091D606601B710B820B930B653171058F
:1006A0008105910508F453C00E9430036093D3067E
:1006B0007093D4068093D5069093D606C091D10648
:1006C0008091D206C13C20F081958093D20602C071
:1006D000C032D0F38091D206C80FC093D106D0911A
:1006E000D00661E08D2F0E94CF02C11108C060E0EA
:1006F0008D2FDF91CF911F910F910C94A102CF3FCD
:1007000011F461E0F5CFED2FF0E0E054FD4FE491FE
:10071000E33039F138F4E130B1F0E230E9F0C7FD0F
:10072000F0CFE5CFE73041F1E83071F1E430B9F7CF
:1007300080918000806280938000D0E0D0938B0015
:10074000C0938A0004C084B5806884BDC7BDDF91B2
:10075000CF911F910F91089584B5806284BDC8BD6B
:10076000F6CF80918000806880938000D0E0D093A5
:100770008900C0938800EBCF8091B000806880939F
:10078000B000C093B300E3CF8091B000806280934B
:10079000B000C093B400DBCF8F929F92AF92BF9214
:1007A000CF92DF92EF92FF924B015C010E940B030C
:1007B0006B017C010E943C030E940B036C197D09B4
:1007C0008E099F09683E73408105910598F321E0E9
:1007D000821A9108A108B10888EEC80E83E0D81EDD
:1007E000E11CF11C81149104A104B10429F7FF90CC
:1007F000EF90DF90CF90BF90AF909F908F90089533
:1008000008950895AF92BF92CF92DF92EF92FF9238
:100810000F931F93CF93DF936C017B018B01040F28
:10082000151FEB015E01AE18BF08C017D10759F0C4
:100830006991D601ED91FC910190F081E02DC60106
:100840000995892B79F7C501DF91CF911F910F9100
:10085000FF90EF90DF90CF90BF90AF9008952091E0
:100860004502309146022817390771F490914302EE
:1008700080914402981741F0E0914302F0E0E1508A
:10088000FE4F808190E008958FEF9FEF08950895C7
:10089000EF92FF920F931F93CF93DF93DC015C964F
:1008A000ED90FC905D97E114F10479F481E090E023
:1008B00013969C938E93129790E080E0DF91CF91F6
:1008C0001F910F91FF90EF9008955196ED91FC913B
:1008D000529750968C915097982F90950FB75E969F
:1008E0002C915E97122F127021FD6095F894208153
:1008F000112319F1282B2083E7012197F1F728E034
:10090000462F50E0308160FF1AC0382B3083E7015A
:100910002197F1F7BA0175956795215089F7112351
:1009200081F08081892380830FBF5C968D919C919B
:100930000197F1F781E090E0C1CF2923DCCF392383
:10094000E5CF9081892BEFCF20914502309146026F
:100950002817390761F4809144022091430290E006
:10096000805C9F4F821B91098F739927089590E0B7
:1009700080E00895209145023091460228173907FA
:10098000B9F49091430280914402981789F0E09164
:100990004302F0E0E150FE4F80812091430230E0BD
:1009A0002F5F3F4F2F7333272093430290E008952A
:1009B0008FEF9FEF089508952091DC01260F3327D4
:1009C000331F21323105ECF420915206FC0190E0F6
:1009D00080E0243069F082E00895A091DC0121914B
:1009E000AC0144545E4FA40FB52FB11D2C9301965A
:1009F000861798F38091DC01680F6093DC0180E03A
:100A0000089581E008951092520681E08093510686
:100A100010922C0661E082E10E94A10261E083E174
:100A20000E94A102E9EBF0E080818E7F80838081CB
:100A30008D7F808388E48093B80085E48093BC0038
:100A40000895CF93DF9391E09093BB018823B9F091
:100A5000C091B800D091BA008091BC008A7B80938D
:100A6000BC0060E082E10E94A10260E083E10E949C
:100A7000A1020E940305D093BA00C093B800DF9191
:100A8000CF910895CF92DF92EF92FF920F931F9331
:100A9000CF93DF93D0917B0681E0D13208F09CC0E8
:100AA000C0917A060E940B036B017C018091520673
:100AB00081116CC082E08093520681E080935106E0
:100AC0008FEF8093500610924F06D0934E06AAE502
:100AD000B6E0EEE2F6E080E0D8138DC010922D066D
:100AE00080912D06CC0FC82BC0932D0680912C062B
:100AF000813009F084C010922C060E940B036B0118
:100B00007C0180912D068093BB00809154069091CA
:100B10005506A0915606B0915706892B8A2B8B2B30
:100B2000A1F00E940B0300915406109155062091EC
:100B30005606309157066C197D098E099F090617D4
:100B400017072807390708F442C08091BC0083FDCD
:100B5000D8CF85EC8093BC000E940B036B017C0115
:100B600080915206823009F44CC0809150068F3F2C
:100B700009F469C080915006803209F466C0809102
:100B80005006803309F463C084E026C08091540687
:100B900090915506A0915606B0915706892B8A2B45
:100BA0008B2B09F483CF0E940B0300915406109104
:100BB000550620915606309157066C197D098E090D
:100BC0009F09061717072807390708F06FCF80918C
:100BD00053060E94210585E01092590610927B066B
:100BE00010925806DF91CF911F910F91FF90EF90D7
:100BF000DF90CF9008959D9191938F5F6DCF85EE9B
:100C0000A9CF8091540690915506A0915606B091B7
:100C10005706892B8A2B8B2B09F4A2CF0E940B033A
:100C200000915406109155062091560630915706B2
:100C30006C197D098E099F090617170728073907C0
:100C400008F08ECFC4CF80E0C7CF82E0C5CF83E06D
:100C5000C3CFCF92DF92EF92FF920F931F93CF9368
:100C6000DF93D82FC62F613208F098C00E940B0383
:100C70006B017C018091520681116BC081E08093F1
:100C80005206809351069FEF9093500610924F06A4
:100C90009C0F90934E0680932D0680912D06DD0FBC
:100CA000D82BD0932D0680912C06813009F078C086
:100CB00010922C060E940B036B017C0180912D0683
:100CC0008093BB008091540690915506A0915606E2
:100CD000B0915706892B8A2B8B2BA1F00E940B0316
:100CE00000915406109155062091560630915706F2
:100CF0006C197D098E099F09061717072807390700
:100D000008F448C08091BC0083FDD8CF85EC809367
:100D1000BC000E940B036B017C0180915206813064
:100D200009F440C080914F068C1710F4C0914F0613
:100D3000EEE2F6E0AAE0B6E080E08C1355C08C2F1E
:100D4000DF91CF911F910F91FF90EF90DF90CF90A7
:100D500008958091540690915506A0915606B09141
:100D60005706892B8A2B8B2B09F484CF0E940B0307
:100D70000091540610915506209156063091570661
:100D80006C197D098E099F0906171707280739076F
:100D900008F070CF809153060E942105C0E0CFCFAC
:100DA00085EEB5CF8091540690915506A0915606D8
:100DB000B0915706892B8A2B8B2B09F4AECF0E945A
:100DC0000B03009154061091550620915606309160
:100DD00057066C197D098E099F0906171707280702
:100DE000390708F09ACFD6CF91919D938F5FA5CF09
:100DF000E091530280915202E81730F4F0E0E65F90
:100E0000F94F808190E008958FEF9FEF08959091C2
:100E10005302809152022FEF3FEF981748F4E92FC9
:100E2000F0E0E65FF94F208130E09F5F909353023E
:100E3000C90108958091520290915302891B990B28
:100E40000895CF92DF92EF92FF920F931F93CF936B
:100E5000DF937C01CB018A0120915806222389F07F
:100E6000EB016B01C40ED51ECC15DD0569F069914F
:100E7000D701ED91FC910190F081E02DC70109951A
:100E8000F3CF642F0E94DC04C801DF91CF911F9142
:100E90000F91FF90EF90DF90CF900895CF93DF9365
:100EA0001F92CDB7DEB76983209158062223F9F04F
:100EB00020917B06203258F021E030E0FC013383A2
:100EC000228390E080E00F90DF91CF910895809190
:100ED0005906E82FF0E0E65AF94F998190838F5F29
:100EE0008093590680937B0681E090E0ECCF61E02F
:100EF000CE0101960E94DC04F7CF60932A0670931E
:100F00002B0691E09093580680937A06109259062A
:100F100010927B068CE796E00E944E070C944205E7
:100F200090E080E008959C01DC01A058BF4FEC9157
:100F300091E09E0F9C93E20FF32FF11D608397FDCC
:100F40001C92089510928D0210928E0210928F02C0
:100F500010929002E1E9F2E0119283E0ED3BF80794
:100F6000D9F7EDEBF3E08EEC93E011928E179F072B
:100F7000E1F7089580918A0290918B02EEECF3E004
:100F80009C012F773327238B880F892F881F990B7C
:100F90009195878B81E0848B0895CF93DF93EC014B
:100FA00060E08E810E94A10261E08E810E94A10218
:100FB00060E08E810E94A1028BE891E00197F1F739
:100FC000DF91CF910895CF92DF92EF92FF920F932E
:100FD0001F93CF93DF936C017C0187E0E80EF11C37
:100FE000D0E0C0E0062F10E0B8010C2E02C07595CD
:100FF00067950A94E2F76170F70181917F010E9481
:10100000A1022196C430D10579F7C601DF91CF91B5
:101010001F910F91FF90EF90DF90CF900C94CD0730
:10102000CF92DF92EF92FF920F931F93CF93DF93B4
:10103000EC01F62E642F8C810E94A1028D818F3FDE
:1010400019F060E00E94A1020F2D10E08F8584FF4F
:1010500025C06E0187E0C80ED11CF12CE12CB8012F
:101060000E2C02C0759567950A94E2F76170F6013F
:1010700081916F010E94A102FFEFEF1AFF0A88E041
:10108000E816F10461F7CE01DF91CF911F910F9126
:10109000FF90EF90DF90CF900C94CD07B80184E0E3
:1010A000759567958A95E1F7CE010E94E3076F2D4C
:1010B000CE01DF91CF911F910F91FF90EF90DF90C4
:1010C000CF900C94E30740E0682F88EB96E00C94F7
:1010D0001008CF93DF93823029F49091C70698606F
:1010E0009093C7068093CB061092CC0680E4809341
:1010F000CD0680E18093CE0680E58093CF0661E047
:101100008091BC060E94CF028091BD068F3F19F0EE
:1011100061E00E94CF0261E08091BE060E94CF0292
:10112000C8EBD6E09E01285B36408091C70684FD5F
:101130000BC084E090E021962817390744F461E061
:101140008E810E94CF02EECF88E090E0F4CF8BE357
:101150009DE00197F1F760E08091BC060E94A1023A
:1011600060E08091BE060E94A1028091BD068F3F83
:1011700019F060E00E94A1028091C70684FD39C089
:1011800063E088EB96E00E94E307CBE4D6E4CE016F
:101190000197F1F763E088EB96E00E94E30721975F
:1011A000F1F763E088EB96E00E94E30783E592E0C5
:1011B0000197F1F762E088EB96E00E94E3078091E7
:1011C000C70680620E94630884E08093C8068CE0B2
:1011D0000E94630881E00E9463088BE39FE101970E
:1011E000F1F782E08093C90686E0DF91CF910C94FD
:1011F000630880620E9463088BE496E40197F1F72C
:101200008091C70680620E94630883E592E001979F
:10121000F1F78091C70680620E946308D0CF909159
:10122000CB06691710F06FEF690FE62FF0E0E85476
:10123000F94F9489890F80680C9463080C940F0906
:1012400081E00E9463088BE39FE10197F1F7089525
:1012500041E00E94100881E090E008950F931F93F1
:10126000CF93DF938C01D0E0C0E0F801EC0FFD1FBD
:101270006491662339F041E088EB96E00E94100803
:101280002196F3CFCE01DF91CF911F910F91089559
:101290000C942E0941E0682F88EB96E00E9410081C
:1012A00081E090E008950E94200960E080E00E94C3
:1012B0001E0989E890E00E94480985E890E00E94B4
:1012C000480981E890E00E9448098CE790E00E947C
:1012D000480961E080E00E941E0986E790E00E94D4
:1012E000480985EF0E944A098EE690E00E9448096D
:1012F00060ED77E080E090E00E94CC030C94200940
:101300001F93CF93DF93D82F162FC42F0E940F095E
:10131000C15020F080E20E944A09FACF612F8D2F40
:10132000DF91CF911F910C940F09CF93DF938091A0
:101330005802882379F1C0910101CC2359F1D1E001
:10134000D0935806C0937A061092590610927B06E5
:1013500067EF8CE796E00E944E070E944205D0930B
:1013600058061092590610927B0661E08C2F0E945D
:10137000290610925302809352028CE796E00E9455
:101380000707C82F0E94420583E6C73E21F082E688
:10139000C73B09F08FEFDF91CF9108958F929F9215
:1013A000AF92BF920F931F93CF93DF93CDB7DEB76A
:1013B000A1970FB6F894DEBF0FBECDBF19A2423081
:1013C00008F44AE08E010F5D1F4F842E912CB12C42
:1013D000A12CA50194010E941F1DE62FB901CA018D
:1013E000EA3044F5E05DD801EE938D01232B242BE8
:1013F000252B79F790E080E0109769F0FD010190CE
:101400000020E9F73197AF014A1B5B0BBD0188EB68
:1014100096E00E940204A1960FB6F894DEBF0FBEBC
:10142000CDBFDF91CF911F910F91BF90AF909F9053
:101430008F900895E95CD7CF462F682F70E090E039
:1014400080E00C94CE09823091F030F4813059F074
:101450006AE070E00C941C0A833061F08430C1F7BC
:1014600080E990E002C08EEA90E00C942E0985EAB3
:1014700090E0FBCF8BE990E0F8CFCF93C82F6AE0E4
:1014800070E082958F700E941C0A6AE070E08C2FD9
:101490008F70CF910C941C0ACF93DF931092590256
:1014A0000E94200960E080E00E941E0980EC90E02C
:1014B0000E942E096AE070E080915C020E941C0A82
:1014C00061E080E00E941E0986EB90E00E942E09F8
:1014D000C0915E02D0E0DC2FCC2760915D02C60F88
:1014E000D11DC11580E1D80780F480E30E944A092C
:1014F000CF3FD10509F048F480E30E944A09C0318A
:10150000D10518F480E30E944A09BE0190E080E012
:1015100040E1DF91CF910C94CE09CF93DF93EC01A2
:10152000C83E83E0D80778F480E30E944A09C436B5
:10153000D10548F480E30E944A09CA30D10518F465
:1015400080E30E944A09BE0190E080E04AE0DF911A
:10155000CF910C94CE0944E061E085E00E948009BF
:1015600061E085E00E941E0980918A0290918B02C1
:101570000E948D0A0C94BA07009769F0FC01019053
:101580000020E9F73197AF01481B590BBC0188EBEC
:1015900096E00C9402040895CF92DF92EF92FF92AE
:1015A0000F931F93CF93C82F0E943003E0914702FF
:1015B0000091CC041091CD042091CE043091CF0441
:1015C0006B017C01C01AD10AE20AF30A9701860175
:1015D00088EE93E0E89FA001E99F500D1124052EAD
:1015E000000C660B770B401751076207730768F40E
:1015F00061E08E2F0E941E098DE991E00E94BC0AD5
:10160000809147028F5F809347020E9430030091D0
:10161000CC041091CD042091CE043091CF04AB01C5
:10162000BC01401B510B620B730B28EE33E0C29FD1
:10163000C001C39F900D1124092E000CAA0BBB0BF7
:1016400084179507A607B707E0F440E160E080E063
:101650000E94800961E080E00E941E098CEC90E00D
:101660000E9448090E943C030E9495098336D1F7E5
:1016700081E0CF911F910F91FF90EF90DF90CF907D
:10168000089580E0F6CFCF93C091E003C87FE0914A
:10169000000186E0E89FF0011124E75BFE4F8081A6
:1016A000C82BC093E00361E08CE00E941E09E9E4CE
:1016B000F1E030E020E0C7708081C8130BC046E045
:1016C000429FC001439F900D1124865B9E4FCF9196
:1016D0000C94BC0A2F5F3F4F36962630310561F7D8
:1016E0008FE991E0F4CF809100018F5F863021F087
:1016F000809300010C94430B10920001FBCF61E03A
:1017000080E00E941E0988E690E00E94480981E07E
:10171000809300010C94730B1092D1041092590223
:101720000E9453090C947F0B80E090E0892B21F4F8
:1017300080EA91E00C94BC0A8091CA049091CB0499
:101740000E9400008823A1F3089585ED8093BC00DA
:101750008091540690915506A0915606B091570677
:101760000796A11DB11D23E0B695A795979587957E
:101770002A95D1F72091BC0024FD03C01092520697
:101780000895409154065091550660915606709107
:101790005706452B462B472B69F30097A105B1054A
:1017A00041F02AE22A95F1F700C00197A109B10999
:1017B000E1CF809153060C9421052F923F924F92D6
:1017C0005F926F927F928F929F92AF92BF92CF92D1
:1017D000DF92EF92FF920F931F93CF93DF9300D08E
:1017E00000D0CDB7DEB79C838B837C0141E8E40E4B
:1017F000F11C6C0150E8C50ED11C8C010E571F4F17
:101800008D579F4F2C018B819C818C579F4F4C0192
:1018100022242A94AB80BC8097E8A90EB11CEB81EE
:10182000FC81EB57FF4FFA83E983F7018081F601D2
:101830009081891709F4BAC0EB81FC81E80FF11D92
:10184000308037FE6DC0F8019081891739F0F501BD
:10185000208131812F5F3F4F31832083F8018083C6
:10186000F2012082832D8076F401803609F441C094
:10187000832D829586708E5F8083F8012081F4012C
:101880008081820F9927991F813891059CF180E80A
:10189000682E621AF894F6014081F801808184175D
:1018A00008F044C0F42FF81B8F2FF6018083789442
:1018B000F80160814617E8F5712C50E06B817C815E
:1018C000CB01860D971D0E94471DF80160814B8159
:1018D0005C81460F511DBA01A3018B819C810E943E
:1018E000471DF7018081F8019081891BF7018083F2
:1018F000F8011082F70190819F5F9083F801808149
:10190000392F381B97FF02C0F7011082F2012081A6
:10191000F40190819317A9F03226F201308285CF2D
:10192000F40180818111E6CF3082A7CF862D840F0C
:10193000BCCF461B50E08B819C81860F911DBC0162
:10194000CCCF32122AC04B815C81480F511DCA0195
:10195000E981FA81408151814F5F5F4F518340831C
:10196000F7013081F80130830097B1F20F900F90AA
:101970000F900F90DF91CF911F910F91FF90EF90FB
:10198000DF90CF90BF90AF909F908F907F906F909F
:101990005F904F903F902F900895F5018081918145
:1019A00001969183808390E080E0DACF90E080E040
:1019B000DDCF7F928F929F92AF92BF92CF92DF92B4
:1019C000EF92FF920F931F93CF93DF93B82ED62EF3
:1019D000F42E722EE89477F814E127FF10E1802EA0
:1019E000E89487F8D1E107FFD0E19E2CE89497F8BE
:1019F000E7FCD2600C2D0F77C7FCD460C8E0CF2580
:101A0000CD25CB25CA25C027C925C825C725C1276F
:101A1000CD2765EE8DED94E00E94930760E18DED9A
:101A200094E00E94930760E08DED94E00E9493079C
:101A30006B2D8DED94E00E94930762E08DED94E0B4
:101A40000E949307612F8DED94E00E9493076D2D06
:101A50008DED94E00E9493076F2D8DED94E00E9430
:101A60009307672D8DED94E00E94930760E08DED64
:101A700094E00E9493076D2F8DED94E00E949307F0
:101A8000682D8DED94E00E949307692D8DED94E013
:101A90000E949307602F8DED94E00E9493076A2DBA
:101AA0008DED94E00E9493076C2F6F778DED94E09D
:101AB0000E9493076FEF8DED94E00E9493078DEDE8
:101AC00094E00E94DD0B9093DC048093DB0400978C
:101AD00011F00E94B40181E0DF91CF911F910F912D
:101AE000FF90EF90DF90CF90BF90AF909F908F903E
:101AF0007F900895AF92CF92EF920F93A12CC12CBB
:101B0000E12C00E020E040E060E087E00E94D90C9A
:101B10000F91EF90CF90AF9008951F93CF93DF93E5
:101B2000182FD62FCBE4C627C82764EB8DED94E0A1
:101B30000E949307612F8DED94E00E9493076D2F13
:101B40008DED94E00E9493076C2F8DED94E00E9440
:101B500093076FEF8DED94E00E9493078DED94E075
:101B60000E94DD0B9093DC048093DB04009729F046
:101B7000DF91CF911F910C94B401DF91CF911F9110
:101B800008959F92AF92BF92CF92DF92EF92FF9211
:101B90000F931F93CF93DF93682F70E099E0899F95
:101BA000F0011124E253FC4F15812181412F50E0B7
:101BB000440F452F441F550B240F352F311D909195
:101BC000D104911112C0232B09F094C060E08AE384
:101BD000DF91CF911F910F91FF90EF90DF90CF9009
:101BE000BF90AF909F900C948D0D8C3178F7232B84
:101BF00011F493E09183D82F89E0869FF001879FAD
:101C0000F00D1124E253FC4F9080A180B280C3807C
:101C1000D480E680F7800085C3E1CD27C127C925A0
:101C2000CA25CB25CC25CD25CE25CF25C02767EECF
:101C30008DED94E00E9493076EE08DED94E00E949C
:101C400093076D2F8DED94E00E949307692D8DED24
:101C500094E00E9493076A2D8DED94E00E94930713
:101C60006B2D8DED94E00E9493076C2D8DED94E02B
:101C70000E94930765E08DED94E00E9493076D2D1F
:101C80008DED94E00E949307612F8DED94E00E940A
:101C900093076E2D8DED94E00E9493076F2D8DEDCF
:101CA00094E00E949307602F8DED94E00E949307CB
:101CB0006C2F6F778DED94E00E9493076FEF8DEDA1
:101CC00094E00E9493078DED94E00E94DD0B9093C9
:101CD000DC048093DB04009789F0DF91CF911F91A2
:101CE0000F91FF90EF90DF90CF90BF90AF909F90BB
:101CF0000C94B4018C3108F47ECF68CFDF91CF9182
:101D00001F910F91FF90EF90DF90CF90BF90AF9019
:101D10009F900895EF92FF920F931F93CF93DF93BD
:101D20008BE795E00E94DD0BFC019093DC0480932F
:101D3000DB04892B09F496C08081C181823A09F4C1
:101D40009CC008F081C0803A09F489C0813A09F446
:101D500090C0853E09F0A0C08481823009F04CC05B
:101D60008381853409F048C08085883009F044C0FB
:101D70008185811141C0828590E023852F77AC0158
:101D80005695542F442757954795240F3091E103DA
:101D900032132FC09C0116E0220F331F1A95E1F772
:101DA000207834853F77232B3091E503321321C00F
:101DB000A091000126E0A29FD0011124A75BBE4F95
:101DC0009C01D5E0220F331FDA95E1F720783585A5
:101DD0003F77232B3C9132130CC074E0880F991F7E
:101DE0007A95E1F7807896859F77892B853509F478
:101DF00051C080E88093D004CC31A0F5848182303A
:101E000089F58381873471F5828590E09C0144E0F7
:101E1000220F331F4A95E1F7207836853F77232B31
:101E200030E0322F222765E0880F991F6A95E1F78D
:101E3000807895859F77892B820F932F911D9093A2
:101E4000CB048093CA040EC0843DD9F08D3E21F1AD
:101E5000833A09F07ECF828180934A0203C0828157
:101E600080935102DF91CF911F910F91FF90EF90DE
:101E70000895828180934802F5CF82818093490240
:101E8000F1CFC03279F78381883061F78481809304
:101E90004B02E8CF83E0AECFCC3120F78F3B09F483
:101EA0007DC038F48A3B09F4A9C08B3BD9F68C2F4E
:101EB00096C0853E09F4A2CF8F3EA1F692819C3157
:101EC00088F653810481458136812085F18482859D
:101ED000E3841485C92FD0E069E0969FF0011124B6
:101EE000E253FC4F50830183428333832483F58282
:101EF0008683E78210876FE78FE60E948D0D212F82
:101F000030E0322F22272E0D311D3093CB04209349
:101F1000CA041092D0048091D1048111A3CF40E172
:101F200060E00E94800960E080E00E941E0986EC6B
:101F300090E00E944809802F90E0FF2031F040E8B7
:101F4000F49E90011124820F931F0E948D0A60E07D
:101F50008CE00E941E0989E08C9FF0018D9FF00D9E
:101F60001124E253FC4F8081E9E4F1E030E020E00D
:101F70008770908189136AC046E0429FC001439FE9
:101F8000900D1124865B9E4F0E94BC0ADF91CF9179
:101F90001F910F91FF90EF900C94940B4281AEEC47
:101FA000B3E0FD0181E09285491303C096859C173B
:101FB000B1F08F5F39968C31B1F721E030E0822F9C
:101FC00019969C911997907391F499E0929FF00162
:101FD000939FF00D1124E253FC4F4183C583DF91A1
:101FE000CF911F910F91FF90EF900C94C10D2F5F37
:101FF0003F4F19962C31310511F734CF82818C1364
:1020000022C0CC23F1F049E0C49FF0011124E25337
:10201000FC4F8081806380838C2F0E94C10DE091F2
:10202000DB04F091DC04828181111CCF69E0C69F42
:10203000E0011124C253DC4F88818F7E8062888347
:1020400011CF82E0CCCFC111EACF0CCF2F5F3F4F31
:1020500036962630310509F08CCF8FE991E094CF88
:102060001F920F920FB60F9211242F933F938F93CD
:102070009F93AF93BF938091D3049091D404A09188
:10208000D504B091D6043091D20423E0230F2D372C
:1020900058F50196A11DB11D2093D2048093D3045D
:1020A0009093D404A093D504B093D6048091D70420
:1020B0009091D804A091D904B091DA040196A11DA1
:1020C000B11D8093D7049093D804A093D904B09302
:1020D000DA04BF91AF919F918F913F912F910F9013
:1020E0000FBE0F901F90189526E8230F0296A11D92
:1020F000B11DD2CF1F920F920FB60F9211242F93C2
:102100003F934F935F936F937F938F939F93AF937F
:10211000BF93EF93FF93E0914502F0914602309711
:1021200049F0A685B7858585968D91FF14C09C9151
:102130008923A1F4FF91EF91BF91AF919F918F916E
:102140007F916F915F914F913F912F910F900FBEB3
:102150000F901F9018959C91892361F7A389B489EA
:102160009C918589809589238C938689978901978D
:10217000F1F7608D718DA685B785558538E020E033
:10218000CB010197F1F7822F90E095958795282F45
:102190004C91452309F02068315091F7868D81FDDF
:1021A00020958091440290E001968F739927309199
:1021B0004302381799F0A0914402B0E0A150BE4FFD
:1021C0002C9380934402828D938D0197F1F7A3891C
:1021D000B4898C919589892B8C93ACCF868D816045
:1021E000868FF1CF1F920F920FB60F9211242F936B
:1021F0003F934F935F936F937F938F939F93AF938F
:10220000BF93EF93FF938091B900887F803609F4E4
:102210004AC0F0F5883209F4A7C018F5803109F4F6
:102220009BC0B8F4882309F4F9C0883009F494C03D
:10223000FF91EF91BF91AF919F918F917F916F919E
:102240005F914F913F912F910F900FBE0F901F9074
:102250001895883109F488C0803251F78093500670
:1022600014C0803409F49DC040F48033B9F388333E
:10227000F9F68093500685ECB0C0803509F485C02E
:10228000883509F496C0883499F60E94A50BD0CF02
:10229000883909F48CC038F5883729F050F488362D
:1022A00011F0803729F683E0809352061092FE01E8
:1022B00057C0883809F47BC0803919F0803809F09C
:1022C000B7CF8091FE01803208F071C0E091FE012D
:1022D00081E08E0F8093FE018091BB00F0E0E2521E
:1022E000FE4F80833DC0803B39F0E0F4803A09F432
:1022F00079C0883A09F09CCF84E08093520610920E
:10230000DD011092DC01E0914102F0914202099559
:102310008091DC0181110FC081E08093DC0110927B
:10232000BC0109C0803C09F4A6CF883C09F4A3CFC6
:10233000883B09F07DCFE091DD0181E08E0F809335
:10234000DD01F0E0E454FE4F80818093BB0090916A
:10235000DD018091DC0129C080912D068093BB00B6
:1023600085EC8093BC0064CF90914F0680914E061F
:10237000981758F5E0914F0681E08E0F80934F0635
:10238000F0E0E25DF94F8081E9CFE0914F0681E016
:102390008E0F80934F068091BB00F0E0E25DF94F15
:1023A000808390914F0680914E069817C8F285E879
:1023B000D8CFE0914F0681E08E0F80934F06809139
:1023C000BB00F0E0E25DF94F8083809151068111FE
:1023D0005CCF81E080932C0684EA8093BC0010924D
:1023E000520626CF85EC8093BC0010925206809155
:1023F000FE01803230F4E091FE01F0E0E252FE4F47
:1024000010826091FE0170E0E0913F02F091400285
:102410008EED91E009951092FE010ACF10925006C0
:1024200034CF1F920F920FB60F921124CF92DF92EA
:10243000EF92FF920F931F932F933F934F935F93CE
:102440006F937F938F939F93AF93BF93CF93EF93AC
:10245000FF93B19A809172059091730580549C4FBF
:102460009093730580937205809172059091730526
:1024700090938900809388008091BA01882371F03D
:102480001092BA01189B26C081E080937805B59A16
:1024900080916F00806280936F001CC080917705EF
:1024A0008F5F8093770580917805843009F043C071
:1024B00080917705893030F580916E0590E0959593
:1024C000879580936E05189B05C080916E05806886
:1024D00080936E05FF91EF91CF91BF91AF919F9146
:1024E0008F917F916F915F914F913F912F911F91AC
:1024F0000F91FF90EF90DF90CF900F900FBE0F9055
:102500001F901895B59A80916F00806280936F003C
:1025100080916C0590916D05189929C0FC01E957CF
:10252000FF4F80819181019691838083109277057E
:1025300081E080937805809178058330E9F5E0911A
:102540007505F091760580812091740533B190E096
:10255000022E02C0959587950A94E2F7832780FDA5
:1025600011C01092770582E08093780525C06091B4
:102570006E050E94930780E090E0892BB9F20E94DB
:102580000000D4CF80917705893008F043C03091A6
:102590006E0581E090E001C0880F2A95EAF79081EE
:1025A00030FF36C080958923808380916E0590E04E
:1025B0009595879580936E0580917805823099F482
:1025C00080917705811196C0E0917505F0917605AF
:1025D00080819091740521E030E001C0220F9A952E
:1025E000EAF7822B808380917805813009F072CFE1
:1025F00080917705882309F44ACF80917705883345
:1026000008F468CF1092780580916F008D7F43CFDA
:10261000892BCACF80917705893059F4308181E0C8
:1026200090E001C0880F2A95EAF780958323808384
:10263000C3CF809179058F5F8093790590917A055A
:10264000891750F51092770580917005909171056A
:10265000A0917905A80FB92FB11D8C9180936E05BB
:10266000808141E050E001C0440F2A95EAF7842BB5
:10267000808380918400909185008A5A9C4F90932A
:102680007305809372058091720590917305909304
:1026900089008093880090CF81E080936F05E0905F
:1026A0007005F0907105C0906C05D0906D05F70134
:1026B00080818076803679F4C18110E000E00C17CB
:1026C00078F4F701E00FF11F6081C6010E949307C3
:1026D0000F5F1F4FF4CFC081C295C670CE5FEDCFA4
:1026E00080E090E0892B11F00E94000010927705A5
:1026F00081E03ACF809177058F3008F474CFE09174
:102700007505F091760520813091740581E090E0A7
:1027100001C0880F3A95EAF7809582238083109252
:10272000770581E080937805E0916C05F0916D0567
:10273000E357FF4F8081918101969183808353CF2E
:102740001F920F920FB60F9211248F939F93EF93C6
:10275000FF93B59AEFE6F0E080818F7D80838091D2
:1027600086009091870080529E4F909373058093CE
:102770007205809172059091730590938900809302
:102780008800B19A80818260808384E0809378059C
:102790001092770581E08093BA01FF91EF919F91AC
:1027A0008F910F900FBE0F901F901895CF92DF92D0
:1027B000EF92FF92CF93DF9310927F0610927E06E6
:1027C00028EEC22E23E0D22EE12CF12CC0928006FE
:1027D000D0928106E0928206F092830681E791E032
:1027E00090937D0680937C0686E08093D00680E8F7
:1027F0008093D10688E08093D2061092D30610927F
:10280000D4061092D5061092D60661E086E00E94AA
:10281000CF020E9430036093D3067093D406809356
:10282000D5069093D6068091010190E09093890699
:10283000809388061092BB061092BA0685E991E053
:102840009093B9068093B8068CE08093BC068FEF16
:102850008093BD068BE08093BE0689E08093BF061F
:1028600085E08093C00684E08093C10683E0809376
:10287000C2061092C3061092C4061092C5061092AA
:10288000C6061092C70681E00E94690810929C0655
:1028900010929B06C0929D06D0929E06E0929F06E3
:1028A000F092A00683E891E090939A0680939906AF
:1028B0001092B0061092AF061092B2061092B106B6
:1028C0001092B4061092B3061092B6061092B50696
:1028D0006091B7066E7F6D7F6093B70666956170F5
:1028E00081E068278DE00E94A10261E08DE00E94F6
:1028F000CF02E9E0F3E0E491E093A906E5EFF2E02E
:10290000E491F0E0EE0FFF1FE252FD4F85919491AC
:102910009093AB068093AA0660E08AE00E94CF0203
:102920008091B70681FD04C061E08AE00E94A102A7
:102930008AE08093A506E6E0F3E0E491E093A60642
:10294000E2EFF2E0E491F0E0EE0FFF1FEC52FD4FFA
:10295000859194919093A8068093A70684E190E0D6
:10296000A0E0B0E080938E0690938F06A09390062F
:10297000B0939106109292061092930610929406CC
:10298000109295060E94300360938A0670938B061E
:1029900080938C0690938D06EEECF2E08491EAE051
:1029A000F3E0D491E6EFF2E0C491CC2379F0811109
:1029B0000E947802EC2FF0E0EE0FFF1FEC52FD4F6B
:1029C000A591B491EC91ED2381E009F480E080932E
:1029D00096068EE080939706DF91CF91FF90EF905F
:1029E000DF90CF900895CF93DF9300D000D01F9257
:1029F000CDB7DEB7789484B5826084BD84B581603C
:102A000084BD85B5826085BD85B5816085BD8091B9
:102A10006E00816080936E00109281008091810031
:102A20008260809381008091810081608093810029
:102A3000809180008160809380008091B1008460EB
:102A40008093B1008091B00081608093B00080914C
:102A50007A00846080937A0080917A00826080930B
:102A60007A0080917A00816080937A0080917A0068
:102A7000806880937A001092C100EEECF3E010823F
:102A8000399624E0EA3CF207D1F783E38093E00330
:102A9000EBE7F5E08FE8DF011D928A95E9F761E049
:102AA00087E00E94CF02E3E0F3E02491EFEEF2E052
:102AB000E491F0E0EE0FFF1FE252FD4F459154917B
:102AC00080E091E031E0291741F08F5F932F082ECD
:102AD00001C0990F0A94EAF7F6CF50937605409318
:102AE0007505809374058BE795E090936D05809351
:102AF0006C052098E0917505F09176052081309164
:102B0000740581E090E001C0880F3A95EAF780955E
:102B1000822380831092800011E010938100109234
:102B20007805B59A80916F00806280936F008091E4
:102B30008100887F816080938100109253021092FF
:102B400052021092590610927B060E94030580E003
:102B500094E0909342028093410281E094E090934C
:102B6000400280933F0289E380930101109358064D
:102B700080937A060E944205811107C08091580215
:102B8000882309F4BBC181E010C081E28093010178
:102B90001093580680937A061092590610927B067D
:102BA0000E944205882351F380E08093580282E01E
:102BB0000E9469080E94530962E08EE00E94CF02E1
:102BC00061E080E10E94CF020E94A2071092B40649
:102BD0001092B3061092B2061092B1061092B0068F
:102BE0001092AF068DE991E09093B6068093B506FA
:102BF0009091A506963108F047C02DEB30E0309358
:102C0000B0062093AF062BE931E03093B206209353
:102C1000B1062CE231E03093B4062093B306209144
:102C2000680084E0983048F031E09E3008F430E0ED
:102C300081E001C0880F3A95EAF7822B8093680003
:102C40002DE630E0983050F02BE630E09E3030F04A
:102C50002CE630E0963110F030E020E03093AD0605
:102C60002093AC06292F30E0983008F057C181E05E
:102C700001C0880F9A95EAF78093AE068091B50659
:102C80009091B6060197F1F78091B3069091B40642
:102C9000892B49F1E0914502F0914602B6E0E9390D
:102CA000FB0709F1309739F0A389B4899C91858994
:102CB000809589238C938091B7068E7F8093B70689
:102CC000109244021092430289E996E090934602E2
:102CD00080934502E091AC06F091AD068081909121
:102CE000AE06892B80830E949509833609F051C076
:102CF00060ED77E080E090E00E94CC030E949509AF
:102D0000833609F046C060E080E00E941E098EEE26
:102D100090E00E9448090E9495098336E1F360E043
:102D200080E00E941E098DED90E00E94480981E03C
:102D30008093D104EAE5F2E08AE892E011928E17DE
:102D40009F07E1F781E0809347020E943003609380
:102D5000CC047093CD048093CE049093CF048091E3
:102D6000CA049091CB04892B09F0E5C00E943C0372
:102D70000E947A0D68EE73E080E090E00E94CC0340
:102D80000E948A0E8FE00E94CC0A882341F30E94A1
:102D90008C0B8091D104811102C00E947F0BDE0157
:102DA00011964D01B0E8FB2E0E943C030E948A0E52
:102DB0008091D104811137C180915802882309F490
:102DC00045C0C0905602D0905702E090880670909F
:102DD0008906F601EE0FFF1FEF5BFE4F60817181E8
:102DE0008E2D972D0E947D07E9E3AE2EE1E0BE2EE9
:102DF00010E000E061E08E2D0E942906109253023F
:102E0000809352028CE796E00E940707D5014D910E
:102E10005D915D0120912A0630912B068227932730
:102E20008417950709F085C185E08C9DF0018D9D83
:102E3000F00D1124EB5DFE4FE00FF11F8081082E95
:102E4000000C990B9093550280935402E12C00E002
:102E5000E0FCB4C1E6FCB4C1E7FE14C08091D1042B
:102E60008111D3C1033609F0ADC110928C021092CA
:102E70008B0210928A020E94BA0747E061E085E067
:102E80000E9480098091D10481119BC38091D0045C
:102E9000813009F0BAC30E9430036093CC04709370
:102EA000CD048093CE049093CF048091CA04909176
:102EB000CB04892B09F0A7C30E943C030E947A0D22
:102EC00068EE73E080E090E00E94CC030E948A0EDE
:102ED0000E9430030091CC041091CD042091CE04C7
:102EE0003091CF04601B710B820B930B69397A43CD
:102EF00081059105D0F2F092D004D7CF80910101E5
:102F000090E090938906809388066FEF70E00E94AE
:102F10007D07109257021092560235CE9E3040F433
:102F20002850310981E001C0880F2A95EAF7A4CE24
:102F30002E503109F7CF64E670E080E090E00E9407
:102F4000CC0312E0812E11E0912E11E00E943C038F
:102F5000F40121914F01203308F062C06091CA044E
:102F60004091CB04A12CC12CE12C00E082E00E9416
:102F7000D90C109347020E9430036093CC047093E5
:102F8000CD048093CE049093CF040E943C038BE742
:102F900095E00E94DD0BDC019093DC048093DB0460
:102FA000892B39F08C918A3B51F460E08AE30E94CE
:102FB0008D0D85E00E94CC0A882339F3E8CE853E4A
:102FC000C1F711968C911197803199F714968C91D5
:102FD0001497823071F713968C911397823449F7C6
:102FE0001596EC91159720E2E29FF0011124E0780C
:102FF00018968C9118978F77E82B1A968C911A97C0
:1030000090E8899F900111241B968C918F77820FF5
:10301000E03308F09BCFF0E0E65AFD4F808396CF77
:103020000E944C0AB6CE80915902882309F4C4CE7E
:1030300010915102809150021817B9F060E082E0BF
:103040000E941E09143618F480E20E944A091A30C0
:1030500018F480E20E944A096AE070E0812F0E9421
:103060001C0A8091510280935002FCE4CF2EF2E0C2
:10307000DF2EA8E4AA2EA2E0BA2E03E0E12CF6018E
:1030800081916F01D5011D915D01811709F44BC03C
:10309000E1101FC060E080E00E941E09B12FB072F5
:1030A0007B2E8CE315FF80E20E944A0960E086E0F7
:1030B0000E941E0980E2711001C08EE30E944A093D
:1030C00060E08FE00E941E098CE714FF8EE20E94F0
:1030D0004A0963E08DEF800F0E941E098CE710FF04
:1030E0008EE20E944A0963E08EEF800F0E941E0963
:1030F0008CE711FF8EE20E944A0963E08FEF800F98
:103100000E941E098CE712FF8EE20E944A0963E0CA
:10311000802F0E941E098CE713FF8EE20E944A094D
:10312000F60131971083E3940C5FE4E0EE12A7CF31
:1031300043CE0F5F1F4F0430110509F05BCE0091A5
:103140005402109155020115110599F01092550283
:1031500010925402002309F479CE033209F10A32A5
:1031600051F1005360E8E62E0A30E8F040E8E42E22
:1031700019C06FEF70E08E2D972D0E947D07BFEF75
:10318000CB1ADB0AE4E0CE16D10429F0D092570224
:10319000C09256025BCE109257021092560256CE43
:1031A000EE24E39400E045E162E080E00E948009C3
:1031B0001092D0044DCE50E4E52EF4CF02E64ECE70
:1031C00003E64CCE023619F40E94730B5BCE80915D
:1031D0008C0210E0882379F0843088F440918A02D0
:1031E00050918B029AE0949F9001959F300D11248D
:1031F000020F132F111D10938B0200938A028F5F11
:1032000080938C020E94AB0A3DCE033619F40E94D3
:103210008C0B38CE013019F40E944C0A33CE0230A8
:10322000E9F4109259020E94200960E080E00E94B7
:103230001E0985E091E00E942E0980915F020E94A4
:10324000230A61E080E00E941E098FEF90E00E9457
:103250002E09809160020E94230A14CE033009F0E7
:1032600054C0109259020E94200960E080E00E9440
:103270001E0989E491E00E942E0960916202F0E843
:103280006F9FC001112460916302680F792F711D37
:10329000CB0101978E3F9742C8F085E491E00E94F0
:1032A0002E0961E080E00E941E098FE391E00E94F8
:1032B0002E098091640287708230F1F068F48823CF
:1032C00099F08130B1F08BE091E010C090E080E0A7
:1032D0004AE00E94CE09E5CF8430A1F080F087302B
:1032E00091F786E191E002C089E391E00E942E0906
:1032F000C9CD82E391E0FACF8CE291E0F7CF85E28D
:1033000091E0F4CF8EE191E0F1CF043009F051C0AB
:10331000109259020E94200960E080E00E941E097C
:103320008AE691E00E942E09809165028535B9F503
:1033300080E691E00E942E0961E080E00E941E0973
:1033400081E591E00E942E091091660217FD21C0CF
:1033500080E30E944A091034E0F480E30E944A09A5
:103360001032B8F480E30E944A09103190F480E3EF
:103370000E944A09183068F480E30E944A09143018
:1033800040F480E30E944A09123018F480E30E945E
:103390004A0962E070E0812F0E941C0A73CD8F3FC2
:1033A00019F487E591E0C6CF6AE070E00E941C0A3C
:1033B000C3CF053009F057C0109259020E9420096E
:1033C00060E080E00E941E091091660280915C021C
:1033D000863100F5812F83708230B1F08330B9F0EF
:1033E000813079F086E192E00E942E0961E080E070
:1033F0000E941E0981E891E016FD78CF80E791E0F8
:1034000075CF88E092E0F0CF87EF91E0EDCF8AEEC4
:1034100091E0EACFE12FEF70F0E0EF5EF54E0C9413
:10342000411D211A241A271A271A2A1AF6192D1AA9
:10343000F619F619F619F619F619F619F619301AD9
:10344000211A89ED91E0D0CF88EC91E0CDCF88EBC7
:1034500091E0CACF8BEA91E0C7CF81EA91E0C4CF77
:1034600082E991E0C1CF063091F4109259020E9496
:10347000200960E080E00E941E098091660287FFBB
:1034800003C087E292E032CF87E392E02FCF07308C
:10349000B1F5109259020E94200960E080E00E947C
:1034A0001E098CE492E00E942E096AE070E080918F
:1034B00067020E941C0A8EE20E944A096AE070E0DC
:1034C000809168020E941C0A61E080E00E941E094F
:1034D00083E492E00E942E09809169020E943D0AD5
:1034E0008EE20E944A0980916A020E943D0A8EE2A1
:1034F0000E944A0980916B020E943D0AC3CC0830A9
:10350000A1F5109259020E94200960E080E00E941B
:103510001E0984E892E00E942E09809185028F3F67
:10352000D1F489E792E00E942E0961E080E00E94D8
:103530001E0987E692E00E942E09109186028EE510
:1035400092E01F3F09F4D2CE85E592E00E942E0959
:103550006AE070E020CF811103C08DE692E0E3CFF6
:103560006AE070E00E941C0AE0CF0930B1F50E94C9
:10357000200960E080E00E941E098CEA92E00E942F
:103580002E0960E08FE00E941E0980916C0281117B
:1035900020C080E30E944A0961E080E00E941E0989
:1035A0000DE612E03DE7C32E32E0D32ED8018D9117
:1035B0008D01811110C080E30E944A09C016D10616
:1035C000A9F780E090E0892B09F4EECB0E9400007F
:1035D000E9CB81E3DFCF81E3EFCF023691F781E0E2
:1035E000809359020E94200960E080E00E941E0939
:1035F0008BE992E00E942E0961E080E00E941E09A2
:103600008AE892E073CE0E94940B6091CA04709194
:10361000CB046115710509F07BC08091D004843022
:1036200008F0C9C089E996E00E94A404892B49F2F8
:103630000E94A20701E912E0D12CC12C89E996E091
:103640000E94BA048A309105A1F08D30910589F06D
:103650009C01205231092036310580F7BFEFCB1A8B
:10366000DB0AF80181938F01FBE2CF16F1E0DF0660
:1036700029F71092BC0364EA71E081E992E00E94AC
:10368000621D009721F08A5892408093900268EA68
:1036900071E081E992E00E94621D009721F0885854
:1036A000924080938F026CEA71E081E992E00E947F
:1036B000621D1AE002E0EE24E394009709F4ACC026
:1036C0009C012D5F3F4FD901A159B24090E0E1E04C
:1036D000EA0FB0E0AF56BD4F8C918D3309F08CC02E
:1036E0009F3F09F06DC0F0E0EF56FD4F80818033C1
:1036F00009F064C081E0EDEBF3E0819393E0EE3CF0
:10370000F907D9F76CEA71E0C9010E94621DD5CFB3
:103710008091D004813009F080CF82E08093D00482
:10372000E090E1030091E503E091000126E0E29FD3
:10373000F0011124E75BFE4F8081D72EB62EE110F9
:1037400002C0002381F125E5A22EC82E28E0472FD4
:1037500085E00E94D90C6AEF70E080E090E00E9462
:10376000CC039DEB692E93E0792E12E1D3018D916C
:103770003D018823A1F001E0813009F400E00195CA
:10378000A12CC12CE12C212F4D2D6B2D81E00E940D
:10379000D90C6AEF70E080E090E00E94CC031F5FDC
:1037A000133221F73ACFA12CC12CE12C082F2AE0AB
:1037B000472F81E0CECF1092D00434CF82E09BCF50
:1037C0009131D0F4F0E0EF56FD4F4081042E000C13
:1037D000550B4033510531F4E92FF0E0E354FC4F31
:1037E000E08290CF4133510509F08CCFE92FF0E012
:1037F000E354FC4F008386CF482F082E000C550B56
:10380000405351094A30510528F4919F800D1124ED
:10381000982F9053AE2F5BCF60EB71E081E992E07F
:103820000E94621D009721F08B58924080938E0277
:1038300064EB71E081E992E00E94621D009721F043
:103840008A58924080938D02E0918D02EE2341F0E0
:1038500081E08E0F80938D02F0E0EF56FD4F1082D5
:10386000E0918E02EE2341F081E08E0F80938E0274
:10387000F0E0EF56FD4F108280E0E82FF0E0EC150D
:10388000FD0544F4EF56FD4F9081963209F4108205
:103890008F5FF3CFA0908E02AA2009F452C0B12C02
:1038A000D501AF56BD4F5D0100918D02002309F493
:1038B0004BC010E00F561D4F40E160E080E00E94D9
:1038C00080090115110539F0F8018081882319F06C
:1038D000C8010E94BC0AA114B10491F0D5018C91D9
:1038E000882371F00115110541F0F80180818823CA
:1038F00021F088EB91E00E94BC0AC5010E94BC0A3D
:10390000A0918F02AA23C1F1E1E0EA0FE0938F02B8
:10391000B0E0AF56BD4F1C924E2F80E05AE0242FEE
:1039200030E02C153D059CF42F563D4FD9019C915C
:10393000992369F0859F900D1124892F80534F5F43
:10394000EECFB12CA12CB0CF10E000E0B5CF882392
:1039500099F0F0E0EF56FD4FDF010D900020E9F700
:103960001197AE1BBF0BA0938C0290E090938B023B
:1039700080938A020E94AB0AE0919002EE23A9F0A4
:1039800081E08E0F80939002F0E0EF56FD4F1082A1
:1039900090E0FC01EF56FD4F6F01309751F410910C
:1039A0000001109300010E94430B81E08093D0043A
:1039B00008CE8081882399F389E4A82E81E0B82E6F
:1039C00010E005E0F401202F11922A95E9F7F401A7
:1039D00081E090E0D501A80FB91F2C91203209F4A5
:1039E00020E02193019686309105A1F7B401C6012C
:1039F0000E94591D892BA9F21F5F36E0A30EB11C4E
:103A0000163001F7CCCF83E891E090939A0680932B
:103A1000990680914502909146028959964071F429
:103A2000E091AC06F091AD0690818091AE06809554
:103A30008923808310924602109245020895A1E2E4
:103A40001A2EAA1BBB1BFD010DC0AA1FBB1FEE1F18
:103A5000FF1FA217B307E407F50720F0A21BB30B63
:103A6000E40BF50B661F771F881F991F1A9469F7DF
:103A700060957095809590959B01AC01BD01CF013B
:103A80000895EE0FFF1F0590F491E02D099468173B
:103A9000790768F4FB01DC01E40FF51FA40FB51FE3
:103AA00002C002900E9241505040D8F708950C94F5
:103AB0007C1DFB01DC018D91019080190110D9F36F
:103AC000990B0895FB0151915523A9F0BF01DC0129
:103AD0004D9145174111E1F759F4CD0101900020B6
:103AE00049F04D9140154111C9F3FB014111EFCF50
:103AF00081E090E001970895FB01DC0102C0019094
:103B00000D9241505040D8F7089511E0C9E8D1E036
:103B100004C0FE010E94411D2196CA38D107C9F791
:043B2000F894FFCF47
:103B24000139020304050608090A0B0C0D0E0F10D7
:103B34001112131415161718191A1B1C1D1E1F20F9
:103B440021222B2CFF3132334100343536420037E9
:103B5400383943002A3023440010002000400080FC
:103B640000FE00FD00FB00F700073132384100047D
:103B7400323841200003313238200000323820200E
:103B8400000231342020000132384D2000000000B2
:103B9400004E072107900747041A070707F8060095
:103BA4000000004804020490074704A404BA042F48
:103BB4000400000000280902049007DB042E003FE3
:103BC400202020006F2E73006F2E61006F2E660080
:0A3BD4006F2E6E006F2E6F003D0093
:00000001FF
