:100000000C945D000C9485000C9485000C94850084
:100010000C9485000C9485000C9485000C9485004C
:100020000C9485000C9485000C94E40B0C94550AF8
:100030000C9485000C9485000C9485000C9485002C
:100040000C94EC080C9485000C9485000C948500AD
:100050000C9485000C9485000C9485000C9485000C
:100060000C9436090C948500000000080002010081
:100070000003040700000000000000000000000072
:10008000250028002B0000000000240027002A0083
:10009000040404040404040402020202020203032E
:1000A0000303030301020408102040800102040836
:1000B00010200102040810201A0C11241FBECFEFDB
:1000C000D8E0DEBFCDBF11E0A0E0B1E0E8EEF0E2A5
:1000D00002C005900D92AC39B107D9F724E0ACE924
:1000E000B1E001C01D92A23CB207E1F710E0CDE5FE
:1000F000D0E004C02197FE010E945110CC35D107F9
:10010000C9F70E94710C0C9472100C94000090E0DE
:10011000FC01EC55FF4F249180579F4FFC018491C7
:10012000882399F090E0880F991FFC01EA57FF4F50
:10013000A591B491FC01E458FF4F859194918FB73C
:10014000F894EC91E22BEC938FBF0895CF93DF935B
:10015000FC0129E18EE241E050E033E071E0908162
:1001600090769036D1F491819093AF03A091AF0334
:10017000A1501092AE039FEF6091AE036A1790F406
:10018000C091AE03CE0FDF2FD11D688196276091FD
:10019000AE036F5F6093AE03EFCF90819295967040
:1001A0009E5FE2CFAE0FBF2FB11D9C93F89490914C
:1001B000AD03913059F49091AC03981738F0109238
:1001C000AD0390916F009D7F90936F007894909114
:1001D000AD03913039F49091AC03943108F4BFCF62
:1001E00070E0BDCF9091AD0391110EC0F894909145
:1001F0006F009F7D90936F00B59B09C090916F0039
:10020000906290936F0078947111A9CF51C0A09122
:10021000AA03B091AB039C916091A903EA0102C0CB
:10022000CC0FDD1F6A95E2F79C2B9C9360918400B4
:10023000709185006A5A7C4F7093A8036093A7035E
:100240006091A7037091A803709389006093880060
:100250007894F093A603E093A5031092AE03109256
:10026000A40390819093A3033093AD031092AC0349
:10027000B19A90916F00926090936F009091AD034E
:100280009330E1F39091A403992381F0E091A103CD
:10029000F091A203E757FF4F8081918101969183EE
:1002A000808383E090E0DF91CF9108959091AD033A
:1002B0008B3108F08150215009F050CF80913B04E0
:1002C00090913C04019690933C0480933B0486E01B
:1002D00090E0E9CF90E0FC01E859FF4F2491FC0148
:1002E000EC55FF4F3491FC01E057FF4FE491EE23B2
:1002F000C9F0222339F0233001F1A8F4213019F19B
:10030000223029F1F0E0EE0FFF1FE458FF4FA591D6
:10031000B4918FB7F894EC91611126C030953E23CB
:100320003C938FBF08952730A9F02830C9F02430BE
:1003300049F7809180008F7D03C0809180008F7786
:1003400080938000DFCF84B58F7784BDDBCF84B509
:100350008F7DFBCF8091B0008F778093B000D2CF9C
:100360008091B0008F7DF9CF3E2BDACFCF93DF9312
:100370002FB7F89480919F049091A004A091A104BC
:10038000B091A2042FBF4091BE045091BF04609170
:10039000C0047091C104841B950BA60BB70B459745
:1003A000A105B10508F459C02FB7F89480919F04B6
:1003B0009091A004A091A104B091A2042FBF8093BA
:1003C000BE049093BF04A093C004B093C104C09135
:1003D000BC048091BD04C13C20F081958093BD0494
:1003E00002C0C032D0F38091BD04C80FC093BC04DA
:1003F000D091BB048D2F0E948700C11106C060E020
:100400008D2FDF91CF910C946A01CF3F11F461E001
:10041000F7CFED2FF0E0E859FF4FE491E33029F1F9
:1004200038F4E130B1F0E230D9F0C7FDF0CFE7CFDA
:10043000E73031F1E83061F1E430B9F780918000C4
:10044000806280938000D0E0D0938B00C0938A00BC
:1004500004C084B5806884BDC7BDDF91CF91089585
:1004600084B5806284BDC8BDF8CF8091800080686B
:1004700080938000D0E0D0938900C0938800EDCFB6
:100480008091B00080688093B000C093B300E5CF46
:100490008091B00080628093B000C093B400DDCF43
:1004A0003FB7F89480919D0390919E03A0919F0384
:1004B000B091A00326B5A89B05C02F3F19F0019667
:1004C000A11DB11D3FBFBA2FA92F982F8827BC01AE
:1004D000CD01620F711D811D911D42E0660F771FD6
:1004E000881F991F4A95D1F7089508950895AF92EE
:1004F000BF92CF92DF92EF92FF920F931F93CF9311
:10050000DF936C017B018B01040F151FEB015E0172
:10051000AE18BF08C017D10759F06991D601ED9107
:10052000FC910190F081E02DC6010995892B79F7A6
:10053000C501DF91CF911F910F91FF90EF90DF9058
:10054000CF90BF90AF900895089520914D02260F4F
:100550003327331F21323105ECF420916704FC016D
:1005600090E080E0243069F082E00895A0914D028F
:100570002191AC01435D5D4FA40FB52FB11D2C93AC
:100580000196861798F380914D02680F60934D0293
:1005900080E0089581E008951092670481E08093DF
:1005A00066041092410461E082E10E946A0161E008
:1005B00083E10E946A01E9EBF0E080818E7F808315
:1005C00080818D7F808388E48093B80085E4809368
:1005D000BC000895CF93DF9391E090932C02882381
:1005E000B9F0C091B800D091BA008091BC008A7B6C
:1005F0008093BC0060E082E10E946A0160E083E1D8
:100600000E946A010E94CC02D093BA00C093B80045
:10061000DF91CF9108958F929F92AF92BF92CF9228
:10062000DF92EF92FF920F931F93CF93DF93D091BE
:100630009004D13208F0D7C0182FC0918F040E94C7
:1006400050026B017C018091670481116BC082E0D4
:1006500080936704109366048FEF80936504109273
:100660006404D0936304AFE6B4E0E3E4F4E080E034
:10067000D81391C01092420480914204CC0FC82B31
:10068000C093420480914104813009F088C01092E7
:1006900041040E9450026B017C01809142048093CE
:1006A000BB008091690490916A04A0916B04B091A1
:1006B0006C04892B8A2B8B2BA1F00E945002009195
:1006C000690410916A0420916B0430916C046C19D8
:1006D0007D098E099F09061717072807390708F4AF
:1006E00042C08091BC0083FDD8CF85EC8093BC00D4
:1006F0000E9450026B017C0180916704823009F4F2
:1007000050C0809165048F3F09F46FC080916504EB
:10071000803209F46CC080916504803309F469C0AB
:1007200084E026C08091690490916A04A0916B04D2
:10073000B0916C04892B8A2B8B2B09F484CF0E94F7
:1007400050028090690490906A04A0906B04B0906D
:100750006C046C197D098E099F0986169706A806F8
:10076000B90608F070CF809168040E94EA0285E023
:1007700010926E041092900410926D04DF91CF914C
:100780001F910F91FF90EF90DF90CF90BF90AF90AF
:100790009F908F9008959D9191938F5F69CF85EE83
:1007A000A5CF8091690490916A04A0916B04B091E7
:1007B0006C04892B8A2B8B2B09F49ECF0E9450024C
:1007C0000091690410916A0420916B0430916C04CB
:1007D0006C197D098E099F09061717072807390725
:1007E00008F08ACFC0CF81E0C3CF80E0C1CF82E0E4
:1007F000BFCF83E0BDCF0895E09173038091720372
:10080000E81730F4F0E0EC58FC4F808190E0089558
:100810008FEF9FEF089590917303809172032FEFF4
:100820003FEF981748F4E92FF0E0EC58FC4F208197
:1008300030E09F5F90937303C90108958091720324
:1008400090917303891B990B0895CF92DF92EF92D9
:10085000FF920F931F93CF93DF937C01CB018A010B
:1008600020916D04222389F0EB016B01C40ED51E8B
:10087000CC15DD0569F06991D701ED91FC910190EE
:10088000F081E02DC7010995F3CF642F0E94A502E6
:10089000C801DF91CF911F910F91FF90EF90DF90F2
:1008A000CF900895CF93DF931F92CDB7DEB76983C2
:1008B00020916D042223F9F020919004203258F009
:1008C00021E030E0FC013383228390E080E00F9050
:1008D000DF91CF91089580916E04E82FF0E0E15907
:1008E000FB4F998190838F5F80936E048093900477
:1008F00081E090E0ECCF61E0CE0101960E94A5027C
:10090000F7CF60933F047093400491E090936D049F
:1009100080938F0410926E041092900481E994E009
:100920000E94520481E00C940B0390E080E0089553
:100930009C01DC01A058BF4FEC9191E09E0F9C936D
:10094000E20FF32FF11D608397FD1C9208958091B3
:10095000990390919A03E4E7F2E09C012F77332703
:10096000238B880F892F881F990B9195878B81E0A6
:10097000848B0895CF93DF93EC0160E08E810E9419
:100980006A0161E08E810E946A0160E08E810E94AE
:100990006A018BE891E00197F1F7DF91CF9108951B
:1009A000CF92DF92EF92FF920F931F93CF93DF933B
:1009B0006C017C0187E0E80EF11CD0E0C0E0062F5E
:1009C00010E0B8010C2E02C0759567950A94E2F705
:1009D0006170F70181917F010E946A012196C43004
:1009E000D10579F7C601DF91CF911F910F91FF904B
:1009F000EF90DF90CF900C94BA04CF92DF92EF92F9
:100A0000FF920F931F93CF93DF93EC01F62E642F89
:100A10008C810E946A018D818F3F19F060E00E94F5
:100A20006A010F2D10E08F8584FF25C06E0187E0DD
:100A3000C80ED11CF12CE12CB8010E2C02C075950A
:100A400067950A94E2F76170F60181916F010E9447
:100A50006A01FFEFEF1AFF0A88E0E816F10461F778
:100A6000CE01DF91CF911F910F91FF90EF90DF901A
:100A7000CF900C94BA04B80184E0759567958A9577
:100A8000E1F7CE010E94D0046F2DCE01DF91CF910E
:100A90001F910F91FF90EF90DF90CF900C94D004B6
:100AA00040E0682F83EA94E00C94FD0481E00E940A
:100AB00050058BE39FE10197F1F70895CF93DF9302
:100AC000823029F49091B20498609093B20480939C
:100AD000B6041092B70480E48093B80480E1809358
:100AE000B90480E58093BA048091A7040E9487002E
:100AF0008091A8048F3F11F00E9487008091A90483
:100B00000E948700C3EAD4E09E01235A34408091BA
:100B1000B20484FD0AC084E090E0219628173907CA
:100B20003CF48E810E948700EFCF88E090E0F5CF03
:100B30008BE39DE00197F1F760E08091A7040E94AC
:100B40006A0160E08091A9040E946A018091A80472
:100B50008F3F19F060E00E946A018091B20484FD29
:100B600034C063E083EA94E00E94D004CBE4D6E48E
:100B7000CE010197F1F763E083EA94E00E94D0048C
:100B80002197F1F763E083EA94E00E94D00483E5C3
:100B900092E00197F1F762E083EA94E00E94D004CA
:100BA0008091B20480620E94500584E08093B30477
:100BB0008CE00E9450050E94560582E08093B404A8
:100BC00086E0DF91CF910C94500580620E94500521
:100BD0008BE496E40197F1F78091B20480620E9461
:100BE000500583E592E00197F1F78091B2048062AD
:100BF0000E945005D5CF9091B604691710F06FEFA1
:100C0000690FE62FF0E0ED55FB4F9489890F80685E
:100C10000C94500541E00E94FD0481E090E00895AD
:100C200041E0682F83EA94E00E94FD0481E090E0B7
:100C300008951F93CF93DF93D82F162FC42F0E94B0
:100C4000FB05C15020F080E20E941006FACF612F10
:100C50008D2FDF91CF911F910C94FB0585ED809333
:100C6000BC008091690490916A04A0916B04B091DA
:100C70006C040796A11DB11D23E0B695A795979525
:100C800087952A95D1F72091BC0024FD03C01092CE
:100C9000670408954091690450916A0460916B045F
:100CA00070916C04452B462B472B69F30097A105E7
:100CB000B10541F02AE22A95F1F700C00197A10998
:100CC000B109E1CF809168040C94EA022F923F921F
:100CD0004F925F926F927F928F929F92AF92BF924C
:100CE000CF92DF92EF92FF920F931F93CF93DF93F8
:100CF00000D000D0CDB7DEB79C838B837C0141E868
:100D0000E40EF11C6C0150E8C50ED11C8C010E578D
:100D10001F4F8D579F4F2C018B819C818C579F4F6C
:100D20004C0122242A94AB80BC8097E8A90EB11C08
:100D3000EB81FC81EB57FF4FFA83E983F701808158
:100D4000F6019081891709F4BAC0EB81FC81E80FA4
:100D5000F11D308037FE6DC0F8019081891739F0A0
:100D6000F501208131812F5F3F4F31832083F801CE
:100D70008083F2012082832D8076F401803609F48D
:100D800041C0832D829586708E5F8083F80120811B
:100D9000F4018081820F9927991F813891059CF178
:100DA00080E8682E621AF894F6014081F80180818B
:100DB000841708F044C0F42FF81B8F2FF6018083AE
:100DC0007894F80160814617E8F5712C50E06B814A
:100DD0007C81CB01860D971D0E945710F801608120
:100DE0004B815C81460F511DBA01A3018B819C810F
:100DF0000E945710F7018081F8019081891BF7014B
:100E00008083F8011082F70190819F5F9083F80141
:100E10008081392F381B97FF02C0F7011082F20141
:100E20002081F40190819317A9F03226F2013082DB
:100E300085CFF40180818111E6CF3082A7CF862D46
:100E4000840FBCCF461B50E08B819C81860F911D87
:100E5000BC01CCCF32122AC04B815C81480F511D9E
:100E6000CA01E981FA81408151814F5F5F4F51830F
:100E70004083F7013081F80130830097B1F20F9081
:100E80000F900F900F90DF91CF911F910F91FF90D6
:100E9000EF90DF90CF90BF90AF909F908F907F901A
:100EA0006F905F904F903F902F900895F501808153
:100EB000918101969183808390E080E0DACF90E089
:100EC00080E0DDCF1F93CF93DF93182FD62FCBE495
:100ED000C627C82764EB8CE991E00E949804612F33
:100EE0008CE991E00E9498046D2F8CE991E00E94BA
:100EF00098046C2F8CE991E00E9498046FEF8CE9C4
:100F000091E00E9498048CE991E00E94660690931B
:100F1000710380937003009729F0DF91CF911F91A7
:100F20000C94A600DF91CF911F9108959F92AF92EC
:100F3000BF92CF92DF92EF92FF920F931F93CF93C6
:100F4000DF9399E0899FF0011124EC58FD4F018156
:100F50001581212F30E0220F232F221F330B200F6A
:100F6000311D232B11F08C3178F060E08AE3DF91A2
:100F7000CF911F910F91FF90EF90DF90CF90BF9096
:100F8000AF909F900C946207D82F9080A280B3807E
:100F9000C480D680E780F084C3E1C827C027C1277A
:100FA000C925CA25CB25CC25CD25CE25CF2567EE55
:100FB0008CE991E00E9498046EE08CE991E00E9437
:100FC00098046D2F8CE991E00E949804692D8CE9BA
:100FD00091E00E949804602F8CE991E00E949804AF
:100FE0006A2D8CE991E00E9498046B2D8CE991E0C8
:100FF0000E94980465E08CE991E00E9498046C2DB1
:101000008CE991E00E949804612F8CE991E00E94A4
:1010100098046D2D8CE991E00E9498046E2D8CE966
:1010200091E00E9498046F2D8CE991E00E94980451
:101030006C2F6F778CE991E00E9498046FEF8CE938
:1010400091E00E9498048CE991E00E9466069093DA
:10105000710380937003009769F0DF91CF911F9126
:101060000F91FF90EF90DF90CF90BF90AF909F9047
:101070000C94A600DF91CF911F910F91FF90EF90FC
:10108000DF90CF90BF90AF909F900895CF92DF9266
:10109000EF92FF920F931F93CF93DF93CDB7DEB7FD
:1010A000A1970FB6F894DEBF0FBECDBF8C01083EEE
:1010B00083E0180778F480E30E94100604361105D7
:1010C00048F480E30E9410060A30110518F480E30A
:1010D0000E941006980150E040E019A28E010F5DB9
:1010E0001F4F8AE0C82ED12CE12CF12CCA01B90186
:1010F000A70196010E942F10605DF80162938F0195
:10110000211531054105510589F7309761F00190AE
:101110000020E9F73197AF01401B510BB80183EA7A
:1011200094E00E947702A1960FB6F894DEBF0FBE3E
:10113000CDBFDF91CF911F910F91FF90EF90DF9086
:10114000CF900895009769F0FC0101900020E9F725
:101150003197AF01481B590BBC0183EA94E00C9412
:1011600077020895CF93809100018F5F863041F11F
:1011700080930001C0918602C87FE091000186E063
:10118000E89FF0011124EE5FFE4F8081C82BC093D1
:10119000860261E08CE00E94FB05E2E0F1E030E0D5
:1011A00020E0C7708081C8130EC046E0429FC00196
:1011B000439F900D11248D5F9E4FCF910C94A208F8
:1011C00010920001D7CF2F5F3F4F36962630310562
:1011D00049F788E691E0F1CF1F920F920FB60F9278
:1011E00011242F933F938F939F93AF93BF9380913D
:1011F0009F049091A004A091A104B091A204309109
:101200009C0323E0230F2D3758F50196A11DB11D36
:1012100020939C0380939F049093A004A093A10427
:10122000B093A20480919D0390919E03A0919F038F
:10123000B091A0030196A11DB11D80939D039093D1
:101240009E03A0939F03B093A003BF91AF919F9182
:101250008F913F912F910F900FBE0F901F90189577
:1012600026E8230F0296A11DB11DD2CF1F920F9227
:101270000FB60F9211242F933F934F935F936F9369
:101280007F938F939F93AF93BF93EF93FF9380913F
:10129000B900887F803609F44AC0F0F5883209F435
:1012A000A7C018F5803109F49BC0B8F4882309F46D
:1012B000F9C0883009F494C0FF91EF91BF91AF91CC
:1012C0009F918F917F916F915F914F913F912F915E
:1012D0000F900FBE0F901F901895883109F488C0A9
:1012E000803251F78093650414C0803409F49DC0A6
:1012F00040F48033B9F38833F9F68093650485ECC4
:10130000B0C0803509F485C0883509F496C08834AA
:1013100099F60E942E06D0CF883909F48CC038F592
:10132000883729F050F4883611F0803729F683E0A9
:101330008093670410926F0257C0883809F47BC00D
:10134000803919F0803809F0B7CF80916F02803270
:1013500008F071C0E0916F0281E08E0F80936F0200
:101360008091BB00F0E0E15BFD4F80833DC0803B9E
:1013700039F0E0F4803A09F479C0883A09F09CCF5A
:1013800084E08093670410924E0210924D02E09127
:101390007202F0917302099580914D0281110FC084
:1013A00081E080934D0210922D0209C0803C09F427
:1013B000A6CF883C09F4A3CF883B09F07DCFE0910C
:1013C0004E0281E08E0F80934E02F0E0E35DFD4F10
:1013D00080818093BB0090914E0280914D0229C084
:1013E000809142048093BB0085EC8093BC0064CF65
:1013F0009091640480916304981758F5E091640417
:1014000081E08E0F80936404F0E0ED5BFB4F808100
:10141000E9CFE091640481E08E0F809364048091B1
:10142000BB00F0E0ED5BFB4F808390916404809102
:1014300063049817C8F285E8D8CFE091640481E08E
:101440008E0F809364048091BB00F0E0ED5BFB4F56
:1014500080838091660481115CCF81E08093410498
:1014600084EA8093BC001092670426CF85EC8093B9
:10147000BC001092670480916F02803230F4E091DA
:101480006F02F0E0E15BFD4F108260916F0270E04F
:10149000E0917002F09171028FE492E00995109250
:1014A0006F020ACF1092650434CF1F920F920FB6CD
:1014B0000F921124CF92DF92EF92FF920F931F931E
:1014C0002F933F934F935F936F937F938F939F934C
:1014D000AF93BF93CF93EF93FF93B19A8091A703FC
:1014E0009091A80380549C4F9093A8038093A703E6
:1014F0008091A7039091A80390938900809388001E
:1015000080912B02882371F010922B02189B26C029
:1015100081E08093AD03B59A80916F0080628093E3
:101520006F001CC08091AC038F5F8093AC038091EF
:10153000AD03843009F043C08091AC03893030F5AD
:101540008091A30390E0959587958093A303189BC2
:1015500005C08091A30380688093A303FF91EF915E
:10156000CF91BF91AF919F918F917F916F915F913B
:101570004F913F912F911F910F91FF90EF90DF902E
:10158000CF900F900FBE0F901F901895B59A809135
:101590006F00806280936F008091A1039091A203FD
:1015A000189929C0FC01E957FF4F8081918101966C
:1015B000918380831092AC0381E08093AD0380918E
:1015C000AD038330E9F5E091AA03F091AB0380818C
:1015D0002091A90333B190E0022E02C09595879522
:1015E0000A94E2F7832780FD11C01092AC0382E0D9
:1015F0008093AD0325C06091A3030E94980480E00E
:1016000090E0892BB9F20E940000D4CF8091AC0306
:10161000893008F043C03091A30381E090E001C01D
:10162000880F2A95EAF7908130FF36C0809589238C
:1016300080838091A30390E0959587958093A30381
:101640008091AD03823099F48091AC03811196C0F2
:10165000E091AA03F091AB0380819091A90321E06E
:1016600030E001C0220F9A95EAF7822B80838091A7
:10167000AD03813009F072CF8091AC03882309F467
:101680004ACF8091AC03883308F468CF1092AD0341
:1016900080916F008D7F43CF892BCACF8091AC039F
:1016A000893059F4308181E090E001C0880F2A959B
:1016B000EAF7809583238083C3CF8091AE038F5F49
:1016C0008093AE039091AF03891750F51092AC034D
:1016D0008091A5039091A603A091AE03A80FB92F06
:1016E000B11D8C918093A303808141E050E001C043
:1016F000440F2A95EAF7842B80838091840090918F
:1017000085008A5A9C4F9093A8038093A7038091E9
:10171000A7039091A803909389008093880090CFAD
:1017200081E08093A403E090A503F090A603C0900D
:10173000A103D090A203F70180818076803679F4EE
:10174000C18110E000E00C1778F4F701E00FF11F01
:101750006081C6010E9498040F5F1F4FF4CFC081C3
:10176000C295C670CE5FEDCF80E090E0892B11F07E
:101770000E9400001092AC0381E03ACF8091AC034C
:101780008F3008F474CFE091AA03F091AB0320816D
:101790003091A90381E090E001C0880F3A95EAF703
:1017A0008095822380831092AC0381E08093AD0307
:1017B000E091A103F091A203E357FF4F8081918153
:1017C00001969183808353CF1F920F920FB60F9291
:1017D00011248F939F93EF93FF93B59AEFE6F0E078
:1017E00080818F7D808380918600909187008052D8
:1017F0009E4F9093A8038093A7038091A703909195
:10180000A8039093890080938800B19A80818260B8
:10181000808384E08093AD031092AC0381E08093D9
:101820002B02FF91EF919F918F910F900FBE0F9020
:101830001F901895CF93DF93E1E9F4E013821282B1
:1018400088EE93E0A0E0B0E084839583A683B7831D
:101850008EE491E091838083CBEBD4E086E08883B3
:1018600080E8898388E08A831B821C821D821E8215
:1018700086E00E9487002FB7F89480919F04909192
:10188000A004A091A104B091A2042FBF8B839C83DC
:10189000AD83BE838091010190E090939E0480937C
:1018A0009D04E3EAF4E01382128280E691E09183E2
:1018B00080838CE084838FEF85838BE0868389E04F
:1018C000878385E0808784E0818783E08287138631
:1018D000148615861686178681E0DF91CF910C94C9
:1018E0005E05789484B5826084BD84B5816084BDD2
:1018F00085B5826085BD85B5816085BD80916E00AE
:10190000816080936E0010928100809181008260DE
:10191000809381008091810081608093810080911B
:1019200080008160809380008091B100846080930A
:10193000B1008091B00081608093B00080917A0006
:10194000846080937A0080917A00826080937A002C
:1019500080917A00816080937A0080917A0080681B
:1019600080937A001092C100E4E7F2E01082399689
:1019700023E0E037F207D1F783E380938602E0EBC0
:10198000F3E08FE8DF011D928A95E9F787E00E9476
:101990008700EBEAF0E02491E7E9F0E0E491F0E081
:1019A000EE0FFF1FE458FF4F4591549180E091E006
:1019B00031E0291741F08F5F932F082E01C0990F56
:1019C0000A94EAF7F6CF5093AB034093AA038093AF
:1019D000A90380EB93E09093A2038093A103209846
:1019E000E091AA03F091AB0320813091A90381E03B
:1019F00090E001C0880F3A95EAF7809582238083B2
:101A000010928000C1E0C09381001092AD03B59A9E
:101A100080916F00806280936F0080918100887F49
:101A20008160809381001092730310927203109270
:101A30006E04109290040E94CC0285E792E090938D
:101A400073028093720286E792E090937102809312
:101A5000700289E380930101C0936D0480938F0429
:101A600081E00E940B03811107C0809198038823B5
:101A700009F4C4C081E011C081E280930101C093E8
:101A80006D0480938F0410926E041092900481E094
:101A90000E940B03882349F380E08093980382E03F
:101AA0000E945E050E94560560E080E00E94FB05F2
:101AB0008DE691E00E94A20884E791E00E94A208CE
:101AC00088E791E00E94A2088CE791E00E94A208BA
:101AD00061E080E00E94FB0581E891E00E94A2089D
:101AE00085EF0E94100687E891E00E94A2080E94FC
:101AF00050026B017C0160ED862E67E0962EA12CD2
:101B0000B12C0E94B6010E9450026C197D098E0909
:101B10009F09683E73408105910598F3B1E08B1AE7
:101B20009108A108B108E8EECE0EE3E0DE1EE11C4C
:101B3000F11C81149104A104B10429F70E945605F7
:101B400061E080E00E94FB058FE891E00E94A2081E
:101B500081E0809300010E94B20835EE932E45EC9F
:101B6000A42E50E0C52E50E0D52E22242394BB2471
:101B7000BA9426E0822E0E94B60180EB93E00E9488
:101B80006606FC019093710380937003892B61F0CA
:101B900011811C3148F480818B3B09F4CCC008F0E2
:101BA0003DC08A3B09F4C9C0809198038111F7C0F8
:101BB00020E090E080E020FD2BC226FD42C227FFFE
:101BC00029C220919B0321112CC290939A038093E8
:101BD00099032F5F20939B0344E061E085E00E941E
:101BE000190661E085E00E94FB05809199039091C0
:101BF0009A030E9446080E94A7040CC2809101012A
:101C000090E090939E0480939D046FEF70E00E949B
:101C1000810410929703109296032CCF8F3B09F406
:101C200060C08F3E09F0C0CF02810C3108F0BCCFFC
:101C30007380B481A5815681408531852285938545
:101C4000848510E0E9E0E09FE001E19FD00D1124E0
:101C5000CC58DD4F7882B983AA835B834C833D8364
:101C60002E839F8388876FE78FE60E94620740E19B
:101C700060E080E00E94190660E080E00E94FB05C1
:101C800085E991E00E94A2082D81898190E02223BC
:101C900039F0F0E82F9F90011124820F932F911DAE
:101CA0000E94460860E08CE00E94FB0529E0209F2E
:101CB000F001219FF00D1124EC58FD4F8081E2E0EE
:101CC000F1E030E020E08770908189135EC0829E51
:101CD000C001839E900D11248D5F9E4F0E94A2082B
:101CE00063CF4281E4E7F2E081E09285491303C0CB
:101CF00096851917B1F08F5F39968C31B1F7E4E70B
:101D0000F2E021E030E0822F9185907369F469E080
:101D1000629FF001639FF00D1124EC58FD4F418349
:101D200015830E94960740CF2F5F3F4F39962C3185
:101D3000310549F739CF812FF4CF8281181322C0A2
:101D40001123F1F089E0819FF0011124EC58FD4F3F
:101D5000808180638083812F0E949607E0917003C9
:101D6000F0917103828181111FCF99E0919FF00161
:101D70001124EC58FD4F80818F7E8062808314CFC8
:101D800082E0CFCF1111EACF0FCF2F5F3F4F3696B2
:101D90002630310509F098CF88E691E09FCFE09199
:101DA0009603F0919703EE0FFF1FEE5BFE4F6081ED
:101DB000718180919D0490919E040E9481049AE318
:101DC000E92E91E0F92E10E000E030909D040E9491
:101DD00050022B013C0180916704811161C0209267
:101DE000670420926604B092650410926404109215
:101DF00063042092420480914204330C382A3092CA
:101E0000420480914104813009F09EC01092410447
:101E10000E9450022B013C01809142048093BB0040
:101E20008091690490916A04A0916B04B0916C0454
:101E3000892B8A2B8B2BA1F00E94500220916904E0
:101E400030916A0440916B0450916C0464197509D7
:101E500086099709261737074807590708F441C02C
:101E60008091BC0083FDD8CFA092BC000E9450029C
:101E70002B013C0180916704813009F468C0809196
:101E80006404811186C080916404E3E4F4E0A4E773
:101E9000B3E090E0981751F121912D939F5FFACF15
:101EA0008091690490916A04A0916B04B0916C04D4
:101EB000892B8A2B8B2B09F48ECF0E945002209104
:101EC000690430916A0440916B0450916C04641968
:101ED000750986099709261737074807590708F033
:101EE0007ACF809168040E94EA0280E01092730326
:101EF0008093720381E994E00E940B04D7014D9115
:101F00005D917D0120913F04309140048227932709
:101F10008417950709F03FC02091960330919703ED
:101F200045E0429FC001439F900D11248A5D9E4F62
:101F3000080F191FF8018081082E000C990B90934F
:101F400095038093940334CE9092BC008FCF809100
:101F5000690490916A04A0916B04B0916C04892B80
:101F60008A2B8B2B09F486CF0E94500220916904A2
:101F700030916A0440916B0450916C0464197509A6
:101F800086099709261737074807590708F072CFBF
:101F9000A8CF81E07ACF0F5F1F4F0430110509F001
:101FA00014CF8091940390919503009799F010922B
:101FB000950310929403882309F4FACD833221F11A
:101FC0008A3221F1805390E020E88A3008F4F3CD82
:101FD00020E8EFCD6FEF70E080919D0490919E041A
:101FE0000E9481048091960390919703019684301A
:101FF000910529F09093970380939603D9CD109281
:10200000970310929603D4CD21E0D3CD20E4D1CD17
:102010000E94B208C114D10409F4ADCD0E940000A1
:10202000A8CD243008F0D5CD6091990370919A0322
:102030003AE0369FA001379F500D1124840F951F61
:10204000C4CD10929B0310929A03109299030E94A0
:10205000A70447E061E085E00E941906DBCFA1E21A
:102060001A2EAA1BBB1BFD010DC0AA1FBB1FEE1F12
:10207000FF1FA217B307E407F50720F0A21BB30B5D
:10208000E40BF50B661F771F881F991F1A9469F7D9
:1020900060957095809590959B01AC01BD01CF0135
:1020A0000895EE0FFF1F0590F491E02D0994681735
:1020B000790768F4FB01DC01E40FF51FA40FB51FDD
:1020C00002C002900E9241505040D8F708950C94EF
:1020D0006910FB01DC0102C001900D92415050409B
:0820E000D8F70895F894FFCF32
:1020E80001390731323841000432384120000331C8
:1020F80032382000003238202000023134202000FD
:10210800014D2A2A2000313233410034353642004D
:1021180037383943002A302344001000200040009B
:102128008000FE00FD00FB00F700000000005204E4
:1021380025049504FB031E040B04FC0300000000A7
:102148000A0677029504A4023F2020200044495340
:1021580050412000322E3200202F200032303234FD
:10216800002863294B72006D656C736F6674004EAE
:0C21780065753A2000416C743A200000AC
:00000001FF
