:100000000C94B1010C94D9010C94D9010C94D90130
:100010000C94D9010C94D9010C94D9010C94D901F8
:100020000C94D9010C94D9010C94B0110C942110AA
:100030000C94D9010C94D9010C94D9010C94D901D8
:100040000C94B80E0C94D9010C94D9010C94D901DC
:100050000C94D9010C94D9010C94D9010C94D901B8
:100060000C94020F0C94D901000000000000000065
:10007000002F000000000700070000147F147F1409
:1000800000242A7F2A12006264081323003649558F
:10009000225000000503000000001C224100000067
:1000A00041221C000014083E08140008083E0808FD
:1000B000000000A060000008080808080000606058
:1000C0000000002010080402003E5149453E000097
:1000D000427F4000004261514946002141454B3179
:1000E000001814127F10002745454539003C4A4945
:1000F00049300001710905030036494949360006B7
:100100004949291E0000363600000000563600001E
:100110000008142241000014141414140000412299
:10012000140800020151090600324959513E007C71
:100130001211127C007F49494936003E414141225B
:10014000007F4141221C007F49494941007F090944
:100150000901003E4149497A007F0808087F0000F4
:10016000417F4100002040413F01007F08142241AF
:10017000007F40404040007F020C027F007F040867
:10018000107F003E4141413E007F09090906003EC3
:100190004151215E007F09192946004649494931EC
:1001A0000001017F0101003F4040403F001F20400F
:1001B000201F003F4038403F0063140814630007CD
:1001C0000870080700615149454300007F41410024
:1001D00000552A552A55000041417F0000040201C4
:1001E00002040040404040400000010204000020A2
:1001F00054545478007F48444438003844444420E0
:1002000000384444487F00385454541800087E098C
:1002100001020018A4A4A47C007F08040478000054
:10022000447D4000004080847D00007F1028440011
:100230000000417F4000007C04180478007C080422
:10024000047800384444443800FC2424241800185E
:10025000242418FC007C080404080048545454204A
:1002600000043F444020003C4040207C001C2040D3
:10027000201C003C4030403C004428102844001C16
:10028000A0A0A07C004464544C44000008774100C6
:100290000000006300000000417708000008040827
:1002A0000804003A4040207A003D4040403D002193
:1002B00054545479007D1211127D0039444444395C
:1002C000003D4242423D000205020000007E01491D
:1002D0005573007C1010081C000101010101FC5F36
:1002E000DC60E461C462F663D664B065DF66B5675E
:1002F000AF68FFFFAE2000B0C8001040813FA1A64C
:10030000A83FA4D301D5F0D922DA12DB208D140046
:1003100000000800020100000304070000000000C4
:1003200000000000000000250028002B0000000055
:1003300000240027002A0004040404040404040226
:100340000202020202030303030303010204081072
:10035000204080010204081020010204081020003F
:10036000E61111241FBECFEFD8E0DEBFCDBF13E0F2
:10037000A0E0B1E0E0EDFEE202C005900D92AC3CE1
:10038000B107D9F727E0ACECB3E001C01D92AB3662
:10039000B207E1F711E0C1EBD1E004C02197FE0103
:1003A0000E944517C03BD107C9F70E9487120C94E1
:1003B00066170C94000090E0FC01E55BFC4F249173
:1003C000895C9C4FFC018491882399F090E0880F10
:1003D000991FFC01E35DFC4FA591B491FC01ED5D1B
:1003E000FC4F859194918FB7F894EC91E22BEC93AC
:1003F0008FBF0895CF93DF93FC0129E18EE241E0A6
:1004000050E033E071E0908190769036D1F49181A4
:100410009093FF05A091FF05A1501092FE059FEF5C
:100420006091FE056A1790F4C091FE05CE0FDF2F94
:10043000D11D688196276091FE056F5F6093FE0570
:10044000EFCF9081929596709E5FE2CFAE0FBF2F57
:10045000B11D9C93F8949091FD05913059F49091C1
:10046000FC05981738F01092FD0590916F009D7F64
:1004700090936F0078949091FD05913039F49091AC
:10048000FC05943108F4BFCF70E0BDCF9091FD051D
:1004900091110EC0F89490916F009F7D90936F0022
:1004A000B59B09C090916F00906290936F00789413
:1004B0007111A9CF51C0A091FA05B091FB059C9193
:1004C0006091F905EA0102C0CC0FDD1F6A95E2F7E1
:1004D0009C2B9C9360918400709185006A5A7C4F9C
:1004E0007093F8056093F7056091F7057091F80532
:1004F00070938900609388007894F093F605E093F8
:10050000F5051092FE051092F40590819093F30585
:100510003093FD051092FC05B19A90916F009260A6
:1005200090936F009091FD059330E1F39091F40565
:10053000992381F0E091F105F091F205E757FF4F23
:100540008081918101969183808383E090E0DF91A7
:10055000CF9108959091FD058B3108F08150215085
:1005600009F050CF80918B0690918C060196909364
:100570008C0680938B0686E090E0E9CF90E0FC014A
:10058000E15FFC4F2491FC01E55BFC4F3491FC01E1
:10059000E95CFC4FE491EE23C9F0222339F02330CB
:1005A00001F1A8F4213019F1223029F1F0E0EE0F29
:1005B000FF1FED5DFC4FA591B4918FB7F894EC91BE
:1005C000611126C030953E233C938FBF089527309C
:1005D000A9F02830C9F0243049F7809180008F7D40
:1005E00003C0809180008F7780938000DFCF84B537
:1005F0008F7784BDDBCF84B58F7DFBCF8091B0003A
:100600008F778093B000D2CF8091B0008F7DF9CFEB
:100610003E2BDACF3FB7F8948091EB059091EC0533
:10062000A091ED05B091EE0526B5A89B05C02F3F22
:1006300019F00196A11DB11D3FBFBA2FA92F982F08
:100640008827BC01CD01620F711D811D911D42E003
:10065000660F771F881F991F4A95D1F708952FB706
:10066000F8946091E7057091E8058091E905909113
:10067000EA052FBF08950F931F93CF93DF930E9436
:100680002F03009167071091680720916907309147
:100690006A07601B710B820B930B65317105810535
:1006A000910508F452C00E942F036093670770936E
:1006B00068078093690790936A07C09165078091E6
:1006C0006607C13C20F081958093660702C0C03266
:1006D000D0F380916607C80FC0936507D091640777
:1006E0008D2F0E94DB01C11108C060E08D2FDF91CA
:1006F000CF911F910F910C94BE02CF3F11F461E096
:10070000F5CFED2FF0E0E15FFC4FE491E33039F1FC
:1007100038F4E130B1F0E230E9F0C7FDF0CFE5CFD9
:10072000E73041F1E83071F1E430B9F780918000B1
:10073000806280938000D0E0D0938B00C0938A00C9
:1007400004C084B5806884BDC7BDDF91CF911F917F
:100750000F91089584B5806284BDC8BDF6CF8091A5
:100760008000806880938000D0E0D0938900C0939F
:100770008800EBCF8091B00080688093B000C09378
:10078000B300E3CF8091B00080628093B000C0934B
:10079000B400DBCF8F929F92AF92BF92CF92DF9245
:1007A000EF92FF924B015C010E940A036B017C01F6
:1007B0000E943B030E940A036C197D098E099F0960
:1007C000683E73408105910598F321E0821A9108F3
:1007D000A108B10888EEC80E83E0D81EE11CF11C08
:1007E00081149104A104B10429F7FF90EF90DF90E8
:1007F000CF90BF90AF909F908F90089508950895E7
:10080000AF92BF92CF92DF92EF92FF920F931F931E
:10081000CF93DF936C017B018B01040F151FEB015C
:100820005E01AE18BF08C017D10759F06991D60113
:10083000ED91FC910190F081E02DC6010995892B85
:1008400079F7C501DF91CF911F910F91FF90EF9044
:10085000DF90CF90BF90AF9008958093BB0084E865
:100860008093BC0080E491E02091BC0027FD0895B6
:100870000197D1F78091F00584608093F005089589
:1008800094EA9093BC0020E431E09091BC0097FF83
:100890000CC08093BB0084E88093BC0080E491E0AE
:1008A0002091BC0027FF0AC008952150310969F743
:1008B0008091F00581608093F0050895019781F79C
:1008C0008091F0058260F7CF1F93CF93DF93EC0107
:1008D000142F4F83688785E090E09D838C838FEF92
:1008E0006623D9F081E0860F0E94400484E880935B
:1008F000BC0080E491E02091BC0027FF03C0809100
:10090000BB0008C00197B9F78091F0058061809322
:10091000F00580E094E99093BC0090E0809590957C
:1009200002C0959587951A95E2F780FD0CC080E08E
:100930008E830E942F03688379838A839B83DF9150
:10094000CF911F91089583E0F3CFEF92FF920F9321
:100950001F93CF93DF937C018B0188E70E944004B3
:1009600080E40E942D04E7010E0D1F1DC017D10762
:1009700051F484E98093BC00DF91CF911F910F91D6
:10098000FF90EF90089589910E942D04EFCFEF9290
:10099000FF920F931F93CF93DF93182FE92E062F0B
:1009A00088E70E94400480E00E942D04F12EC12FB0
:1009B000DE2D89910E942D048C2F8F198017C8F38A
:1009C00084E98093BC00DF91CF911F910F91FF903C
:1009D000EF900895CF93DF9300D000D01F92CDB752
:1009E000DEB7E1E1F4E0808361836055698391E2E1
:1009F0009A8392E0980F9F709B8390E0029624E088
:100A0000959587952A95E1F7805F8C838FE78D8395
:100A100065E0CE0101960E94C7040F900F900F90E1
:100A20000F900F90DF91CF910895813820F46830B6
:100A300010F40C94EA0408950F931F93CF93DF935F
:100A4000893009F45CC0C82F8A30A0F5883009F4D9
:100A50003EC0809111048A3708F082C0C03208F489
:100A60007FC0C052EFEDF2E0E491CE1708F07DC0F8
:100A700088E70E94400480E40E942D04F6E0CF9FA6
:100A8000E001112410E000E0C859DF4FFE01E00F43
:100A9000F11F84910E942D040F5F1F4F0630110536
:100AA000A9F784E98093BC00809111048A5F809348
:100AB000110456C08A3081F16091120480E0CD307B
:100AC00041F6DF91CF911F910F910C941505809104
:100AD00011048150982F990F890F60911204880F8B
:100AE0000E94150580E20E941C058091110481502E
:100AF000982F990F890F60911204880FE2CF80918F
:100B00001104609112048D3028F48C5F982F990F96
:100B1000890FF3CF8EE7D5CF60911204673000F5CF
:100B20006F5F90911104892F880FF2CF9F5F292F5B
:100B300030E0220F331FA90141525D4FFA01849129
:100B40008F3F71F0F901E252FD4FE491E052FF0B4B
:100B5000EC17FD0759F7FA01C491CF3F09F088CF90
:100B6000DF91CF911F910F91089590E0D0E0DFCFFA
:100B70001F93CF93DF93182FEC019C2F911B89912A
:100B8000882319F00E941C05F8CF892F90E0DF918F
:100B9000CF911F910895CF92DF92EF92FF920F9322
:100BA0001F93CF93DF93CDB7DEB7A1970FB6F8941D
:100BB000DEBF0FBECDBF6B01BC0190E080E019A28B
:100BC0008E010F5D1F4F0D2C000CEE08FF08A701D2
:100BD00096010E942317E62FCA01B901EA30F4F406
:100BE000E05DD801EE938D01232B242B252B21F0E2
:100BF000AC17BD0761F78E01C8010E94B805A19628
:100C00000FB6F894DEBF0FBECDBFDF91CF911F911D
:100C10000F91FF90EF90DF90CF900895E95CE1CFC6
:100C2000CF92DF92EF92FF920F931F93CF93DF93B8
:100C3000CDB7DEB7A1970FB6F894DEBF0FBECDBF1C
:100C4000282F30E050E040E019A28E010F5D1F4FC9
:100C50006B01770FEE08FF08CA01B901A7019601E1
:100C60000E942317605DF80162938F012115310501
:100C70004105510521F0EC17FD0771F78E01C80100
:100C80000E94B805A1960FB6F894DEBF0FBECDBF87
:100C9000DF91CF911F910F91FF90EF90DF90CF9058
:100CA0000895CF93DF93D82FC091EF05CF5F6C2FBE
:100CB0008EE10E941505D15020F080E20E941C05B3
:100CC000FACF6C2F8EE1DF91CF910C94150590E057
:100CD00080E0089508952091EE03260F3327331FF7
:100CE00021323105ECF42091D706FC0190E080E040
:100CF000243069F082E00895A091EE032191AC01C7
:100D000042535C4FA40FB52FB11D2C93019686174B
:100D100098F38091EE03680F6093EE0380E00895EE
:100D200081E008951092D70681E08093D606109254
:100D3000B10661E082E10E94BE0261E083E10E94AF
:100D4000BE02E9EBF0E080818E7F808380818D7F21
:100D5000808388E48093B80085E48093BC00089584
:100D6000CF93DF9391E09093CD038823B9F0C091A6
:100D7000B800D091BA008091BC008A7B8093BC00FF
:100D800060E082E10E94BE0260E083E10E94BE0258
:100D90000E949206D093BA00C093B800DF91CF9121
:100DA0000895CF92DF92EF92FF920F931F93CF930C
:100DB000DF93D091000781E0D13208F09CC0C09150
:100DC000FF060E940A036B017C018091D706811106
:100DD0006CC082E08093D70681E08093D6068FEFC7
:100DE0008093D5061092D406D093D306AFEDB6E02B
:100DF000E3EBF6E080E0D8138DC01092B20680914C
:100E0000B206CC0FC82BC093B2068091B1068130D8
:100E100009F084C01092B1060E940A036B017C01A4
:100E20008091B2068093BB008091D9069091DA063A
:100E3000A091DB06B091DC06892B8A2B8B2BA1F0CD
:100E40000E940A030091D9061091DA062091DB0670
:100E50003091DC066C197D098E099F09061717076A
:100E60002807390708F442C08091BC0083FDD8CF21
:100E700085EC8093BC000E940A036B017C01809189
:100E8000D706823009F44CC08091D5068F3F09F413
:100E900069C08091D506803209F466C08091D5067C
:100EA000803309F463C084E026C08091D906909114
:100EB000DA06A091DB06B091DC06892B8A2B8B2BFE
:100EC00009F483CF0E940A030091D9061091DA0633
:100ED0002091DB063091DC066C197D098E099F0993
:100EE000061717072807390708F06FCF8091D80633
:100EF0000E94B00685E01092DE0610920007109264
:100F0000DD06DF91CF911F910F91FF90EF90DF9061
:100F1000CF9008959D9191938F5F6DCF85EEA9CF6E
:100F20008091D9069091DA06A091DB06B091DC069B
:100F3000892B8A2B8B2B09F4A2CF0E940A030091E4
:100F4000D9061091DA062091DB063091DC066C1987
:100F50007D098E099F09061717072807390708F02A
:100F60008ECFC4CF80E0C7CF82E0C5CF83E0C3CFB0
:100F7000CF92DF92EF92FF920F931F93CF93DF9365
:100F8000D82FC62F613208F098C00E940A036B0167
:100F90007C018091D70681116BC081E08093D706D8
:100FA0008093D6069FEF9093D5061092D4069C0F9F
:100FB0009093D3068093B2068091B206DD0FD82BB2
:100FC000D093B2068091B106813009F078C01092BA
:100FD000B1060E940A036B017C018091B2068093E6
:100FE000BB008091D9069091DA06A091DB06B09102
:100FF000DC06892B8A2B8B2BA1F00E940A0300911F
:10100000D9061091DA062091DB063091DC066C19C6
:101010007D098E099F09061717072807390708F465
:1010200048C08091BC0083FDD8CF85EC8093BC0084
:101030000E940A036B017C018091D706813009F47C
:1010400040C08091D4068C1710F4C091D406E3EB15
:10105000F6E0AFE8B6E080E08C1355C08C2FDF914E
:10106000CF911F910F91FF90EF90DF90CF90089557
:101070008091D9069091DA06A091DB06B091DC064A
:10108000892B8A2B8B2B09F484CF0E940A030091B1
:10109000D9061091DA062091DB063091DC066C1936
:1010A0007D098E099F09061717072807390708F0D9
:1010B00070CF8091D8060E94B006C0E0CFCF85EEF9
:1010C000B5CF8091D9069091DA06A091DB06B09158
:1010D000DC06892B8A2B8B2B09F4AECF0E940A03E6
:1010E0000091D9061091DA062091DB063091DC06DA
:1010F0006C197D098E099F090617170728073907FC
:1011000008F09ACFD6CF91919D938F5FA5CF089588
:10111000E091AC058091AB05E81730F4F0E0E157C1
:10112000F94F808190E008958FEF9FEF089590919F
:10113000AC058091AB052FEF3FEF981748F4E92FEE
:10114000F0E0E157F94F208130E09F5F9093AC05CC
:10115000C90108958091AB059091AC05891B990B4D
:101160000895CF92DF92EF92FF920F931F93CF9348
:10117000DF937C01CB018A012091DD06222389F0D7
:10118000EB016B01C40ED51ECC15DD0569F069912C
:10119000D701ED91FC910190F081E02DC7010995F7
:1011A000F3CF642F0E946B06C801DF91CF911F918E
:1011B0000F91FF90EF90DF90CF900895CF93DF9342
:1011C0001F92CDB7DEB769832091DD062223F9F0A7
:1011D00020910007203258F021E030E0FC013383F9
:1011E000228390E080E00F90DF91CF91089580916D
:1011F000DE06E82FF0E0E152F94F998190838F5F8E
:101200008093DE068093000781E090E0ECCF61E000
:10121000CE0101960E946B06F7CF6093AF067093E4
:10122000B00691E09093DD068093FF061092DE06F3
:101230001092000781E097E00E94DE080C94D1062E
:1012400090E080E008959C01DC01A058BF4FEC9134
:1012500091E09E0F9C93E20FF32FF11D608397FDA9
:101260001C920895823081F020F4813049F00C9472
:101270001C05833061F08430D1F782E991E002C02F
:1012800087E791E00C94B8058FE791E0FBCF88E801
:1012900091E0F8CFCF93C82F6AE070E082958F700D
:1012A0000E9410066AE070E08C2F8F70CF910C9432
:1012B0001006CF93DF93EC01C11580E1D80780F4CD
:1012C00080E30E941C05CF3FD10509F048F480E37C
:1012D0000E941C05C031D10518F480E30E941C0552
:1012E00060E170E0CE01DF91CF910C94CB05CF93FC
:1012F000DF93EC01C83E83E0D80778F480E30E94D6
:101300001C05C436D10548F480E30E941C05CA3090
:10131000D10518F480E30E941C056AE070E0CE015C
:10132000DF91CF910C94CB059091EF05690F982F29
:10133000990F890F880F0C9415050C94B805CF935D
:10134000809100018F5F863041F180930001C09150
:10135000C104C87FE091000186E0E89FF0011124FC
:10136000EE5FFE4F8081C82BC093C10461E08CE02A
:101370000E949409E2E0F1E030E020E0C770808153
:10138000C8130EC046E0429FC001439F900D112438
:101390008D5F9E4FCF910C949D0910920001D7CF85
:1013A0002F5F3F4F36962630310549F78DE991E0A2
:1013B000F1CF8091B2059091B305EFEAF4E09C0182
:1013C0002F773327238B880F892F881F990B9195AF
:1013D000878B81E0848B0895EF92FF921F93CF93C8
:1013E000DF93CDB7DEB7C058D1090FB6F894DEBF92
:1013F0000FBECDBFCE0101967C0180E8F7011192AE
:101400008A95E9F710E0612F80E00E94150560E8F9
:1014100070E0C7010E94A5041F5F1830A1F760E0CB
:1014200080E00E94EA04C058DF4F0FB6F894DEBF98
:101430000FBECDBFDF91CF911F91FF90EF90089528
:101440000E94EC0961E080E00E94940982EA91E048
:101450000E94B80589EA91E00E94B8058DEA91E002
:101460000E94B80562E081E00E9494098AEB91E055
:101470000E94B8058CEF0E941C0580EC91E00E9450
:10148000B80589EC91E00E94B80584E08093EF05EF
:1014900008951092E5051092EF050E94200A61E080
:1014A00080E00E9494098EEC91E00E949D0981E009
:1014B000809300010C949F09EF92FF921F93CF93AA
:1014C000DF93CDB7DEB7182FEDB6FEB6883001F149
:1014D000682F80E00E9415058DB79EB78E57910941
:1014E0000FB6F8949EBF0FBE8DBF01962EE7FC018C
:1014F00011922A95E9F76EE770E00E94A504612F2A
:1015000080E00E9415050FB6F894FEBE0FBEEDBE3A
:101510000FB6F894FEBE0FBEEDBEDF91CF911F91C6
:10152000FF90EF900895CF93C1E08C2F0E945C0A4A
:10153000CF5FC830D1F71092EF0560E080E00E94E5
:10154000940984ED91E00E94B80562E081E00E9478
:10155000940986EE91E00E94B8056AE070E08091FF
:10156000B7050E94100663E081E00E94940980EFB5
:1015700091E00E94B8058091B90590E0982F8827E6
:101580002091B805820F911D0E94590964E081E005
:101590000E9494098CEF91E00E94B8058091BA05F1
:1015A0000E94320965E081E00E94940986E092E0A1
:1015B0000E94B8058091BB050E94320966E081E077
:1015C0000E94940980E192E00E94B8058091C005D4
:1015D000853529F48AE192E0CF910C94B8058F3FCC
:1015E00019F484E292E0F8CFCF910C941C05CF93CC
:1015F000DF938091B105882361F1C0910101CC2373
:1016000041F1D1E0D093DD06C093FF061092DE06D3
:101610001092000767EF81E097E00E94DE080E94C9
:10162000D106D093DD061092DE061092000761E02D
:101630008C2F0E94B8071092AC058093AB0581E017
:1016400097E00E949708C82F0E94D10681E0C73E0C
:1016500009F080E0DF91CF910895CF92DF92EF9271
:10166000FF92CF93DF93D82F0E942F03C090AA043C
:10167000D090AB04E090AC04F090AD04C091AE0407
:10168000AB01BC014C195D096E097F0928EE33E0FE
:10169000C29FC001C39F900D1124092E000CAA0BFC
:1016A000BB0B84179507A607B70758F461E08C2F8A
:1016B0000E9494098DE292E00E949D09CF5FC09341
:1016C000AE040E942F03AB01BC014C195D096E09E9
:1016D0007F0928EE33E0D29FC001D39F900D1124E3
:1016E000092E000CAA0BBB0B84179507A607B7079A
:1016F000C0F480E00E945C0A61E080E00E949409EE
:101700008FE292E00E949D090E943B030E94F70A2B
:101710008823D1F3DF91CF91FF90EF90DF90CF90AE
:10172000089580E0F7CF85ED8093BC008091D906C5
:101730009091DA06A091DB06B091DC060796A11D18
:10174000B11D23E0B695A795979587952A95D1F772
:101750002091BC0024FD03C01092D706089540914B
:10176000D9065091DA066091DB067091DC06452BB4
:10177000462B472B69F30097A105B10541F02AE2FA
:101780002A95F1F700C00197A109B109E1CF809135
:10179000D8060C94B0062F923F924F925F926F92B0
:1017A0007F928F929F92AF92BF92CF92DF92EF92F1
:1017B000FF920F931F93CF93DF9300D000D0CDB74C
:1017C000DEB79C838B837C0141E8E40EF11C6C0145
:1017D00050E8C50ED11C8C010E571F4F8D579F4FDF
:1017E0002C018B819C818C579F4F4C0122242A9481
:1017F000AB80BC8097E8A90EB11CEB81FC81EB5754
:10180000FF4FFA83E983F7018081F6019081891700
:1018100009F4BAC0EB81FC81E80FF11D308037FE7E
:101820006DC0F8019081891739F0F501208131816F
:101830002F5F3F4F31832083F8018083F2012082A4
:10184000832D8076F401803609F441C0832D829582
:1018500086708E5F8083F8012081F4018081820F81
:101860009927991F813891059CF180E8682E621AAA
:10187000F894F6014081F8018081841708F044C093
:10188000F42FF81B8F2FF60180837894F801608184
:101890004617E8F5712C50E06B817C81CB01860DF9
:1018A000971D0E944B17F80160814B815C81460FA8
:1018B000511DBA01A3018B819C810E944B17F70136
:1018C0008081F8019081891BF7018083F8011082E3
:1018D000F70190819F5F9083F8018081392F381B39
:1018E00097FF02C0F7011082F2012081F40190817C
:1018F0009317A9F03226F201308285CFF40180815E
:101900008111E6CF3082A7CF862D840FBCCF461B36
:1019100050E08B819C81860F911DBC01CCCF32128F
:101920002AC04B815C81480F511DCA01E981FA81AF
:10193000408151814F5F5F4F51834083F701308178
:10194000F80130830097B1F20F900F900F900F9035
:10195000DF91CF911F910F91FF90EF90DF90CF908B
:10196000BF90AF909F908F907F906F905F904F90BF
:101970003F902F900895F501808191810196918388
:10198000808390E080E0DACF90E080E0DDCF1F93AD
:10199000CF93DF93182FD62FCBE4C627C82764EB4D
:1019A00087E194E00E942309612F87E194E00E947F
:1019B00023096D2F87E194E00E9423096C2F87E1B2
:1019C00094E00E9423096FEF87E194E00E942309CD
:1019D00087E194E00E94CB0B9093A7048093A60428
:1019E000009729F0DF91CF911F910C94FA01DF91BC
:1019F000CF911F9108959F92AF92BF92CF92DF92A5
:101A0000EF92FF920F931F93CF93DF93682F70E0B5
:101A100099E0899FF0011124E155FB4F1581218147
:101A2000412F50E0440F452F441F550B240F352FF5
:101A3000311D9091E505911112C0232B09F094C03E
:101A400060E08AE3DF91CF911F910F91FF90EF90BB
:101A5000DF90CF90BF90AF909F900C94C70C8C31CB
:101A600078F7232B11F493E09183D82F89E0869F98
:101A7000F001879FF00D1124E155FB4F9080A1806C
:101A8000B280C380D480E680F7800085C3E1CD2793
:101A9000C127C925CA25CB25CC25CD25CE25CF25C7
:101AA000C02767EE87E194E00E9423096EE087E19A
:101AB00094E00E9423096D2F87E194E00E9423099E
:101AC000692D87E194E00E9423096A2D87E194E063
:101AD0000E9423096B2D87E194E00E9423096C2D5D
:101AE00087E194E00E94230965E087E194E00E9489
:101AF00023096D2D87E194E00E942309612F87E17E
:101B000094E00E9423096E2D87E194E00E9423094E
:101B10006F2D87E194E00E942309602F87E194E014
:101B20000E9423096C2F6F7787E194E00E942309BC
:101B30006FEF87E194E00E94230987E194E00E941F
:101B4000CB0B9093A7048093A604009789F0DF91B4
:101B5000CF911F910F91FF90EF90DF90CF90BF90AA
:101B6000AF909F900C94FA018C3108F47ECF68CF2F
:101B7000DF91CF911F910F91FF90EF90DF90CF9069
:101B8000BF90AF909F900895FF920F931F93CF93B4
:101B9000DF9380E096E00E94CB0BFC019093A704BA
:101BA0008093A604892B59F0C181CC3140F4808107
:101BB0008B3B09F4A9C048F48A3B09F4A7C0DF9124
:101BC000CF911F910F91FF9008958F3B09F46DC045
:101BD0008F3EA9F792819C3190F70381F480458173
:101BE0003681208511858285D385C48559E0959FEE
:101BF000F0011124E155FB4F0083F18242833383CE
:101C0000248315838683D783C0876FE78FE60E947E
:101C1000C70C2C2F30E0322F2227C9018D0F911DC8
:101C2000EC019093A9048093A8048091E5058111AB
:101C3000C6CF0E945C0A60E080E00E94940983E4C1
:101C400092E00E949D098F2D90E0112331F040E831
:101C5000149F90011124820F931F0E94770960E066
:101C60008CE00E949409E2E0F1E030E020E00770AF
:101C70008081081373C046E0429FC001439F900DCE
:101C800011248D5F9E4F0E949D0963E080E00E94B9
:101C9000940989E492E00E949D09CE01DF91CF91E1
:101CA0001F910F91FF900C9459094281AFEAB4E063
:101CB000FD0181E09285491303C09685C917B1F0F3
:101CC0008F5F39968C31B1F721E030E0822F199681
:101CD0009C911997907389F499E0929FF001939FDA
:101CE000F00D1124E155FB4F4183C583DF91CF9166
:101CF0001F910F91FF900C94FB0C2F5F3F4F199693
:101D00002C31310519F75BCF8C2FF0CF82818C13EA
:101D100022C0CC23F1F049E0C49FF0011124E15529
:101D2000FB4F8081806380838C2F0E94FB0CE091AD
:101D3000A604F091A7048281811141CF59E0C59F8B
:101D4000F0011124E155FB4F80818F7E80628083FA
:101D500036CF82E0CBCFC111EACF31CF2F5F3F4FDB
:101D600036962630310509F083CF8DE991E08BCF8F
:101D70001F920F920FB60F9211242F933F938F93C0
:101D80009F93AF93BF938091E7059091E805A09151
:101D9000E905B091EA053091E60523E0230F2D37E0
:101DA00058F50196A11DB11D2093E6058093E70526
:101DB0009093E805A093E905B093EA058091EB05BF
:101DC0009091EC05A091ED05B091EE050196A11D55
:101DD000B11D8093EB059093EC05A093ED05B093B6
:101DE000EE05BF91AF919F918F913F912F910F90F1
:101DF0000FBE0F901F90189526E8230F0296A11D85
:101E0000B11DD2CF1F920F920FB60F9211242F93B4
:101E10003F934F935F936F937F938F939F93AF9372
:101E2000BF93EF93FF938091B900887F803609F4C8
:101E30004AC0F0F5883209F4A7C018F5803109F4DA
:101E40009BC0B8F4882309F4F9C0883009F494C021
:101E5000FF91EF91BF91AF919F918F917F916F9182
:101E60005F914F913F912F910F900FBE0F901F9058
:101E70001895883109F488C0803251F78093D506CF
:101E800014C0803409F49DC040F48033B9F3883322
:101E9000F9F68093D50685ECB0C0803509F485C08D
:101EA000883509F496C0883499F60E94930BD0CFF8
:101EB000883909F48CC038F5883729F050F4883611
:101EC00011F0803729F683E08093D7061092100432
:101ED00057C0883809F47BC0803919F0803809F080
:101EE000B7CF80911004803208F071C0E0911004E7
:101EF00081E08E0F809310048091BB00F0E0E051F0
:101F0000FC4F80833DC0803B39F0E0F4803A09F417
:101F100079C0883A09F09CCF84E08093D70610926C
:101F2000EF031092EE03E0911504F0911604099569
:101F30008091EE0381110FC081E08093EE03109237
:101F4000CE0309C0803C09F4A6CF883C09F4A3CF96
:101F5000883B09F07DCFE091EF0381E08E0F809305
:101F6000EF03F0E0E253FC4F80818093BB0090913F
:101F7000EF038091EE0329C08091B2068093BB00ED
:101F800085EC8093BC0064CF9091D4068091D306F9
:101F9000981758F5E091D40681E08E0F8093D4060F
:101FA000F0E0ED54F94F8081E9CFE091D40681E073
:101FB0008E0F8093D4068091BB00F0E0ED54F94F72
:101FC00080839091D4068091D3069817C8F285E853
:101FD000D8CFE091D40681E08E0F8093D406809113
:101FE000BB00F0E0ED54F94F80838091D60681115B
:101FF0005CCF81E08093B10684EA8093BC001092AC
:10200000D70626CF85EC8093BC001092D70680912E
:102010001004803230F4E0911004F0E0E051FC4F05
:1020200010826091100470E0E0911304F0911404A8
:1020300080EF93E00995109210040ACF1092D50614
:1020400034CF1F920F920FB60F921124CF92DF92CE
:10205000EF92FF920F931F932F933F934F935F93B2
:102060006F937F938F939F93AF93BF93CF93EF9390
:10207000FF93B19A8091F7059091F80580549C4F99
:102080009093F8058093F7058091F7059091F805F6
:1020900090938900809388008091CC03882371F00D
:1020A0001092CC03189B26C081E08093FD05B59A61
:1020B00080916F00806280936F001CC08091FC054E
:1020C0008F5F8093FC058091FD05843009F043C04B
:1020D0008091FC05893030F58091F30590E095956D
:1020E00087958093F305189B05C08091F305806860
:1020F0008093F305FF91EF91CF91BF91AF919F91A5
:102100008F917F916F915F914F913F912F911F918F
:102110000F91FF90EF90DF90CF900F900FBE0F9038
:102120001F901895B59A80916F00806280936F0020
:102130008091F1059091F205189929C0FC01E957A9
:10214000FF4F808191810196918380831092FC05DD
:1021500081E08093FD058091FD058330E9F5E091F4
:10216000FA05F091FB0580812091F90533B190E0EB
:10217000022E02C0959587950A94E2F7832780FD89
:1021800011C01092FC0582E08093FD0525C060918E
:10219000F3050E94230980E090E0892BB9F20E94A8
:1021A0000000D4CF8091FC05893008F043C0309105
:1021B000F30581E090E001C0880F2A95EAF790814D
:1021C00030FF36C08095892380838091F30590E0AD
:1021D000959587958093F3058091FD05823099F45C
:1021E0008091FC05811196C0E091FA05F091FB0504
:1021F00080819091F90521E030E001C0220F9A958D
:10220000EAF7822B80838091FD05813009F072CF3F
:102210008091FC05882309F44ACF8091FC0588331E
:1022200008F468CF1092FD0580916F008D7F43CF39
:10223000892BCACF8091FC05893059F4308181E027
:1022400090E001C0880F2A95EAF780958323808368
:10225000C3CF8091FE058F5F8093FE059091FF05AF
:10226000891750F51092FC058091F5059091F605BF
:10227000A091FE05A80FB92FB11D8C918093F30595
:10228000808141E050E001C0440F2A95EAF7842B99
:10229000808380918400909185008A5A9C4F90930E
:1022A000F8058093F7058091F7059091F8059093D4
:1022B00089008093880090CF81E08093F405E090BE
:1022C000F505F090F605C090F105D090F205F70104
:1022D00080818076803679F4C18110E000E00C17AF
:1022E00078F4F701E00FF11F6081C6010E94230915
:1022F0000F5F1F4FF4CFC081C295C670CE5FEDCF88
:1023000080E090E0892B11F00E9400001092FC0503
:1023100081E03ACF8091FC058F3008F474CFE091D2
:10232000FA05F091FB0520813091F90581E090E0FC
:1023300001C0880F3A95EAF7809582238083109236
:10234000FC0581E08093FD05E091F105F091F20537
:10235000E357FF4F8081918101969183808353CF12
:102360001F920F920FB60F9211248F939F93EF93AA
:10237000FF93B59AEFE6F0E080818F7D80838091B6
:1023800086009091870080529E4F9093F80580932D
:10239000F7058091F7059091F80590938900809357
:1023A0008800B19A80818260808384E08093FD05FB
:1023B0001092FC0581E08093CC03FF91EF919F91F7
:1023C0008F910F900FBE0F901F901895CF93DF93B2
:1023D000E1E0F7E01382128288EE93E0A0E0B0E043
:1023E00084839583A683B7838DE591E09183808371
:1023F000C4E6D7E086E0888380E8898388E08A8322
:102400001B821C821D821E8286E00E94DB010E94CC
:102410002F036B837C838D839E838091010190E0E9
:1024200090930E0780930D07EFE0F7E0138212827E
:102430008FE691E091838083148215821682178241
:102440008AE090E09187808712861386148615862D
:1024500016861786108A928B818B138A148A158AA6
:10246000168A178A108E118E938F828F148E158E76
:10247000168E178E10A211A212A294A383A315A2E6
:1024800016A217A210A611A612A613A695A784A796
:1024900016A617A610AA11AA12AA13AA14AA96ABD6
:1024A00085AB17AA10AE11AE12AE13AE14AE15AEB8
:1024B00097AF86AF10924F071092500710925107B6
:1024C000109252071092530710925407109255071A
:1024D0009093570780935607109258071092590708
:1024E00010925A0710925B0710925C0710925D07DA
:1024F00010926007109261071092620710926307B2
:1025000010925E0710925F07DF91CF910895CF93ED
:10251000DF93CDB7DEB76C970FB6F894DEBF0FBE72
:10252000CDBF789484B5826084BD84B5816084BD5C
:1025300085B5826085BD85B5816085BD80916E0061
:10254000816080936E001092810080918100826092
:1025500080938100809181008160809381008091CF
:1025600080008160809380008091B10084608093BE
:10257000B1008091B00081608093B00080917A00BA
:10258000846080937A0080917A00826080937A00E0
:1025900080917A00816080937A0080917A008068CF
:1025A00080937A001092C100EFEAF4E08BEA95E0A4
:1025B000108239968E179F07D9F783E38093C10461
:1025C000E0E0F6E08FE8DF011D928A95E9F787E009
:1025D0000E94DB01E2E5F3E02491EEE3F3E0E49115
:1025E000F0E0EE0FFF1FED5DFC4F4591549180E050
:1025F00091E031E0291741F08F5F932F082E01C041
:10260000990F0A94EAF7F6CF5093FB054093FA0529
:102610008093F90580E096E09093F2058093F105B0
:102620002098E091FA05F091FB0520813091F905A1
:1026300081E090E001C0880F3A95EAF78095822307
:1026400080831092800011E0109381001092FD05AC
:10265000B59A80916F00806280936F0080918100B5
:10266000887F8160809381001092AC051092AB0549
:102670001092DE06109200070E9492068EEF93E001
:1026800090931604809315048FEF93E090931404B5
:102690008093130489E3809301011093DD068093F6
:1026A000FF060E94D106811107C08091B1058823E1
:1026B00009F408C181E010C081E280930101109308
:1026C000DD068093FF061092DE06109200070E943E
:1026D000D106882351F380E08093B1051092B900B0
:1026E00088E48093B80084E08093BC00E4EFF2E0DB
:1026F000DE0111969E01245E3F4FCD0144914D9322
:102700003196A217B307D1F72FEA2C8F6CE10E9404
:10271000C7040E94EC0980915B07882309F450C02C
:102720001092B90098E49093B80094E09093BC00A4
:102730000E9440048FEF0E942D0484E98093BC0026
:1027400050E040E060915B0783E197E00E94640401
:1027500041E050E060915B078CE197E00E946404E7
:1027600042E050E060915B0785E297E00E946404DC
:1027700043E050E060915B078EE297E00E946404C2
:1027800044E050E060915B0787E397E00E946404B7
:1027900045E050E060915B0780E497E00E946404AC
:1027A00046E050E060915B0789E497E00E94640492
:1027B00047E050E060915B0782E597E00E94640487
:1027C0000E94200A0E94F70A8823E1F160ED77E079
:1027D00080E090E00E94CA030E94F70A882391F1EA
:1027E00060E080E00E94940988E592E00E949D09E3
:1027F00081E08093E505E5EBF5E01192B5E0E53E7B
:10280000FB07D9F781E08093AE040E942F03609309
:10281000AA047093AB048093AC049093AD04009130
:10282000A8041091A9040115110509F05BC00E94CC
:102830003B030E94C40D8FE00E942D0B882379F387
:102840000E94490A8091E50581110CC061E00E9457
:1028500094098EEC91E00E949D0981E08093000133
:102860000E949F0995E0E92E2AE0D22E30E0632EE7
:1028700030E0732E0E943B030E94C40D8091B1058D
:1028800081112EC120E080E020FDA6C126FDA6C159
:1028900027FF12C09091E5059111D1C1833609F04F
:1028A0009FC11092B4051092B3051092B2050E9418
:1028B000D90987E00E94510661147104D9F20E947F
:1028C0000000D8CF8091010190E090930E07809393
:1028D0000D076FEF70E00E940D091092B005109285
:1028E000AF05E8CE64E670E080E090E00E94CA03A5
:1028F000E12EFF24AE2C902EABE0BA2EB026BE24E3
:10290000B6E2CB2EB1E0DB2E11270E943B03F6018D
:1029100071906F01FFE2F71508F4DFC0872C8B245C
:1029200065EE87E194E00E94230960E187E194E08D
:102930000E94230961E087E194E00E94230962E09C
:1029400087E194E00E94230962E087E194E00E941D
:10295000230960E187E194E00E942309692D87E162
:1029600094E00E9423096A2D87E194E00E942309E4
:10297000672D87E194E00E94230960E087E194E0FD
:102980000E94230960E187E194E00E94230960E04E
:1029900087E194E00E94230960E087E194E00E94CF
:1029A000230960E087E194E00E94230960E087E169
:1029B00094E00E942309682D6F7787E194E00E94DC
:1029C00023096FEF87E194E00E94230987E194E0F7
:1029D0000E94CB0B9093A7048093A604009711F05C
:1029E0000E94FA0181E08093AE040E942F0360935D
:1029F000AA047093AB048093AC049093AD040E943E
:102A00003B0380E096E00E94CB0BDC019093A7048F
:102A10008093A604892B39F08C918A3B51F460E0B5
:102A20008AE30E94C70C85E00E942D0B882339F3AE
:102A300007CF853EC1F711968C911197803199F798
:102A400014968C911497823071F715962C911597E6
:102A500030E0C90156E0880F991F5A95E1F7807858
:102A6000992717964C9117974F77842BB901769534
:102A7000762F662777956795772716964C91169748
:102A80004F77460F572F511D4017510761F6E81633
:102A9000F90649F613968C911397823421F645E096
:102AA000220F331F4A95E1F720781896EC9118977A
:102AB000EF77E22B1A968C911A9790E8899FA001E4
:102AC00011241B968C918F77840FE03308F01DCF73
:102AD000F0E0EB54FA4F808318CF0E94930AB2CEF5
:102AE000A090AF05B090B005F0900D07C0900E0714
:102AF000F501EE0FFF1FEF5AFE4F608171818F2DA0
:102B00009C2D0E940D0909E411E0912C812C61E0BB
:102B10008F2D0E94B8071092AC058093AB0581E021
:102B200097E00E949708D8014D915D918D01209109
:102B3000AF063091B006822793278417950791F44A
:102B4000EA9CF001EB9CF00D1124EB5CFE4FE80DCC
:102B5000F91D8081082E000C990B9093AE0580938F
:102B6000AD0590CEBFEF8B1A9B0AE4E08E16910460
:102B700071F68091AD059091AE05009791F010929D
:102B8000AE051092AD05882309F47CCE833201F1A5
:102B90008A3201F1805320E88A3008F475CE20E8AB
:102BA00072CE6FEF70E08F2D9C2D0E940D09FFEF0C
:102BB000AF1ABF0A84E0A816B10429F0B092B0059C
:102BC000A092AF055FCE1092B0051092AF055ACE1D
:102BD00021E059CE20E457CE82E65CCE83E65ACE81
:102BE000823619F40E949F0967CE2091B40590E0C7
:102BF000222371F0243080F46091B2057091B30506
:102C0000D69EA001D79E500D1124840F952F911DA3
:102C10009093B3058093B2052F5F2093B40584E0B1
:102C20000E94510661E085E00E9494098091B205FE
:102C30009091B3050E9477090E94D9093DCE833651
:102C400019F40E94490A38CE813019F40E94930A7F
:102C500033CE823009F07EC011E0812F0E945C0AE1
:102C60001F5F1830D1F760E080E00E94940987E68A
:102C700092E00E94B80562E081E00E94940989E731
:102C800092E00E94B805C090C10562E070E08C2D12
:102C90000E94100663E081E00E9494098091B705CC
:102CA000863180F58C2D8370823031F1833039F19B
:102CB0008130F9F083E892E00E94B80514E0612FBA
:102CC00081E00E94940981E293E0C6FC02C083E3A4
:102CD00093E00E94B80561E0610F81E00E949409D1
:102CE00084E493E0C7FC02C088E593E00E94B80545
:102CF000E3CD84E992E0E0CF82EA92E0DDCF87EB9A
:102D000092E0DACFEC2DEF70F0E0E757F94E0C943B
:102D100045175A1699169C169C169F16A816A216A9
:102D2000A816A816A816A816A816A816A816A516B6
:102D30005A1684EC92E0C0CF88ED92E0BDCF8BEEC6
:102D400092E0BACF88EF92E0B7CF8BE093E0B4CFB8
:102D500013E0B5CF833009F0AFCDFF24F3948F2D6E
:102D60000E945C0AF39498E0F912F9CF60E080E0E9
:102D70000E94940988E693E00E94B80562E081E031
:102D80000E9494098AE793E00E94B8056AE070E027
:102D90008091C2050E9410068EE20E941C056AE026
:102DA00070E08091C3050E94100663E081E00E94FC
:102DB000940984E893E00E94B8058091C4050E94BC
:102DC0004A098EE20E941C058091C5050E944A09AD
:102DD0008EE20E941C058091C6050E944A0964E0AB
:102DE00081E00E9494098EE893E00E94B8058091EA
:102DF000E0058F3FF1F488E993E00E94B80565E0B3
:102E000081E00E9494098FEA93E00E94B805F09057
:102E1000E105AFEF89EB93E0FA1609F467CF82EC96
:102E200093E00E94B8056AE070E08F2D0E941006C2
:102E300043CD811103C083EA93E0DFCF6AE070E005
:102E40000E941006DCCFA1E21A2EAA1BBB1BFD01BB
:102E50000DC0AA1FBB1FEE1FFF1FA217B307E40779
:102E6000F50720F0A21BB30BE40BF50B661F771FD1
:102E7000881F991F1A9469F76095709580959095B1
:102E80009B01AC01BD01CF010895EE0FFF1F05901E
:102E9000F491E02D09946817790768F4FB01DC01CF
:102EA000E40FF51FA40FB51F02C002900E9241500F
:102EB0005040D8F708950C945D17FB01DC0102C067
:102EC00001900D9241505040D8F70895F894FFCFEB
:102ED00001390731323841000432384120000331D2
:102EE0003238200000323820200002313420200007
:102EF000014D2A2A200002030405060B0C0D0E0FBB
:102F000010112B2CFF31323341003435364200375B
:102F1000383943002A30234400100020004000804C
:102F200000FE00FD00FB00F70000000000DE08B11D
:102F30000820098708AA0897088808000000006789
:102F400006000420096A0641546D65676138004136
:102F5000546D65676138380041546D65676131367D
:102F6000380041546D65676133323850003F20208E
:102F7000200044495350412000322E320020286660
:102F80006B61204652414E5A29002863294B72003A
:102F90006D656C736F6674200032303234004E659C
:102FA000753A200046524544492D5356202D205055
:102FB000617274203100535620322020203A2000C4
:102FC000535620332C20343A203078005356203585
:102FD0002020203A2000535620362020203A20007E
:102FE000535631312020203A20006F706572617491
:102FF000696E670073656C6674657374002E0043B8
:103000006F6D6D756E69636174696F6E2065727244
:103010006F7200416C743A20005468726F74746C63
:103020006549443A2030780044697370617463687C
:103030002046524544490046524544492D535620A6
:103040002D205061727420320053563132202020DE
:103050003A2000756E6B6E6F776E204861726477F0
:1030600061726500496E63722E2D456E636F6465F3
:103070007200496E63722E2D456E636F6465722017
:1030800053776974636800416E616C6F672E2D50D1
:103090006F746900496E63722E2D456E636F6465AF
:1030A000722046312D463400416E616C6F672E2DC3
:1030B000506F74692046312D4634004D6174726939
:1030C000782D4652454449004D61747269782D4609
:1030D0005245444920285357442900465245444903
:1030E00020772E204252414B452D427574746F6EED
:1030F0000054776F20536869667420627574746F2A
:103100006E73004F6E652053686966742062757433
:10311000746F6E00466F72772D4F66662D5265761E
:103120002D53776974636800466F72772D52657608
:103130002D5377697463680046524544492D5356B0
:10314000202D2050617274203300535631332C31BE
:10315000343A2000535631352D31373A200053563A
:1031600034332020203A20006E6F204F50435F49B7
:103170004D4D004F50435F494D4D206163740053E6
:103180005634342020203A20006E6F204252414BAA
:0C31900045004252414B453A20460000E9
:00000001FF
