:100000000C9492010C94BA010C94BA010C947710E0
:100010000C9477100C9477100C94BA010C94BA01DC
:100020000C94BA010C94BA010C949D130C940E120A
:100030000C94BA010C94BA010C94BA010C94BA0154
:100040000C942D100C94BA010C94BA010C94BA01C2
:100050000C94BA010C94BA010C94BA010C94BA0134
:100060000C94EF100C94BA014E65753A20006D6542
:100070006C736F6674002863294B7200323032341F
:1000800000202F2000322E340044495350412000DC
:1000900041546D656761333238500041546D656776
:1000A000613136380041546D65676138380041541C
:1000B0006D6567613800535620332C343A30780030
:1000C000535620323A00416C743A2000436F6D6DF4
:1000D000756E696361742E6572726F7200436F6E24
:1000E0006E656374204652454449202020005265C5
:1000F0006C65617365202A2D427574746F6E0053B0
:100100005620363A00535620353A00756E6B6E6FA6
:10011000776E204653003132384120465300323842
:1001200041204653003132382046530031342046B6
:10013000530032384D204653003238204653005386
:100140005631303A002D2D2D00535620382C393A97
:1001500000535631323A0073656C667465737400EF
:100160006F7065726174696E6700535631313A0081
:100170004F6E6520536869667420627574746F6E83
:100180000054776F20536869667420627574746FC9
:100190006E00465245444920772E204252414B453D
:1001A000005357442D4652454449004D61747269CD
:1001B000782D465245444900416E612E2D506F7492
:1001C000692046312D463400496E63722E2D456EEE
:1001D000632E2046312D463400756E6B6E6F776E40
:1001E00020486172647761726500416E616C6F676F
:1001F0002E2D506F746900496E63722E456E632E0A
:100200002053776974636800496E63722E2D456EC2
:10021000636F64657200756E6B6E6F776E204861F8
:1002200072647761726500466F72772D4F66662D36
:100230005265762D537700466F72772D5265762D75
:10024000537700535631352D31373A0053563133F9
:100250002C31343A004252414B453A2046006E6FF1
:10026000204252414B4500535634343A004F5043DC
:100270005F494D4D20616374006E6F204F50435FA6
:10028000494D4D00535634333A002E2E2E2E2E2E2D
:100290002E2E2E2E2E2E2E2E2E2E003C20303030A6
:1002A000203E20202020202020202E0053563138B0
:1002B0002E2E2E3334005468726F74746C6549446A
:1002C0003A2030780000000000240027002A0000B7
:1002D0000000080002010000030407000000000005
:1002E000000000000000002300260029000000009C
:1002F00000250028002B0004040404040404040264
:1003000002020202020303030303030102040810B2
:10031000204080010204081020010204081020007F
:10032000D313EF1C11241FBECFEFD8E0DEBFCDBF2B
:1003300026E0AAEBB1E001C01D92A73DB207E1F7AC
:1003400011E0A0E0B1E0ECEFFAE302C005900D92FD
:10035000AA3BB107D9F711E0C1E9D1E004C0219768
:10036000FE010E942D1DC039D107C9F70E94F0146B
:100370000C94711D0C940000CF93DF93FC0129E1D4
:100380008EE241E050E033E071E09081907690366B
:10039000D1F4918190937A05A0917A05A1501092A1
:1003A00079059FEF609179056A1790F4C0917905FE
:1003B000CE0FDF2FD11D68819627609179056F5F81
:1003C00060937905EFCF9081929596709E5FE2CF12
:1003D000AE0FBF2FB11D9C93F8949091780591308A
:1003E00059F490917705981738F01092780590910C
:1003F0006F009D7F90936F00789490917805913075
:1004000039F490917705943108F4BFCF70E0BDCFF7
:100410009091780591110EC0F89490916F009F7D96
:1004200090936F00B59B09C090916F00906290937C
:100430006F0078947111A9CF51C0A0917505B0914A
:1004400076059C9160917405EA0102C0CC0FDD1F16
:100450006A95E2F79C2B9C936091840070918500D3
:100460006A5A7C4F709373056093720560917205B0
:100470007091730570938900609388007894F0936D
:100480007105E09370051092790510926F059081C7
:1004900090936E053093780510927705B19A9091FC
:1004A0006F00926090936F00909178059330E1F324
:1004B00090916F05992381F0E0916C05F0916D05A5
:1004C000E757FF4F8081918101969183808383E07C
:1004D00090E0DF91CF910895909178058B3108F0ED
:1004E0008150215009F050CF809106069091070667
:1004F0000196909307068093060686E090E0E9CF88
:10050000833081F028F4813099F08230A9F0089589
:100510008730A9F08830C9F08430B1F48091800030
:100520008F7D03C0809180008F7780938000089535
:1005300084B58F7784BD089584B58F7DFBCF80917E
:10054000B0008F778093B00008958091B0008F7DC8
:10055000F9CF1F93CF93DF93282F30E0F901E153B8
:10056000FD4F8491F901E55FFC4FD491F901E95009
:10057000FD4FC491CC23A9F0162F81110E94800257
:10058000EC2FF0E0EE0FFF1FE351FD4FA591B4916A
:100590008FB7F894EC91111108C0D095DE23DC934D
:1005A0008FBFDF91CF911F910895DE2BF8CFCF93AE
:1005B000DF9390E0FC01E55FFC4F249189509D4F53
:1005C000FC0184918823C9F090E0880F991FFC01F9
:1005D000EB53FD4FA591B491FC01E351FD4FC59143
:1005E000D49161110DC09FB7F8948C91209582230E
:1005F0008C938881282328839FBFDF91CF91089512
:10060000623051F49FB7F8943C91822F80958323F8
:100610008C93E8812E2BEFCF8FB7F894EC912E2B93
:100620002C938FBFEACF3FB7F8948091D704909175
:10063000D804A091D904B091DA0426B5A89B05C0CE
:100640002F3F19F00196A11DB11D3FBFBA2FA92F51
:10065000982F8827BC01CD01620F711D811D911D4E
:1006600042E0660F771F881F991F4A95D1F70895BA
:100670002FB7F8946091D3047091D4048091D5047D
:100680009091D6042FBF08950F931F93CF93DF93BC
:100690000E9438030091D3061091D4062091D5060C
:1006A0003091D606601B710B820B930B653171057F
:1006B0008105910508F453C00E9438036093D30666
:1006C0007093D4068093D5069093D606C091D10638
:1006D0008091D206C13C20F081958093D20602C061
:1006E000C032D0F38091D206C80FC093D106D0910A
:1006F000D00661E08D2F0E94D702C11108C060E0D2
:100700008D2FDF91CF911F910F910C94A902CF3FB4
:1007100011F461E0F5CFED2FF0E0E153FD4FE491EE
:10072000E33039F138F4E130B1F0E230E9F0C7FDFF
:10073000F0CFE5CFE73041F1E83071F1E430B9F7BF
:1007400080918000806280938000D0E0D0938B0005
:10075000C0938A0004C084B5806884BDC7BDDF91A2
:10076000CF911F910F91089584B5806284BDC8BD5B
:10077000F6CF80918000806880938000D0E0D09395
:100780008900C0938800EBCF8091B000806880938F
:10079000B000C093B300E3CF8091B000806280933B
:1007A000B000C093B400DBCF8F929F92AF92BF9204
:1007B000CF92DF92EF92FF924B015C010E941303F4
:1007C0006B017C010E9444030E9413036C197D0994
:1007D0008E099F09683E73408105910598F321E0D9
:1007E000821A9108A108B10888EEC80E83E0D81ECD
:1007F000E11CF11C81149104A104B10429F7FF90BC
:10080000EF90DF90CF90BF90AF909F908F90089522
:1008100008950895AF92BF92CF92DF92EF92FF9228
:100820000F931F93CF93DF936C017B018B01040F18
:10083000151FEB015E01AE18BF08C017D10759F0B4
:100840006991D601ED91FC910190F081E02DC601F6
:100850000995892B79F7C501DF91CF911F910F91F0
:10086000FF90EF90DF90CF90BF90AF9008952091D0
:100870004502309146022817390771F490914302DE
:1008800080914402981741F0E0914302F0E0E1507A
:10089000FE4F808190E008958FEF9FEF08950895B7
:1008A000EF92FF920F931F93CF93DF93DC015C963F
:1008B000ED90FC905D97E114F10479F481E090E013
:1008C00013969C938E93129790E080E0DF91CF91E6
:1008D0001F910F91FF90EF9008955196ED91FC912B
:1008E000529750968C915097982F90950FB75E968F
:1008F0002C915E97122F127021FD6095F894208143
:10090000112319F1282B2083E7012197F1F728E023
:10091000462F50E0308160FF1AC0382B3083E7014A
:100920002197F1F7BA0175956795215089F7112341
:1009300081F08081892380830FBF5C968D919C918B
:100940000197F1F781E090E0C1CF2923DCCF392373
:10095000E5CF9081892BEFCF20914502309146025F
:100960002817390761F4809144022091430290E0F6
:10097000805C9F4F821B91098F739927089590E0A7
:1009800080E00895209145023091460228173907EA
:10099000B9F49091430280914402981789F0E09154
:1009A0004302F0E0E150FE4F80812091430230E0AD
:1009B0002F5F3F4F2F7333272093430290E008951A
:1009C0008FEF9FEF089508952091DC01260F3327C4
:1009D000331F21323105ECF420915206FC0190E0E6
:1009E00080E0243069F082E00895A091DC0121913B
:1009F000AC0144545E4FA40FB52FB11D2C9301964A
:100A0000861798F38091DC01680F6093DC0180E029
:100A1000089581E008951092520681E08093510676
:100A200010922C0661E082E10E94A90261E083E15C
:100A30000E94A902E9EBF0E080818E7F80838081B3
:100A40008D7F808388E48093B80085E48093BC0028
:100A50000895CF93DF9391E09093BB018823B9F081
:100A6000C091B800D091BA008091BC008A7B80937D
:100A7000BC0060E082E10E94A90260E083E10E9484
:100A8000A9020E940B05D093BA00C093B800DF9171
:100A9000CF910895CF92DF92EF92FF920F931F9321
:100AA000CF93DF93D0917B0681E0D13208F09CC0D8
:100AB000C0917A060E9413036B017C01809152065B
:100AC00081116CC082E08093520681E080935106D0
:100AD0008FEF8093500610924F06D0934E06AAE5F2
:100AE000B6E0EEE2F6E080E0D8138DC010922D065D
:100AF00080912D06CC0FC82BC0932D0680912C061B
:100B0000813009F084C010922C060E9413036B01FF
:100B10007C0180912D068093BB00809154069091BA
:100B20005506A0915606B0915706892B8A2B8B2B20
:100B3000A1F00E94130300915406109155062091D4
:100B40005606309157066C197D098E099F090617C4
:100B500017072807390708F442C08091BC0083FDBD
:100B6000D8CF85EC8093BC000E9413036B017C01FD
:100B700080915206823009F44CC0809150068F3F1C
:100B800009F469C080915006803209F466C08091F2
:100B90005006803309F463C084E026C08091540677
:100BA00090915506A0915606B0915706892B8A2B35
:100BB0008B2B09F483CF0E941303009154061091EC
:100BC000550620915606309157066C197D098E09FD
:100BD0009F09061717072807390708F06FCF80917C
:100BE00053060E94290585E01092590610927B0653
:100BF00010925806DF91CF911F910F91FF90EF90C7
:100C0000DF90CF9008959D9191938F5F6DCF85EE8A
:100C1000A9CF8091540690915506A0915606B091A7
:100C20005706892B8A2B8B2B09F4A2CF0E94130322
:100C300000915406109155062091560630915706A2
:100C40006C197D098E099F090617170728073907B0
:100C500008F08ECFC4CF80E0C7CF82E0C5CF83E05D
:100C6000C3CFCF92DF92EF92FF920F931F93CF9358
:100C7000DF93D82FC62F613208F098C00E9413036B
:100C80006B017C018091520681116BC081E08093E1
:100C90005206809351069FEF9093500610924F0694
:100CA0009C0F90934E0680932D0680912D06DD0FAC
:100CB000D82BD0932D0680912C06813009F078C076
:100CC00010922C060E9413036B017C0180912D066B
:100CD0008093BB008091540690915506A0915606D2
:100CE000B0915706892B8A2B8B2BA1F00E941303FE
:100CF00000915406109155062091560630915706E2
:100D00006C197D098E099F090617170728073907EF
:100D100008F448C08091BC0083FDD8CF85EC809357
:100D2000BC000E9413036B017C018091520681304C
:100D300009F440C080914F068C1710F4C0914F0603
:100D4000EEE2F6E0AAE0B6E080E08C1355C08C2F0E
:100D5000DF91CF911F910F91FF90EF90DF90CF9097
:100D600008958091540690915506A0915606B09131
:100D70005706892B8A2B8B2B09F484CF0E941303EF
:100D80000091540610915506209156063091570651
:100D90006C197D098E099F0906171707280739075F
:100DA00008F070CF809153060E942905C0E0CFCF94
:100DB00085EEB5CF8091540690915506A0915606C8
:100DC000B0915706892B8A2B8B2B09F4AECF0E944A
:100DD0001303009154061091550620915606309148
:100DE00057066C197D098E099F09061717072807F2
:100DF000390708F09ACFD6CF91919D938F5FA5CFF9
:100E0000E091530280915202E81730F4F0E0E65F7F
:100E1000F94F808190E008958FEF9FEF08959091B2
:100E20005302809152022FEF3FEF981748F4E92FB9
:100E3000F0E0E65FF94F208130E09F5F909353022E
:100E4000C90108958091520290915302891B990B18
:100E50000895CF92DF92EF92FF920F931F93CF935B
:100E6000DF937C01CB018A0120915806222389F06F
:100E7000EB016B01C40ED51ECC15DD0569F069913F
:100E8000D701ED91FC910190F081E02DC70109950A
:100E9000F3CF642F0E94E404C801DF91CF911F912A
:100EA0000F91FF90EF90DF90CF900895CF93DF9355
:100EB0001F92CDB7DEB76983209158062223F9F03F
:100EC00020917B06203258F021E030E0FC01338392
:100ED000228390E080E00F90DF91CF910895809180
:100EE0005906E82FF0E0E65AF94F998190838F5F19
:100EF0008093590680937B0681E090E0ECCF61E01F
:100F0000CE0101960E94E404F7CF60932A06709305
:100F10002B0691E09093580680937A06109259061A
:100F200010927B068CE796E00E9456070C944A05C7
:100F300090E080E008959C01DC01A058BF4FEC9147
:100F400091E09E0F9C93E20FF32FF11D608397FDBC
:100F50001C92089510928D0210928E0210928F02B0
:100F600010929002E1E9F2E0119283E0ED3BF80784
:100F7000D9F7EDEBF3E08EEC93E011928E179F071B
:100F8000E1F7089580918B0290918C02EEECF3E0F2
:100F90009C012F773327238B880F892F881F990B6C
:100FA0009195878B81E0848B0895CF93DF93EC013B
:100FB00060E08E810E94A90261E08E810E94A902F8
:100FC00060E08E810E94A9028BE891E00197F1F721
:100FD000DF91CF910895CF92DF92EF92FF920F931E
:100FE0001F93CF93DF936C017C0187E0E80EF11C27
:100FF000D0E0C0E0062F10E0B8010C2E02C07595BD
:1010000067950A94E2F76170F70181917F010E9470
:10101000A9022196C430D10579F7C601DF91CF919D
:101020001F910F91FF90EF90DF90CF900C94D50718
:10103000CF92DF92EF92FF920F931F93CF93DF93A4
:10104000EC01F62E642F8C810E94A9028D818F3FC6
:1010500019F060E00E94A9020F2D10E08F8584FF37
:1010600025C06E0187E0C80ED11CF12CE12CB8011F
:101070000E2C02C0759567950A94E2F76170F6012F
:1010800081916F010E94A902FFEFEF1AFF0A88E029
:10109000E816F10461F7CE01DF91CF911F910F9116
:1010A000FF90EF90DF90CF900C94D507B80184E0CB
:1010B000759567958A95E1F7CE010E94EB076F2D34
:1010C000CE01DF91CF911F910F91FF90EF90DF90B4
:1010D000CF900C94EB0740E0682F88EB96E00C94DF
:1010E0001808CF93DF93823029F49091C706986057
:1010F0009093C7068093CB061092CC0680E4809331
:10110000CD0680E18093CE0680E58093CF0661E036
:101110008091BC060E94D7028091BD068F3F19F0D6
:1011200061E00E94D70261E08091BE060E94D70272
:10113000C8EBD6E09E01285B36408091C70684FD4F
:101140000BC084E090E021962817390744F461E051
:101150008E810E94D702EECF88E090E0F4CF8BE33F
:101160009DE00197F1F760E08091BC060E94A90222
:1011700060E08091BE060E94A9028091BD068F3F6B
:1011800019F060E00E94A9028091C70684FD39C071
:1011900063E088EB96E00E94EB07CBE4D6E4CE0157
:1011A0000197F1F763E088EB96E00E94EB07219747
:1011B000F1F763E088EB96E00E94EB0783E592E0AD
:1011C0000197F1F762E088EB96E00E94EB078091CF
:1011D000C70680620E946B0884E08093C8068CE09A
:1011E0000E946B0881E00E946B088BE39FE10197EE
:1011F000F1F782E08093C90686E0DF91CF910C94ED
:101200006B0880620E946B088BE496E40197F1F70B
:101210008091C70680620E946B0883E592E0019787
:10122000F1F78091C70680620E946B08D0CF909141
:10123000CB06691710F06FEF690FE62FF0E0E85466
:10124000F94F9489890F80680C946B080C941709E6
:1012500081E00E946B088BE39FE10197F1F708950D
:1012600041E00E94180881E090E008950F931F93D9
:10127000CF93DF938C01D0E0C0E0F801EC0FFD1FAD
:101280006491662339F041E088EB96E00E941808EB
:101290002196F3CFCE01DF91CF911F910F91089549
:1012A0000C94360941E0682F88EB96E00E941808FC
:1012B00081E090E008950E94280960E080E00E94AB
:1012C000260989E890E00E94500985E890E00E9494
:1012D000500981E890E00E9450098CE790E00E945C
:1012E000500961E080E00E94260986E790E00E94B4
:1012F000500985EF0E9452098EE690E00E94500945
:1013000060ED77E080E090E00E94D4030C9428091F
:101310001F93CF93DF93D82F162FC42F0E94170946
:10132000C15020F080E20E945209FACF612F8D2F28
:10133000DF91CF911F910C941709CF93DF93809188
:101340005802882379F1C0910101CC2359F1D1E0F1
:10135000D0935806C0937A061092590610927B06D5
:1013600067EF8CE796E00E9456070E944A05D093EB
:1013700058061092590610927B0661E08C2F0E944D
:10138000310610925302809352028CE796E00E943D
:101390000F07C82F0E944A0583E6C73E21F082E668
:1013A000C73B09F08FEFDF91CF9108958F929F9205
:1013B000AF92BF920F931F93CF93DF93CDB7DEB75A
:1013C000A1970FB6F894DEBF0FBECDBF19A2423071
:1013D00008F44AE08E010F5D1F4F842E912CB12C32
:1013E000A12CA50194010E940B1DE62FB901CA0191
:1013F000EA3044F5E05DD801EE938D01232B242BD8
:10140000252B79F790E080E0109769F0FD010190BD
:101410000020E9F73197AF014A1B5B0BBD0188EB58
:1014200096E00E940A04A1960FB6F894DEBF0FBEA4
:10143000CDBFDF91CF911F910F91BF90AF909F9043
:101440008F900895E95CD7CF462F682F70E090E029
:1014500080E00C94D609823091F030F4813059F05C
:101460006AE070E00C94240A833061F08430C1F7A4
:1014700080E990E002C08EEA90E00C94360985EA9B
:1014800090E0FBCF8BE990E0F8CFCF93C82F6AE0D4
:1014900070E082958F700E94240A6AE070E08C2FC1
:1014A0008F70CF910C94240ACF93DF93EC01C11578
:1014B00080E1D80780F480E30E945209CF3FD10534
:1014C00009F048F480E30E945209C031D10518F4B4
:1014D00080E30E945209BE0190E080E040E1DF918C
:1014E000CF910C94D609CF93DF93109259020E94AA
:1014F000280960E080E00E94260980EC90E00E94CC
:101500003609CAE5D2E06AE070E08A810E94240AC6
:1015100061E080E00E94260986EB90E00E94360997
:101520008C8190E0982F88272B81820F911DDF916D
:10153000CF910C94540ACF93DF93EC01C83E83E023
:10154000D80778F480E30E945209C436D10548F4E4
:1015500080E30E945209CA30D10518F480E30E944A
:101560005209BE0190E080E04AE0DF91CF910C94F7
:10157000D60944E061E085E00E94880961E085E0E9
:101580000E94260980918B0290918C020E949B0AF6
:101590000C94C207009769F0FC0101900020E9F764
:1015A0003197AF01481B590BBC0188EB96E00C94B6
:1015B0000A0490E080E00895CF92DF92EF92FF92CC
:1015C0000F931F93CF93C82F0E943803E0914702D7
:1015D0000091CC041091CD042091CE043091CF0421
:1015E0006B017C01C01AD10AE20AF30A9701860155
:1015F00088EE93E0E89FA001E99F500D1124052E8D
:10160000000C660B770B401751076207730768F4ED
:1016100061E08E2F0E9426098DE991E00E94CA0A9E
:10162000809147028F5F809347020E9438030091A8
:10163000CC041091CD042091CE043091CF04AB01A5
:10164000BC01401B510B620B730B28EE33E0C29FB1
:10165000C001C39F900D1124092E000CAA0BBB0BD7
:1016600084179507A607B707E0F440E160E080E043
:101670000E94880961E080E00E9426098CEC90E0DD
:101680000E9450090E9444030E949D098336D1F7AD
:1016900081E0CF911F910F91FF90EF90DF90CF905D
:1016A000089580E0F6CFCF93C091E003C87FE0912A
:1016B000000186E0E89FF0011124E75BFE4F808186
:1016C000C82BC093E00361E08CE00E942609E9E4A6
:1016D000F1E030E020E0C7708081C8130BC046E025
:1016E000429FC001439F900D1124865B9E4FCF9176
:1016F0000C94CA0A2F5F3F4F36962630310561F7AA
:101700008FE991E0F4CF809100018F5F863021F066
:10171000809300010C94530B10920001FBCF61E009
:1017200080E00E94260988E690E00E94500981E04E
:10173000809300010C94830B1092D10410925902F3
:101740000E945B090C948F0B85ED8093BC00809107
:10175000540690915506A0915606B09157060796EB
:10176000A11DB11D23E0B695A795979587952A955C
:10177000D1F72091BC0024FD03C0109252060895B9
:101780004091540650915506609156067091570647
:10179000452B462B472B69F30097A105B10541F076
:1017A0002AE22A95F1F700C00197A109B109E1CF1A
:1017B000809153060C9429052F923F924F925F928D
:1017C0006F927F928F929F92AF92BF92CF92DF9251
:1017D000EF92FF920F931F93CF93DF9300D000D02F
:1017E000CDB7DEB79C838B837C0141E8E40EF11C0E
:1017F0006C0150E8C50ED11C8C010E571F4F8D5740
:101800009F4F2C018B819C818C579F4F4C01222430
:101810002A94AB80BC8097E8A90EB11CEB81FC81B7
:10182000EB57FF4FFA83E983F7018081F60190813E
:10183000891709F4BAC0EB81FC81E80FF11D3080F3
:1018400037FE6DC0F8019081891739F0F5012081CC
:1018500031812F5F3F4F31832083F8018083F20174
:101860002082832D8076F401803609F441C0832DD7
:10187000829586708E5F8083F8012081F4018081DB
:10188000820F9927991F813891059CF180E8682E75
:10189000621AF894F6014081F8018081841708F0FB
:1018A00044C0F42FF81B8F2FF60180837894F80141
:1018B00060814617E8F5712C50E06B817C81CB018B
:1018C000860D971D0E94331DF80160814B815C815C
:1018D000460F511DBA01A3018B819C810E94331DCB
:1018E000F7018081F8019081891BF7018083F8015D
:1018F0001082F70190819F5F9083F8018081392FDA
:10190000381B97FF02C0F7011082F2012081F40119
:1019100090819317A9F03226F201308285CFF4012D
:1019200080818111E6CF3082A7CF862D840FBCCF76
:10193000461B50E08B819C81860F911DBC01CCCF52
:1019400032122AC04B815C81480F511DCA01E981C6
:10195000FA81408151814F5F5F4F51834083F7018E
:101960003081F80130830097B1F20F900F900F9003
:101970000F90DF91CF911F910F91FF90EF90DF902B
:10198000CF90BF90AF909F908F907F906F905F901F
:101990004F903F902F900895F5018081918101969D
:1019A0009183808390E080E0DACF90E080E0DDCF2B
:1019B0007F928F929F92AF92BF92CF92DF92EF92DF
:1019C000FF920F931F93CF93DF93B82ED62EF42E52
:1019D000722EE89477F814E127FF10E1802EE89446
:1019E00087F8D1E107FFD0E19E2CE89497F8E7FC57
:1019F000D2600C2D0F77C7FCD460C8E0CF25CD2571
:101A0000CB25CA25C027C925C825C725C127CD276D
:101A100065EE8DED94E00E949B0760E18DED94E012
:101A20000E949B0760E08DED94E00E949B076B2D68
:101A30008DED94E00E949B0762E08DED94E00E94A2
:101A40009B07612F8DED94E00E949B076D2D8DED1E
:101A500094E00E949B076F2D8DED94E00E949B0700
:101A6000672D8DED94E00E949B0760E08DED94E082
:101A70000E949B076D2F8DED94E00E949B07682DBF
:101A80008DED94E00E949B07692D8DED94E00E94FE
:101A90009B07602F8DED94E00E949B076A2D8DEDD2
:101AA00094E00E949B076C2F6F778DED94E00E946D
:101AB0009B076FEF8DED94E00E949B078DED94E006
:101AC0000E94DC0B9093DC048093DB04009711F000
:101AD0000E94BC0181E0DF91CF911F910F91FF9097
:101AE000EF90DF90CF90BF90AF909F908F907F90BE
:101AF0000895AF92CF92EF920F93A12CC12CE12CBD
:101B000000E020E040E060E087E00E94D80C0F9108
:101B1000EF90CF90AF9008951F93CF93DF93182F3E
:101B2000D62FCBE4C627C82764EB8DED94E00E9446
:101B30009B07612F8DED94E00E949B076D2F8DED2B
:101B400094E00E949B076C2F8DED94E00E949B0710
:101B50006FEF8DED94E00E949B078DED94E00E9465
:101B6000DC0B9093DC048093DB04009729F0DF9179
:101B7000CF911F910C94BC01DF91CF911F910895DB
:101B80009F92AF92BF92CF92DF92EF92FF920F930C
:101B90001F93CF93DF93682F70E099E0899FF00146
:101BA0001124E253FC4F15812181412F50E0440F55
:101BB000452F441F550B240F352F311D9091D10413
:101BC000911112C0232B09F094C060E08AE3DF91E9
:101BD000CF911F910F91FF90EF90DF90CF90BF902A
:101BE000AF909F900C948C0D8C3178F7232B11F4CF
:101BF00093E09183D82F89E0869FF001879FF00DB5
:101C00001124E253FC4F9080A180B280C380D48025
:101C1000E680F7800085C3E1CD27C127C925CA2505
:101C2000CB25CC25CD25CE25CF25C02767EE8DED44
:101C300094E00E949B076EE08DED94E00E949B076C
:101C40006D2F8DED94E00E949B07692D8DED94E042
:101C50000E949B076A2D8DED94E00E949B076B2DDF
:101C60008DED94E00E949B076C2D8DED94E00E9419
:101C70009B0765E08DED94E00E949B076D2D8DED37
:101C800094E00E949B07612F8DED94E00E949B07DA
:101C90006E2D8DED94E00E949B076F2D8DED94E0ED
:101CA0000E949B07602F8DED94E00E949B076C2F94
:101CB0006F778DED94E00E949B076FEF8DED94E0C0
:101CC0000E949B078DED94E00E94DC0B9093DC0456
:101CD0008093DB04009789F0DF91CF911F910F91E2
:101CE000FF90EF90DF90CF90BF90AF909F900C94BB
:101CF000BC018C3108F47ECF68CFDF91CF911F916A
:101D00000F91FF90EF90DF90CF90BF90AF909F909A
:101D10000895EF92FF920F931F93CF93DF938BE77A
:101D200095E00E94DC0BFC019093DC048093DB04C3
:101D3000892B09F496C08081C181823A09F49CC044
:101D400008F081C0803A09F489C0813A09F490C052
:101D5000853E09F0A0C08481823009F04CC08381A7
:101D6000853409F048C08085883009F044C08185F9
:101D7000811141C0828590E023852F77AC01569573
:101D8000542F442757954795240F3091E103321380
:101D90002FC09C0116E0220F331F1A95E1F720781F
:101DA00034853F77232B3091E503321321C0A09176
:101DB000000126E0A29FD0011124A75BBE4F9C0129
:101DC000D5E0220F331FDA95E1F7207835853F778C
:101DD000232B3C9132130CC074E0880F991F7A9525
:101DE000E1F7807896859F77892B853509F451C076
:101DF00080E88093D004CC31A0F58481823089F5CD
:101E00008381873471F5828590E09C0144E0220F44
:101E1000331F4A95E1F7207836853F77232B30E052
:101E2000322F222765E0880F991F6A95E1F78078A5
:101E300095859F77892B820F932F911D9093CB04CB
:101E40008093CA040EC0843DD9F08D3E21F1833ABF
:101E500009F07ECF828180934A0203C08281809301
:101E60005102DF91CF911F910F91FF90EF90089554
:101E7000828180934802F5CF828180934902F1CF1D
:101E8000C03279F78381883061F7848180934B0277
:101E9000E8CF83E0AECFCC3120F78F3B09F47BC095
:101EA00038F48A3B09F4A7C08B3BD9F68C2F94C039
:101EB000853E09F4A2CF8F3EA1F692819C3188F62F
:101EC00053810481458136812085F1848285E384B4
:101ED0001485C92FD0E069E0969FF0011124E253E8
:101EE000FC4F50830183428333832483F5828683AE
:101EF000E78210876FE78FE60E948C0D212F30E07C
:101F0000322F22272E0D311D3093CB042093CA048B
:101F10001092D0048091D1048111A3CF40E160E000
:101F20000E94880960E080E00E94260986EC90E02B
:101F30000E945009802F90E0FF2031F040E8F49E8D
:101F400090011124820F931F0E949B0A60E08CE095
:101F50000E94260989E08C9FF0018D9FF00D1124CD
:101F6000E253FC4F8081E9E4F1E030E020E087704B
:101F70009081891368C046E0429FC001439F900D45
:101F80001124865B9E4FDF91CF911F910F91FF909F
:101F9000EF900C94CA0A4281AEECB3E0FD0181E0FF
:101FA0009285491303C096859C17B1F08F5F3996CF
:101FB0008C31B1F721E030E0822F19969C9119976E
:101FC000907391F499E0929FF001939FF00D11248A
:101FD000E253FC4F4183C583DF91CF911F910F9155
:101FE000FF90EF900C94C00D2F5F3F4F19962C314E
:101FF000310511F736CF82818C1322C0CC23F1F04A
:1020000049E0C49FF0011124E253FC4F80818063BA
:1020100080838C2F0E94C00DE091DB04F091DC04E2
:10202000828181111ECF69E0C69FE0011124C25355
:10203000DC4F88818F7E8062888313CF82E0CCCF93
:10204000C111EACF0ECF2F5F3F4F369626303105B4
:1020500009F08ECF8FE991E096CF1F920F920FB6C5
:102060000F9211242F933F938F939F93AF93BF931E
:102070008091D3049091D404A091D504B091D6045A
:102080003091D20423E0230F2D3758F50196A11D7E
:10209000B11D2093D2048093D3049093D404A093D1
:1020A000D504B093D6048091D7049091D804A09120
:1020B000D904B091DA040196A11DB11D8093D70413
:1020C0009093D804A093D904B093DA04BF91AF9150
:1020D0009F918F913F912F910F900FBE0F901F9066
:1020E000189526E8230F0296A11DB11DD2CF1F928D
:1020F0000F920FB60F9211242F933F934F935F933C
:102100006F937F938F939F93AF93BF93EF93FF93BF
:10211000E0914502F0914602309749F0A685B785D7
:102120008585968D91FF14C09C918923A1F4FF9120
:10213000EF91BF91AF919F918F917F916F915F913F
:102140004F913F912F910F900FBE0F901F901895B8
:102150009C91892361F7A389B4899C918589809595
:1021600089238C93868997890197F1F7608D718D0A
:10217000A685B785558538E020E0CB010197F1F7BA
:10218000822F90E095958795282F4C91452309F053
:102190002068315091F7868D81FD20958091440211
:1021A00090E001968F73992730914302381799F088
:1021B000A0914402B0E0A150BE4F2C938093440202
:1021C000828D938D0197F1F7A389B4898C919589BC
:1021D000892B8C93ACCF868D8160868FF1CF1F9237
:1021E0000F920FB60F9211242F933F934F935F934B
:1021F0006F937F938F939F93AF93BF93EF93FF93CF
:102200008091B900887F803609F44AC0F0F58832A1
:1022100009F4A7C018F5803109F49BC0B8F48823ED
:1022200009F4F9C0883009F494C0FF91EF91BF918F
:10223000AF919F918F917F916F915F914F913F915E
:102240002F910F900FBE0F901F901895883109F4B1
:1022500088C0803251F78093500614C0803409F44E
:102260009DC040F48033B9F38833F9F6809350066B
:1022700085ECB0C0803509F485C0883509F496C076
:10228000883499F60E94A40BD0CF883909F48CC009
:1022900038F5883729F050F4883611F0803729F660
:1022A00083E0809352061092FE0157C0883809F4EB
:1022B0007BC0803919F0803809F0B7CF8091FE01DA
:1022C000803208F071C0E091FE0181E08E0F8093B2
:1022D000FE018091BB00F0E0E252FE4F80833DC0E2
:1022E000803B39F0E0F4803A09F479C0883A09F08B
:1022F0009CCF84E0809352061092DD011092DC01A5
:10230000E0914102F091420209958091DC01811136
:102310000FC081E08093DC011092BC0109C0803CB9
:1023200009F4A6CF883C09F4A3CF883B09F07DCF00
:10233000E091DD0181E08E0F8093DD01F0E0E45457
:10234000FE4F80818093BB009091DD018091DC0184
:1023500029C080912D068093BB0085EC8093BC0042
:1023600064CF90914F0680914E06981758F5E091F2
:102370004F0681E08E0F80934F06F0E0E25DF94F4B
:102380008081E9CFE0914F0681E08E0F80934F0668
:102390008091BB00F0E0E25DF94F808390914F06A1
:1023A00080914E069817C8F285E8D8CFE0914F0685
:1023B00081E08E0F80934F068091BB00F0E0E25DDC
:1023C000F94F80838091510681115CCF81E0809329
:1023D0002C0684EA8093BC001092520626CF85EC2E
:1023E0008093BC00109252068091FE01803230F43E
:1023F000E091FE01F0E0E252FE4F10826091FE019A
:1024000070E0E0913F02F09140028EED91E009957D
:102410001092FE010ACF1092500634CF1F920F92F5
:102420000FB60F921124CF92DF92EF92FF920F938B
:102430001F932F933F934F935F936F937F938F934C
:102440009F93AF93BF93CF93EF93FF93B19A8091F4
:1024500072059091730580549C4F909373058093FF
:102460007205809172059091730590938900809315
:1024700088008091BA01882371F01092BA01189BEC
:1024800026C081E080937805B59A80916F008062C4
:1024900080936F001CC0809177058F5F80937705D4
:1024A00080917805843009F043C0809177058930A8
:1024B00030F580916E0590E09595879580936E0537
:1024C000189B05C080916E05806880936E05FF9112
:1024D000EF91CF91BF91AF919F918F917F916F912C
:1024E0005F914F913F912F911F910F91FF90EF902E
:1024F000DF90CF900F900FBE0F901F901895B59A58
:1025000080916F00806280936F0080916C05909144
:102510006D05189929C0FC01E957FF4F8081918111
:102520000196918380831092770581E080937805EE
:10253000809178058330E9F5E0917505F091760595
:1025400080812091740533B190E0022E02C09595F0
:1025500087950A94E2F7832780FD11C010927705D2
:1025600082E08093780525C060916E050E949B07EC
:1025700080E090E0892BB9F20E940000D4CF8091D6
:102580007705893008F043C030916E0581E090E016
:1025900001C0880F2A95EAF7908130FF36C08095F8
:1025A0008923808380916E0590E09595879580932F
:1025B0006E0580917805823099F4809177058111BC
:1025C00096C0E0917505F091760580819091740533
:1025D00021E030E001C0220F9A95EAF7822B808338
:1025E00080917805813009F072CF8091770588233A
:1025F00009F44ACF80917705883308F468CF1092A8
:10260000780580916F008D7F43CF892BCACF809151
:102610007705893059F4308181E090E001C0880F5E
:102620002A95EAF7809583238083C3CF809179052B
:102630008F5F8093790590917A05891750F51092F4
:1026400077058091700590917105A0917905A80F8B
:10265000B92FB11D8C9180936E05808141E050E0CF
:1026600001C0440F2A95EAF7842B8083809184006F
:10267000909185008A5A9C4F9093730580937205C0
:1026800080917205909173059093890080938800E2
:1026900090CF81E080936F05E0907005F090710518
:1026A000C0906C05D0906D05F701808180768036F2
:1026B00079F4C18110E000E00C1778F4F701E00F25
:1026C000F11F6081C6010E949B070F5F1F4FF4CF6F
:1026D000C081C295C670CE5FEDCF80E090E0892BBF
:1026E00011F00E9400001092770581E03ACF8091AE
:1026F00077058F3008F474CFE0917505F091760579
:1027000020813091740581E090E001C0880F3A95F6
:10271000EAF78095822380831092770581E0809389
:102720007805E0916C05F0916D05E357FF4F8081CE
:10273000918101969183808353CF1F920F920FB6A0
:102740000F9211248F939F93EF93FF93B59AEFE627
:10275000F0E080818F7D808380918600909187005A
:1027600080529E4F909373058093720580917205FD
:10277000909173059093890080938800B19A80812D
:102780008260808384E0809378051092770581E0F1
:102790008093BA01FF91EF919F918F910F900FBE9F
:1027A0000F901F901895CF92DF92EF92FF92CF93E8
:1027B000DF9310927F0610927E0628EEC22E23E051
:1027C000D22EE12CF12CC0928006D0928106E092AC
:1027D0008206F092830681E791E090937D068093D4
:1027E0007C0686E08093D00680E88093D10688E05E
:1027F0008093D2061092D3061092D4061092D5067A
:102800001092D60661E086E00E94D7020E9438034B
:102810006093D3067093D4068093D5069093D60622
:102820008091010190E09093890680938806109230
:10283000BB061092BA0685E991E09093B9068093A1
:10284000B8068CE08093BC068FEF8093BD068BE0CA
:102850008093BE0689E08093BF0685E08093C00622
:1028600084E08093C10683E08093C2061092C30681
:102870001092C4061092C5061092C6061092C706A2
:1028800081E00E94710810929C0610929B06C092F3
:102890009D06D0929E06E0929F06F092A00683E8E5
:1028A00091E090939A06809399061092B006109248
:1028B000AF061092B2061092B1061092B4061092B2
:1028C000B3061092B6061092B5066091B7066E7FF9
:1028D0006D7F6093B7066695617081E068278DE033
:1028E0000E94A90261E08DE00E94D702E8E1F3E0D6
:1028F000E491E093A906E4E0F3E0E491F0E0EE0F68
:10290000FF1FE351FD4F859194919093AB06809307
:10291000AA0660E08AE00E94D7028091B70681FD96
:1029200004C061E08AE00E94A9028AE08093A506C3
:10293000E5E1F3E0E491E093A606E1E0F3E0E49161
:10294000F0E0EE0FFF1FED51FD4F859194919093B4
:10295000A8068093A70684E190E0A0E0B0E0809311
:102960008E0690938F06A0939006B09391061092D6
:1029700092061092930610929406109295060E9469
:10298000380360938A0670938B0680938C0690932D
:102990008D06EDEDF2E08491E9E1F3E0D491E5E01C
:1029A000F3E0C491CC2379F081110E948002EC2FD6
:1029B000F0E0EE0FFF1FED51FD4FA591B491EC91AA
:1029C000ED2381E009F480E0809396068EE0809309
:1029D0009706DF91CF91FF90EF90DF90CF90089511
:1029E000CF93DF9300D000D01F92CDB7DEB778949D
:1029F00084B5826084BD84B5816084BD85B5826004
:102A000085BD85B5816085BD80916E0081608093B4
:102A10006E0010928100809181008260809381001D
:102A2000809181008160809381008091800081602D
:102A3000809380008091B10084608093B100809188
:102A4000B00081608093B00080917A0084608093B0
:102A50007A0080917A00826080937A0080917A0077
:102A6000816080937A0080917A00806880937A00F8
:102A70001092C100EEECF3E08AEC94E010823996FB
:102A80008E179F07D9F783E38093E003EBE7F5E028
:102A90008FE8DF011D928A95E9F761E087E00E94E7
:102AA000D702E2E1F3E02491EEEFF2E0E491F0E00E
:102AB000EE0FFF1FE351FD4F4591549180E091E0EF
:102AC00031E0291741F08F5F932F082E01C0990F35
:102AD0000A94EAF7F6CF50937605409375058093F4
:102AE00074058BE795E090936D0580936C052098B5
:102AF000E0917505F091760520813091740581E0B3
:102B000090E001C0880F3A95EAF780958223808390
:102B10001092800011E01093810010927805B59A10
:102B200080916F00806280936F0080918100887F28
:102B30008160809381001092530210925202109291
:102B4000590610927B060E940B0588E094E0909352
:102B500042028093410289E094E090934002809386
:102B60003F0289E3809301011093580680937A060F
:102B70000E944A05811107C080915802882309F4F8
:102B800001C281E010C081E28093010110935806D8
:102B900080937A061092590610927B060E944A058D
:102BA000882351F380E08093580282E00E947108EC
:102BB0000E945B0962E08EE00E94D70261E080E142
:102BC0000E94D7020E94AA071092B4061092B30680
:102BD0001092B2061092B1061092B0061092AF0693
:102BE0008DE991E09093B6068093B5069091A50685
:102BF000963108F047C02DEB30E03093B0062093BB
:102C0000AF062BE931E03093B2062093B1062CE2F7
:102C100031E03093B4062093B3062091680084E03D
:102C2000983048F031E09E3008F430E081E001C097
:102C3000880F3A95EAF7822B809368002DE630E002
:102C4000983050F02BE630E09E3030F02CE630E04B
:102C5000963110F030E020E03093AD062093AC06C2
:102C6000292F30E0983008F09DC181E001C0880F25
:102C70009A95EAF78093AE068091B5069091B606D4
:102C80000197F1F78091B3069091B406892B49F131
:102C9000E0914502F0914602B6E0E939FB0709F1FF
:102CA000309739F0A389B4899C91858980958923CF
:102CB0008C938091B7068E7F8093B7061092440262
:102CC0001092430289E996E0909346028093450270
:102CD000E091AC06F091AD0680819091AE06892B13
:102CE00080830E949D09833609F050C060ED77E033
:102CF00080E090E00E94D4030E949D09833609F091
:102D000045C060E080E00E9426098EEE90E00E94BF
:102D100050090E949D098336E1F360E080E00E9443
:102D200026098DED90E00E94500981E08093D10446
:102D3000EAE5F2E0119222E0EA38F207D9F781E001
:102D4000809347020E9438036093CC047093CD04B3
:102D50008093CE049093CF048091CA049091CB04C9
:102D6000892B09F02CC10E9444030E94790D68EE62
:102D700073E080E090E00E94D4030E94890E8FE00F
:102D80000E94DC0A882341F30E949C0B8091D104AD
:102D9000811102C00E948F0B0AE0F02EDE01119615
:102DA0003D018DE7482E82E0582E0E9444030E9488
:102DB000890E8091D104882309F485C0809159023D
:102DC000882309F480C01091510280915002181795
:102DD000B9F060E082E00E942609143618F480E21F
:102DE0000E9452091A3018F480E20E9452096AE0E7
:102DF00070E0812F0E94240A80915102809350023A
:102E0000BCE48B2EB2E09B2E18E4212E12E0312E72
:102E100003E0D12CF40181914F01D1011D911D01DD
:102E2000811709F44BC0D1101FC060E080E00E9400
:102E30002609B12FB072EB2E8CE315FF80E20E94C1
:102E4000520960E086E00E94260980E2E11001C09C
:102E50008EE30E94520960E08FE00E9426098CE711
:102E600014FF8EE20E94520963E08DEF800F0E94F2
:102E700026098CE710FF8EE20E94520963E08EEF74
:102E8000800F0E9426098CE711FF8EE20E945209F2
:102E900063E08FEF800F0E9426098CE712FF8EE21D
:102EA0000E94520963E0802F0E9426098CE713FFDD
:102EB0008EE20E945209F40131971083D3940C5F83
:102EC000E4E0DE12A7CF809158028111F0C0912C6E
:102ED00000E090FC75C196FC75C197FE14C080910E
:102EE000D104811193C1033609F06EC110928A0298
:102EF00010928C0210928B020E94C20747E061E0A0
:102F000085E00E9488098091D104811157C3809186
:102F1000D004813009F080C30E9438036093CC0450
:102F20007093CD048093CE049093CF0450E8E52EA7
:102F30000091CA041091CB040115110509F060C37A
:102F40000E9444030E94790D68EE73E080E090E0F7
:102F50000E94D4030E94890E0E9438030091CC0481
:102F60001091CD042091CE043091CF04601B710BE1
:102F7000820B930B69397A4381059105C8F2E0927F
:102F8000D004D6CF8091010190E090938906809380
:102F900088066FEF70E00E9485071092570210922A
:102FA0005602EFCD9E3040F42850310981E001C037
:102FB000880F2A95EAF75ECE2E503109F7CF64E6E6
:102FC00070E080E090E00E94D40392E0892E91E0CE
:102FD000992E11E00E944403D4012D914D0120331C
:102FE00008F062C06091CA044091CB04A12CC12CAE
:102FF000E12C00E082E00E94D80C109347020E946E
:1030000038036093CC047093CD048093CE049093E6
:10301000CF040E9444038BE795E00E94DC0BDC01A7
:103020009093DC048093DB04892B39F08C918A3BEC
:1030300051F460E08AE30E948C0D85E00E94DC0A76
:10304000882339F3A1CE853EC1F711968C91119753
:10305000803199F714968C911497823071F71396FA
:103060008C911397823449F71596EC91159720E2CD
:10307000E29FF0011124E07818968C9118978F77D1
:10308000E82B1A968C911A9790E8899F9001112449
:103090001B968C918F77820FE03308F09BCFF0E086
:1030A000E65AFD4F808396CF0E94730A6FCE8090C0
:1030B000560290905702D0908806E0908906F4015D
:1030C000EE0FFF1FEF5BFE4F608171818D2D9E2DF6
:1030D0000E94850709E311E0312C212C61E08D2D40
:1030E0000E94310610925302809352028CE796E0C0
:1030F0000E940F07D8014D915D918D0120912A0604
:1031000030912B06822793278417950799F485E041
:10311000889DF001899DF00D1124EB5DFE4FE20DBD
:10312000F31D8081082E000C990B9093550280931B
:103130005402CDCEBFEF2B1A3B0AE4E02E16310429
:1031400069F600915402109155020115110599F08C
:103150001092550210925402002309F4B8CE0332A3
:1031600009F10A3251F10053E0E89E2E0A30E8F0EE
:1031700060E8962E19C06FEF70E08D2D9E2D0E9495
:103180008507FFEF8F1A9F0A24E08216910429F029
:1031900090925702809256029ACE10925702109245
:1031A000560295CE9924939400E045E162E080E0D8
:1031B0000E9488091092D0048CCE70E4972EF4CF30
:1031C00002E68DCE03E68BCE023619F40E94830B05
:1031D0009ACE80918A0210E0882371F0843080F4C6
:1031E00040918B0250918C02F49E9001F59E300D1F
:1031F0001124020F132F111D10938C0200938B02C8
:103200008F5F80938A020E94B90A7DCE033619F43B
:103210000E949C0B78CE013019F40E94730A73CE81
:103220000230E9F4109259020E94280960E080E01F
:103230000E94260985E091E00E94360980915F0294
:103240000E942B0A61E080E00E9426098FEF90E047
:103250000E943609809160020E942B0A54CE0330EE
:1032600009F054C0109259020E94280960E080E0E1
:103270000E94260989E491E00E9436096091620269
:10328000A0E86A9FC001112460916302680F792F42
:10329000711DCB0101978E3F9742C8F085E491E004
:1032A0000E94360961E080E00E9426098FE391E0E8
:1032B0000E9436098091640287708230F1F068F4D0
:1032C000882399F08130B1F08BE091E010C090E05C
:1032D00080E04AE00E94D609E5CF8430A1F080F07A
:1032E000873091F786E191E002C089E391E00E9486
:1032F000360909CE82E391E0FACF8CE291E0F7CF74
:1033000085E291E0F4CF8EE191E0F1CF043009F055
:1033100051C0109259020E94280960E080E00E948A
:1033200026098AE691E00E9436098091650285357A
:10333000B9F580E691E00E94360961E080E00E94E4
:10334000260981E591E00E9436091091660217FD79
:1033500021C080E30E9452091034E0F480E30E940F
:1033600052091032B8F480E30E945209103190F4EF
:1033700080E30E945209183068F480E30E945209E9
:10338000143040F480E30E945209123018F480E3B4
:103390000E94520962E070E0812F0E94240AB3CD9E
:1033A0008F3F19F487E591E0C6CF6AE070E00E9494
:1033B000240AC3CF053009F057C0109259020E9469
:1033C000280960E080E00E94260910916602809141
:1033D0005C02863100F5812F83708230B1F083303A
:1033E000B9F0813079F086E192E00E94360961E01F
:1033F00080E00E94260981E891E016FD78CF80E701
:1034000091E075CF88E092E0F0CF87EF91E0EDCFCB
:103410008AEE91E0EACFE12FEF70F0E0EE5EF54E3C
:103420000C942D1D221A251A281A281A2B1AF7195E
:103430002E1AF719F719F719F719F719F719F719D4
:10344000311A221A89ED91E0D0CF88EC91E0CDCFEE
:1034500088EB91E0CACF8BEA91E0C7CF81EA91E097
:10346000C4CF82E991E0C1CF063091F410925902A5
:103470000E94280960E080E00E942609809166028F
:1034800087FF03C087E292E032CF87E392E02FCF3D
:103490000730B1F5109259020E94280960E080E0DF
:1034A0000E9426098CE492E00E9436096AE070E0EE
:1034B000809167020E94240A8EE20E9452096AE00B
:1034C00070E0809168020E94240A61E080E00E941E
:1034D000260983E492E00E943609809169020E94E5
:1034E000450A8EE20E94520980916A020E94450AB2
:1034F0008EE20E94520980916B020E94450A03CD20
:103500000830A1F5109259020E94280960E080E07D
:103510000E94260984E892E00E9436098091850283
:103520008F3FD1F489E792E00E94360961E080E0A4
:103530000E94260987E692E00E94360910918602D1
:103540008EE592E01F3F09F4D2CE85E592E00E941D
:1035500036096AE070E020CF811103C08DE692E069
:10356000E3CF6AE070E00E94240AE0CF093091F5D1
:103570000E94280960E080E00E9426098CEA92E01F
:103580000E94360960E08FE00E94260980916C025B
:1035900081111CC080E30E94520961E080E00E941A
:1035A00026090DE612E0F80181918F01811110C00A
:1035B00080E30E94520940165106A9F780E090E08E
:1035C000892B09F4F2CB0E940000EFCB81E3E3CF1B
:1035D00081E3EFCF023691F781E0809359020E9498
:1035E000280960E080E00E9426098BE992E00E94B1
:1035F000360961E080E00E9426098AE892E077CEF1
:1036000045E163E080E00E94880986EB92E00E9439
:103610005009C8010E94540A8090CA049090CB04BB
:103620008114910409F44BC08091D004813009F0D9
:1036300046C082E08093D0040091E503192D002359
:10364000D9F0E090E103EE20B9F0E091000126E02E
:10365000E29FF0011124E75BFE4F45E5A42EC080F8
:1036600028E0492D682D85E00E94D80C6AEF70E0B3
:1036700080E090E00E94D4032DEB222E23E0322E36
:1036800032E1D32ED1018D911D018823A1F001E0FB
:10369000813009F400E00195A12CC12CE12C2D2DE5
:1036A000412F682D81E00E94D80C6AEF70E080E025
:1036B00090E00E94D403D394B3E2DB12E3CF809175
:1036C000D004843010F01092D00489E996E00E9472
:1036D000AC04892B09F472CF0E94AA0701E912E019
:1036E000912C812C89E996E00E94C2048A309105D0
:1036F000A1F08D30910589F09C01205231092036CE
:10370000310580F7EFEF8E1A9E0AD8018D938D0157
:10371000BBE28B16B1E09B0629F71092BC0364EA6A
:1037200071E081E992E00E944E1D009721F08A58D5
:1037300092408093900268EA71E081E992E00E94F1
:103740004E1D009721F08858924080938F026CEABA
:1037500071E081E992E00E944E1D12E001E00097C5
:1037600009F440C09C012D5F3F4FF901E159F2403F
:1037700090E081E08E0FF0E0EF56FD4F40814D3339
:1037800009F59131F8F4E82FF0E0EF56FD4F408154
:10379000042E000C550B4033510559F4E92FF0E08D
:1037A000E354FC4F00836CEA71E0C9010E944E1D96
:1037B000D6CF41335105B9F7E92FF0E0E354FC4F80
:1037C0001083F1CF642F042E000C770B6053710926
:1037D0006A30710528F49F9D400D1124942F905359
:1037E000E82FC7CF60EB71E081E992E00E944E1DA7
:1037F000009721F08B58924080938E0264EB71E029
:1038000081E992E00E944E1D009721F08A58924073
:1038100080938D02E0918D02EE2341F081E08E0FC6
:1038200080938D02F0E0EF56FD4F1082E0918E0202
:10383000EE2341F081E08E0F80938E02F0E0EF5690
:10384000FD4F108280E0E82FF0E0E815F90544F420
:10385000EF56FD4F9081963209F410828F5FF3CFBF
:1038600000918E02002309F4A7C010E00F561D4FEF
:1038700020908D02222009F4A2C0312CF101EF56D4
:10388000FD4F1F0140E160E080E00E9488092114A3
:10389000310439F0D1018C91882319F0C1010E94C3
:1038A000CA0A0115110591F0F8018081882371F091
:1038B0002114310441F0D1018C91882321F088EB4F
:1038C00091E00E94CA0AC8010E94CA0AE0918F02D0
:1038D000EE2341F141E04E0F40938F02F0E0EF56AE
:1038E000FD4F1082A42FB0E0AF56BD4FFD010190F7
:1038F0000020E9F73197EA1BFB0BE0938A0290E086
:1039000080E0242F30E02815390534F42F563D4F40
:10391000F9015081511156C090938C0280938B0213
:103920000E94B90AE0919002EE2309F441C081E0BF
:103930008E0F80939002F0E0EF56FD4F1082082F1B
:1039400010E00F561D4F0115110561F1D8018C9142
:10395000882341F189E4882E81E0982E312C95E06E
:10396000E92EF3012E2D11922A95E9F7F30181E05A
:1039700090E0D401A80FB91F2C91203209F420E067
:103980002193019686309105A1F7B301C8010E94E9
:10399000451D892B49F0339486E0880E911C96E0F2
:1039A0003912DFCF30900001309200010E94530B9A
:1039B00081E08093D00402CE10E000E059CF312C9A
:1039C000212C60CFF89E9001F99E300D1124C90181
:1039D000C097850F911D57FD9A954F5F92CF83E851
:1039E00091E090939A068093990680914502909178
:1039F00046028959964071F4E091AC06F091AD060B
:103A000090818091AE068095892380831092460232
:103A1000109245020895A1E21A2EAA1BBB1BFD01BC
:103A20000DC0AA1FBB1FEE1FFF1FA217B307E4079D
:103A3000F50720F0A21BB30BE40BF50B661F771FF5
:103A4000881F991F1A9469F76095709580959095D5
:103A50009B01AC01BD01CF010895EE0FFF1F059042
:103A6000F491E02D09946817790768F4FB01DC01F3
:103A7000E40FF51FA40FB51F02C002900E92415033
:103A80005040D8F708950C94681DFB01DC018D911E
:103A9000019080190110D9F3990B0895FB01519100
:103AA0005523A9F0BF01DC014D9145174111E1F704
:103AB00059F4CD010190002049F04D91401541117C
:103AC000C9F3FB014111EFCF81E090E00197089528
:103AD000FB01DC0102C001900D9241505040D8F72B
:103AE000089511E0C1E9D1E004C0FE010E942D1D3E
:0C3AF0002196C239D107C9F7F894FFCF26
:103AFC000139020304050608090A0B0C0D0E0F1000
:103B0C001112131415161718191A1B1C1D1E1F2021
:103B1C0021222B2CFF313233410034353642003711
:103B2C00383943002A302344001000200040008024
:103B3C0000FE00FD00FB00F70007313238410004A5
:103B4C003238412000033132382000003238202036
:103B5C00000231342020000132384D2000000000DA
:103B6C00005607290798074F0422070F0700070084
:103B7C0000000050040A0498074F04AC04C2043738
:103B8C00040000000030090A049807E3042E003FEB
:103B9C00202020006F2E73006F2E61006F2E6600A8
:0A3BAC006F2E6E006F2E6F003D00BB
:00000001FF
