:100000000C9438030C9460030C9460030C9460030C
:100010000C9460030C9460030C9460030C946003D4
:100020000C9460030C9460030C948E130C94FF11D9
:100030000C9460030C9460030C9460030C946003B4
:100040000C9496100C9460030C9460030C94600361
:100050000C9460030C9460030C9460030C94600394
:100060000C94E0100C9460034E65753A20005468BF
:10007000726F74746C6549443A20307800416C7436
:100080003A2000436F6D6D756E69636174696F6EC0
:10009000206572726F720032303234006D656C739D
:1000A0006F667420002863294B72002028666B61FC
:1000B000204652414E5A2900322E330044495350B3
:1000C00041200041546D656761380041546D65679A
:1000D00061333238500041546D6567613136380004
:1000E00041546D6567613838005356203620202012
:1000F0003A2000535620352020203A200053562025
:10010000332C20343A2030780053562032202020DF
:100110003A200046524544492D5356202D20506127
:1001200072742031000000000000000000002F0069
:100130000000000700070000147F147F1400242A29
:100140007F2A1200626408132300364955225000AA
:10015000000503000000001C224100000041221C99
:10016000000014083E08140008083E0808000000BB
:10017000A060000008080808080000606000000097
:100180002010080402003E5149453E0000427F40D5
:1001900000004261514946002141454B310018148D
:1001A000127F10002745454539003C4A4949300037
:1001B00001710905030036494949360006494929B4
:1001C0001E000036360000000056360000000814FD
:1001D00022410000141414141400004122140800D9
:1001E000020151090600324959513E007C12111298
:1001F0007C007F49494936003E41414122007F4110
:1002000041221C007F49494941007F090909010039
:100210003E4149497A007F0808087F0000417F413C
:1002200000002040413F01007F08142241007F4030
:10023000404040007F020C027F007F0408107F00D6
:100240003E4141413E007F09090906003E415121DE
:100250005E007F09192946004649494931000101DC
:100260007F0101003F4040403F001F2040201F0011
:100270003F4038403F0063140814630007087008CB
:100280000700615149454300007F41410000552A64
:10029000552A55000041417F00000402010204007C
:1002A00040404040400000010204000020545454EB
:1002B00078007F484444380038444444200038449F
:1002C00044487F00385454541800087E0901020045
:1002D00018A4A4A47C007F080404780000447D4096
:1002E00000004080847D00007F1028440000004111
:1002F0007F4000007C04180478007C080404780027
:10030000384444443800FC242424180018242418B9
:10031000FC007C0804040800485454542000043FA6
:10032000444020003C4040207C001C2040201C0019
:100330003C4030403C004428102844001CA0A0A0B1
:100340007C004464544C44000008774100000000E5
:10035000630000000041770800000804080804005A
:100360003A4040207A003D4040403D0021545454E2
:1003700079007D1211127D003944444439003D4218
:1003800042423D000205020000007E014955730013
:100390007C1010081C000101010101FC5FDC60E41D
:1003A00061C462F663D664B065DF66B567AF68FFA7
:1003B000FFAE2000B0C8001040813FA1A6A83FA416
:1003C000D301D5F0D922DA12DB208D14436F6E6E83
:1003D0006563742644697370617463680052656C68
:1003E00065617365202A2D427574746F6E004E65C9
:1003F000753A200073656C6674657374006F706580
:10040000726174696E6700535631312020203A20A2
:1004100000313238412046530032384120465300E3
:10042000313238204653003134204653004D3238A3
:100430002046530032382046530053563130202096
:10044000203A20002D2D2D00535620382C20393AEB
:10045000200046524544492D5356202D20506172AC
:1004600074203200466F72772D5265762D5377696E
:1004700074636800466F72772D4F66662D526576FD
:100480002D537769746368004F6E65205368696601
:100490007420627574746F6E0054776F20536869AE
:1004A000667420627574746F6E73004652454449D9
:1004B00020772E204252414B452D427574746F6E49
:1004C000004D61747269782D465245444920285385
:1004D000574429004D61747269782D46524544494C
:1004E00000416E616C6F672E2D506F74692046312C
:1004F0002D463400496E63722E2D456E636F646520
:10050000722046312D463400756E6B6E6F776E200B
:10051000486172647761726500416E616C6F672E2D
:100520002D506F746900496E63722E2D456E636F96
:100530006465722053776974636800496E63722E34
:100540002D456E636F64657200756E6B6E6F776EAE
:100550002048617264776172650053563132202001
:10056000203A200046524544492D5356202D205014
:100570006172742033004252414B453A2046006E6E
:100580006F204252414B4500535634342020203ACC
:1005900020004F50435F494D4D20616374006E6FE2
:1005A000204F50435F494D4D005356343320202097
:1005B0003A2000535631352D31373A200053563109
:1005C000332C31343A200046524544492D535620AD
:1005D0002D20506172742034002E2E2E2E2E2E2EA1
:1005E0002E2E2E2E2E2E2E2E2E2E00463031323333
:1005F00034353637383930313233343536003131ED
:100600003131313131003C20303030203E00465213
:100610004544492D5356202D205465737400000025
:1006200000080002010000030407000000000000B1
:10063000000000000000250028002B000000000042
:10064000240027002A000404040404040404020211
:100650000202020203030303030301020408102041
:100660004080010204081020010204081020C41375
:1006700011241FBECFEFD8E0DEBFCDBF25E0A2E83A
:10068000B1E001C01D92AC32B207E1F711E0A0E089
:10069000B1E0E0E2F5E302C005900D92A238B107A7
:1006A000D9F713E0C8E3D3E004C02197FE010E940C
:1006B0006D1AC733D107C9F70E9465140C948E1ABE
:1006C0000C94000090E0FC01E65AF94F24918A5BFB
:1006D000994FFC018491882399F090E0880F991F2D
:1006E000FC01E45CF94FA591B491FC01EE5CF94F7B
:1006F000859194918FB7F894EC91E22BEC938FBF96
:100700000895CF93DF93FC0129E18EE241E050E0B0
:1007100033E071E0908190769036D1F4918190939E
:10072000C003A091C003A1501092BF039FEF60913E
:10073000BF036A1790F4C091BF03CE0FDF2FD11D06
:10074000688196276091BF036F5F6093BF03EFCF0F
:100750009081929596709E5FE2CFAE0FBF2FB11D34
:100760009C93F8949091BE03913059F49091BD03FD
:10077000981738F01092BE0390916F009D7F909370
:100780006F0078949091BE03913039F49091BD033D
:10079000943108F4BFCF70E0BDCF9091BE039111AA
:1007A0000EC0F89490916F009F7D90936F00B59B61
:1007B00009C090916F00906290936F0078947111CE
:1007C000A9CF51C0A091BB03B091BC039C91609193
:1007D000BA03EA0102C0CC0FDD1F6A95E2F79C2B39
:1007E0009C9360918400709185006A5A7C4F70934D
:1007F000B9036093B8036091B8037091B903709323
:100800008900609388007894F093B703E093B6036F
:100810001092BF031092B50390819093B40330936C
:10082000BE031092BD03B19A90916F0092609093B5
:100830006F009091BE039330E1F39091B50399233B
:1008400081F0E091B203F091B303E757FF4F80814D
:10085000918101969183808383E090E0DF91CF9135
:1008600008959091BE038B3108F08150215009F01A
:1008700050CF80914C0490914D04019690934D047B
:1008800080934C0486E090E0E9CF90E0FC01E25ECA
:10089000F94F2491FC01E65AF94F3491FC01EA5BCF
:1008A000F94FE491EE23C9F0222339F0233001F10E
:1008B000A8F4213019F1223029F1F0E0EE0FFF1FEA
:1008C000EE5CF94FA591B4918FB7F894EC9161115A
:1008D00026C030953E233C938FBF08952730A9F062
:1008E0002830C9F0243049F7809180008F7D03C003
:1008F000809180008F7780938000DFCF84B58F77E1
:1009000084BDDBCF84B58F7DFBCF8091B0008F7726
:100910008093B000D2CF8091B0008F7DF9CF3E2B75
:10092000DACF3FB7F8948091AC039091AD03A091DA
:10093000AE03B091AF0326B5A89B05C02F3F19F0B9
:100940000196A11DB11D3FBFBA2FA92F982F88274F
:10095000BC01CD01620F711D811D911D42E0660F2A
:10096000771F881F991F4A95D1F708952FB7F894DC
:100970006091A8037091A9038091AA039091AB03A1
:100980002FBF08950F931F93CF93DF930E94B60458
:10099000009128051091290520912A0530912B05F9
:1009A000601B710B820B930B6531710581059105FD
:1009B00008F452C00E94B60460932805709329057C
:1009C00080932A0590932B05C091260580912705D9
:1009D000C13C20F081958093270502C0C032D0F33E
:1009E00080912705C80FC0932605D09125058D2F2E
:1009F0000E946203C11108C060E08D2FDF91CF918A
:100A00001F910F910C944504CF3F11F461E0F5CF95
:100A1000ED2FF0E0E25EF94FE491E33039F138F484
:100A2000E130B1F0E230E9F0C7FDF0CFE5CFE730DB
:100A300041F1E83071F1E430B9F7809180008062D3
:100A400080938000D0E0D0938B00C0938A0004C0D4
:100A500084B5806884BDC7BDDF91CF911F910F9190
:100A6000089584B5806284BDC8BDF6CF80918000B2
:100A7000806880938000D0E0D0938900C093880084
:100A8000EBCF8091B00080688093B000C093B3003A
:100A9000E3CF8091B00080628093B000C093B40037
:100AA000DBCF8F929F92AF92BF92CF92DF92EF9265
:100AB000FF924B015C010E9491046B017C010E943A
:100AC000C2040E9491046C197D098E099F09683E39
:100AD00073408105910598F321E0821A9108A108DD
:100AE000B10888EEC80E83E0D81EE11CF11C811409
:100AF0009104A104B10429F7FF90EF90DF90CF900B
:100B0000BF90AF909F908F90089508950895AF92F1
:100B1000BF92CF92DF92EF92FF920F931F93CF93EA
:100B2000DF936C017B018B01040F151FEB015E014C
:100B3000AE18BF08C017D10759F06991D601ED91E1
:100B4000FC910190F081E02DC6010995892B79F780
:100B5000C501DF91CF911F910F91FF90EF90DF9032
:100B6000CF90BF90AF9008958093BB0084E88093AE
:100B7000BC0080E491E02091BC0027FD089501971E
:100B8000D1F78091B10384608093B103089594EA12
:100B90009093BC0020E431E09091BC0097FF0CC022
:100BA0008093BB0084E88093BC0080E491E02091B6
:100BB000BC0027FF0AC008952150310969F78091D0
:100BC000B10381608093B1030895019781F780910B
:100BD000B1038260F7CF1F93CF93DF93EC01142F03
:100BE0004F83688785E090E09D838C838FEF662339
:100BF000D9F081E0860F0E94C70584E88093BC008D
:100C000080E491E02091BC0027FF03C08091BB00ED
:100C100008C00197B9F78091B10380618093B10357
:100C200080E094E99093BC0090E08095909502C09C
:100C3000959587951A95E2F780FD0CC080E08E832C
:100C40000E94B604688379838A839B83DF91CF9166
:100C50001F91089583E0F3CFEF92FF920F931F93BC
:100C6000CF93DF937C018B0188E70E94C70580E466
:100C70000E94B405E7010E0D1F1DC017D10751F4E6
:100C800084E98093BC00DF91CF911F910F91FF9079
:100C9000EF90089589910E94B405EFCFEF92FF92F3
:100CA0000F931F93CF93DF93182FE92E062F88E71A
:100CB0000E94C70580E00E94B405F12EC12FDE2DF1
:100CC00089910E94B4058C2F8F198017C8F384E98D
:100CD0008093BC00DF91CF911F910F91FF90EF9017
:100CE0000895CF93DF9300D000D01F92CDB7DEB729
:100CF000E7ECF1E0808361836055698391E29A8338
:100D000092E0980F9F709B8390E0029624E0959567
:100D100087952A95E1F7805F8C838FE78D8365E067
:100D2000CE0101960E944E060F900F900F900F90EB
:100D30000F90DF91CF910895813820F4683010F43E
:100D40000C94710608950F931F93CF93DF9389300E
:100D500009F45CC0C82F8A30A0F5883009F43EC081
:100D60008091C7018A3708F082C0C03208F47FC082
:100D7000C052ECE9F3E0E491CE1708F07DC088E7BB
:100D80000E94C70580E40E94B405F6E0CF9FE00111
:100D9000112410E000E0CB5DDE4FFE01E00FF11FFB
:100DA00084910E94B4050F5F1F4F06301105A9F70B
:100DB00084E98093BC008091C7018A5F8093C7015A
:100DC00056C08A3081F16091C80180E0CD3041F693
:100DD000DF91CF911F910F910C949C068091C701D8
:100DE0008150982F990F890F6091C801880F0E9438
:100DF0009C0680E20E94A3068091C7018150982F33
:100E0000990F890F6091C801880FE2CF8091C701C7
:100E10006091C8018D3028F48C5F982F990F890F4D
:100E2000F3CF8EE7D5CF6091C801673000F56F5FD3
:100E30009091C701892F880FF2CF9F5F292F30E053
:100E4000220F331FA90144565C4FFA0184918F3F52
:100E500071F0F901E556FC4FE491E052FF0BEC17FD
:100E6000FD0759F7FA01C491CF3F09F088CFDF9110
:100E7000CF911F910F91089590E0D0E0DFCF1F93A5
:100E8000CF93DF93182FEC019C2F911BFE018491CF
:100E90002196882319F00E94A306F6CF892F90E0AF
:100EA000DF91CF911F9108951F93CF93DF93182F58
:100EB000EC019C2F911B8991882319F00E94A306B5
:100EC000F8CF892F90E0DF91CF911F910895CF92B5
:100ED000DF92EF92FF920F931F93CF93DF93CDB7E3
:100EE000DEB7A1970FB6F894DEBF0FBECDBF282F97
:100EF00030E050E040E019A28E010F5D1F4F6B0102
:100F0000770FEE08FF08CA01B901A70196010E94F8
:100F10004B1A605DF80162938F012115310541057F
:100F2000510521F0EC17FD0771F78E01C8010E94F1
:100F30005407A1960FB6F894DEBF0FBECDBFDF9168
:100F4000CF911F910F91FF90EF90DF90CF90089578
:100F5000CF92DF92EF92FF920F931F93CF93DF9385
:100F6000CDB7DEB7A1970FB6F894DEBF0FBECDBFE9
:100F70006B01BC0190E080E019A28E010F5D1F4F54
:100F80000D2C000CEE08FF08A70196010E944B1AD9
:100F9000E62FCA01B901EA30F4F4E05DD801EE931E
:100FA0008D01232B242B252B21F0AC17BD0761F7D6
:100FB0008E01C8010E945407A1960FB6F894DEBFB7
:100FC0000FBECDBFDF91CF911F910F91FF90EF909A
:100FD000DF90CF900895E95CE1CFCF93DF93D82FD6
:100FE000C091B003CF5F6C2F8EE10E949C06D15060
:100FF00020F080E20E94A306FACF6C2F8EE1DF91F1
:10100000CF910C949C0690E080E008950895209183
:10101000A401260F3327331F21323105ECF4209130
:101020009804FC0190E080E0243069F082E00895AB
:10103000A091A4012191AC014C575E4FA40FB52F94
:10104000B11D2C930196861798F38091A401680F27
:101050006093A40180E0089581E0089510929804BF
:1010600081E0809397041092720461E082E10E9413
:10107000450461E083E10E944504E9EBF0E08081F2
:101080008E7F808380818D7F808388E48093B80009
:1010900085E48093BC000895CF93DF9391E0909313
:1010A00083018823B9F0C091B800D091BA00809133
:1010B000BC008A7B8093BC0060E082E10E94450412
:1010C00060E083E10E9445040E942E08D093BA009C
:1010D000C093B800DF91CF910895CF92DF92EF9245
:1010E000FF920F931F93CF93DF93D091C10481E0C0
:1010F000D13208F09CC0C091C0040E9491046B01E1
:101100007C018091980481116CC082E080939804E6
:1011100081E0809397048FEF80939604109295045A
:10112000D0939404A0EAB4E0E4E7F4E080E0D813BC
:101130008DC01092730480917304CC0FC82BC093A0
:10114000730480917204813009F084C0109272049B
:101150000E9491046B017C01809173048093BB0019
:1011600080919A0490919B04A0919C04B0919D045D
:10117000892B8A2B8B2BA1F00E94910400919A0459
:1011800010919B0420919C0430919D046C197D0961
:101190008E099F09061717072807390708F442C068
:1011A0008091BC0083FDD8CF85EC8093BC000E9469
:1011B00091046B017C0180919804823009F44CC049
:1011C000809196048F3F09F469C080919604803223
:1011D00009F466C080919604803309F463C084E00A
:1011E00026C080919A0490919B04A0919C04B09198
:1011F0009D04892B8A2B8B2B09F483CF0E949104A9
:1012000000919A0410919B0420919C0430919D04BC
:101210006C197D098E099F090617170728073907DA
:1012200008F06FCF809199040E944C0885E01092DD
:101230009F041092C10410929E04DF91CF911F91E0
:101240000F91FF90EF90DF90CF9008959D91919333
:101250008F5F6DCF85EEA9CF80919A0490919B040A
:10126000A0919C04B0919D04892B8A2B8B2B09F4AF
:10127000A2CF0E94910400919A0410919B042091A6
:101280009C0430919D046C197D098E099F090617F5
:1012900017072807390708F08ECFC4CF80E0C7CFE3
:1012A00082E0C5CF83E0C3CFCF92DF92EF92FF926F
:1012B0000F931F93CF93DF93D82FC62F613208F07F
:1012C00098C00E9491046B017C0180919804811167
:1012D0006BC081E080939804809397049FEF909374
:1012E0009604109295049C0F909394048093730439
:1012F00080917304DD0FD82BD09373048091720416
:10130000813009F078C0109272040E9491046B0140
:101310007C01809173048093BB0080919A0490912A
:101320009B04A0919C04B0919D04892B8A2B8B2B4C
:10133000A1F00E94910400919A0410919B042091C5
:101340009C0430919D046C197D098E099F09061734
:1013500017072807390708F448C08091BC0083FDAF
:10136000D8CF85EC8093BC000E9491046B017C0176
:1013700080919804813009F440C0809195048C17C5
:1013800010F4C0919504E4E7F4E0A0E5B4E080E057
:101390008C1355C08C2FDF91CF911F910F91FF902F
:1013A000EF90DF90CF90089580919A0490919B04E4
:1013B000A0919C04B0919D04892B8A2B8B2B09F45E
:1013C00084CF0E94910400919A0410919B04209173
:1013D0009C0430919D046C197D098E099F090617A4
:1013E00017072807390708F070CF809199040E94E9
:1013F0004C08C0E0CFCF85EEB5CF80919A04909194
:101400009B04A0919C04B0919D04892B8A2B8B2B6B
:1014100009F4AECF0E94910400919A0410919B04AC
:1014200020919C0430919D046C197D098E099F09BF
:10143000061717072807390708F09ACFD6CF9191DA
:101440009D938F5FA5CF0895E0916C0380916B030E
:10145000E81730F4F0E0E05BFB4F808190E0089506
:101460008FEF9FEF089590916C0380916B032FEFA6
:101470003FEF981748F4E92FF0E0E05BFB4F208145
:1014800030E09F5F90936C03C901089580916B03D6
:1014900090916C03891B990B0895CF92DF92EF9284
:1014A000FF920F931F93CF93DF937C01CB018A01AF
:1014B00020919E04222389F0EB016B01C40ED51EFE
:1014C000CC15DD0569F06991D701ED91FC91019092
:1014D000F081E02DC7010995F3CF642F0E94070822
:1014E000C801DF91CF911F910F91FF90EF90DF9096
:1014F000CF900895CF93DF931F92CDB7DEB7698366
:1015000020919E042223F9F02091C104203258F04A
:1015100021E030E0FC013383228390E080E00F90F3
:10152000DF91CF91089580919F04E82FF0E0E0567D
:10153000FB4F998190838F5F80939F048093C104B8
:1015400081E090E0ECCF61E0CE0101960E940708B7
:10155000F7CF609370047093710491E090939E04B0
:101560008093C00410929F041092C10482EC94E016
:101570000E947A0A0C946D0890E080E008959C0126
:10158000DC01A058BF4FEC9191E09E0F9C93E20FBD
:10159000F32FF11D608397FD1C920895823081F036
:1015A00020F4813049F00C94A306833061F084303C
:1015B000D1F78BEC90E002C083EC90E00C943F07F5
:1015C00080EE90E0FBCF86ED90E0F8CFCF93C82F70
:1015D0006AE070E082958F700E9467076AE070E0B1
:1015E0008C2F8F70CF910C946707CF93C82F87FDF6
:1015F00021C080E30E94A306C034E0F480E30E948F
:10160000A306C032B8F480E30E94A306C03190F470
:1016100080E30E94A306C83068F480E30E94A3061A
:10162000C43040F480E30E94A306C23018F480E383
:101630000E94A30662E070E08C2FCF910C946707A4
:10164000CF93DF93EC01C11580E1D80780F480E3EC
:101650000E94A306CF3FD10509F048F480E30E9421
:10166000A306C031D10518F480E30E94A30660E10F
:1016700070E0CE01DF91CF910C94A807CF93DF9358
:10168000EC01C83E83E0D80778F480E30E94A3060B
:10169000C436D10548F480E30E94A306CA30D105C0
:1016A00018F480E30E94A3066AE070E0CE01DF91A7
:1016B000CF910C94A8079091B003690F982F990FC0
:1016C000890F880F0C949C060C943F07CF93809150
:1016D00000018F5F863041F180930001C091770255
:1016E000C87FE091000186E0E89FF0011124EE5FE1
:1016F000FE4F8081C82BC093770261E08CE00E948E
:101700005B0BE2E0F1E030E020E0C7708081C813BD
:101710000EC046E0429FC001439F900D11248D5F93
:101720009E4FCF910C94540710920001D7CF2F5F9A
:101730003F4F36962630310549F78AE791E0F1CFE1
:101740008091720390917303E5E6F2E09C012F779C
:101750003327238B880F892F881F990B9195878BAF
:1017600081E0848B0895EF92FF921F93CF93DF93D4
:10177000CDB7DEB7C058D1090FB6F894DEBF0FBEA3
:10178000CDBFCE0101967C0180E8F70111928A95C8
:10179000E9F710E0612F80E00E949C0660E870E0AD
:1017A000C7010E942C061F5F1830A1F760E080E09F
:1017B0000E947106C058DF4F0FB6F894DEBF0FBE0F
:1017C000CDBFDF91CF911F91FF90EF9008950E94C0
:1017D000B30B61E080E00E945B0B8CEB90E00E9419
:1017E0003F0788EB90E00E943F078BEA90E00E9461
:1017F0003F0762E081E00E945B0B85EA90E00E9477
:101800003F078CEF0E94A3068CE990E00E943F07FF
:1018100087E990E00E943F0784E08093B003089539
:101820001092A6031092A5031092B0030E94E70B3A
:1018300061E080E00E945B0B88E690E00E94640B10
:1018400081E0809300010C94660BEF92FF921F934E
:10185000CF93DF93CDB7DEB7182FEDB6FEB6883045
:1018600001F1682F80E00E949C068DB79EB78E57CD
:1018700091090FB6F8949EBF0FBE8DBF01962EE75B
:10188000FC0111922A95E9F76EE770E00E942C06A0
:10189000612F80E00E949C060FB6F894FEBE0FBE3A
:1018A000EDBE0FB6F894FEBE0FBEEDBEDF91CF9138
:1018B0001F91FF90EF900895CF931092A503C1E080
:1018C0008C2F0E94250CCF5FC830D1F71092B00347
:1018D00060E080E00E945B0B83E191E00E943F07A3
:1018E00062E081E00E945B0B89E091E00E943F078B
:1018F0006AE070E0809177030E94670763E081E00F
:101900000E945B0B8DEF90E00E943F07809179036E
:1019100090E0982F882720917803820F911D0E94D4
:10192000200B64E081E00E945B0B83EF90E00E945B
:101930003F0780917A030E94CE0A65E081E00E9411
:101940005B0B89EE90E00E943F0780917B03CF9173
:101950000C94CE0ACF93DF9380917103882379F1A1
:10196000C0910101CC2359F1D1E0D0939E04C093E2
:10197000C00410929F041092C10467EF82EC94E0BF
:101980000E947A0A0E946D08D0939E0410929F04D0
:101990001092C10461E08C2F0E94540910926C03D4
:1019A00080936B0382EC94E00E94330AC82F0E945C
:1019B0006D0883E6C73E21F082E6C73B09F08FEF52
:1019C000DF91CF910895CF92DF92EF92FF92CF9364
:1019D000DF93D82F0E94B604C0906002D0906102BD
:1019E000E0906202F0906302C0916402AB01BC011E
:1019F0004C195D096E097F0928EE33E0C29FC001D2
:101A0000C39F900D1124092E000CAA0BBB0B841749
:101A10009507A607B70758F461E08C2F0E945B0B6F
:101A20008FE791E00E945407CF5FC09364020E9449
:101A3000B604AB01BC014C195D096E097F0928EEA3
:101A400033E0D29FC001D39F900D1124092E000CCA
:101A5000AA0BBB0B84179507A607B707C8F480E04D
:101A60000E94250C61E080E00E945B0B83E890E01F
:101A70000E94640B0E94C2040E94AA0C8336D1F714
:101A800081E0DF91CF91FF90EF90DF90CF900895AC
:101A900080E0F7CF85ED8093BC0080919A0490910F
:101AA0009B04A0919C04B0919D040796A11DB11DBB
:101AB00023E0B695A795979587952A95D1F720911C
:101AC000BC0024FD03C010929804089540919A042C
:101AD00050919B0460919C0470919D04452B462B72
:101AE000472B69F30097A105B10541F02AE22A9539
:101AF000F1F700C00197A109B109E1CF80919904E4
:101B00000C944C082F923F924F925F926F927F926B
:101B10008F929F92AF92BF92CF92DF92EF92FF92FD
:101B20000F931F93CF93DF9300D000D0CDB7DEB7D4
:101B30009C838B837C0141E8E40EF11C6C0150E82E
:101B4000C50ED11C8C010E571F4F8D579F4F2C0176
:101B50008B819C818C579F4F4C0122242A94AB800F
:101B6000BC8097E8A90EB11CEB81FC81EB57FF4FBD
:101B7000FA83E983F7018081F6019081891709F4DE
:101B8000BAC0EB81FC81E80FF11D308037FE6DC0DB
:101B9000F8019081891739F0F501208131812F5F9B
:101BA0003F4F31832083F8018083F2012082832D0F
:101BB0008076F401803609F441C0832D82958670C9
:101BC0008E5F8083F8012081F4018081820F992744
:101BD000991F813891059CF180E8682E621AF8946B
:101BE000F6014081F8018081841708F044C0F42F89
:101BF000F81B8F2FF60180837894F80160814617D7
:101C0000E8F5712C50E06B817C81CB01860D971D2E
:101C10000E94731AF80160814B815C81460F511D4F
:101C2000BA01A3018B819C810E94731AF701808104
:101C3000F8019081891BF7018083F8011082F70178
:101C400090819F5F9083F8018081392F381B97FF27
:101C500002C0F7011082F2012081F40190819317F4
:101C6000A9F03226F201308285CFF4018081811102
:101C7000E6CF3082A7CF862D840FBCCF461B50E025
:101C80008B819C81860F911DBC01CCCF32122AC062
:101C90004B815C81480F511DCA01E981FA81408165
:101CA00051814F5F5F4F51834083F7013081F801CD
:101CB00030830097B1F20F900F900F900F90DF914B
:101CC000CF911F910F91FF90EF90DF90CF90BF9039
:101CD000AF909F908F907F906F905F904F903F90CC
:101CE0002F900895F50180819181019691838083E1
:101CF00090E080E0DACF90E080E0DDCF1F93CF93DB
:101D0000DF93182FD62FCBE4C627C82764EB8DECC2
:101D100091E00E94BF0A612F8DEC91E00E94BF0A02
:101D20006D2F8DEC91E00E94BF0A6C2F8DEC91E03D
:101D30000E94BF0A6FEF8DEC91E00E94BF0A8DEC0C
:101D400091E00E94820D90935D0280935C02009767
:101D500029F0DF91CF911F910C948103DF91CF91F6
:101D60001F9108959F92AF92BF92CF92DF92EF9210
:101D7000FF920F931F93CF93DF93682F70E099E04A
:101D8000899FF0011124EB59FD4F15812181412FCD
:101D900050E0440F452F441F550B240F352F311DA4
:101DA0009091A603911112C0232B09F094C060E01A
:101DB0008AE3DF91CF911F910F91FF90EF90DF9019
:101DC000CF90BF90AF909F900C947E0E8C3178F79F
:101DD000232B11F493E09183D82F89E0869FF001A3
:101DE000879FF00D1124EB59FD4F9080A180B280A8
:101DF000C380D480E680F7800085C3E1CD27C1276A
:101E0000C925CA25CB25CC25CD25CE25CF25C02754
:101E100067EE8DEC91E00E94BF0A6EE08DEC91E0E0
:101E20000E94BF0A6D2F8DEC91E00E94BF0A692DC0
:101E30008DEC91E00E94BF0A6A2D8DEC91E00E942A
:101E4000BF0A6B2D8DEC91E00E94BF0A6C2D8DECCA
:101E500091E00E94BF0A65E08DEC91E00E94BF0A0C
:101E60006D2D8DEC91E00E94BF0A612F8DEC91E009
:101E70000E94BF0A6E2D8DEC91E00E94BF0A6F2D6B
:101E80008DEC91E00E94BF0A602F8DEC91E00E94E2
:101E9000BF0A6C2F6F778DEC91E00E94BF0A6FEF45
:101EA0008DEC91E00E94BF0A8DEC91E00E94820DC2
:101EB00090935D0280935C02009789F0DF91CF914F
:101EC0001F910F91FF90EF90DF90CF90BF90AF9058
:101ED0009F900C9481038C3108F47ECF68CFDF9102
:101EE000CF911F910F91FF90EF90DF90CF90BF9017
:101EF000AF909F900895FF920F931F93CF93DF931E
:101F000081EC93E00E94820DFC0190935D0280932E
:101F10005C02892B09F448C08081C181823A09F4AE
:101F20004DC090F5803AE9F1813A09F443C0CC31D3
:101F3000D8F58B3B09F4E9C008F048C08A3BA1F50D
:101F400082818C13E6C0CC2309F4E1C049E0C49F30
:101F5000F0011124EB59FD4F8081806380838C2F29
:101F60000E94B20EE0915C02F0915D0282818111CB
:101F70001BC059E0C59FF0011124EB59FD4F808132
:101F80008F7E8062808310C0833AE1F0843D79F6D1
:101F9000C03251F48381883039F4848180936403A2
:101FA00003C0828180936A03DF91CF911F910F91CB
:101FB000FF900895828180936103F6CF82818093A0
:101FC0006203F2CF828180936303EECF8F3B09F4EB
:101FD0006DC08F3E49F792819C3130F70381F480C8
:101FE00045813681208511858285D385C48559E058
:101FF000959FF0011124EB59FD4F0083F18242833C
:102000003383248315838683D783C0876FE78FE666
:102010000E947E0E2C2F30E0322F2227C9018D0F17
:10202000911DEC0190935F0280935E028091A60364
:102030008111BACF0E94250C60E080E00E945B0B0A
:102040008DE790E00E94640B8F2D90E0112331F01A
:1020500040E8149F90011124820F931F0E943E0BB1
:1020600060E08CE00E945B0BE2E0F1E030E020E019
:1020700007708081081350C046E0429FC001439F13
:10208000900D11248D5F9E4F0E94540763E080E005
:102090000E945B0B8EE690E00E94640BCE01DF9104
:1020A000CF911F910F91FF900C94200B4281A5E6D8
:1020B000B2E0FD0181E09285491303C096859C172B
:1020C000B1F08F5F39968C31B1F721E030E0822F8B
:1020D00019969C911997907389F499E0929FF00159
:1020E000939FF00D1124EB59FD4F4183C583DF9180
:1020F000CF911F910F91FF900C94B20E2F5F3F4F25
:1021000019962C31310519F74FCF8C2FF0CF82E083
:10211000EECFC11127CF48CF2F5F3F4F36962630E5
:10212000310509F0A6CF8AE791E0AECF1F920F925A
:102130000FB60F9211242F933F938F939F93AF93DA
:10214000BF938091A8039091A903A091AA03B09195
:10215000AB033091A70323E0230F2D3758F50196E9
:10216000A11DB11D2093A7038093A8039093A903F9
:10217000A093AA03B093AB038091AC039091AD03FD
:10218000A091AE03B091AF030196A11DB11D809344
:10219000AC039093AD03A093AE03B093AF03BF9194
:1021A000AF919F918F913F912F910F900FBE0F9004
:1021B0001F90189526E8230F0296A11DB11DD2CFBE
:1021C0001F920F920FB60F9211242F933F934F93AC
:1021D0005F936F937F938F939F93AF93BF93EF938F
:1021E000FF938091B900887F803609F44AC0F0F5EA
:1021F000883209F4A7C018F5803109F49BC0B8F4FF
:10220000882309F4F9C0883009F494C0FF91EF9154
:10221000BF91AF919F918F917F916F915F914F91FE
:102220003F912F910F900FBE0F901F9018958831FE
:1022300009F488C0803251F78093960414C080342A
:1022400009F49DC040F48033B9F38833F9F68093E4
:10225000960485ECB0C0803509F485C0883509F452
:1022600096C0883499F60E944A0DD0CF883909F477
:102270008CC038F5883729F050F4883611F0803753
:1022800029F683E0809398041092C60157C08838DD
:1022900009F47BC0803919F0803809F0B7CF8091FC
:1022A000C601803208F071C0E091C60181E08E0F56
:1022B0008093C6018091BB00F0E0EA55FE4F808319
:1022C0003DC0803B39F0E0F4803A09F479C0883AA7
:1022D00009F09CCF84E0809398041092A50110929D
:1022E000A401E091CB01F091CC0109958091A4016A
:1022F00081110FC081E08093A4011092840109C074
:10230000803C09F4A6CF883C09F4A3CF883B09F0B0
:102310007DCFE091A50181E08E0F8093A501F0E0D3
:10232000EC57FE4F80818093BB009091A501809176
:10233000A40129C0809173048093BB0085EC809335
:10234000BC0064CF9091950480919404981758F53F
:10235000E091950481E08E0F80939504F0E0EC58B5
:10236000FB4F8081E9CFE091950481E08E0F80934F
:1023700095048091BB00F0E0EC58FB4F8083909176
:102380009504809194049817C8F285E8D8CFE0911D
:10239000950481E08E0F809395048091BB00F0E05E
:1023A000EC58FB4F80838091970481115CCF81E0D2
:1023B0008093720484EA8093BC001092980426CF24
:1023C00085EC8093BC00109298048091C601803205
:1023D00030F4E091C601F0E0EA55FE4F10826091C2
:1023E000C60170E0E091C901F091CA0186EA91E06E
:1023F00009951092C6010ACF1092960434CF1F920D
:102400000F920FB60F921124CF92DF92EF92FF92AC
:102410000F931F932F933F934F935F936F937F93EC
:102420008F939F93AF93BF93CF93EF93FF93B19A03
:102430008091B8039091B90380549C4F9093B90355
:102440008093B8038091B8039091B9039093890069
:102450008093880080918201882371F0109282011C
:10246000189B26C081E08093BE03B59A80916F00CF
:10247000806280936F001CC08091BD038F5F80934A
:10248000BD038091BE03843009F043C08091BD0339
:10249000893030F58091B40390E0959587958093CD
:1024A000B403189B05C08091B40380688093B40383
:1024B000FF91EF91CF91BF91AF919F918F917F91BC
:1024C0006F915F914F913F912F911F910F91FF90CD
:1024D000EF90DF90CF900F900FBE0F901F90189548
:1024E000B59A80916F00806280936F008091B203F3
:1024F0009091B303189929C0FC01E957FF4F8081DF
:1025000091810196918380831092BD0381E0809335
:10251000BE038091BE038330E9F5E091BB03F091E7
:10252000BC0380812091BA0333B190E0022E02C037
:10253000959587950A94E2F7832780FD11C0109244
:10254000BD0382E08093BE0325C06091B4030E9466
:10255000BF0A80E090E0892BB9F20E940000D4CF3E
:102560008091BD03893008F043C03091B40381E00D
:1025700090E001C0880F2A95EAF7908130FF36C0BD
:102580008095892380838091B40390E09595879509
:102590008093B4038091BE03823099F48091BD038F
:1025A000811196C0E091BB03F091BC0380819091B2
:1025B000BA0321E030E001C0220F9A95EAF7822B9E
:1025C00080838091BE03813009F072CF8091BD037A
:1025D000882309F44ACF8091BD03883308F468CF7B
:1025E0001092BE0380916F008D7F43CF892BCACF9D
:1025F0008091BD03893059F4308181E090E001C0C1
:10260000880F2A95EAF7809583238083C3CF809132
:10261000BF038F5F8093BF039091C003891750F56C
:102620001092BD038091B6039091B703A091BF03B0
:10263000A80FB92FB11D8C918093B403808141E024
:1026400050E001C0440F2A95EAF7842B80838091E3
:102650008400909185008A5A9C4F9093B90380938F
:10266000B8038091B8039091B90390938900809347
:10267000880090CF81E08093B503E090B603F0909E
:10268000B703C090B203D090B303F7018081807686
:10269000803679F4C18110E000E00C1778F4F7017E
:1026A000E00FF11F6081C6010E94BF0A0F5F1F4F3C
:1026B000F4CFC081C295C670CE5FEDCF80E090E0D0
:1026C000892B11F00E9400001092BD0381E03ACFE7
:1026D0008091BD038F3008F474CFE091BB03F0917B
:1026E000BC0320813091BA0381E090E001C0880FE3
:1026F0003A95EAF78095822380831092BD0381E0AA
:102700008093BE03E091B203F091B303E357FF4F10
:102710008081918101969183808353CF1F920F9284
:102720000FB60F9211248F939F93EF93FF93B59A57
:10273000EFE6F0E080818F7D80838091860090912C
:10274000870080529E4F9093B9038093B803809185
:10275000B8039091B9039093890080938800B19A4F
:1027600080818260808384E08093BE031092BD03E9
:1027700081E080938201FF91EF919F918F910F9063
:102780000FBE0F901F901895CF93DF93E2ECF4E00B
:102790001382128288EE93E0A0E0B0E084839583F8
:1027A000A683B78380E691E091838083C5E2D5E07C
:1027B00086E0888380E8898388E08A831B821C8284
:1027C0001D821E8286E00E9462030E94B6046B8313
:1027D0007C838D839E838091010190E09093CF0450
:1027E0008093CE04E0EDF4E01382128282E791E060
:1027F0009183808314821582168217828AE090E08A
:10280000918780871286138614861586168617860A
:10281000108A928B818B138A148A158A168A178ADA
:10282000108E118E938F828F148E158E168E178EAA
:1028300010A211A212A294A383A315A216A217A2FA
:1028400010A611A612A613A695A784A716A617A6CA
:1028500010AA11AA12AA13AA14AA96AB85AB17AA9A
:1028600010AE11AE12AE13AE14AE15AE97AF86AF6A
:102870001092100510921105109212051092130576
:1028800010921405109215051092160590931805D4
:10289000809317051092190510921A0510921B05C6
:1028A00010921C0510921D0510921E051092210514
:1028B00010922205109223051092240510921F05F4
:1028C00010922005DF91CF910895CF93DF93CDB77C
:1028D000DEB76C970FB6F894DEBF0FBECDBF78940D
:1028E00084B5826084BD84B5816084BD85B5826015
:1028F00085BD85B5816085BD80916E0081608093C6
:102900006E0010928100809181008260809381002E
:10291000809181008160809381008091800081603E
:10292000809380008091B10084608093B100809199
:10293000B00081608093B00080917A0084608093C1
:102940007A0080917A00826080937A0080917A0088
:10295000816080937A0080917A00806880937A0009
:102960001092C100E5E6F2E01082399643E0E136CC
:10297000F407D1F783E380937702E1ECF3E08FE88B
:10298000DF011D928A95E9F787E00E946203E1E684
:10299000F6E02491EDE4F6E0E491F0E0EE0FFF1FA5
:1029A000EE5CF94F4591549180E091E031E02917B8
:1029B00041F08F5F932F082E01C0990F0A94EAF718
:1029C000F6CF5093BC034093BB038093BA0381ECD2
:1029D00093E09093B3038093B2032098E091BB03FC
:1029E000F091BC0320813091BA0381E090E001C0F6
:1029F000880F3A95EAF780958223808310928000B1
:102A000011E0109381001092BE03B59A80916F007F
:102A1000806280936F0080918100887F81608093C5
:102A2000810010926C0310926B0310929F0410921D
:102A3000C1040E942E0885E895E09093CC01809314
:102A4000CB0186E895E09093CA018093C90189E3A0
:102A50008093010110939E048093C0040E946D082E
:102A6000811107C080917103882309F48DC181E031
:102A700010C081E28093010110939E048093C004F2
:102A800010929F041092C1040E946D08882351F394
:102A900080E0809371031092B90088E48093B800BD
:102AA00084E08093BC00E1EBF3E0DE0111969E012F
:102AB000245E3F4FCD0144914D933196A217B30749
:102AC000D1F72FEA2C8F6CE10E944E060E94B30BC7
:102AD00080911C05882309F450C01092B90098E435
:102AE0009093B80094E09093BC000E94C7058FEFCC
:102AF0000E94B40584E98093BC0050E040E06091FE
:102B00001C0584ED94E00E94EB0541E050E06091EB
:102B10001C058DED94E00E94EB0542E050E06091D1
:102B20001C0586EE94E00E94EB0543E050E06091C6
:102B30001C058FEE94E00E94EB0544E050E06091AC
:102B40001C0588EF94E00E94EB0545E050E06091A1
:102B50001C0581E095E00E94EB0546E050E06091A5
:102B60001C058AE095E00E94EB0547E050E060918B
:102B70001C0583E195E00E94EB050E94E70B0E9493
:102B8000AA0C833609F04AC060ED77E080E090E05F
:102B90000E9451050E94AA0C833609F03FC060E0F4
:102BA00080E00E945B0B8DED93E00E94640B0E941D
:102BB000AA0C8336E1F360E080E00E945B0B8CECB2
:102BC00093E00E94640B81E08093A603E5E7F3E0C5
:102BD00085EA93E011928E179F07E1F781E08093D9
:102BE00064020E94B6046093600270936102809355
:102BF00062029093630200915E0210915F020115E0
:102C0000110509F0D1C00E94C2040E947B0F8FE021
:102C10000E94E30C882379F30E94100C8091A60394
:102C200081110CC061E00E945B0B8EEE93E00E946C
:102C3000640B81E0809300010E94660B40E0E42E6B
:102C400040E0F42E0E94C2040E947B0FD090A603A5
:102C5000DD2009F483C08091A503882309F47EC098
:102C600010916A03809169031817A9F062E088E067
:102C70000E945B0B143618F480E20E94A3061A30FF
:102C800018F480E20E94A3066AE070E0812F0E949F
:102C900067071093690325E6A22E23E0B22E31E6E2
:102CA000832E33E0932E05E0C12CD5018D915D017B
:102CB000F40111914F01811709F44BC0C1101FC0DD
:102CC00062E086E00E945B0BF12FF0727F2E8CE3B6
:102CD00015FF80E20E94A30662E08CE00E945B0B7D
:102CE00080E2711001C08EE30E94A30665E081E0DE
:102CF0000E945B0B89E414FF8EE20E94A30665E04C
:102D00008DEF800F0E945B0B89E410FF8EE20E9422
:102D1000A30665E08EEF800F0E945B0B89E411FF34
:102D20008EE20E94A30665E08FEF800F0E945B0B8E
:102D300089E412FF8EE20E94A30665E0802F0E94C4
:102D40005B0B89E413FF8EE20E94A306F501319725
:102D50001083C3940C5F44E0C412A7CF8091710329
:102D6000811120C180E060E080FD50C386FD3AC340
:102D700087FF45C3162FDD2009F484C3613009F0B5
:102D8000BAC10E945C0C3BC38091010190E090931A
:102D9000CF048093CE046FEF70E00E94A90A1092D6
:102DA000700310926F0363CE64E670E080E090E001
:102DB0000E945105E12EFF24AE2C902EABE0BA2EDE
:102DC000B026BE24B6E2CB2EB1E0DB2E11270E9446
:102DD000C204F60171906F01FFE2F71508F4DFC03D
:102DE000872C8B2465EE8DEC91E00E94BF0A60E198
:102DF0008DEC91E00E94BF0A61E08DEC91E00E94B1
:102E0000BF0A62E08DEC91E00E94BF0A62E08DECA7
:102E100091E00E94BF0A60E18DEC91E00E94BF0A40
:102E2000692D8DEC91E00E94BF0A6A2D8DEC91E036
:102E30000E94BF0A672D8DEC91E00E94BF0A60E0FE
:102E40008DEC91E00E94BF0A60E18DEC91E00E9460
:102E5000BF0A60E08DEC91E00E94BF0A60E08DEC5B
:102E600091E00E94BF0A60E08DEC91E00E94BF0AF1
:102E700060E08DEC91E00E94BF0A682D6F778DECC9
:102E800091E00E94BF0A6FEF8DEC91E00E94BF0AB3
:102E90008DEC91E00E94820D90935D0280935C0224
:102EA000009711F00E94810381E0809364020E94E8
:102EB000B604609360027093610280936202909303
:102EC00063020E94C20481EC93E00E94820DDC0147
:102ED00090935D0280935C02892B39F08C918A3B40
:102EE00051F460E08AE30E947E0E85E00E94E30CCC
:102EF000882339F391CE853EC1F711968C911197B5
:102F0000803199F714968C911497823071F7159649
:102F10002C91159730E0C90166E0880F991F6A95DA
:102F2000E1F78078992717964C9117974F77842B64
:102F3000B9017695762F6627779567957727169648
:102F40004C9116974F77460F572F511D4017510739
:102F500061F6E816F90649F613968C9113978234B8
:102F600021F655E0220F331F5A95E1F72078189685
:102F7000EC911897EF77E22B1A968C911A9790E8BC
:102F8000899FA00111241B968C918F77840FE033C9
:102F900008F01DCFF0E0EB58FC4F808318CF0E9463
:102FA0005C0C3CCE00916F0310917003C090CE0476
:102FB0007090CF04F801EE0FFF1FEC5AFE4F6081B6
:102FC00071818C2D972D0E94A90A9CE4892E91E095
:102FD000992EB12CA12C61E08C2D0E9454091092E5
:102FE0006C0380936B0382EC94E00E94330AD4015B
:102FF0004D915D914D0120917004309171048227B3
:1030000093278417950799F485E0809FF001819FAD
:10301000F00D1124E85CFE4FEA0DFB1D8081082EA7
:10302000000C990B90936E0380936D039BCEBFEFC2
:10303000AB1ABB0AE4E0AE16B10469F660916D0309
:1030400070916E036115710591F010926E031092EC
:103050006D03662309F486CE6332F1F06A32F1F033
:10306000605380E86A3008F47FCE80E87CCE6FEF52
:1030700070E08C2D972D0E94A90A0F5F1F4F04301E
:10308000110529F01093700300936F036BCE10921B
:10309000700310926F0366CE81E065CE80E463CE4C
:1030A00080917403612F70E0882371F0843080F484
:1030B00020917203309173039AE0929FB001939F25
:1030C000700D1124610F711D70937303609372036F
:1030D0008F5F8093740384E00E94ED0761E085E0D8
:1030E0000E945B0B80917203909173030E943E0BD0
:1030F0000E94A00B84C1123009F07CC01092A5037D
:1031000011E0812F0E94250C1F5F1830D1F710921B
:10311000B00360E080E00E945B0B82E594E00E94D7
:103120003F0762E081E00E945B0B88E494E00E942C
:103130003F0780917D03F0E88F9F900111248091DB
:103140007E03820F932F911D9C01215031092E3F48
:103150003742D0F084E494E00E943F0763E081E0CE
:103160000E945B0B8AE394E00E943F0780917F03FB
:10317000982F9770923069F160F4992391F0913013
:1031800029F10E94F50A11C06AE070E00E94A807C8
:10319000E5CF943021F100F1973099F781E194E087
:1031A00002C084E394E00E943F0764E081E00E9453
:1031B0005B0B87E094E00E943F0780918003853598
:1031C00089F48DEF93E00E943F0719C18DE294E0EE
:1031D000EACF87E294E0E7CF80E294E0E4CF89E1B0
:1031E00094E0E1CF8F3F19F484EF93E0ECCF0E949D
:1031F000A30605C1133009F07DC01092A50301E0BC
:10320000802F0E94250C0F5F0830D1F760E080E02E
:103210000E945B0B84E695E00E943F0762E081E03C
:103220000E945B0B8AE595E00E943F0700918103B5
:10323000802F0E94F50A63E081E00E945B0B809181
:103240007703863170F5802F8370823021F18330CF
:1032500029F18130E9F089E495E00E943F0714E00C
:10326000612F81E00E945B0B89E994E006FD02C0BA
:1032700088E894E00E943F0761E0610F81E00E94CE
:103280005B0B84E794E007FD9ECF84E694E09BCF40
:103290008BE395E0E2CF86E295E0DFCF89E195E030
:1032A000DCCFE02FEF70F0E0E85AF64E0C946D1A88
:1032B00068196B196E196E19711930197419301952
:1032C0003019301930193019301930197719681937
:1032D00088E095E0C2CF84EF94E0BFCF81EE94E028
:1032E000BCCF84ED94E0B9CF81EC94E0B6CF8BEA0B
:1032F00094E0B3CF143009F08CC01092A50311E014
:10330000812F0E94250C1F5F1830D1F760E080E00C
:103310000E945B0B87EC95E00E943F0762E081E032
:103320000E945B0B8DEB95E00E943F076AE070E026
:10333000809182030E9467078EE20E94A3066AE0E2
:1033400070E0809183030E94670763E081E00E9440
:103350005B0B83EB95E00E943F07809184030E9402
:10336000E60A8EE20E94A306809185030E94E60A87
:103370008EE20E94A306809186030E94E60A64E022
:1033800081E00E945B0B89EA95E00E943F078091F3
:10339000A0038F3FE9F48EE995E00E943F0765E0C6
:1033A00081E00E945B0B88E895E00E943F07109146
:1033B000A1038FE795E01F3F09F405CF86E795E06D
:1033C0000E943F076AE070E0812F0E94670717C0E4
:1033D000811103C082E995E0E0CF6AE070E00E94CD
:1033E0006707DDCFD11054C010927403109273039D
:1033F000109272030E94A00B87E00E94ED07E11477
:10340000F10409F41FCC0E94000018CCDD20E9F182
:1034100012E68091A5038111F2CF123681F781E087
:103420008093A50310E0812F0E94250C1F5F1830A8
:10343000D1F71092B00360E080E00E945B0B8EE059
:1034400096E00E943F0762E086E00E945B0B86E008
:1034500096E00E943F0763E08BE00E945B0B8EEFDB
:1034600095E00E943F0764E080E00E945B0B8BEEDA
:1034700095E00E943F0765E081E00E945B0B89EDCB
:1034800095E0A1CE623609F00BCE0E94660BB7CF55
:103490000E94100CB4CFA1E21A2EAA1BBB1BFD0187
:1034A0000DC0AA1FBB1FEE1FFF1FA217B307E40723
:1034B000F50720F0A21BB30BE40BF50B661F771F7B
:1034C000881F991F1A9469F760957095809590955B
:1034D0009B01AC01BD01CF010895EE0FFF1F0590C8
:1034E000F491E02D09946817790768F4FB01DC0179
:1034F000E40FF51FA40FB51F02C002900E924150B9
:103500005040D8F708950C94851AFB01DC0102C0E5
:1035100001900D9241505040D8F70895F894FFCF94
:10352000013907313238410004323841200003317B
:1035300032382000003238202000023134202000B0
:10354000014D32382000020304050608090A0B0C5D
:103550000D0E0F10112B2CFF313233410034353654
:10356000420037383943002A30234400100020003D
:1035700040008000FE00FD00FB00F700000000009E
:103580007A0A4D0ABC0A230A460A330A240A0000B2
:10359000000003088705BC0A06083F202020002EF3
:0235A000000029
:00000001FF
