:100000000C9457030C947F030C947F030C94671398
:100010000C9467130C9467130C947F030C947F0368
:100020000C947F030C947F030C948D160C94FE1497
:100030000C947F030C947F030C947F030C947F0338
:100040000C941D130C947F030C947F030C947F037A
:100050000C947F030C947F030C947F030C947F0318
:100060000C94DF130C947F035468726F74746C6586
:1000700049443A203078004E65753A2000416C744E
:100080003A2000436F6D6D756E69636174696F6EC0
:10009000206572726F720032303236006D656C739B
:1000A0006F667420002863294B72002028666B61FC
:1000B000204652414E5A2900322E370044495350AF
:1000C00041200041546D656761380041546D65679A
:1000D00061333238500041546D6567613136380004
:1000E00041546D6567613838005356203620202012
:1000F0003A2000535620352020203A200053562025
:10010000332C20343A2030780053562032202020DF
:100110003A200046524544492D5356202D20506127
:1001200072742031000000000000000000002F0069
:100130000000000700070000147F147F1400242A29
:100140007F2A1200626408132300364955225000AA
:10015000000503000000001C224100000041221C99
:10016000000014083E08140008083E0808000000BB
:10017000A060000008080808080000606000000097
:100180002010080402003E5149453E0000427F40D5
:1001900000004261514946002141454B310018148D
:1001A000127F10002745454539003C4A4949300037
:1001B00001710905030036494949360006494929B4
:1001C0001E000036360000000056360000000814FD
:1001D00022410000141414141400004122140800D9
:1001E000020151090600324959513E007C12111298
:1001F0007C007F49494936003E41414122007F4110
:1002000041221C007F49494941007F090909010039
:100210003E4149497A007F0808087F0000417F413C
:1002200000002040413F01007F08142241007F4030
:10023000404040007F020C027F007F0408107F00D6
:100240003E4141413E007F09090906003E415121DE
:100250005E007F09192946004649494931000101DC
:100260007F0101003F4040403F001F2040201F0011
:100270003F4038403F0063140814630007087008CB
:100280000700615149454300007F41410000552A64
:10029000552A55000041417F00000402010204007C
:1002A00040404040400000010204000020545454EB
:1002B00078007F484444380038444444200038449F
:1002C00044487F00385454541800087E0901020045
:1002D00018A4A4A47C007F080404780000447D4096
:1002E00000004080847D00007F1028440000004111
:1002F0007F4000007C04180478007C080404780027
:10030000384444443800FC242424180018242418B9
:10031000FC007C0804040800485454542000043FA6
:10032000444020003C4040207C001C2040201C0019
:100330003C4030403C004428102844001CA0A0A0B1
:100340007C004464544C44000008774100000000E5
:10035000630000000041770800000804080804005A
:100360003A4040207A003D4040403D0021545454E2
:1003700079007D1211127D003944444439003D4218
:1003800042423D000205020000007E014955730013
:100390007C1010081C000101010101FC5FDC60E41D
:1003A00061C462F663D664B065DF66B567AF68FFA7
:1003B000FFAE2000B0C8001040813FA1A6A83FA416
:1003C000D301D5F0D922DA12DB208D14436F6E6E83
:1003D0006563742046524544492020200052656CD4
:1003E00065617365202A2D427574746F6E007365A4
:1003F0006C6674657374006F7065726174696E67A2
:1004000000535631312020203A200031323841202B
:10041000465300323841204653003132382046538B
:100420000031342046530032384D204653003238D4
:1004300020465300535631302020203A20002D2DE5
:100440002D00535620382C20393A2000465245447E
:10045000492D5356202D2050617274203200466F72
:1004600072772D5265762D53776974636800466FF5
:1004700072772D4F66662D5265762D5377697463BA
:1004800068004F6E652053686966742062757474E5
:100490006F6E0054776F20536869667420627574BC
:1004A000746F6E7300465245444920772E204252A5
:1004B000414B452D427574746F6E004D61747269C5
:1004C000782D4652454449202853574429004D6110
:1004D000747269782D465245444900416E616C6FD3
:1004E000672E2D506F74692046312D463400496EB9
:1004F00063722E2D456E636F6465722046312D4602
:100500003400756E6B6E6F776E2048617264776130
:10051000726500416E616C6F672E2D506F746900BB
:10052000496E63722E2D456E636F6465722053773A
:100530006974636800496E63722E2D456E636F6443
:10054000657200756E6B6E6F776E204861726477AE
:1005500061726500535631322020203A2000465205
:100560004544492D5356202D20506172742033008C
:100570004252414B453A2046006E6F204252414B59
:100580004500535634342020203A20004F50435F1A
:10059000494D4D20616374006E6F204F50435F4999
:1005A0004D4D00535634332020203A20005356310D
:1005B000352D31373A2000535631332C31343A201F
:1005C0000046524544492D5356202D2050617274E7
:1005D0002034004630313233343536373839303113
:1005E0003233343536003131313131313100535607
:1005F00031382E2E2E33340046524544492D535661
:10060000202D20506172742035002E2E2E2E2E2E7D
:100610002E2E2E2E2E2E2E2E2E2E2E004630313207
:1006200033343536373839303132333435360031BA
:10063000313131313131003C20303030203E004604
:10064000524544492D5356202D20546573740000A3
:10065000000000240027002A00000000080002011A
:10066000000003040700000000000000000000007C
:100670000023002600290000000000250028002B90
:10068000000404040404040404020202020202033B
:100690000303030303010204081020408001020445
:1006A00008102001020408102000C316F1201124B4
:1006B0001FBECFEFD8E0DEBFCDBF27E0AAEBB1E091
:1006C00001C01D92A831B207E1F711E0A0E0B1E04E
:1006D000E0E0F3E402C005900D92AA3BB107D9F720
:1006E00013E0C6E5D3E004C02197FE010E942F214C
:1006F000C535D107C9F70E9462180C9473210C9478
:100700000000CF93DF93FC0129E18EE241E050E04D
:1007100033E071E0908190769036D1F4918190939E
:100720007E05A0917E05A15010927D059FEF6091FE
:100730007D056A1790F4C0917D05CE0FDF2FD11D86
:100740006881962760917D056F5F60937D05EFCF8F
:100750009081929596709E5FE2CFAE0FBF2FB11D34
:100760009C93F89490917C05913059F490917B057D
:10077000981738F010927C0590916F009D7F9093B0
:100780006F00789490917C05913039F490917B05BD
:10079000943108F4BFCF70E0BDCF90917C059111EA
:1007A0000EC0F89490916F009F7D90936F00B59B61
:1007B00009C090916F00906290936F0078947111CE
:1007C000A9CF51C0A0917905B0917A059C91609113
:1007D0007805EA0102C0CC0FDD1F6A95E2F79C2B79
:1007E0009C9360918400709185006A5A7C4F70934D
:1007F0007705609376056091760570917705709323
:100800008900609388007894F0937505E0937405EF
:1008100010927D051092730590819093720530932C
:100820007C0510927B05B19A90916F009260909335
:100830006F0090917C059330E1F3909173059923BB
:1008400081F0E0917005F0917105E757FF4F8081CD
:10085000918101969183808383E090E0DF91CF9135
:10086000089590917C058B3108F08150215009F05A
:1008700050CF80910A0690910B06019690930B063B
:1008800080930A0686E090E0E9CF833081F028F477
:10089000813099F08230A9F008958730A9F088302E
:1008A000C9F08430B1F4809180008F7D03C08091C5
:1008B00080008F7780938000089584B58F7784BD02
:1008C000089584B58F7DFBCF8091B0008F778093A2
:1008D000B00008958091B0008F7DF9CF1F93CF9322
:1008E000DF93282F30E0F901E75AF94F8491F9019D
:1008F000EB56F94FD491F901EF57F94FC491CC233E
:10090000A9F0162F81110E944504EC2FF0E0EE0FA4
:10091000FF1FE958F94FA591B4918FB7F894EC9166
:10092000111108C0D095DE23DC938FBFDF91CF91EA
:100930001F910895DE2BF8CFCF93DF9390E0FC0159
:10094000EB56F94F24918F57994FFC0184918823DE
:10095000C9F090E0880F991FFC01E15BF94FA59168
:10096000B491FC01E958F94FC591D49161110DC0C2
:100970009FB7F8948C91209582238C9388812823AB
:1009800028839FBFDF91CF910895623051F49FB7C4
:10099000F8943C91822F809583238C93E8812E2BB1
:1009A000EFCF8FB7F894EC912E2B2C938FBFEACF1B
:1009B0003FB7F8948091DA049091DB04A091DC04B5
:1009C000B091DD0426B5A89B05C02F3F19F0019614
:1009D000A11DB11D3FBFBA2FA92F982F8827BC0199
:1009E000CD01620F711D811D911D42E0660F771FC1
:1009F000881F991F4A95D1F708952FB7F8946091F1
:100A0000D6047091D7048091D8049091D9042FBF57
:100A100008950F931F93CF93DF930E94FD040091DD
:100A20001407109115072091160730911707601BC6
:100A3000710B820B930B653171058105910508F4EB
:100A400053C00E94FD0460931407709315078093B0
:100A5000160790931707C091120780911307C13CA6
:100A600020F081958093130702C0C032D0F38091AB
:100A70001307C80FC0931207D091110761E08D2FA3
:100A80000E949C04C11108C060E08D2FDF91CF91BE
:100A90001F910F910C946E04CF3F11F461E0F5CFDC
:100AA000ED2FF0E0E75AF94FE491E33039F138F4F3
:100AB000E130B1F0E230E9F0C7FDF0CFE5CFE7304B
:100AC00041F1E83071F1E430B9F780918000806243
:100AD00080938000D0E0D0938B00C0938A0004C044
:100AE00084B5806884BDC7BDDF91CF911F910F9100
:100AF000089584B5806284BDC8BDF6CF8091800022
:100B0000806880938000D0E0D0938900C0938800F3
:100B1000EBCF8091B00080688093B000C093B300A9
:100B2000E3CF8091B00080628093B000C093B400A6
:100B3000DBCF8F929F92AF92BF92CF92DF92EF92D4
:100B4000FF924B015C010E94D8046B017C010E9462
:100B500009050E94D8046C197D098E099F09683E19
:100B600073408105910598F321E0821A9108A1084C
:100B7000B10888EEC80E83E0D81EE11CF11C811478
:100B80009104A104B10429F7FF90EF90DF90CF907A
:100B9000BF90AF909F908F90089508950895AF9261
:100BA000BF92CF92DF92EF92FF920F931F93CF935A
:100BB000DF936C017B018B01040F151FEB015E01BC
:100BC000AE18BF08C017D10759F06991D601ED9151
:100BD000FC910190F081E02DC6010995892B79F7F0
:100BE000C501DF91CF911F910F91FF90EF90DF90A2
:100BF000CF90BF90AF900895209147023091480266
:100C00002817390771F49091450280914602981790
:100C100041F0E0914502F0E0EF5FFD4F808190E010
:100C200008958FEF9FEF08950895EF92FF920F932D
:100C30001F93CF93DF93DC015C96ED90FC905D9762
:100C4000E114F10479F481E090E013969C938E9383
:100C5000129790E080E0DF91CF911F910F91FF906C
:100C6000EF9008955196ED91FC91529750968C918A
:100C70005097982F90950FB75E962C915E97122FF4
:100C8000127021FD6095F8942081112319F1282B11
:100C90002083E7012197F1F728E0462F50E03081CB
:100CA00060FF1AC0382B3083E7012197F1F7BA01B2
:100CB00075956795215089F7112381F080818923EB
:100CC00080830FBF5C968D919C910197F1F781E035
:100CD00090E0C1CF2923DCCF3923E5CF9081892B48
:100CE000EFCF20914702309148022817390761F46D
:100CF000809146022091450290E0805C9F4F821BCC
:100D000091098F739927089590E080E008952091CC
:100D100047023091480228173907B9F490914502EB
:100D200080914602981789F0E0914502F0E0EF5F6C
:100D3000FD4F80812091450230E02F5F3F4F2F73A0
:100D400033272093450290E008958FEF9FEF089599
:100D50008093BB0084E88093BC0080E491E0209104
:100D6000BC0027FD08950197D1F78091DE048460CF
:100D70008093DE04089594EA9093BC0020E431E06F
:100D80009091BC0097FF0CC08093BB0084E88093D7
:100D9000BC0080E491E02091BC0027FF0AC00895C8
:100DA0002150310969F78091DE0481608093DE046F
:100DB0000895019781F78091DE048260F7CF1F9339
:100DC000CF93DF93EC01142F4F83688785E090E089
:100DD0009D838C838FEF6623D9F081E0860F0E947C
:100DE000BB0684E88093BC0080E491E02091BC00C5
:100DF00027FF03C08091BB0008C00197B9F780911D
:100E0000DE0480618093DE0480E094E99093BC006E
:100E100090E08095909502C0959587951A95E2F798
:100E200080FD0CC080E08E830E94FD04688379837E
:100E30008A839B83DF91CF911F91089583E0F3CF45
:100E4000EF92FF920F931F93CF93DF937C018B015F
:100E500088E70E94BB0680E40E94A806E7010E0D09
:100E60001F1DC017D10751F484E98093BC00DF91A6
:100E7000CF911F910F91FF90EF90089589910E945B
:100E8000A806EFCFEF92FF920F931F93CF93DF93BC
:100E9000182FE92E062F88E70E94BB0680E00E94EB
:100EA000A806F12EC12FDE2D89910E94A8068C2F55
:100EB0008F198017C8F384E98093BC00DF91CF912C
:100EC0001F910F91FF90EF900895CF93DF9300D083
:100ED00000D01F92CDB7DEB7EFEFF1E080836183E2
:100EE0006055698391E29A8392E0980F9F709B838B
:100EF00090E0029624E0959587952A95E1F7805F2A
:100F00008C838FE78D8365E0CE0101960E944207B6
:100F10000F900F900F900F900F90DF91CF91089549
:100F2000813820F4683010F40C94650708950F930D
:100F30001F93CF93DF93893009F45CC0C82F8A30A8
:100F4000A0F5883009F43EC08091FF018A3708F08F
:100F500082C0C03208F47FC0C052ECE9F3E0E491F3
:100F6000CE1708F07DC088E70E94BB0680E40E948F
:100F7000A806F6E0CF9FE001112410E000E0CB5D71
:100F8000DE4FFE01E00FF11F84910E94A8060F5F63
:100F90001F4F06301105A9F784E98093BC008091AA
:100FA000FF018A5F8093FF0156C08A3081F1609112
:100FB000000280E0CD3041F6DF91CF911F910F917B
:100FC0000C9490078091FF018150982F990F890F01
:100FD00060910002880F0E94900780E20E949707AC
:100FE0008091FF018150982F990F890F6091000225
:100FF000880FE2CF8091FF01609100028D3028F4CC
:101000008C5F982F990F890FF3CF8EE7D5CF609122
:101010000002673000F56F5F9091FF01892F880F04
:10102000F2CF9F5F292F30E0220F331FA9014456D2
:101030005C4FFA0184918F3F71F0F901E556FC4F46
:10104000E491E052FF0BEC17FD0759F7FA01C49148
:10105000CF3F09F088CFDF91CF911F910F91089575
:1010600090E0D0E0DFCF1F93CF93DF93182FEC01F8
:101070009C2F911BFE0184912196882319F00E94D8
:101080009707F6CF892F90E0DF91CF911F910895B8
:10109000CF92DF92EF92FF920F931F93CF93DF9344
:1010A000CDB7DEB7A1970FB6F894DEBF0FBECDBFA8
:1010B000282F30E050E040E019A28E010F5D1F4F55
:1010C0006B01770FEE08FF08CA01B901A70196016D
:1010D0000E940D21605DF80162938F012115310599
:1010E0004105510561F4D02E78019E2D9D19F7011F
:1010F00081917F01882341F00E949707F6CFEC177A
:10110000FD0711F78E01EFCF892F90E0A1960FB662
:10111000F894DEBF0FBECDBFDF91CF911F910F912D
:10112000FF90EF90DF90CF900895CF92DF92EF92F3
:10113000FF920F931F93CF93DF93CDB7DEB7A197A5
:101140000FB6F894DEBF0FBECDBF6B01BC0190E0BF
:1011500080E019A28E010F5D1F4F0D2C000CEE08D0
:10116000FF08A70196010E940D21E62FCA01B901CF
:10117000EA30A4F4E05DD801EE938D01232B242BFB
:10118000252B71F4D02E78019E2D9D19F7018191A8
:101190007F01882351F00E949707F6CFE95CEBCFDF
:1011A000AC17BD07F1F68E01EDCF892F90E0A19627
:1011B0000FB6F894DEBF0FBECDBFDF91CF911F9168
:1011C0000F91FF90EF90DF90CF90089590E080E036
:1011D000089508952091DC01260F3327331F213213
:1011E0003105ECF420915606FC0190E080E02430BB
:1011F00069F082E00895A091DC012191AC01445492
:101200005E4FA40FB52FB11D2C930196861798F34E
:101210008091DC01680F6093DC0180E0089581E03B
:1012200008951092560681E080935506109230067C
:1012300061E082E10E946E0461E083E10E946E043D
:10124000E9EBF0E080818E7F808380818D7F8083D9
:1012500088E48093B80085E48093BC000895CF9320
:10126000DF9391E09093BB018823B9F0C091B8005F
:10127000D091BA008091BC008A7B8093BC0060E072
:1012800082E10E946E0460E083E10E946E040E948D
:101290001109D093BA00C093B800DF91CF9108959F
:1012A000CF92DF92EF92FF920F931F93CF93DF9332
:1012B000D0917F0681E0D13208F09CC0C0917E06BB
:1012C0000E94D8046B017C018091560681116CC08C
:1012D00082E08093560681E0809355068FEF8093DD
:1012E000540610925306D0935206AEE5B6E0E2E300
:1012F000F6E080E0D8138DC010923106809131065F
:10130000CC0FC82BC093310680913006813009F094
:1013100084C0109230060E94D8046B017C01809139
:1013200031068093BB008091580690915906A09198
:101330005A06B0915B06892B8A2B8B2BA1F00E9459
:10134000D804009158061091590620915A06309100
:101350005B066C197D098E099F0906171707280778
:10136000390708F442C08091BC0083FDD8CF85ECDA
:101370008093BC000E94D8046B017C0180915606CA
:10138000823009F44CC0809154068F3F09F469C043
:1013900080915406803209F466C0809154068033EF
:1013A00009F463C084E026C08091580690915906E4
:1013B000A0915A06B0915B06892B8A2B8B2B09F4DE
:1013C00083CF0E94D80400915806109159062091AD
:1013D0005A0630915B066C197D098E099F09061724
:1013E00017072807390708F06FCF809157060E942A
:1013F0002F0985E010925D0610927F0610925C0620
:10140000DF91CF911F910F91FF90EF90DF90CF90E0
:1014100008959D9191938F5F6DCF85EEA9CF8091B7
:10142000580690915906A0915A06B0915B06892BF7
:101430008A2B8B2B09F4A2CF0E94D8040091580666
:101440001091590620915A0630915B066C197D095E
:101450008E099F09061717072807390708F08ECF4E
:10146000C4CF80E0C7CF82E0C5CF83E0C3CFCF92A7
:10147000DF92EF92FF920F931F93CF93DF93D82FBA
:10148000C62F613208F098C00E94D8046B017C011D
:101490008091560681116BC081E08093560680933F
:1014A00055069FEF90935406109253069C0F90930D
:1014B00052068093310680913106DD0FD82BD093F0
:1014C000310680913006813009F078C010923006E4
:1014D0000E94D8046B017C01809131068093BB008F
:1014E0008091580690915906A0915A06B0915B06DA
:1014F000892B8A2B8B2BA1F00E94D80400915806CF
:101500001091590620915A0630915B066C197D099D
:101510008E099F09061717072807390708F448C0DE
:101520008091BC0083FDD8CF85EC8093BC000E94E5
:10153000D8046B017C0180915606813009F440C0CB
:10154000809153068C1710F4C0915306E2E3F6E045
:10155000AEE0B6E080E08C1355C08C2FDF91CF91C8
:101560001F910F91FF90EF90DF90CF9008958091A1
:10157000580690915906A0915A06B0915B06892BA6
:101580008A2B8B2B09F484CF0E94D8040091580633
:101590001091590620915A0630915B066C197D090D
:1015A0008E099F09061717072807390708F070CF1B
:1015B000809157060E942F09C0E0CFCF85EEB5CFAE
:1015C0008091580690915906A0915A06B0915B06F9
:1015D000892B8A2B8B2B09F4AECF0E94D804009163
:1015E00058061091590620915A0630915B066C19E5
:1015F0007D098E099F09061717072807390708F084
:101600009ACFD6CF91919D938F5FA5CFE091550250
:1016100080915402E81730F4F0E0E25FF94F8081E6
:1016200090E008958FEF9FEF08959091550280917B
:1016300054022FEF3FEF981748F4E92FF0E0E25FF4
:10164000F94F208130E09F5F90935502C9010895C2
:101650008091540290915502891B990B0895CF9265
:10166000DF92EF92FF920F931F93CF93DF937C0152
:10167000CB018A0120915C06222389F0EB016B01EA
:10168000C40ED51ECC15DD0569F06991D701ED9129
:10169000FC910190F081E02DC7010995F3CF642FF3
:1016A0000E94EA08C801DF91CF911F910F91FF902E
:1016B000EF90DF90CF900895CF93DF931F92CDB737
:1016C000DEB7698320915C062223F9F020917F0622
:1016D000203258F021E030E0FC013383228390E097
:1016E00080E00F90DF91CF91089580915D06E82F03
:1016F000F0E0E25AF94F998190838F5F80935D0605
:1017000080937F0681E090E0ECCF61E0CE0101960E
:101710000E94EA08F7CF60932E0670932F0691E09F
:1017200090935C0680937E0610925D0610927F0671
:1017300080E896E00E945C0B0C94500990E080E0F9
:1017400008959C01DC01A058BF4FEC9191E09E0FE1
:101750009C93E20FF32FF11D608397FD1C92089577
:1017600010929002109291021092920210929302A3
:10177000E4E9F2E0119283E0E03CF807D9F7E0EC0D
:10178000F3E081ED93E011928E179F07E1F7089542
:10179000823081F020F4813049F00C949707833037
:1017A00061F08430D1F78BEC90E002C083EC90E0E4
:1017B0000C94330880EE90E0FBCF86ED90E0F8CFFC
:1017C000CF93C82F6AE070E082958F700E9448081E
:1017D0006AE070E08C2F8F70CF910C944808CF9303
:1017E000C82F87FD21C080E30E949707C034E0F432
:1017F00080E30E949707C032B8F480E30E94970705
:10180000C03190F480E30E949707C83068F480E309
:101810000E949707C43040F480E30E949707C230CB
:1018200018F480E30E94970762E070E08C2FCF915C
:101830000C944808CF93DF93EC01C11580E1D807E1
:1018400080F480E30E949707CF3FD10509F048F468
:1018500080E30E949707C031D10518F480E30E940D
:10186000970760E170E0CE01DF91CF910C9495086D
:10187000CF93DF93EC01C83E83E0D80778F480E390
:101880000E949707C436D10548F480E30E94970769
:10189000CA30D10518F480E30E9497076AE070E02F
:1018A000CE01DF91CF910C9495081F93CF93DF93D6
:1018B000142FD0918B02D60FC82FCC0FC80FCC0F8E
:1018C0006D2F8C2F0E949007115020F080E20E9413
:1018D0009707FACF6D2F8C2FDF91CF911F910C942A
:1018E000900790918B02690F982F990F890F880F9D
:1018F0000C949007CF93DF93EC018991882319F022
:101900000E949707FACFDF91CF910895CF93C091AE
:10191000E303C87FE091000186E0E89FF001112415
:10192000E75BFE4F8081C82BC093E30361E08CE04E
:101930000E94710CE9E4F1E030E020E0C7708081A2
:10194000C8130BC046E0429FC001439F900D112475
:10195000865B9E4FCF910C947A0C2F5F3F4F36964B
:101960002630310561F78DE991E0F4CF80910001D7
:101970008F5F863021F0809300010C94860C1092CA
:101980000001FBCF61E080E00E94710C87E790E0EE
:101990000E94330881E0809300010C94B60C809182
:1019A0008D0290918E02E1EDF3E09C012F773327B9
:1019B000238B880F892F881F990B9195878B81E046
:1019C000848B089544E061E085E00E94550C61E05D
:1019D00085E00E94710C80918D0290918E020E9490
:1019E000380C0C94CF0CCF93DF9345E163E080E09B
:1019F0000E94550C88E690E00E943308C091CD0407
:101A0000D091CE04CE010E941A0C80E090E0892B88
:101A100031F48EE991E0DF91CF910C947A0CCE01F4
:101A20000E9400008823A9F3DF91CF910895CF93FE
:101A3000DF9380915A02882379F1C0910101CC2370
:101A400059F1D1E0D0935C06C0937E0610925D06FA
:101A500010927F0667EF80E896E00E945C0B0E9480
:101A60005009D0935C0610925D0610927F0661E0EB
:101A70008C2F0E94370A109255028093540280E8FE
:101A800096E00E94150BC82F0E94500983E6C73EBE
:101A900021F082E6C73B09F08FEFDF91CF910895E7
:101AA000EF92FF921F93CF93DF93CDB7DEB7C0586D
:101AB000D1090FB6F894DEBF0FBECDBFCE0101969F
:101AC0007C0180E8F70111928A95E9F710E0612F17
:101AD00080E00E94900760E870E0C7010E94200744
:101AE0001F5F1830A1F760E080E00E946507C058D2
:101AF000DF4F0FB6F894DEBF0FBECDBFDF91CF91A1
:101B00001F91FF90EF9008950E94500D61E080E0DA
:101B10000E94710C8CEB90E00E94330888EB90E0FF
:101B20000E9433088BEA90E00E94330862E081E073
:101B30000E94710C85EA90E00E9433088CEF0E94AD
:101B400097078CE990E00E94330887E990E00E94B3
:101B5000330884E080938B0208951092D40410928D
:101B60008C0210928B020E94840D0C94C20CEF9296
:101B7000FF921F93CF93DF93CDB7DEB7182FEDB64B
:101B8000FEB6883001F1682F80E00E9490078DB783
:101B90009EB78E5791090FB6F8949EBF0FBE8DBFAA
:101BA00001962EE7FC0111922A95E9F76EE770E0A5
:101BB0000E942007612F80E00E9490070FB6F894E2
:101BC000FEBE0FBEEDBE0FB6F894FEBE0FBEEDBE5C
:101BD000DF91CF911F91FF90EF900895CF931092D6
:101BE0008C02C1E08C2F0E94B70DCF5FC830D1F7B7
:101BF00010928B0260E080E00E94710C83E191E022
:101C00000E94330862E081E00E94710C89E091E05B
:101C10000E9433086AE070E080915D020E944808EB
:101C200063E081E00E94710C8DEF90E00E94330828
:101C300080915F0290E0982F882720915E02820FAA
:101C4000911D0E941A0C64E081E00E94710C83EFE8
:101C500090E00E943308809160020E94C80B65E00A
:101C600081E00E94710C89EE90E00E94330880911F
:101C70006102CF910C94C80BCF92DF92EF92FF924A
:101C8000CF93DF93D82F0E94FD04C090CF04D09053
:101C9000D004E090D104F090D204C0914902AB018D
:101CA000BC014C195D096E097F0928EE33E0C29F23
:101CB000C001C39F900D1124092E000CAA0BBB0B71
:101CC00084179507A607B70758F461E08C2F0E9488
:101CD000710C82EA91E00E947A0CCF5FC0934902B6
:101CE0000E94FD04AB01BC014C195D096E097F091E
:101CF00028EE33E0D29FC001D39F900D1124092E0E
:101D0000000CAA0BBB0B84179507A607B707C8F4EE
:101D100080E00E94B70D61E080E00E94710C83E8D2
:101D200090E00E9433080E9409050E94170D833637
:101D3000D1F781E0DF91CF91FF90EF90DF90CF90CE
:101D4000089580E0F7CF85ED8093BC008091580620
:101D500090915906A0915A06B0915B060796A11D75
:101D6000B11D23E0B695A795979587952A95D1F74C
:101D70002091BC0024FD03C01092560608954091A6
:101D800058065091590660915A0670915B06452B92
:101D9000462B472B69F30097A105B10541F02AE2D4
:101DA0002A95F1F700C00197A109B109E1CF80910F
:101DB00057060C942F092F923F924F925F926F9289
:101DC0007F928F929F92AF92BF92CF92DF92EF92CB
:101DD000FF920F931F93CF93DF9300D000D0CDB726
:101DE000DEB79C838B837C0141E8E40EF11C6C011F
:101DF00050E8C50ED11C8C010E571F4F8D579F4FB9
:101E00002C018B819C818C579F4F4C0122242A945A
:101E1000AB80BC8097E8A90EB11CEB81FC81EB572D
:101E2000FF4FFA83E983F7018081F60190818917DA
:101E300009F4BAC0EB81FC81E80FF11D308037FE58
:101E40006DC0F8019081891739F0F5012081318149
:101E50002F5F3F4F31832083F8018083F20120827E
:101E6000832D8076F401803609F441C0832D82955C
:101E700086708E5F8083F8012081F4018081820F5B
:101E80009927991F813891059CF180E8682E621A84
:101E9000F894F6014081F8018081841708F044C06D
:101EA000F42FF81B8F2FF60180837894F80160815E
:101EB0004617E8F5712C50E06B817C81CB01860DD3
:101EC000971D0E943521F80160814B815C81460F8E
:101ED000511DBA01A3018B819C810E943521F7011C
:101EE0008081F8019081891BF7018083F8011082BD
:101EF000F70190819F5F9083F8018081392F381B13
:101F000097FF02C0F7011082F2012081F401908155
:101F10009317A9F03226F201308285CFF401808137
:101F20008111E6CF3082A7CF862D840FBCCF461B10
:101F300050E08B819C81860F911DBC01CCCF321269
:101F40002AC04B815C81480F511DCA01E981FA8189
:101F5000408151814F5F5F4F51834083F701308152
:101F6000F80130830097B1F20F900F900F900F900F
:101F7000DF91CF911F910F91FF90EF90DF90CF9065
:101F8000BF90AF909F908F907F906F905F904F9099
:101F90003F902F900895F501808191810196918362
:101FA000808390E080E0DACF90E080E0DDCF7F9228
:101FB0008F929F92AF92BF92CF92DF92EF92FF9259
:101FC0000F931F93CF93DF93B82ED62EF42E722E3D
:101FD000E89477F814E127FF10E1802EE89487F861
:101FE000D1E107FFD0E19E2CE89497F8E7FCD2609E
:101FF0000C2D0F77C7FCD460C8E0CF25CD25CB25AD
:10200000CA25C027C925C825C725C127CD2765EE04
:1020100081EE94E00E94A10B60E181EE94E00E94C9
:10202000A10B60E081EE94E00E94A10B6B2D81EE8C
:1020300094E00E94A10B62E081EE94E00E94A10B6B
:10204000612F81EE94E00E94A10B6D2D81EE94E052
:102050000E94A10B6F2D81EE94E00E94A10B672DD1
:1020600081EE94E00E94A10B60E081EE94E00E947A
:10207000A10B6D2F81EE94E00E94A10B682D81EEE3
:1020800094E00E94A10B692D81EE94E00E94A10BC7
:10209000602F81EE94E00E94A10B6A2D81EE94E006
:1020A0000E94A10B6C2F6F7781EE94E00E94A10B30
:1020B0006FEF81EE94E00E94A10B81EE94E00E940C
:1020C000DB0E9093E0048093DF04009711F00E94F0
:1020D000810381E0DF91CF911F910F91FF90EF90ED
:1020E000DF90CF90BF90AF909F908F907F9008959A
:1020F000AF92CF92EF920F93A12CC12CE12C00E074
:1021000020E040E060E087E00E94D70F0F91EF9061
:10211000CF90AF9008951F93CF93DF93182FD62FB2
:10212000CBE4C627C82764EB81EE94E00E94A10BA4
:10213000612F81EE94E00E94A10B6D2F81EE94E05F
:102140000E94A10B6C2F81EE94E00E94A10B6FEF17
:1021500081EE94E00E94A10B81EE94E00E94DB0EE0
:102160009093E0048093DF04009729F0DF91CF91F2
:102170001F910C948103DF91CF911F9108959F923D
:10218000AF92BF92CF92DF92EF92FF920F931F9385
:10219000CF93DF93682F70E099E0899FF0011124BD
:1021A000EF52FC4F15812181412F50E0440F452F04
:1021B000441F550B240F352F311D9091D4049111DC
:1021C00012C0232B09F094C060E08AE3DF91CF9125
:1021D0001F910F91FF90EF90DF90CF90BF90AF9045
:1021E0009F900C948B108C3178F7232B11F493E093
:1021F0009183D82F89E0869FF001879FF00D1124ED
:10220000EF52FC4F9080A180B280C380D480E680E2
:10221000F7800085C3E1CD27C127C925CA25CB2575
:10222000CC25CD25CE25CF25C02767EE81EE94E0C5
:102230000E94A10B6EE081EE94E00E94A10B6D2F35
:1022400081EE94E00E94A10B692D81EE94E00E9442
:10225000A10B6A2D81EE94E00E94A10B6B2D81EE03
:1022600094E00E94A10B6C2D81EE94E00E94A10BE2
:1022700065E081EE94E00E94A10B6D2D81EE94E06B
:102280000E94A10B612F81EE94E00E94A10B6E2DA4
:1022900081EE94E00E94A10B6F2D81EE94E00E94EC
:1022A000A10B602F81EE94E00E94A10B6C2F6F7741
:1022B00081EE94E00E94A10B6FEF81EE94E00E940A
:1022C000A10B81EE94E00E94DB0E9093E0048093DA
:1022D000DF04009789F0DF91CF911F910F91FF905C
:1022E000EF90DF90CF90BF90AF909F900C948103C0
:1022F0008C3108F47ECF68CFDF91CF911F910F9181
:10230000FF90EF90DF90CF90BF90AF909F90089597
:10231000FF920F931F93CF93DF938FE795E00E9477
:10232000DB0EFC019093E0048093DF04892B09F419
:1023300096C08081C181823A09F49BC008F081C0B7
:10234000803A09F489C0813A09F48FC0853E09F0CA
:102350009FC08481823009F04CC08381853409F0AC
:1023600048C08085883009F044C08185811141C012
:10237000828590E023852F77AC015695542F442712
:1023800057954795240F3091E40332132FC09C01D9
:1023900016E0220F331F1A95E1F7207834853F7736
:1023A000232B3091E803321321C0A091000126E0D5
:1023B000A29FD0011124A75BBE4F9C01D5E0220F44
:1023C000331FDA95E1F7207835853F77232B3C9151
:1023D00032130CC074E0880F991F7A95E1F780786A
:1023E00096859F77892B853509F450C080E88093C6
:1023F000D304CC31A0F58481823089F58381873480
:1024000071F5828590E09C0144E0220F331F4A95CC
:10241000E1F7207836853F77232B30E0322F2227D3
:1024200065E0880F991F6A95E1F7807895859F7719
:10243000892B820F932F911D9093CE048093CD040E
:102440000EC0843DD1F08D3E19F1833A09F07ECF64
:10245000828180934C0203C0828180935302DF917A
:10246000CF911F910F91FF900895828180934A022E
:10247000F6CF828180934B02F2CFC03281F7838105
:10248000883069F7848180934D02E9CF83E0AFCF34
:10249000CC3128F78F3B09F46FC038F48A3B09F43C
:1024A0009AC08B3BE1F68C2F88C0853E09F4A3CF00
:1024B0008F3EA9F692819C3190F61381D48145819B
:1024C0003681208501858285F384C48559E0959FF6
:1024D000F0011124EF52FC4F1083D18342833383E8
:1024E000248305838683F782C0876FE78FE60E9487
:1024F0008B102C2F30E0322F22272F0D311D3093DF
:10250000CE042093CD041092D3048091D404811181
:10251000A6CF0E94B70D60E080E00E94710C8DE7AD
:1025200090E00E9433088D2F90E0002331F040E8C6
:10253000049F90011124820F931F0E94380C60E0C9
:102540008CE00E94710CE9E4F1E030E020E01770CB
:102550008081181368C046E0429FC001439F900DE0
:102560001124865B9E4F0E947A0CDF91CF911F91C0
:102570000F91FF900C94F30C4281A1EDB3E0FD01AB
:1025800081E09285491303C096859C17B1F08F5F57
:1025900039968C31B1F721E030E0822F19969C9169
:1025A0001997907389F499E0929FF001939FF00D31
:1025B0001124EF52FC4F4183C583DF91CF911F91CE
:1025C0000F91FF900C94BF102F5F3F4F19962C3145
:1025D000310519F744CF82818C1322C0CC23F1F04E
:1025E00049E0C49FF0011124EF52FC4F80818063C9
:1025F00080838C2F0E94BF10E091DF04F091E004F3
:10260000828181112CCF59E0C59FE0011124CF5266
:10261000DC4F88818F7E8062888321CF82E0CDCF9E
:10262000C111EACF1CCF2F5F3F4F369626303105C0
:1026300009F08ECF8DE991E096CF1F920F920FB6E1
:102640000F9211242F933F938F939F93AF93BF9338
:102650008091D6049091D704A091D804B091D90468
:102660003091D50423E0230F2D3758F50196A11D95
:10267000B11D2093D5048093D6049093D704A093E2
:10268000D804B093D9048091DA049091DB04A0912E
:10269000DC04B091DD040196A11DB11D8093DA0424
:1026A0009093DB04A093DC04B093DD04BF91AF9161
:1026B0009F918F913F912F910F900FBE0F901F9080
:1026C000189526E8230F0296A11DB11DD2CF1F92A7
:1026D0000F920FB60F9211242F933F934F935F9356
:1026E0006F937F938F939F93AF93BF93EF93FF93DA
:1026F000E0914702F0914802309749F0A685B785EE
:102700008585968D91FF14C09C918923A1F4FF913A
:10271000EF91BF91AF919F918F917F916F915F9159
:102720004F913F912F910F900FBE0F901F901895D2
:102730009C91892361F7A389B4899C9185898095AF
:1027400089238C93868997890197F1F7608D718D24
:10275000A685B785558538E020E0CB010197F1F7D4
:10276000822F90E095958795282F4C91452309F06D
:102770002068315091F7868D81FD20958091460229
:1027800090E001968F73992730914502381799F0A0
:10279000A0914602B0E0AF5FBD4F2C9380934602FC
:1027A000828D938D0197F1F7A389B4898C919589D6
:1027B000892B8C93ACCF868D8160868FF1CF1F9251
:1027C0000F920FB60F9211242F933F934F935F9365
:1027D0006F937F938F939F93AF93BF93EF93FF93E9
:1027E0008091B900887F803609F44AC0F0F58832BC
:1027F00009F4A7C018F5803109F49BC0B8F4882308
:1028000009F4F9C0883009F494C0FF91EF91BF91A9
:10281000AF919F918F917F916F915F914F913F9178
:102820002F910F900FBE0F901F901895883109F4CB
:1028300088C0803251F78093540614C0803409F464
:102840009DC040F48033B9F38833F9F68093540681
:1028500085ECB0C0803509F485C0883509F496C090
:10286000883499F60E94A30ED0CF883909F48CC021
:1028700038F5883729F050F4883611F0803729F67A
:1028800083E0809356061092FE0157C0883809F401
:102890007BC0803919F0803809F0B7CF8091FE01F4
:1028A000803208F071C0E091FE0181E08E0F8093CC
:1028B000FE018091BB00F0E0E252FE4F80833DC0FC
:1028C000803B39F0E0F4803A09F479C0883A09F0A5
:1028D0009CCF84E0809356061092DD011092DC01BB
:1028E000E0914302F091440209958091DC0181114D
:1028F0000FC081E08093DC011092BC0109C0803CD4
:1029000009F4A6CF883C09F4A3CF883B09F07DCF1A
:10291000E091DD0181E08E0F8093DD01F0E0E45471
:10292000FE4F80818093BB009091DD018091DC019E
:1029300029C0809131068093BB0085EC8093BC0058
:1029400064CF9091530680915206981758F5E09104
:10295000530681E08E0F80935306F0E0EE5CF94F52
:102960008081E9CFE091530681E08E0F809353067A
:102970008091BB00F0E0EE5CF94F808390915306AC
:10298000809152069817C8F285E8D8CFE091530697
:1029900081E08E0F809353068091BB00F0E0EE5CE7
:1029A000F94F80838091550681115CCF81E080933F
:1029B000300684EA8093BC001092560626CF85EC40
:1029C0008093BC00109256068091FE01803230F454
:1029D000E091FE01F0E0E252FE4F10826091FE01B4
:1029E00070E0E0914102F09142028EED91E0099594
:1029F0001092FE010ACF1092540634CF1F920F920C
:102A00000FB60F921124CF92DF92EF92FF920F93A5
:102A10001F932F933F934F935F936F937F938F9366
:102A20009F93AF93BF93CF93EF93FF93B19A80910E
:102A300076059091770580549C4F9093770580930D
:102A40007605809176059091770590938900809323
:102A500088008091BA01882371F01092BA01189B06
:102A600026C081E080937C05B59A80916F008062DA
:102A700080936F001CC080917B058F5F80937B05E6
:102A800080917C05843009F043C080917B058930BA
:102A900030F58091720590E0959587958093720549
:102AA000189B05C080917205806880937205FF9124
:102AB000EF91CF91BF91AF919F918F917F916F9146
:102AC0005F914F913F912F911F910F91FF90EF9048
:102AD000DF90CF900F900FBE0F901F901895B59A72
:102AE00080916F00806280936F008091700590915B
:102AF0007105189929C0FC01E957FF4F8081918128
:102B000001969183808310927B0581E080937C0500
:102B100080917C058330E9F5E0917905F0917A05A3
:102B200080812091780533B190E0022E02C0959506
:102B300087950A94E2F7832780FD11C010927B05E8
:102B400082E080937C0525C0609172050E94A10BF4
:102B500080E090E0892BB9F20E940000D4CF8091F0
:102B60007B05893008F043C03091720581E090E028
:102B700001C0880F2A95EAF7908130FF36C0809512
:102B8000892380838091720590E095958795809345
:102B9000720580917C05823099F480917B058111CA
:102BA00096C0E0917905F0917A0580819091780541
:102BB00021E030E001C0220F9A95EAF7822B808352
:102BC00080917C05813009F072CF80917B0588234C
:102BD00009F44ACF80917B05883308F468CF1092BE
:102BE0007C0580916F008D7F43CF892BCACF809168
:102BF0007B05893059F4308181E090E001C0880F75
:102C00002A95EAF7809583238083C3CF80917D0541
:102C10008F5F80937D0590917E05891750F5109206
:102C20007B058091740590917505A0917D05A80F95
:102C3000B92FB11D8C9180937205808141E050E0E5
:102C400001C0440F2A95EAF7842B80838091840089
:102C5000909185008A5A9C4F9093770580937605D2
:102C600080917605909177059093890080938800F4
:102C700090CF81E080937305E0907405F090750526
:102C8000C0907005D0907105F70180818076803604
:102C900079F4C18110E000E00C1778F4F701E00F3F
:102CA000F11F6081C6010E94A10B0F5F1F4FF4CF7F
:102CB000C081C295C670CE5FEDCF80E090E0892BD9
:102CC00011F00E94000010927B0581E03ACF8091C4
:102CD0007B058F3008F474CFE0917905F0917A0587
:102CE00020813091780581E090E001C0880F3A950D
:102CF000EAF780958223808310927B0581E08093A0
:102D00007C05E0917005F0917105E357FF4F8081DC
:102D1000918101969183808353CF1F920F920FB6BA
:102D20000F9211248F939F93EF93FF93B59AEFE641
:102D3000F0E080818F7D8083809186009091870074
:102D400080529E4F9093770580937605809176050B
:102D5000909177059093890080938800B19A808143
:102D60008260808384E080937C0510927B0581E003
:102D70008093BA01FF91EF919F918F910F900FBEB9
:102D80000F901F901895CF92DF92EF92FF92CF9302
:102D9000DF93109283061092820628EEC22E23E063
:102DA000D22EE12CF12CC0928406D0928506E092BE
:102DB0008606F092870681E791E0909381068093E2
:102DC000800686E08093110780E88093120788E0F0
:102DD000809313071092140710921507109216078C
:102DE0001092170761E086E00E949C040E94FD0497
:102DF0006093140770931507809316079093170735
:102E00008091010190E090938D0680938C06109242
:102E1000BF061092BE0685E991E09093BD068093AF
:102E2000BC061092C0061092C1061092C206109203
:102E3000C3068AE090E09093C5068093C406109282
:102E4000C6061092C7061092C8061092C9061092C4
:102E5000CA061092CB061092CC069093CE068093B1
:102E6000CD061092CF061092D0061092D106109285
:102E7000D2061092D3061092D4061092D5069093E3
:102E8000D7068093D6061092D8061092D9061092D3
:102E9000DA061092DB061092DC061092DD06109224
:102EA000DE069093E0068093DF061092E106109212
:102EB000E2061092E3061092E4061092E5061092E4
:102EC000E6061092E7069093E9068093E8061092D2
:102ED000EA061092EB061092EC061092ED061092A4
:102EE000EE061092EF061092F0069093F206809391
:102EF000F1061092F3061092F4061092F506109265
:102F0000F6061092F7061092F8061092F9069093C2
:102F1000FB068093FA061092FC061092FD061092B2
:102F2000FE061092FF061092000710920107109201
:102F300002079093040780930307109205071092ED
:102F400006071092070710920807109209071092BF
:102F50000A0710920D0710920E0710920F07109299
:102F6000100710920B0710920C071092A0061092F7
:102F70009F06C092A106D092A206E092A306F0920C
:102F8000A40683E891E090939E0680939D0610929C
:102F9000B4061092B3061092B6061092B5061092BF
:102FA000B8061092B7061092BA061092B906609150
:102FB000BB066E7F6D7F6093BB066695617081E096
:102FC00068278DE00E946E0461E08DE00E949C0401
:102FD000E2EAF6E0E491E093AD06EEE8F6E0E49193
:102FE000F0E0EE0FFF1FE958F94F8591949190930F
:102FF000AF068093AE0660E08AE00E949C04809158
:10300000BB0681FD04C061E08AE00E946E048AE094
:103010008093A906EFE9F6E0E491E093AA06EBE8D5
:10302000F6E0E491F0E0EE0FFF1FE359F94F8591D0
:1030300094919093AC068093AB0684E190E0A0E07D
:10304000B0E08093920690939306A0939406B09379
:103050009506109296061092970610929806109276
:1030600099060E94FD0460938E0670938F068093EC
:10307000900690939106E7E6F6E08491E3EAF6E0A5
:10308000D491EFE8F6E0C491CC2379F081110E944D
:103090004504EC2FF0E0EE0FFF1FE359F94FA59127
:1030A000B491EC91ED2381E009F480E080939A06DD
:1030B0008EE080939B06DF91CF91FF90EF90DF90A1
:1030C000CF900895CF93DF93CDB7DEB76C970FB64F
:1030D000F894DEBF0FBECDBF789484B5826084BD06
:1030E00084B5816084BD85B5826085BD85B581600C
:1030F00085BD80916E00816080936E00109281008A
:103100008091810082608093810080918100816044
:103110008093810080918000816080938000809105
:10312000B10084608093B1008091B0008160809391
:10313000B00080917A00846080937A0080917A0058
:10314000826080937A0080917A00816080937A0017
:1031500080917A00806880937A001092C100E1ED3E
:10316000F3E01082399624E0ED3CF207D1F783E3D7
:103170008093E303EFE7F5E08FE8DF011D928A9586
:10318000E9F761E087E00E949C04ECE9F6E0249115
:10319000E8E8F6E0E491F0E0EE0FFF1FE958F94FA0
:1031A0004591549180E091E031E0291741F08F5F23
:1031B000932F082E01C0990F0A94EAF7F6CF509387
:1031C0007A0540937905809378058FE795E0909391
:1031D0007105809370052098E0917905F0917A054A
:1031E00020813091780581E090E001C0880F3A9508
:1031F000EAF78095822380831092800011E010937B
:10320000810010927C05B59A80916F008062809356
:103210006F0080918100887F81608093810010928F
:1032200055021092540210925D0610927F060E9481
:1032300011098DEC95E090934402809343028EEC4B
:1032400095E0909342028093410289E380930101CB
:1032500010935C0680937E060E945009811107C07E
:1032600080915A02882309F4EFC181E010C081E205
:103270008093010110935C0680937E0610925D0698
:1032800010927F060E945009882351F380E08093BA
:103290005A021092B90088E48093B80084E08093C9
:1032A000BC00E1EBF3E0DE0111969E01245E3F4F8E
:1032B000CD0144914D9331962A173B07D1F72FEA60
:1032C0002C8F6CE10E9442070E94500D80910807EC
:1032D000882309F450C01092B90098E49093B80084
:1032E00094E09093BC000E94BB068FEF0E94A8065A
:1032F00084E98093BC0050E040E06091080780ECD6
:1033000096E00E94DF0641E050E06091080789ECFA
:1033100096E00E94DF0642E050E06091080782EDEF
:1033200096E00E94DF0643E050E0609108078BEDD5
:1033300096E00E94DF0644E050E06091080784EECA
:1033400096E00E94DF0645E050E0609108078DEEB0
:1033500096E00E94DF0646E050E06091080786EFA5
:1033600096E00E94DF0647E050E0609108078FEF8B
:1033700096E00E94DF060E94840D62E08EE00E94CB
:103380009C0461E080E10E949C040E94B00B1092BA
:10339000B8061092B7061092B6061092B5061092B3
:1033A000B4061092B3068DE991E09093BA0680932B
:1033B000B9069091A906963108F047C02DEB30E090
:1033C0003093B4062093B3062BE931E03093B60670
:1033D0002093B5062CE231E03093B8062093B7066F
:1033E0002091680084E0983048F031E09E3008F485
:1033F00030E081E001C0880F3A95EAF7822B809394
:1034000068002DE630E0983050F02BE630E09E303A
:1034100030F02CE630E0963110F030E020E03093D0
:10342000B1062093B006292F30E0983008F01CC177
:1034300081E001C0880F9A95EAF78093B2068091E7
:10344000B9069091BA060197F1F78091B70690916D
:10345000B806892B49F1E0914702F0914802B6E0A5
:10346000ED39FB0709F1309739F0A389B4899C91B4
:103470008589809589238C938091BB068E7F80936C
:10348000BB0610924602109245028DE996E0909399
:10349000480280934702E091B006F091B106808126
:1034A0009091B206892B80830E94170D833609F014
:1034B00052C060ED77E080E090E00E9499050E94A4
:1034C000170D833609F047C060E080E00E94710C60
:1034D0008DED93E00E9433080E94170D8336E1F3CF
:1034E00060E080E00E94710C8CEC93E00E94330855
:1034F00081E08093D404EBE5F2E08BE892E0119256
:103500008E179F07E1F781E0809349020E94FD0436
:103510006093CF047093D0048093D1049093D2042D
:103520008090CD049090CE048114910409F0A9C03C
:103530000E9409050E94781068EE73E080E090E038
:103540000E9499050E9488118FE00E943C0E8823FA
:1035500039F30E94AD0D8091D404811102C00E9404
:10356000C20C2AE0B22E31ED232E33E0332ECE01F1
:1035700001964C0140E0642E40E0742E0E94090543
:103580000E948811A090D404A110F3C080915A0227
:10359000882309F446C000915802109159025090B6
:1035A0008C0640908D06F801EE0FFF1FEF5BFE4F7B
:1035B00060817181852D942D0E948B0BB9E3EB2ED8
:1035C000B1E0FB2ED12CC12C61E0852D0E94370A81
:1035D000109255028093540280E896E00E94150BE9
:1035E000D7014D915D917D0120912E0630912F06DE
:1035F000822793278417950709F03EC125E0209F75
:10360000C001219F900D11248B5D9E4FC80ED91EC5
:10361000F6018081082E000C990B9093570280933D
:103620005602F12C10E000E0F0FCD1C5F6FC83C599
:10363000F7FE90C5F02EAA2009F468C141E00413FA
:1036400081C10E94EE0D86C58091010190E09093AA
:103650008D0680938C066FEF70E00E948B0B1092AA
:1036600059021092580201CE9E3040F42850310980
:1036700081E001C0880F2A95EAF7DFCE2E5031098C
:10368000F7CF64E670E080E090E00E949905192D84
:1036900052E0652E51E0752EFF24F3940E94090537
:1036A000F30121913F01203308F060C0A12CC12C0F
:1036B000E12C00E0412F682D82E00E94D70FF092AC
:1036C00049020E94FD046093CF047093D00480935C
:1036D000D1049093D2040E9409058FE795E00E94DF
:1036E000DB0EDC019093E0048093DF04892B39F03A
:1036F0008C918A3B51F460E08AE30E948B1085E054
:103700000E943C0E882339F324CF853EC1F71196E1
:103710008C911197803199F714968C91149782307F
:1037200071F713968C911397823449F71596EC91A3
:10373000159720E2E29FF0011124E07818968C9111
:1037400018978F77E82B1A968C911A9740E8849FE8
:10375000900111241B968C918F77820FE03308F033
:103760009DCFF0E0E55AFD4F808398CF0E94EE0D8B
:10377000F2CE80918C02882309F408CF1091530275
:10378000809152021817A9F062E088E00E94710C43
:10379000143618F480E20E9497071A3018F480E279
:1037A0000E9497076AE070E0812F0E9448081093FA
:1037B00052020EE412E08AE4E82E82E0F82E95E050
:1037C000C92E512CD8018D918D01F701D1907F0127
:1037D0008D1509F44BC051101FC062E086E00E94B5
:1037E000710CFD2DF0724F2E8CE3D5FE80E20E940D
:1037F000970762E08CE00E94710C80E2411001C0EA
:103800008EE30E94970765E081E00E94710C89E4D5
:10381000D4FE8EE20E94970765E08DEF8C0D0E942A
:10382000710C89E4D0FE8EE20E94970765E08EEF6E
:103830008C0D0E94710C89E4D1FE8EE20E949707E4
:1038400065E08FEF8C0D0E94710C89E4D2FE8EE250
:103850000E94970765E08C2D0E94710C89E4D3FECD
:103860008EE20E949707F8013197D082539424E0AA
:10387000C20E5212A7CF8ACEFFEFCF1ADF0A24E082
:10388000C216D10409F0A0CE809156029091570241
:103890000097A9F01092570210925602882309F45B
:1038A000C0CE833209F18A3271F18053082F10E0C3
:1038B000E0E8FE2E8A30E0F060E8F62E17C06FEFE9
:1038C00070E0852D942D0E948B0B0F5F1F4F0430ED
:1038D000110529F01093590200935802A2CE1092BC
:1038E0005902109258029DCEFF24F39410E000E09C
:1038F00045E162E080E00E94550C1092D30486E01E
:103900000E94B70D91CE70E4F72EF0CF80918F0218
:1039100081110AC010938E0200938D028F5F8093F5
:103920008F020E94E20C16C48430C0F740918D02D1
:1039300050918E02B49E9001B59E300D1124020F5D
:10394000131FE8CF42E0F4127CC010928C0211E009
:10395000812F0E94B70D1F5F1830D1F710928B0294
:1039600060E080E00E94710C8CE494E00E943308D7
:1039700062E081E00E94710C82E494E00E943308CE
:103980008091630290E8899F9001112480916402E4
:10399000820F932F911D9C01215031092E3F3742F8
:1039A000D0F08EE394E00E94330863E081E00E944F
:1039B000710C84E394E00E94330880916502982F93
:1039C0009770923069F160F4992391F0913029F168
:1039D0000E94EF0B11C06AE070E00E949508E5CFED
:1039E000943021F100F1973099F78BE094E002C018
:1039F0008EE294E00E94330864E081E00E94710C42
:103A000081E094E00E94330880916602853589F454
:103A100087EF93E00E9433089DC387E294E0EACFEA
:103A200081E294E0E7CF8AE194E0E4CF83E194E09F
:103A3000E1CF8F3F19F48EEE93E0ECCF0E94970711
:103A400089C3B3E0FB127EC010928C0211E0812F7B
:103A50000E94B70D1F5F1830D1F760E080E00E9430
:103A6000710C8EE595E00E94330862E081E00E94CF
:103A7000710C84E595E00E94330810916702812F54
:103A80000E94EF0B63E081E00E94710C80915D0267
:103A9000863178F5812F8370823029F1833031F1BE
:103AA0008130F1F083E495E00E94330854E0F52E74
:103AB0006F2D81E00E94710C83E994E016FD02C035
:103AC00082E894E00E94330861E06F0D81E00E947B
:103AD000710C8EE694E017FD9DCF8EE594E09ACFB1
:103AE00085E395E0E1CF80E295E0DECF83E195E0EC
:103AF000DBCFE12FEF70F0E0E058F24E0C942F2175
:103B0000901D931D961D961D991D581D9C1D581D99
:103B1000581D581D581D581D581D581D9F1D901D7E
:103B200082E095E0C1CF8EEE94E0BECF8BED94E0C5
:103B3000BBCF8EEC94E0B8CF8BEB94E0B5CF85EAA9
:103B400094E0B2CFE4E0FE1275C010928C0211E056
:103B5000812F0E94B70D1F5F1830D1F760E080E021
:103B60000E94710C81EC95E00E94330862E081E0D4
:103B70000E94710C87EB95E00E9433086AE070E0C8
:103B8000809168020E9448088EE20E9497076AE0CE
:103B900070E0809169020E94480863E081E00E9421
:103BA000710C8DEA95E00E94330880916A020E94B0
:103BB000E00B8EE20E94970780916B020E94E00B5F
:103BC0008EE20E94970780916C020E94E00B64E0F5
:103BD00081E00E94710C83EA95E00E943308809195
:103BE00086028F3FE9F488E995E00E94330865E09A
:103BF00081E00E94710C82E895E00E9433081091E8
:103C0000870289E795E01F3F09F404CF80E795E03C
:103C10000E9433086AE070E0812F0E9448089AC22F
:103C2000811103C08CE895E0E0CF6AE070E00E946B
:103C30004808DDCFF5E0FF123FC010928C0211E082
:103C4000812F0E94B70D1F5F1830D1F760E080E030
:103C50000E94710C88EF95E00E94330862E081E0D9
:103C60000E94710C8EEE95E00E94330863E08BE0B9
:103C70000E94710C86EE95E00E94330864E080E0BB
:103C80000E94710C83ED95E00E94330865E081E0AD
:103C90000E94710C0DE612E0D8018D918D01811109
:103CA00009C080E30E949707EEE7F2E0E017F10712
:103CB00099F750C281E3F6CF80918C0281114AC2FC
:103CC000F2E6FF1247C281E080938C0210E0812F60
:103CD0000E94B70D1F5F1830D1F710928B0260E081
:103CE00080E00E94710C8FE396E00E94330862E04E
:103CF00086E00E94710C87E396E00E94330863E03F
:103D00008BE00E94710C8FE296E00E94330864E021
:103D100080E00E94710C8CE196E00E94330865E01F
:103D200081E00E94710C8AE096E074CE0E94F30C50
:103D30006091CD047091CE046115710509F079C0D0
:103D40008091D304843008F0C7C08DE996E00E94CA
:103D50007106892B09F4BBC10E94B00B04E912E083
:103D6000D12CC12C8DE996E00E9487068A309105FE
:103D7000A1F08D30910589F09C0120523109203647
:103D8000310580F7BFEFCB1ADB0AF80181938F0171
:103D9000FBE2CF16F1E0DF0629F71092BF0364EAD9
:103DA00071E084E992E00E945021009721F08D5843
:103DB00092408093930268EA71E084E992E00E9465
:103DC0005021009721F08B589240809392026CEA28
:103DD00071E084E992E00E94502112E001E0009736
:103DE00009F4ABC09C012D5F3F4FD901A459B240EB
:103DF00090E0E1E0EA0FB0E0AC56BD4F8C918D331E
:103E000009F08BC09F3F09F06CC0F0E0EC56FD4F0D
:103E10008081803309F063C081E0E0ECF3E08193BE
:103E20002E163F06E1F76CEA71E0C9010E945021AD
:103E3000D6CF8091D304813009F082CF82E0809385
:103E4000D304E090E4030091E803E091000146E030
:103E5000E49FF0011124E75BFE4F8081F72ED62E00
:103E6000E11002C0002381F145E5A42EC82E28E010
:103E7000472F85E00E94D70F6AEF70E080E090E066
:103E80000E94990530EC432E33E0532E12E1D2010B
:103E90008D912D018823A1F001E0813009F400E02B
:103EA0000195A12CC12CE12C212F4F2D6D2D81E0EE
:103EB0000E94D70F6AEF70E080E090E00E949905C1
:103EC0001F5F133221F73CCFA12CC12CE12C082F0E
:103ED0002AE0472F81E0CECF1092D30436CF82E084
:103EE0009CCF9131D0F4F0E0EC56FD4F4081042E90
:103EF000000C550B4033510531F4E92FF0E0E0544C
:103F0000FC4F008390CF4133510509F08CCFE92F4E
:103F1000F0E0E054FC4F108386CF482F082E000CB1
:103F2000550B405351094A30510528F49B9D800D93
:103F30001124982F9053AE2F5CCF60EB71E084E991
:103F400092E00E945021009721F08E589240809379
:103F5000910264EB71E084E992E00E9450210097A5
:103F600021F08D58924080939002E0919002EE23D0
:103F700041F081E08E0F80939002F0E0EC56FD4F0F
:103F80001082E0919102EE2341F081E08E0F809348
:103F90009102F0E0EC56FD4F108280E0E82FF0E057
:103FA000EC15FD0544F4EC56FD4F9081963209F472
:103FB00010828F5FF3CFE0909102EE2009F451C0A0
:103FC000F12CC7018C569D4F7C010091900200237B
:103FD00009F44AC010E00C561D4F45E162E080E054
:103FE0000E94550C0115110539F0D8018C918823D8
:103FF00019F0C8010E947A0CE114F10491F0F70164
:104000008081882371F00115110541F0D8018C9150
:10401000882321F088EB91E00E947A0CC7010E946E
:104020007A0CA0919202AA23B9F1E1E0EA0FE093A1
:104030009202B0E0AC56BD4F1C924E2F80E0242F70
:1040400030E02C153D059CF42C563D4FD9019C9138
:10405000992369F08B9D900D1124892F80534F5F18
:10406000EECFF12CE12CB1CF10E000E0B6CF8823E9
:1040700099F0F0E0EC56FD4FDF010D900020E9F7DC
:104080001197AE1BBF0BA0938F0290E090938E020E
:1040900080938D020E94E20CE0919302EE23A1F046
:1040A00001E00E0F00939302F0E0EC56FD4F1082FA
:1040B00010E00C561D4F0115110581F4D090000140
:1040C000D09200010E94860C81E08093D304611499
:1040D000710409F453CA0E94000050CAF80180819B
:1040E000882361F399E4E92E91E0F92ED12C25E0A3
:1040F000C22ED401EC2D1D92EA95E9F7F40181E07E
:1041000090E0D701A80FB91F2C91203209F420E0CC
:104110002193019686309105A1F7B401C8010E9450
:104120004721892B69F2D394F6E0EF0EF11C26E0CB
:10413000D212DFCFC3CFA11051C010928F021092C4
:104140008E0210928D020E94CF0C47E061E085E064
:104150000E94550C8091D4048111B9CF8091D30471
:10416000813009F0E5CD0E94FD046093CF04709387
:10417000D0048093D1049093D20410E88091CD04B0
:104180009091CE04892B09F0D1CD0E9409050E949F
:10419000781068EE73E080E090E00E9499050E943C
:1041A00088110E94FD04C090CF04D090D004E0900C
:1041B000D104F090D2046C197D098E099F096939E8
:1041C0007A4381059105D0F21093D304D7CF82E6CC
:1041D000F82EA11071CD0E94B60CBCCF0E94AD0D7F
:1041E000B9CF83E891E090939E0680939D068091DD
:1041F0004702909148028D59964071F4E091B006C3
:10420000F091B10690818091B206809589238083D8
:1042100010924802109247020895A1E21A2EAA1B9A
:10422000BB1BFD010DC0AA1FBB1FEE1FFF1FA21766
:10423000B307E407F50720F0A21BB30BE40BF50B63
:10424000661F771F881F991F1A9469F760957095EC
:10425000809590959B01AC01BD01CF010895EE0FB3
:10426000FF1F0590F491E02D09946817790768F411
:10427000FB01DC01E40FF51FA40FB51F02C0029083
:104280000E9241505040D8F708950C946A21FB01DA
:10429000DC018D91019080190110D9F3990B0895DB
:1042A000FB0151915523A9F0BF01DC014D91451748
:1042B0004111E1F759F4CD010190002049F04D91F1
:1042C00040154111C9F3FB014111EFCF81E090E0AE
:1042D00001970895FB01DC0102C001900D9241504D
:1042E0005040D8F7089513E0C6E5D3E004C0FE01BE
:1042F0000E942F212196C735D107C9F7F894FFCF27
:104300000139020304050608090A0B0C0D0E0F10F3
:104310001112131415161718191A1B1C1D1E1F2015
:1043200021222B2CFF313233410034353642003705
:10433000383943002A302344001000200040008018
:1043400000FE00FD00FB00F7000731323841000499
:10435000323841200003313238200000323820202A
:10436000000231342020000132384D2000000000CE
:10437000005C0B2F0B9E0B1406280B150B060B0075
:104380000000001506CF059E0B140671068706FC7B
:104390000500000000E608CF059E0BE9083F20203D
:1043A00020002E006F2E73006F2E61006F2E6600AE
:0A43B0006F2E6E006F2E6F003D00AF
:00000001FF
