:100000000C94B1010C94D9010C94D9010C94D90130
:100010000C94D9010C94D9010C94D9010C94D901F8
:100020000C94D9010C94D9010C941D0D0C948E0BD9
:100030000C94D9010C94D9010C94D9010C94D901D8
:100040000C94250A0C94D9010C94D9010C94D90173
:100050000C94D9010C94D9010C94D9010C94D901B8
:100060000C946F0A0C94D9010000000000000000FD
:10007000002F000000000700070000147F147F1409
:1000800000242A7F2A12006264081323003649558F
:10009000225000000503000000001C224100000067
:1000A00041221C000014083E08140008083E0808FD
:1000B000000000A060000008080808080000606058
:1000C0000000002010080402003E5149453E000097
:1000D000427F4000004261514946002141454B3179
:1000E000001814127F10002745454539003C4A4945
:1000F00049300001710905030036494949360006B7
:100100004949291E0000363600000000563600001E
:100110000008142241000014141414140000412299
:10012000140800020151090600324959513E007C71
:100130001211127C007F49494936003E414141225B
:10014000007F4141221C007F49494941007F090944
:100150000901003E4149497A007F0808087F0000F4
:10016000417F4100002040413F01007F08142241AF
:10017000007F40404040007F020C027F007F040867
:10018000107F003E4141413E007F09090906003EC3
:100190004151215E007F09192946004649494931EC
:1001A0000001017F0101003F4040403F001F20400F
:1001B000201F003F4038403F0063140814630007CD
:1001C0000870080700615149454300007F41410024
:1001D00000552A552A55000041417F0000040201C4
:1001E00002040040404040400000010204000020A2
:1001F00054545478007F48444438003844444420E0
:1002000000384444487F00385454541800087E098C
:1002100001020018A4A4A47C007F08040478000054
:10022000447D4000004080847D00007F1028440011
:100230000000417F4000007C04180478007C080422
:10024000047800384444443800FC2424241800185E
:10025000242418FC007C080404080048545454204A
:1002600000043F444020003C4040207C001C2040D3
:10027000201C003C4030403C004428102844001C16
:10028000A0A0A07C004464544C44000008774100C6
:100290000000006300000000417708000008040827
:1002A0000804003A4040207A003D4040403D002193
:1002B00054545479007D1211127D0039444444395C
:1002C000003D4242423D000205020000007E01491D
:1002D0005573007C1010081C000101010101FC5F36
:1002E000DC60E461C462F663D664B065DF66B5675E
:1002F000AF68FFFFAE2000B0C8001040813FA1A64C
:10030000A83FA4D301D5F0D922DA12DB208D140046
:1003100000000800020100000304070000000000C4
:1003200000000000000000250028002B0000000055
:1003300000240027002A0004040404040404040226
:100340000202020202030303030303010204081072
:10035000204080010204081020010204081020003F
:10036000530D11241FBECFEFD8E0DEBFCDBF11E08B
:10037000A0E0B1E0EEE3F6E202C005900D92A43BEE
:10038000B107D9F725E0A4EBB1E001C01D92AB3174
:10039000B207E1F711E0C1EBD1E004C02197FE0103
:1003A0000E94FC12C03BD107C9F70E94FD0D0C94BE
:1003B0001D130C94000090E0FC01E55BFC4F2491C0
:1003C000895C9C4FFC018491882399F090E0880F10
:1003D000991FFC01E35DFC4FA591B491FC01ED5D1B
:1003E000FC4F859194918FB7F894EC91E22BEC93AC
:1003F0008FBF0895CF93DF93FC0129E18EE241E0A6
:1004000050E033E071E0908190769036D1F49181A4
:100410009093CB03A091CB03A1501092CA039FEFFE
:100420006091CA036A1790F4C091CA03CE0FDF2F00
:10043000D11D688196276091CA036F5F6093CA03DC
:10044000EFCF9081929596709E5FE2CFAE0FBF2F57
:10045000B11D9C93F8949091C903913059F49091F7
:10046000C803981738F01092C90390916F009D7FD0
:1004700090936F0078949091C903913039F49091E2
:10048000C803943108F4BFCF70E0BDCF9091C90389
:1004900091110EC0F89490916F009F7D90936F0022
:1004A000B59B09C090916F00906290936F00789413
:1004B0007111A9CF51C0A091C603B091C7039C91FF
:1004C0006091C503EA0102C0CC0FDD1F6A95E2F717
:1004D0009C2B9C9360918400709185006A5A7C4F9C
:1004E0007093C4036093C3036091C3037091C4030A
:1004F00070938900609388007894F093C203E0932E
:10050000C1031092CA031092C00390819093BF035D
:100510003093C9031092C803B19A90916F00926012
:1005200090936F009091C9039330E1F39091C003D1
:10053000992381F0E091BD03F091BE03E757FF4F8F
:100540008081918101969183808383E090E0DF91A7
:10055000CF9108959091C9038B3108F081502150BB
:1005600009F050CF809157049091580401969093D0
:1005700058048093570486E090E0E9CF90E0FC01B6
:10058000E15FFC4F2491FC01E55BFC4F3491FC01E1
:10059000E95CFC4FE491EE23C9F0222339F02330CB
:1005A00001F1A8F4213019F1223029F1F0E0EE0F29
:1005B000FF1FED5DFC4FA591B4918FB7F894EC91BE
:1005C000611126C030953E233C938FBF089527309C
:1005D000A9F02830C9F0243049F7809180008F7D40
:1005E00003C0809180008F7780938000DFCF84B537
:1005F0008F7784BDDBCF84B58F7DFBCF8091B0003A
:100600008F778093B000D2CF8091B0008F7DF9CFEB
:100610003E2BDACF3FB7F8948091B7039091B8039F
:10062000A091B903B091BA0326B5A89B05C02F3F8E
:1006300019F00196A11DB11D3FBFBA2FA92F982F08
:100640008827BC01CD01620F711D811D911D42E003
:10065000660F771F881F991F4A95D1F7089508954F
:100660000895AF92BF92CF92DF92EF92FF920F93D5
:100670001F93CF93DF936C017B018B01040F151F38
:10068000EB015E01AE18BF08C017D10759F06991A0
:10069000D601ED91FC910190F081E02DC601099504
:1006A000892B79F7C501DF91CF911F910F91FF90B1
:1006B000EF90DF90CF90BF90AF9008958093BB00F4
:1006C00084E88093BC0080E491E02091BC0027FD89
:1006D00008950197D1F78091BC0384608093BC0397
:1006E000089594EA9093BC0020E431E09091BC001E
:1006F00097FF0CC08093BB0084E88093BC0080E42B
:1007000091E02091BC0027FF0AC0089521503109D3
:1007100069F78091BC0381608093BC0308950197C1
:1007200081F78091BC038260F7CF1F93CF93DF9353
:10073000EC01142F4F83688785E090E09D838C83C4
:100740008FEF6623D9F081E0860F0E94710384E861
:100750008093BC0080E491E02091BC0027FF03C09F
:100760008091BB0008C00197B9F78091BC038061FC
:100770008093BC0380E094E99093BC0090E0809566
:10078000909502C0959587951A95E2F780FD15C062
:1007900080E08E832FB7F8948091BB049091BC04C5
:1007A000A091BD04B091BE042FBF88839983AA8312
:1007B000BB83DF91CF911F91089583E0EACFEF9241
:1007C000FF920F931F93CF93DF937C018B0188E7F8
:1007D0000E94710380E40E945E03E7010E0D1F1D5D
:1007E000C017D10751F484E98093BC00DF91CF9109
:1007F0001F910F91FF90EF90089589910E945E03E1
:10080000EFCFEF92FF920F931F93CF93DF93182FA9
:10081000E92E062F88E70E94710380E00E945E03A4
:10082000F12EC12FDE2D89910E945E038C2F8F192E
:100830008017C8F384E98093BC00DF91CF911F91AA
:100840000F91FF90EF900895CF93DF9300D000D0E9
:100850001F92CDB7DEB7E8E8F2E080836183605590
:10086000698391E29A8392E0980F9F709B8390E056
:10087000029624E0959587952A95E1F7805F8C8311
:100880008FE78D8365E0CE0101960E9401040F90F1
:100890000F900F900F900F90DF91CF9108958138B6
:1008A00020F4683010F40C94240408950F931F93DF
:1008B000CF93DF93893009F45CC0C82F8A30A0F54C
:1008C000883009F43EC0809188028A3708F082C0DF
:1008D000C03208F47FC0C052EFEDF2E0E491CE17D1
:1008E00008F07DC088E70E94710380E40E945E03E7
:1008F000F6E0CF9FE001112410E000E0C859DF4F7F
:10090000FE01E00FF11F84910E945E030F5F1F4FF5
:1009100006301105A9F784E98093BC008091880214
:100920008A5F8093880256C08A3081F16091890283
:1009300080E0CD3041F6DF91CF911F910F910C9463
:100940004F04809188028150982F990F890F6091F0
:100950008902880F0E944F0480E20E945604809111
:1009600088028150982F990F890F60918902880F12
:10097000E2CF80918802609189028D3028F48C5FEB
:10098000982F990F890FF3CF8EE7D5CF6091890209
:10099000673000F56F5F90918802892F880FF2CF42
:1009A0009F5F292F30E0220F331FA90141525D4F75
:1009B000FA0184918F3F71F0F901E252FD4FE49109
:1009C000E052FF0BEC17FD0759F7FA01C491CF3F36
:1009D00009F088CFDF91CF911F910F91089590E09A
:1009E000D0E0DFCF1F93CF93DF93182FEC019C2F24
:1009F000911B8991882319F00E945604F8CF892F02
:100A000090E0DF91CF911F910895CF92DF92EF9206
:100A1000FF920F931F93CF93DF93CDB7DEB7A197CC
:100A20000FB6F894DEBF0FBECDBF6B01BC0190E0E6
:100A300080E019A28E010F5D1F4F0D2C000CEE08F7
:100A4000FF08A70196010E94DA12E62FCA01B90138
:100A5000EA30F4F4E05DD801EE938D01232B242BD2
:100A6000252B21F0AC17BD0761F78E01C8010E944C
:100A7000F204A1960FB6F894DEBF0FBECDBFDF9192
:100A8000CF911F910F91FF90EF90DF90CF9008953D
:100A9000E95CE1CFCF93DF93D82FC091BB03CF5F49
:100AA0006C2F8EE10E944F04D15020F080E20E9412
:100AB0005604FACF6C2F8EE1DF91CF910C944F0446
:100AC00090E080E00895089520916502260F332775
:100AD000331F21323105ECF420918304FC0190E0B6
:100AE00080E0243069F082E00895A09165022191B0
:100AF000AC014B5B5D4FA40FB52FB11D2C9301963C
:100B0000861798F380916502680F6093650280E014
:100B1000089581E008951092830481E08093820417
:100B200010925D0461E082E10E94BE0261E083E117
:100B30000E94BE02E9EBF0E080818E7F808380819D
:100B40008D7F808388E48093B80085E48093BC0027
:100B50000895CF93DF9391E0909344028823B9F0F6
:100B6000C091B800D091BA008091BC008A7B80937C
:100B7000BC0060E082E10E94BE0260E083E10E946E
:100B8000BE020E948B05D093BA00C093B800DF91DB
:100B9000CF9108958F929F92AF92BF92CF92DF92A2
:100BA000EF92FF920F931F93CF93DF93D091AC04FA
:100BB000D13208F0D7C0182FC091AB040E940A03AD
:100BC0006B017C018091830481116BC082E0809372
:100BD0008304109382048FEF809381041092800429
:100BE000D0937F04ABE8B4E0EFE5F4E080E0D81305
:100BF00091C010925E0480915E04CC0FC82BC0930C
:100C00005E0480915D04813009F088C010925D041B
:100C10000E940A036B017C0180915E048093BB00FB
:100C20008091850490918604A0918704B0918804F6
:100C3000892B8A2B8B2BA1F00E940A03009185043B
:100C40001091860420918704309188046C197D09E5
:100C50008E099F09061717072807390708F442C0AD
:100C60008091BC0083FDD8CF85EC8093BC000E94AE
:100C70000A036B017C0180918304823009F450C027
:100C8000809181048F3F09F46FC08091810480328C
:100C900009F46CC080918104803309F469C084E058
:100CA00026C08091850490918604A0918704B0911C
:100CB0008804892B8A2B8B2B09F484CF0E940A038A
:100CC0008090850490908604A0908704B09088045A
:100CD0006C197D098E099F0986169706A806B90624
:100CE00008F070CF809184040E94A90585E01092DD
:100CF0008A041092AC0410928904DF91CF911F9165
:100D00000F91FF90EF90DF90CF90BF90AF909F90AA
:100D10008F9008959D9191938F5F69CF85EEA5CFB8
:100D20008091850490918604A0918704B0918804F5
:100D3000892B8A2B8B2B09F49ECF0E940A030091EA
:100D400085041091860420918704309188046C19E1
:100D50007D098E099F09061717072807390708F02C
:100D60008ACFC0CF81E0C3CF80E0C1CF82E0BFCFC8
:100D700083E0BDCF0895E0918D0380918C03E81747
:100D800030F4F0E0E257FC4F808190E008958FEF5F
:100D90009FEF089590918D0380918C032FEF3FEF8B
:100DA000981748F4E92FF0E0E257FC4F208130E03B
:100DB0009F5F90938D03C901089580918C0390915A
:100DC0008D03891B990B0895CF92DF92EF92FF92CA
:100DD0000F931F93CF93DF937C01CB018A01209166
:100DE0008904222389F0EB016B01C40ED51ECC15BA
:100DF000DD0569F06991D701ED91FC910190F081D9
:100E0000E02DC7010995F3CF642F0E946405C80146
:100E1000DF91CF911F910F91FF90EF90DF90CF90D6
:100E20000895CF93DF931F92CDB7DEB769832091EA
:100E300089042223F9F02091AC04203258F021E0FB
:100E400030E0FC013383228390E080E00F90DF915B
:100E5000CF91089580918A04E82FF0E0E557FB4F89
:100E6000998190838F5F80938A048093AC0481E0A2
:100E700090E0ECCF61E0CE0101960E946405F7CFCF
:100E800060935B0470935C0491E090938904809379
:100E9000AB0410928A041092AC048DEA94E00E9494
:100EA000110781E00C94CA0590E080E008959C0150
:100EB000DC01A058BF4FEC9191E09E0F9C93E20F94
:100EC000F32FF11D608397FD1C920895CF93DF935C
:100ED000EC01C83E83E0D80778F480E30E94560412
:100EE000C436D10548F480E30E945604CA30D105C7
:100EF00018F480E30E9456046AE070E0CE01DF91AE
:100F0000CF910C9405059091BB03690F982F990F11
:100F1000890F880F0C944F04CF93809100018F5F4D
:100F2000863041F180930001C091A002C87FE0911A
:100F3000000186E0E89FF0011124EE5FFE4F808102
:100F4000C82BC093A00261E08CE00E948307E2E01E
:100F5000F1E030E020E0C7708081C8130EC046E0A9
:100F6000429FC001439F900D11248D5F9E4FCF91F2
:100F70000C94F20410920001D7CF2F5F3F4F3696AA
:100F80002630310549F788E691E0F1CF8091B3032F
:100F90009091B403EEE8F2E09C012F773327238B86
:100FA000880F892F881F990B9195878B81E0848BFF
:100FB0000895EF92FF921F93CF93DF93CDB7DEB7E3
:100FC000C058D1090FB6F894DEBF0FBECDBFCE0119
:100FD00001967C0180E8F70111928A95E9F710E00B
:100FE000612F80E00E944F0460E870E0C7010E941A
:100FF000DF031F5F1830A1F760E080E00E94240447
:10100000C058DF4F0FB6F894DEBF0FBECDBFDF91E3
:10101000CF911F91FF90EF90089585ED8093BC00D4
:101020008091850490918604A0918704B0918804F2
:101030000796A11DB11D23E0B695A79597958795B5
:101040002A95D1F72091BC0024FD03C0109283049F
:1010500008954091850450918604609187047091B1
:101060008804452B462B472B69F30097A105B10552
:1010700041F02AE22A95F1F700C00197A109B109D0
:10108000E1CF809184040C94A9052F923F924F9256
:101090005F926F927F928F929F92AF92BF92CF9208
:1010A000DF92EF92FF920F931F93CF93DF9300D0C5
:1010B00000D0CDB7DEB79C838B837C0141E8E40E82
:1010C000F11C6C0150E8C50ED11C8C010E571F4F4E
:1010D0008D579F4F2C018B819C818C579F4F4C01CA
:1010E00022242A94AB80BC8097E8A90EB11CEB8126
:1010F000FC81EB57FF4FFA83E983F7018081F6010A
:101100009081891709F4BAC0EB81FC81E80FF11DC9
:10111000308037FE6DC0F8019081891739F0F501F4
:10112000208131812F5F3F4F31832083F8018083FD
:10113000F2012082832D8076F401803609F441C0CB
:10114000832D829586708E5F8083F8012081F40163
:101150008081820F9927991F813891059CF180E841
:10116000682E621AF894F6014081F8018081841794
:1011700008F044C0F42FF81B8F2FF6018083789479
:10118000F80160814617E8F5712C50E06B817C8195
:10119000CB01860D971D0E940213F80160814B81DF
:1011A0005C81460F511DBA01A3018B819C810E9475
:1011B0000213F7018081F8019081891BF701808378
:1011C000F8011082F70190819F5F9083F801808180
:1011D000392F381B97FF02C0F7011082F2012081DE
:1011E000F40190819317A9F03226F201308285CF65
:1011F000F40180818111E6CF3082A7CF862D840F44
:10120000BCCF461B50E08B819C81860F911DBC0199
:10121000CCCF32122AC04B815C81480F511DCA01CC
:10122000E981FA81408151814F5F5F4F5183408353
:10123000F7013081F80130830097B1F20F900F90E1
:101240000F900F90DF91CF911F910F91FF90EF9032
:10125000DF90CF90BF90AF909F908F907F906F90D6
:101260005F904F903F902F900895F501808191817C
:1012700001969183808390E080E0DACF90E080E077
:10128000DDCF1F93CF93DF93182FD62FCBE4C62744
:10129000C82764EB84EB91E00E945707612F84EB31
:1012A00091E00E9457076D2F84EB91E00E94570751
:1012B0006C2F84EB91E00E9457076FEF84EB91E075
:1012C0000E94570784EB91E00E94450890938B039E
:1012D00080938A03009729F0DF91CF911F910C949E
:1012E000FA01DF91CF911F9108959F92AF92BF9223
:1012F000CF92DF92EF92FF920F931F93CF93DF93E2
:1013000099E0899FF0011124E257FD4F0181158179
:10131000212F30E0220F232F221F330B200F311DEE
:10132000232B11F08C3178F060E08AE3DF91CF91CC
:101330001F910F91FF90EF90DF90CF90BF90AF90F3
:101340009F900C944109D82F9080A280B380C480D4
:10135000D680E780F084C3E1C827C027C127C9250C
:10136000CA25CB25CC25CD25CE25CF2567EE84EB10
:1013700091E00E9457076EE084EB91E00E945707CE
:101380006D2F84EB91E00E945707692D84EB91E06B
:101390000E945707602F84EB91E00E9457076A2D47
:1013A00084EB91E00E9457076B2D84EB91E00E9443
:1013B000570765E084EB91E00E9457076C2D84EBA2
:1013C00091E00E945707612F84EB91E00E9457073C
:1013D0006D2D84EB91E00E9457076E2D84EB91E018
:1013E0000E9457076F2D84EB91E00E9457076C2FE6
:1013F0006F7784EB91E00E9457076FEF84EB91E0E9
:101400000E94570784EB91E00E94450890938B035C
:1014100080938A03009769F0DF91CF911F910F911C
:10142000FF90EF90DF90CF90BF90AF909F900C9483
:10143000FA01DF91CF911F910F91FF90EF90DF9014
:10144000CF90BF90AF909F9008951F920F920FB6CC
:101450000F9211242F933F938F939F93AF93BF933A
:101460008091BB049091BC04A091BD04B091BE04D6
:101470003091B60323E0230F2D3758F50196A11DB7
:10148000B11D2093B6038093BB049093BC04A0933A
:10149000BD04B093BE048091B7039091B803A091AE
:1014A000B903B091BA030196A11DB11D8093B70392
:1014B0009093B803A093B903B093BA03BF91AF91CF
:1014C0009F918F913F912F910F900FBE0F901F9082
:1014D000189526E8230F0296A11DB11DD2CF1F92A9
:1014E0000F920FB60F9211242F933F934F935F9358
:1014F0006F937F938F939F93AF93BF93EF93FF93DC
:101500008091B900887F803609F44AC0F0F58832AE
:1015100009F4A7C018F5803109F49BC0B8F48823FA
:1015200009F4F9C0883009F494C0FF91EF91BF919C
:10153000AF919F918F917F916F915F914F913F916B
:101540002F910F900FBE0F901F901895883109F4BE
:1015500088C0803251F78093810414C0803409F42C
:101560009DC040F48033B9F38833F9F68093810449
:1015700085ECB0C0803509F485C0883509F496C083
:10158000883499F60E940D08D0CF883909F48CC0B0
:1015900038F5883729F050F4883611F0803729F66D
:1015A00083E0809383041092870257C0883809F43F
:1015B0007BC0803919F0803809F0B7CF809187025D
:1015C000803208F071C0E091870281E08E0F809335
:1015D00087028091BB00F0E0E959FD4F80833DC058
:1015E000803B39F0E0F4803A09F479C0883A09F098
:1015F0009CCF84E08093830410926602109265026F
:10160000E0918C02F0918D02099580916502811123
:101610000FC081E0809365021092450209C0803CB2
:1016200009F4A6CF883C09F4A3CF883B09F07DCF0D
:10163000E091660281E08E0F80936602F0E0EB5B42
:10164000FD4F80818093BB0090916602809165027E
:1016500029C080915E048093BB0085EC8093BC0020
:1016600064CF9091800480917F04981758F5E091A1
:10167000800481E08E0F80938004F0E0E15AFB4FFC
:101680008081E9CFE091800481E08E0F8093800417
:101690008091BB00F0E0E15AFB4F80839091800481
:1016A00080917F049817C8F285E8D8CFE091800434
:1016B00081E08E0F809380048091BB00F0E0E15ABE
:1016C000FB4F80838091820481115CCF81E0809305
:1016D0005D0484EA8093BC001092830426CF85ECDD
:1016E0008093BC001092830480918702803230F492
:1016F000E0918702F0E0E959FD4F10826091870286
:1017000070E0E0918A02F0918B0287E692E0099501
:10171000109287020ACF1092810434CF1F920F9249
:101720000FB60F921124CF92DF92EF92FF920F9398
:101730001F932F933F934F935F936F937F938F9359
:101740009F93AF93BF93CF93EF93FF93B19A809101
:10175000C3039091C40380549C4F9093C40380931F
:10176000C3038091C3039091C40390938900809335
:10177000880080914302882371F010924302189BE5
:1017800026C081E08093C903B59A80916F00806282
:1017900080936F001CC08091C8038F5F8093C80343
:1017A0008091C903843009F043C08091C803893017
:1017B00030F58091BF0390E0959587958093BF03A6
:1017C000189B05C08091BF0380688093BF03FF9181
:1017D000EF91CF91BF91AF919F918F917F916F9139
:1017E0005F914F913F912F911F910F91FF90EF903B
:1017F000DF90CF900F900FBE0F901F901895B59A65
:1018000080916F00806280936F008091BD03909102
:10181000BE03189929C0FC01E957FF4F80819181CF
:101820000196918380831092C80381E08093C9035D
:101830008091C9038330E9F5E091C603F091C703B5
:1018400080812091C50333B190E0022E02C09595AE
:1018500087950A94E2F7832780FD11C01092C80390
:1018600082E08093C90325C06091BF030E9457079F
:1018700080E090E0892BB9F20E940000D4CF8091E3
:10188000C803893008F043C03091BF0381E090E085
:1018900001C0880F2A95EAF7908130FF36C0809505
:1018A000892380838091BF0390E0959587958093ED
:1018B000BF038091C903823099F48091C8038111DC
:1018C00096C0E091C603F091C70380819091C50353
:1018D00021E030E001C0220F9A95EAF7822B808345
:1018E0008091C903813009F072CF8091C8038823A9
:1018F00009F44ACF8091C803883308F468CF109266
:10190000C90380916F008D7F43CF892BCACF80910F
:10191000C803893059F4308181E090E001C0880F1C
:101920002A95EAF7809583238083C3CF8091CA03E9
:101930008F5F8093CA039091CB03891750F5109263
:10194000C8038091C1039091C203A091CA03A80F5C
:10195000B92FB11D8C918093BF03808141E050E08D
:1019600001C0440F2A95EAF7842B8083809184007C
:10197000909185008A5A9C4F9093C4038093C3032F
:101980008091C3039091C403909389008093880051
:1019900090CF81E08093C003E090C103F090C20338
:1019A000C090BD03D090BE03F70180818076803661
:1019B00079F4C18110E000E00C1778F4F701E00F32
:1019C000F11F6081C6010E9457070F5F1F4FF4CFC0
:1019D000C081C295C670CE5FEDCF80E090E0892BCC
:1019E00011F00E9400001092C80381E03ACF80916C
:1019F000C8038F3008F474CFE091C603F091C70399
:101A000020813091C50381E090E001C0880F3A95B4
:101A1000EAF78095822380831092C80381E0809347
:101A2000C903E091BD03F091BE03E357FF4F8081EE
:101A3000918101969183808353CF1F920F920FB6AD
:101A40000F9211248F939F93EF93FF93B59AEFE634
:101A5000F0E080818F7D8083809186009091870067
:101A600080529E4F9093C4038093C3038091C3031D
:101A70009091C4039093890080938800B19A8081EB
:101A80008260808384E08093C9031092C80381E060
:101A900080934302FF91EF919F918F910F900FBE22
:101AA0000F901F901895CF93DF93EDEAF4E0138227
:101AB000128288EE93E0A0E0B0E084839583A68351
:101AC000B7838EE491E091838083C4E1D5E086E022
:101AD000888380E8898388E08A831B821C821D8238
:101AE0001E8286E00E94DB012FB7F8948091BB0430
:101AF0009091BC04A091BD04B091BE042FBF8B8314
:101B00009C83AD83BE838091010190E09093BA04E1
:101B10008093B904EFEBF4E01382128280E691E047
:101B20009183808314821582168217828AE090E066
:101B300091878087128613861486158616861786E7
:101B4000108A928B818B138A148A158A168A178AB7
:101B5000108E118E938F828F148E158E168E178E87
:101B600010A211A212A294A383A315A216A217A2D7
:101B700010A611A612A613A695A784A716A617A6A7
:101B800010AA11AA12AA13AA14AA96AB85AB17AA77
:101B900010AE11AE12AE13AE14AE15AE97AF86AF47
:101BA0001092FF0410920005109201051092020598
:101BB00010920305109204051092050590930705F5
:101BC00080930605109208051092090510920A05E7
:101BD00010920B0510920C0510920D051092100535
:101BE00010921105109212051092130510920E0515
:101BF00010920F05DF91CF910895CF93DF93CDB76A
:101C0000DEB76C970FB6F894DEBF0FBECDBF7894E9
:101C100084B5826084BD84B5816084BD85B58260F1
:101C200085BD85B5816085BD80916E0081608093A2
:101C30006E0010928100809181008260809381000B
:101C4000809181008160809381008091800081601B
:101C5000809380008091B10084608093B100809176
:101C6000B00081608093B00080917A00846080939E
:101C70007A0080917A00826080937A0080917A0065
:101C8000816080937A0080917A00806880937A00E6
:101C90001092C100EEE8F2E01082399623E0EA38B3
:101CA000F207D1F783E38093A002ECECF3E08FE836
:101CB000DF011D928A95E9F787E00E94DB01E2E5EA
:101CC000F3E02491EEE3F3E0E491F0E0EE0FFF1F88
:101CD000ED5DFC4F4591549180E091E031E0291792
:101CE00041F08F5F932F082E01C0990F0A94EAF7F5
:101CF000F6CF5093C7034093C6038093C5038CEC83
:101D000093E09093BE038093BD032098E091C603B7
:101D1000F091C70320813091C50381E090E001C0BC
:101D2000880F3A95EAF7809582238083109280008D
:101D300011E0109381001092C903B59A80916F0051
:101D4000806280936F0080918100887F81608093A2
:101D5000810010928D0310928C0310928A041092CD
:101D6000AC040E948B058FE293E090938D028093E8
:101D70008C0280E393E090938B0280938A0289E344
:101D800080930101109389048093AB0481E00E9449
:101D9000CA05811107C08091B203882309F400C1EC
:101DA00081E011C081E28093010110938904809346
:101DB000AB0410928A041092AC0481E00E94CA0520
:101DC000882349F380E08093B2031092B90088E43D
:101DD0008093B80084E08093BC00E4EFF2E0DE0181
:101DE00011969E01245E3F4FCD0144914D93319653
:101DF0002A173B07D1F72FEA2C8F6CE10E940104D0
:101E00000E94D90780910B05882309F450C01092D5
:101E1000B90098E49093B80094E09093BC000E94BD
:101E200071038FEF0E945E0384E98093BC0050E051
:101E300040E060910B0583EC94E00E94950341E043
:101E400050E060910B058CEC94E00E94950342E019
:101E500050E060910B0585ED94E00E94950343E00E
:101E600050E060910B058EED94E00E94950344E0F4
:101E700050E060910B0587EE94E00E94950345E0E9
:101E800050E060910B0580EF94E00E94950346E0DE
:101E900050E060910B0589EF94E00E94950347E0C4
:101EA00050E060910B0582E095E00E9495030E944E
:101EB000D90761E080E00E9483078DE691E00E94EF
:101EC000F20484E791E00E94F20488E791E00E9426
:101ED000F20462E081E00E94830785E891E00E94BD
:101EE000F2048CEF0E9456048BE891E00E94F20409
:101EF00084E991E00E94F20484E08093BB0361E0F6
:101F000080E00E94830789E991E00E94F20481E069
:101F1000809300010E948C0719E035EE332E45ECCA
:101F2000842E50E0A52E50E0B52E99249A942FB718
:101F3000F8948091BB049091BC04A091BD04B09131
:101F4000BE042FBF409117055091180560911905E7
:101F500070911A05841B950BA60BB70B4597A1052D
:101F6000B10508F46DC02FB7F8948091BB0490912F
:101F7000BC04A091BD04B091BE042FBF809317058F
:101F800090931805A0931905B0931A0500911505B3
:101F900080911605013CA0F081958093160512C032
:101FA0008091010190E09093BA048093B9046FEF9F
:101FB00070E00E9440071092B1031092B003F0CE7F
:101FC000003250F380911605080F00931505F0902C
:101FD00014058F2D0E94DB01011105C060E08F2DDB
:101FE0000E94BE022DC00F3F11F461E0F8CFEF2D2B
:101FF000F0E0E15FFC4FE491E33009F465C040F4A8
:10200000E130D1F0E23009F45AC007FDEECFE6CF5F
:10201000E73009F465C0E83009F46AC0E430A9F794
:1020200080918000806280938000802F90E0909368
:102030008B0080938A0004C084B5806884BD07BD8E
:102040008CEC93E00E944508FC0190938B038093F5
:102050008A03892B61F001810C3148F480818B3B2C
:1020600009F415C108F04CC08A3B09F412C18091F3
:10207000B20381113EC120E090E080E020FD75C2F6
:1020800026FD8CC227FF73C22091B503211176C2B1
:102090009093B4038093B3032F5F2093B50384E040
:1020A0000E944A0561E085E00E9483078091B303A6
:1020B0009091B4030E9466070E94C60758C284B577
:1020C000806284BD08BDBCCF809180008068809311
:1020D0008000802F90E09093890080938800B0CF9B
:1020E0008091B00080688093B0000093B300A8CFC7
:1020F0008091B00080628093B0000093B400A0CFC4
:102100008F3B09F49BC08F3E09F0B1CF82818C31A7
:1021100008F0ADCF73800481458136812085F1843C
:102120009285E3846484189FF0011124E257FD4FE7
:1021300070820183428333832483F5829683E7820E
:1021400060866FE78FE60E944109CDB6DEB660E09B
:1021500080E00E944F04EDB7FEB7EE57F1090FB6CD
:10216000F894FEBF0FBEEDBF8DB79EB70196DC01A0
:10217000EEE71D92EA95E9F76EE770E00E94DF0353
:1021800060E080E00E944F040FB6F894DEBE0FBE00
:10219000CDBE60E080E00E9483078FE991E00E945D
:1021A000F204802F90E0FF2031F0F0E8FF9E9001D4
:1021B0001124820F931F0E94660760E08CE00E944A
:1021C0008307E2E0F1E030E020E0872D8770908126
:1021D000891385C046E0429FC001439F900D1124A2
:1021E0008D5F9E4F0E94F20463E080E00E948307AF
:1021F00085EA91E00E94F204712C762C6624E60CAC
:10220000F72CF11CE11480E1F80690F480E30E94C1
:1022100056049FEFE916F10409F050F480E30E94A0
:102220005604A0E1EA16F10418F480E30E94560473
:1022300060E170E0C7010E94050519CF4281EEE818
:10224000F2E081E09285491303C096850917A9F051
:102250008F5F39968C31B1F7EEE8F2E021E030E0A3
:10226000822F9185907361F4129FF001139FF00DFE
:102270001124E257FD4F418305830E947509F7CE73
:102280002F5F3F4F39962C31310551F7F0CE802F1B
:10229000F4CF8281081320C00023E1F0109FF001E9
:1022A0001124E257FD4F808180638083802F0E943C
:1022B0007509E0918A03F0918B0382818111D7CE59
:1022C000109FF0011124E257FD4F80818F7E8062C4
:1022D0008083CDCE82E0D1CF0111EBCFC8CE2F5F6E
:1022E0003F4F36962630310509F071CF88E691E0F0
:1022F00079CFE091B003F091B103EE0FFF1FEE5BD9
:10230000FE4F608171818091B9049091BA040E945E
:1023100040079AE3C92E91E0D92EF12CE12C01E07F
:102320002090B9040E940A032B013C018091830490
:10233000811161C000938304009382049092810410
:102340001092800410927F0400935E0480915E04DA
:10235000220C282A20925E0480915D04813009F0CD
:102360009EC010925D040E940A032B013C018091E3
:102370005E048093BB008091850490918604A091B7
:102380008704B0918804892B8A2B8B2BA1F00E94A3
:102390000A0320918504309186044091870450916E
:1023A00088046419750986099709261737074807AD
:1023B000590708F441C08091BC0083FDD8CF8092BA
:1023C000BC000E940A032B013C01809183048130F0
:1023D00009F468C080918004811186C080918004D6
:1023E000AFE5B4E0EEE8F3E090E0981751F12D91FD
:1023F00021939F5FFACF8091850490918604A091EC
:102400008704B0918804892B8A2B8B2B09F48ECFFB
:102410000E940A032091850430918604409187042C
:10242000509188046419750986099709261737079A
:102430004807590708F07ACF809184040E94A905C3
:1024400080E010928D0380938C038DEA94E00E94CB
:10245000CA06F601419151916F0120915B043091C0
:102460005C04822793278417950709F03FC02091C9
:10247000B0033091B10345E0429FC001439F900DEE
:1024800011248A5D9E4FE80EF91ED7018C91082E0B
:10249000000C990B9093AF038093AE03ECCD309278
:1024A000BC008FCF8091850490918604A091870411
:1024B000B0918804892B8A2B8B2B09F486CF0E943C
:1024C0000A0320918504309186044091870450913D
:1024D000880464197509860997092617370748077C
:1024E000590708F072CFA8CF81E07ACFBFEFEB1A7F
:1024F000FB0AE4E0EE16F10409F012CF8091AE037E
:102500009091AF03009799F01092AF031092AE0331
:10251000882309F4B0CD833221F18A3221F180532E
:1025200090E020E88A3008F4A9CD20E8A5CD6FEF2F
:1025300070E08091B9049091BA040E9440078091A4
:10254000B0039091B10301968430910529F09093E6
:10255000B1038093B0038FCD1092B1031092B003FA
:102560008ACD21E089CD20E487CD0E948C07A1147B
:10257000B10409F4DCCC0E940000D9CC243008F06E
:102580008BCD6091B3037091B4033AE0369FA00104
:10259000379F500D1124840F951F7ACD1092B503EB
:1025A0001092B4031092B3030E94C60787E00E9402
:1025B0004A05DDCFA1E21A2EAA1BBB1BFD010DC0EF
:1025C000AA1FBB1FEE1FFF1FA217B307E407F507E3
:1025D00020F0A21BB30BE40BF50B661F771F881FBF
:1025E000991F1A9469F760957095809590959B0155
:1025F000AC01BD01CF010895EE0FFF1F0590F491CE
:10260000E02D09946817790768F4FB01DC01E40FF9
:10261000F51FA40FB51F02C002900E92415050400A
:10262000D8F708950C941413FB01DC0102C001904B
:0E2630000D9241505040D8F70895F894FFCF16
:10263E00013907313238410004323841200003316C
:10264E0032382000003238202000023134202000A1
:10265E00014D2A2A200031323341003435364200F2
:10266E0037383943002A3023440010002000400040
:10267E008000FE00FD00FB00F700000000001107C7
:10268E00E4065407BA06DD06CA06BB0600000000C3
:10269E0060053103540763053F2020200044495351
:1026AE0050412000322E32002028666B61204652A7
:1026BE00414E5A29002863294B72006D656C736F69
:1026CE006674200032303234004E65753A20004177
:1026DE006C743A20005468726F74746C6549443A95
:0426EE002030780020
:00000001FF
