:100000000C94B7010C94DF010C94DF010C94DF0118
:100010000C94DF010C94DF010C94DF010C94DF01E0
:100020000C94DF010C94DF010C94DF010C94DF01D0
:100030000C94DF010C94DF010C94DF010C94DF01C0
:100040000C9405070C94DF010C9475070C944F0772
:100050000C94DF010C94DF010C94DF010C94DF01A0
:100060000C94A7070C94DF010000000000000000C2
:10007000002F000000000700070000147F147F1409
:1000800000242A7F2A12006264081323003649558F
:10009000225000000503000000001C224100000067
:1000A00041221C000014083E08140008083E0808FD
:1000B000000000A060000008080808080000606058
:1000C0000000002010080402003E5149453E000097
:1000D000427F4000004261514946002141454B3179
:1000E000001814127F10002745454539003C4A4945
:1000F00049300001710905030036494949360006B7
:100100004949291E0000363600000000563600001E
:100110000008142241000014141414140000412299
:10012000140800020151090600324959513E007C71
:100130001211127C007F49494936003E414141225B
:10014000007F4141221C007F49494941007F090944
:100150000901003E4149497A007F0808087F0000F4
:10016000417F4100002040413F01007F08142241AF
:10017000007F40404040007F020C027F007F040867
:10018000107F003E4141413E007F09090906003EC3
:100190004151215E007F09192946004649494931EC
:1001A0000001017F0101003F4040403F001F20400F
:1001B000201F003F4038403F0063140814630007CD
:1001C0000870080700615149454300007F41410024
:1001D00000552A552A55000041417F0000040201C4
:1001E00002040040404040400000010204000020A2
:1001F00054545478007F48444438003844444420E0
:1002000000384444487F00385454541800087E098C
:1002100001020018A4A4A47C007F08040478000054
:10022000447D4000004080847D00007F1028440011
:100230000000417F4000007C04180478007C080422
:10024000047800384444443800FC2424241800185E
:10025000242418FC007C080404080048545454204A
:1002600000043F444020003C4040207C001C2040D3
:10027000201C003C4030403C004428102844001C16
:10028000A0A0A07C004464544C44000008774100C6
:100290000000006300000000417708000008040827
:1002A0000804003A4040207A003D4040403D002193
:1002B00054545479007D1211127D0039444444395C
:1002C000003D4242423D000205020000007E01491D
:1002D0005573007C1010081C000101010101FC5F36
:1002E000DC60E461C462F663D664B065DF66B5675E
:1002F000AF68FFFFAE2000B0C8001040813FA1A64C
:10030000A83FA4D301D5F0D922DA12DB208D144402
:10031000697370612D5365747570000000000800EA
:1003200002010000030407000000000000000000BC
:10033000000000250028002B0000000000240027FA
:10034000002A000404040404040404020202020259
:100350000203030303030301020408102040800189
:10036000020408102001020408102000C60811240D
:100370001FBECFEFD8E0DEBFCDBF23E0A8E5B1E0E0
:1003800001C01D92AB32B207E1F711E0A0E0B1E08D
:10039000EEECF9E102C005900D92A835B107D9F74E
:1003A00011E0C7EBD1E004C02197FE010E94DF0CF1
:1003B000C63BD107C9F70E94A1090C94E50C0C9427
:1003C000000090E0FC01E95AFC4F24918D5B9C4FAA
:1003D000FC018491882399F090E0880F991FFC011B
:1003E000E75CFC4FA591B491FC01E15DFC4F859168
:1003F00094918FB7F894EC91E22BEC938FBF089512
:1004000090E0FC01E55EFC4F2491FC01E95AFC4FB1
:100410003491FC01ED5BFC4FE491EE23C9F0222303
:1004200039F0233001F1A8F4213019F1223029F1FB
:10043000F0E0EE0FFF1FE15DFC4FA591B4918FB787
:10044000F894EC91611126C030953E233C938FBF08
:1004500008952730A9F02830C9F0243049F7809159
:1004600080008F7D03C0809180008F778093800013
:10047000DFCF84B58F7784BDDBCF84B58F7DFBCF95
:100480008091B0008F778093B000D2CF8091B00080
:100490008F7DF9CF3E2BDACF3FB7F8948091C90119
:1004A0009091CA01A091CB01B091CC0126B5A89B37
:1004B00005C02F3F19F00196A11DB11D3FBFBA2FF6
:1004C000A92F982F8827BC01CD01620F711D811DB6
:1004D000911D42E0660F771F881F991F4A95D1F73B
:1004E000089508950895AF92BF92CF92DF92EF9250
:1004F000FF920F931F93CF93DF936C017B018B01CE
:10050000040F151FEB015E01AE18BF08C017D1071D
:1005100059F06991D601ED91FC910190F081E02DA7
:10052000C6010995892B79F7C501DF91CF911F91FC
:100530000F91FF90EF90DF90CF90BF90AF90089514
:10054000FC01538D448D252F30E0842F90E0821BD9
:10055000930B541710F0CF96089501970895FC015E
:10056000918D828D981761F0A28DAE0FBF2FB11DB6
:100570005D968C91928D9F5F9F73928F90E008950E
:100580008FEF9FEF0895FC01918D828D981731F0C8
:10059000828DE80FF11D858D90E008958FEF9FEF1C
:1005A0000895FC01918D228D892F90E0805C9F4FF2
:1005B000821B91098F739927089580E292E00E942F
:1005C000D10221E0892B09F420E0822F089580E0F8
:1005D00090E0892B29F00E94DD0281110C9400002B
:1005E0000895FC01A48DA80FB92FB11DA35ABF4FC8
:1005F0002C91848D90E001968F739927848FA68922
:10060000B7892C93A089B1898C91837080648C9375
:10061000938D848D981306C00288F389E02D808124
:100620008F7D80830895EF92FF920F931F93CF9356
:10063000DF93EC0181E0888F9B8D8C8D98131AC01D
:10064000E889F989808185FF15C09FB7F894EE8904
:10065000FF896083E889F989808183708064808361
:100660009FBF81E090E0DF91CF911F910F91FF90AC
:10067000EF900895F62E0B8D10E00F5F1F4F0F7354
:100680001127E02E8C8D8E110CC00FB607FCFACF0F
:10069000E889F989808185FFF5CFCE010E94F102BA
:1006A000F1CFEB8DEC0FFD2FF11DE35AFF4FF082E0
:1006B0009FB7F8940B8FEA89FB8980818062CFCF46
:1006C000CF93DF93EC01888D8823B9F0AA89BB8989
:1006D000E889F9898C9185FD03C0808186FD0DC074
:1006E0000FB607FCF7CF8C9185FFF2CF808185FF95
:1006F000EDCFCE010E94F102E9CFDF91CF910895B5
:100700008093BB0084E88093BC0080E491E020915A
:10071000BC0027FD08950197D1F780911F028460E6
:1007200080931F02089594EA9093BC0020E431E086
:100730009091BC0097FF0CC08093BB0084E880932D
:10074000BC0080E491E02091BC0027FF0AC008951E
:100750002150310969F780911F02816080931F0247
:100760000895019781F780911F028260F7CF1F9350
:10077000CF93DF93EC01142F4F83688785E090E0DF
:100780009D838C838FEF6623D9F081E0860F0E94D2
:10079000930384E88093BC0080E491E02091BC0046
:1007A00027FF03C08091BB0008C00197B9F7809173
:1007B0001F02806180931F0280E094E99093BC0047
:1007C00090E08095909502C0959587951A95E2F7EF
:1007D00080FD15C080E08E832FB7F8948091CB0206
:1007E0009091CC02A091CD02B091CE022FBF888310
:1007F0009983AA83BB83DF91CF911F91089583E0F2
:10080000EACFEF92FF920F931F93CF93DF93182FAE
:10081000E92E062F88E70E94930380E00E94800360
:10082000F12EC12FDE2D89910E9480038C2F8F190C
:100830008017C8F384E98093BC00DF91CF911F91AA
:100840000F91FF90EF900895CF93DF9300D000D0E9
:100850001F92CDB7DEB7ECE9F1E08083618360558C
:10086000698391E29A8392E0980F9F709B8390E056
:10087000029624E0959587952A95E1F7805F8C8311
:100880008FE78D8365E0CE0101960E9401040F90F1
:100890000F900F900F900F90DF91CF910895982FA8
:1008A000990F890F880F813820F4683010F40C9468
:1008B000240408950F931F93CF93DF93893009F495
:1008C0005BC0C82F8A30A0F5883009F440C0809101
:1008D0009C018A3708F05BC0C03208F458C0C0528F
:1008E000EFEDF2E0E491CE1708F079C088E70E94BE
:1008F000930380E40E948003F6E0CF9FE00111247F
:1009000010E000E0C859DF4FFE01E00FF11F8491B5
:100910000E9480030F5F1F4F06301105A9F784E97D
:100920008093BC0080919C018A5F80939C012FC0C2
:100930008A3091F18D3059F660919D01683038F51B
:1009400080E0DF91CF911F910F910C94240480914E
:100950009C0160919D0181500E944F0480E20E94A1
:100960005A0480919C0160919D018150DF91CF914B
:100970001F910F910C944F0480919C0160919D01F7
:100980008D3010F48C5FF2CF8EE76830D0F2DF91BB
:10099000CF911F910F91089560919D016730B8F735
:1009A0006F5F80919C01E2CF9F5F292F30E0220F83
:1009B000331FA90141525D4FFA0184918F3F39F3F2
:1009C000F901E252FD4FE491E052FF0BEC17FD07F5
:1009D00059F7FA01C491CF3F09F088CFD8CF90E002
:1009E000D0E0E3CF90E080E0089508952091790170
:1009F000260F3327331F21323105ECF42091F30108
:100A0000FC0190E080E0243069F082E00895A0913C
:100A100079012191AC01475A5E4FA40FB52FB11D4A
:100A20002C930196861798F380917901680F609353
:100A3000790180E0089581E008951092F30181E04A
:100A40008093F2011092CD0161E082E10E940002E8
:100A500061E083E10E940002E9EBF0E080818E7F9B
:100A6000808380818D7F808388E48093B80085E4D3
:100A70008093BC000895CF93DF9391E09093580149
:100A80008823B9F0C091B800D091BA008091BC0021
:100A90008A7B8093BC0060E082E10E94000260E0FB
:100AA00083E10E9400020E941D05D093BA00C0930A
:100AB000B800DF91CF9108950895E091A30180914E
:100AC000A201E81730F4F0E0EC55FE4F808190E091
:100AD00008958FEF9FEF08959091A3018091A20157
:100AE0002FEF3FEF981748F4E92FF0E0EC55FE4F59
:100AF000208130E09F5F9093A301C9010895809108
:100B0000A2019091A301891B990B0895CF92DF92C6
:100B1000EF92FF920F931F93CF93DF937C01CB0152
:100B20008A0120911C02222389F0EB016B01C40E83
:100B3000D51ECC15DD0569F06991D701ED91FC91C9
:100B40000190F081E02DC7010995F3CF642F0E9439
:100B5000F604C801DF91CF911F910F91FF90EF90A4
:100B6000DF90CF900895CF93DF931F92CDB7DEB77C
:100B7000698320911C022223F9F02091190220326E
:100B800058F021E030E0FC013383228390E080E0E4
:100B90000F90DF91CF91089580911A02E82FF0E035
:100BA000E750FE4F998190838F5F80931A02809364
:100BB000190281E090E0ECCF61E0CE0101960E9445
:100BC000F604F7CFCF92DF92EF92FF920F931F932D
:100BD000CF93DF93C82F60931D0270931E0281E0B4
:100BE00080931C02C0931B0210921A0210921902E9
:100BF0008DEB92E00E94B305D0911902D13208F03A
:100C000092C00E944C026B017C018091F301811122
:100C100065C082E08093F30181E08093F2018FEF61
:100C20008093F1011092F001D093EF01E9EFF1E030
:100C3000AFECB1E080E0D81385C01092CE01809176
:100C4000CE01CC0FC82BC093CE018091CD01813055
:100C500009F07CC01092CD010E944C026B017C0116
:100C60008091CE018093BB008091F5019091F601B7
:100C7000A091F701B091F801892B8A2B8B2B99F069
:100C80000E944C020091F5011091F6012091F701AC
:100C90003091F8016C197D098E099F090617170715
:100CA00028073907E0F18091BC0083FDD9CF85EC9E
:100CB0008093BC000E944C026B017C018091F30187
:100CC000823009F445C08091F1018F3F61F180913C
:100CD000F101803241F18091F10125C08091F5014F
:100CE0009091F601A091F701B091F801892B8A2B20
:100CF0008B2B09F48ACF0E944C020091F5011091D0
:100D0000F6012091F7013091F8016C197D098E09E7
:100D10009F09061717072807390708F076CF809133
:100D2000F4010E943B0510921A02109219021092CF
:100D30001C02DF91CF911F910F91FF90EF90DF90F8
:100D4000CF90089591919D938F5F75CF85EEB0CF31
:100D50008091F5019091F601A091F701B091F80111
:100D6000892B8A2B8B2B09F4A9CF0E944C0200916E
:100D7000F5011091F6012091F7013091F8016C19FD
:100D80007D098E099F09061717072807390708F0FC
:100D900095CFC5CF90E080E0089585ED8093BC00AD
:100DA0008091F5019091F601A091F701B091F801C1
:100DB0000796A11DB11D23E0B695A7959795879538
:100DC0002A95D1F72091BC0024FD03C01092F301B5
:100DD00008954091F5015091F6016091F7017091ED
:100DE000F801452B462B472B69F30097A105B10568
:100DF00041F02AE22A95F1F700C00197A109B10953
:100E0000E1CF8091F4010C943B051F920F920FB635
:100E10000F9211242F933F938F939F93AF93BF9380
:100E20008091CB029091CC02A091CD02B091CE02E4
:100E30003091C80123E0230F2D3758F50196A11DED
:100E4000B11D2093C8018093CB029093CC02A09354
:100E5000CD02B093CE028091C9019091CA01A091B8
:100E6000CB01B091CC010196A11DB11D8093C901A8
:100E70009093CA01A093CB01B093CC01BF91AF91E5
:100E80009F918F913F912F910F900FBE0F901F90C8
:100E9000189526E8230F0296A11DB11DD2CF1F92EF
:100EA0000F920FB60F9211242F933F934F935F939E
:100EB0006F937F938F939F93AF93BF93EF93FF9322
:100EC00080E292E00E94F102FF91EF91BF91AF9119
:100ED0009F918F917F916F915F914F913F912F9152
:100EE0000F900FBE0F901F9018951F920F920FB684
:100EF0000F9211242F938F939F93EF93FF93E09181
:100F00003002F09131028081E0913602F091370297
:100F100082FD1BC09081809139028F5F8F73209179
:100F20003A02821741F0E0913902F0E0E05EFD4FB5
:100F3000958F80933902FF91EF919F918F912F911F
:100F40000F900FBE0F901F9018958081F4CF1F92C5
:100F50000F920FB60F9211242F933F934F935F93ED
:100F60006F937F938F939F93AF93BF93EF93FF9371
:100F70008091B900887F803609F44AC0F0F5883244
:100F800009F4A7C018F5803109F49BC0B8F4882390
:100F900009F4F9C0883009F494C0FF91EF91BF9132
:100FA000AF919F918F917F916F915F914F913F9101
:100FB0002F910F900FBE0F901F901895883109F454
:100FC00088C0803251F78093F10114C0803409F455
:100FD0009DC040F48033B9F38833F9F68093F10172
:100FE00085ECB0C0803509F485C0883509F496C019
:100FF000883499F60E94CD06D0CF883909F48CC088
:1010000038F5883729F050F4883611F0803729F602
:1010100083E08093F30110929B0157C0883809F454
:101020007BC0803919F0803809F0B7CF80919B01DF
:10103000803208F071C0E0919B0181E08E0F8093B7
:101040009B018091BB00F0E0E558FE4F80833DC0DE
:10105000803B39F0E0F4803A09F479C0883A09F02D
:101060009CCF84E08093F30110927A011092790171
:10107000E091A001F091A101099580917901811180
:101080000FC081E0809379011092590109C0803C22
:1010900009F4A6CF883C09F4A3CF883B09F07DCFA3
:1010A000E0917A0181E08E0F80937A01F0E0E75AB7
:1010B000FE4F80818093BB0090917A0180917901ED
:1010C00029C08091CE018093BB0085EC8093BC0049
:1010D00064CF9091F0018091EF01981758F5E0915D
:1010E000F00181E08E0F8093F001F0E0E153FE4FBC
:1010F0008081E9CFE091F00181E08E0F8093F001D3
:101100008091BB00F0E0E153FE4F80839091F001AD
:101110008091EF019817C8F285E8D8CFE091F001EF
:1011200081E08E0F8093F0018091BB00F0E0E153ED
:10113000FE4F80838091F20181115CCF81E080932A
:10114000CD0184EA8093BC001092F30126CF85EC98
:101150008093BC001092F30180919B01803230F4A7
:10116000E0919B01F0E0E558FE4F108260919B01F9
:1011700070E0E0919E01F0919F018BE791E009956D
:1011800010929B010ACF1092F10134CFCF93DF93DD
:10119000E0E2F2E01382128288EE93E0A0E0B0E099
:1011A00084839583A683B7832CE231E03183208347
:1011B00025EC30E03587248724EC30E0378726871C
:1011C00020EC30E0318B208B21EC30E0338B228B14
:1011D00022EC30E0358B248B26EC30E0378B268BED
:1011E000118E128E138E148EEDEBF2E013821282AA
:1011F00084839583A683B7838EE391E09183808374
:10120000C4E2D3E086E0888380E8898388E08A832B
:101210001B821C821D821E8286E00E94E1012FB784
:10122000F8948091CB029091CC02A091CD02B09124
:10123000CE022FBF8B839C83AD83BE8389E390E076
:101240009093CA028093C90284E090E090930301D6
:10125000809302019093010180930001EFECF2E092
:101260001382128280E591E091838083148215823B
:10127000168217828AE090E0918780871286138613
:101280001486158616861786108A928B818B138A90
:10129000148A158A168A178A108E118E938F828F60
:1012A000148E158E168E178E10A211A212A294A360
:1012B00083A315A216A217A210A611A612A613A602
:1012C00095A784A716A617A610AA11AA12AA13AA50
:1012D00014AA96AB85AB17AA10AE11AE12AE13AE20
:1012E00014AE15AE97AF86AF10920F031092100395
:1012F0001092110310921203109213031092140310
:1013000010921503909317038093160310921803FD
:101310001092190310921A0310921B0310921C03CF
:1013200010921D03109220031092210310922203A9
:101330001092230310921E0310921F03DF91CF918E
:101340000895CF93DF93CDB7DEB7CC59D1090FB64F
:10135000F894DEBF0FBECDBF789484B5826084BDA3
:1013600084B5816084BD85B5826085BD85B58160A9
:1013700085BD80916E00816080936E001092810027
:1013800080918100826080938100809181008160E2
:1013900080938100809180008160809380008091A3
:1013A000B10084608093B1008091B000816080932F
:1013B000B00080917A00846080937A0080917A00F6
:1013C000826080937A0080917A00816080937A00B5
:1013D00080917A00806880937A001092C100E09139
:1013E0003002F091310282E08083E0913002F0918E
:1013F00031021082E0912C02F0912D021082E091D6
:101400002E02F0912F0280E1808310923802E09149
:101410003402F091350286E08083E0913202F0914F
:101420003302808180618083E0913202F091330247
:10143000808188608083E0913202F0913302808164
:1014400080688083E0913202F091330280818F7D49
:1014500080831092A3011092A20110921A0210929E
:1014600019020E941D0581E792E09093A1018093EB
:10147000A00182E792E090939F0180939E016FEF1D
:1014800070E08091C9029091CA020E94E205109218
:10149000C7011092C6011092B90088E48093B80089
:1014A00084E08093BC00E4EFF2E0DE01AF57BF4F71
:1014B000CD014B967D0124912D9331968A179B0780
:1014C000D1F78FEAF701838F6CE1C7010E94010415
:1014D000CE0101965C0180E8F50111928A95E9F749
:1014E00010E004E9612F80E00E94240488E70E9454
:1014F000930380E40E9480036501F60181916F01EE
:101500000E948003EC14FD04C1F70093BC001F5F30
:10151000183041F760E080E00E94240480911B03B2
:10152000882309F44FC01092B90098E49093B80052
:1015300094E09093BC000E9493038FEF0E9480037D
:101540000093BC0050E040E060911B0383ED92E00B
:101550000E94B70341E050E060911B038CED92E0E4
:101560000E94B70342E050E060911B0385EE92E0D9
:101570000E94B70343E050E060911B038EEE92E0BF
:101580000E94B70344E050E060911B0387EF92E0B4
:101590000E94B70345E050E060911B0380E093E0B8
:1015A0000E94B70346E050E060911B0389E093E09E
:1015B0000E94B70347E050E060911B0382E193E093
:1015C0000E94B70360E080E00E9424040FE013E073
:1015D000F80184910F5F1F4F811147C025EE322E15
:1015E00035EC832E45E0E42E50E0A52E50E0B52EDC
:1015F000FF24F39499249A942FB7F8948091CB0206
:101600009091CC02A091CD02B091CE022FBF40911B
:101610002703509128036091290370912A03841BAA
:10162000950BA60BB70B4597A105B10508F460C053
:101630002FB7F8948091CB029091CC02A091CD026B
:10164000B091CE022FBF8093270390932803A093DD
:101650002903B0932A031091250380912603113C9E
:1016600038F081958093260305C00E945A04B0CFBC
:101670001032B8F380912603180F109325030091C0
:101680002403802F0E94E101111105C060E0802F2A
:101690000E9400022DC01F3F11F461E0F8CFE02F3F
:1016A000F0E0E55EFC4FE491E33009F4B0C040F4B3
:1016B000E130D1F0E23009F4A5C017FDEECFE6CF5E
:1016C000E73009F4B0C0E83009F4B5C0E430A9F758
:1016D00080918000806280938000812F90E09093C1
:1016E0008B0080938A0004C084B5806884BD17BDD8
:1016F000E091C601F091C701EE0FFF1FE05EFE4FC3
:10170000608171818091C9029091CA020E94E205B4
:1017100098E1C92E91E0D92E10E000E080910001FF
:1017200090910101081719070CF015C12090C9020A
:101730000E944C022B013C018091F301811183C076
:10174000F092F301F092F2019092F1011092F00107
:101750001092EF01F092CE018091CE01220C282A46
:101760002092CE018091CD01813009F0CAC0109243
:10177000CD010E944C022B013C018091CE0180934F
:10178000BB008091F5019091F601A091F701B09115
:10179000F801892B8A2B8B2BA1F00E944C022091FF
:1017A000F5013091F6014091F7015091F80164196B
:1017B000750986099709261737074807590708F456
:1017C00063C08091BC0083FDD8CF8092BC000E9492
:1017D0004C022B013C018091F301813009F494C04B
:1017E0008091F0018111B2C08091F001AFECB1E0C5
:1017F000E4EAF1E090E0981709F44BC02D912193B1
:101800009F5FF9CF84B5806284BD18BD71CF809190
:101810008000806880938000812F90E09093890001
:101820008093880065CF8091B00080688093B0007D
:101830001093B3005DCF8091B00080628093B000C0
:101840001093B40055CF8091F5019091F601A091CD
:10185000F701B091F801892B8A2B8B2B09F46CCFFF
:101860000E944C022091F5013091F6014091F70160
:101870005091F801641975098609970926173707E9
:101880004807590708F058CF8091F4010E943B05A2
:1018900080E01092A3018093A2018DEB92E00E9460
:1018A0006C05F601419151916F0120911D0230911B
:1018B0001E02822793278417950709F049C02091BB
:1018C000C6013091C701E29EC001E39E900D112434
:1018D0008C5F9E4F080F191FF8018081082E000CA5
:1018E000990B9093C5018093C401A114B10409F42C
:1018F00083CE0E94DD02882309F47ECE0E94000080
:101900007BCE3092BC0063CF8091F5019091F601BF
:10191000A091F701B091F801892B8A2B8B2B09F448
:101920005ACF0E944C022091F5013091F60140916E
:10193000F7015091F801641975098609970926176E
:1019400037074807590708F046CF9ECF81E04ECFB2
:101950000F5F1F4FE3CE0091C4011091C501011527
:10196000110579F01092C5011092C401002309F409
:10197000BCCF62E080E00E942404802F0E945A04C1
:10198000B4CF6FEF70E08091C9029091CA020E94BB
:10199000E2058091C6019091C70101969093C7011D
:1019A0008093C601209102013091030182179307B1
:1019B00009F09BCF1092C7011092C60196CFEE0F8F
:0E19C000FF1F0590F491E02D0994F894FFCFDD
:1019CE0004000400313233410034353642003738DA
:1019DE003943002A302344001000200040008000CC
:1019EE00FE00FD00FB00F700000000001303730271
:1019FE00A0026003D102AF02C30200000000B305D3
:101A0E008605CA065C057F056C055D0500000000B5
:081A1E00F2047302CA06F5048C
:00000001FF
