:100000000C945D000C9485000C9485000C94850084
:100010000C9485000C9485000C9485000C9485004C
:100020000C9485000C9485000C94460B0C94B70935
:100030000C9485000C9485000C9485000C9485002C
:100040000C944E080C9485000C9485000C9485004B
:100050000C9485000C9485000C9485000C9485000C
:100060000C9498080C948500000000080002010020
:100070000003040700000000000000000000000072
:10008000250028002B0000000000240027002A0083
:10009000040404040404040402020202020203032E
:1000A0000303030301020408102040800102040836
:1000B00010200102040810207C0B11241FBECFEF7A
:1000C000D8E0DEBFCDBF11E0A0E0B1E0E4ECF0E2AB
:1000D00002C005900D92A239B107D9F724E0A2E938
:1000E000B1E001C01D92A83BB207E1F710E0CDE5F9
:1000F000D0E004C02197FE010E943F10CC35D1070B
:10010000C9F70E94D30B0C9460100C94000090E08F
:10011000FC01EC55FF4F249180579F4FFC018491C7
:10012000882399F090E0880F991FFC01EA57FF4F50
:10013000A591B491FC01E458FF4F859194918FB73C
:10014000F894EC91E22BEC938FBF0895CF93DF935B
:10015000FC0129E18EE241E050E033E071E0908162
:1001600090769036D1F491819093A503A091A50348
:10017000A1501092A4039FEF6091A4036A1790F41A
:10018000C091A403CE0FDF2FD11D68819627609107
:10019000A4036F5F6093A403EFCF90819295967054
:1001A0009E5FE2CFAE0FBF2FB11D9C93F89490914C
:1001B000A303913059F49091A203981738F010924C
:1001C000A30390916F009D7F90936F00789490911E
:1001D000A303913039F49091A203943108F4BFCF76
:1001E00070E0BDCF9091A30391110EC0F89490914F
:1001F0006F009F7D90936F00B59B09C090916F0039
:10020000906290936F0078947111A9CF51C0A09122
:10021000A003B091A1039C9160919F03EA0102C0E9
:10022000CC0FDD1F6A95E2F79C2B9C9360918400B4
:10023000709185006A5A7C4F70939E0360939D0372
:1002400060919D0370919E03709389006093880074
:100250007894F0939C03E0939B031092A403109274
:100260009A039081909399033093A3031092A20371
:10027000B19A90916F00926090936F009091A30358
:100280009330E1F390919A03992381F0E0919703E1
:10029000F0919803E757FF4F8081918101969183F8
:1002A000808383E090E0DF91CF9108959091A30344
:1002B0008B3108F08150215009F050CF80913104EA
:1002C000909132040196909332048093310486E039
:1002D00090E0E9CF90E0FC01E859FF4F2491FC0148
:1002E000EC55FF4F3491FC01E057FF4FE491EE23B2
:1002F000C9F0222339F0233001F1A8F4213019F19B
:10030000223029F1F0E0EE0FFF1FE458FF4FA591D6
:10031000B4918FB7F894EC91611126C030953E23CB
:100320003C938FBF08952730A9F02830C9F02430BE
:1003300049F7809180008F7D03C0809180008F7786
:1003400080938000DFCF84B58F7784BDDBCF84B509
:100350008F7DFBCF8091B0008F778093B000D2CF9C
:100360008091B0008F7DF9CF3E2BDACF3FB7F89464
:100370008091930390919403A0919503B09196037B
:1003800026B5A89B05C02F3F19F00196A11DB11DF0
:100390003FBFBA2FA92F982F8827BC01CD01620F2C
:1003A000711D811D911D42E0660F771F881F991FE7
:1003B0004A95D1F7089508950895AF92BF92CF92CC
:1003C000DF92EF92FF920F931F93CF93DF936C0115
:1003D0007B018B01040F151FEB015E01AE18BF08F6
:1003E000C017D10759F06991D601ED91FC910190A8
:1003F000F081E02DC6010995892B79F7C501DF91C0
:10040000CF911F910F91FF90EF90DF90CF90BF9011
:10041000AF900895089520914302260F3327331F8C
:1004200021323105ECF420915D04FC0190E080E084
:10043000243069F082E00895A09143022191AC013B
:100440004D5D5D4FA40FB52FB11D2C9301968617FE
:1004500098F380914302680F6093430280E008950F
:1004600081E0089510925D0481E080935C04109215
:10047000370461E082E10E946A0161E083E10E9449
:100480006A01E9EBF0E080818E7F808380818D7F3F
:10049000808388E48093B80085E48093BC0008954D
:1004A000CF93DF9391E0909322028823B9F0C0911B
:1004B000B800D091BA008091BC008A7B8093BC00C8
:1004C00060E082E10E946A0160E083E10E946A01CB
:1004D0000E943202D093BA00C093B800DF91CF914E
:1004E00008958F929F92AF92BF92CF92DF92EF9238
:1004F000FF920F931F93CF93DF93D0918604D13255
:1005000008F0D7C0182FC09185040E94B6016B0176
:100510007C0180915D0481116BC082E080935D0459
:1005200010935C048FEF80935B0410925A04D09375
:100530005904A5E6B4E0E9E3F4E080E0D81391C003
:100540001092380480913804CC0FC82BC093380423
:1005500080913704813009F088C0109237040E94DE
:10056000B6016B017C01809138048093BB008091BF
:100570005F0490916004A0916104B0916204892BA2
:100580008A2B8B2BA1F00E94B60100915F04109181
:10059000600420916104309162046C197D098E0918
:1005A0009F09061717072807390708F442C08091EA
:1005B000BC0083FDD8CF85EC8093BC000E94B601BF
:1005C0006B017C0180915D04823009F450C0809100
:1005D0005B048F3F09F46FC080915B04803209F4A3
:1005E0006CC080915B04803309F469C084E026C04C
:1005F00080915F0490916004A0916104B0916204C5
:10060000892B8A2B8B2B09F484CF0E94B601809012
:100610005F0490906004A0906104B09062046C1933
:100620007D098E099F0986169706A806B90608F067
:1006300070CF80915E040E94500285E010926404A5
:100640001092860410926304DF91CF911F910F9155
:10065000FF90EF90DF90CF90BF90AF909F908F90E2
:1006600008959D9191938F5F69CF85EEA5CF80917D
:100670005F0490916004A0916104B0916204892BA1
:100680008A2B8B2B09F49ECF0E94B60100915F0448
:100690001091600420916104309162046C197D090D
:1006A0008E099F09061717072807390708F08ACF10
:1006B000C0CF81E0C3CF80E0C1CF82E0BFCF83E075
:1006C000BDCF0895E091690380916803E81730F485
:1006D000F0E0E659FC4F808190E008958FEF9FEFA6
:1006E000089590916903809168032FEF3FEF981769
:1006F00048F4E92FF0E0E659FC4F208130E09F5F9D
:1007000090936903C90108958091680390916903EA
:10071000891B990B0895CF92DF92EF92FF920F936E
:100720001F93CF93DF937C01CB018A012091630457
:10073000222389F0EB016B01C40ED51ECC15DD051B
:1007400069F06991D701ED91FC910190F081E02D64
:10075000C7010995F3CF642F0E940B02C801DF91F6
:10076000CF911F910F91FF90EF90DF90CF90089560
:10077000CF93DF931F92CDB7DEB7698320916304D7
:100780002223F9F020918604203258F021E030E055
:10079000FC013383228390E080E00F90DF91CF91C2
:1007A000089580916404E82FF0E0EB59FB4F9981A4
:1007B00090838F5F809364048093860481E090E04F
:1007C000ECCF61E0CE0101960E940B02F7CF60935F
:1007D00035047093360491E090936304809385040C
:1007E000109264041092860487E894E00E94B80393
:1007F00081E00C94710290E080E008959C01DC019E
:10080000A058BF4FEC9191E09E0F9C93E20FF32F05
:10081000F11D608397FD1C92089580918F03909144
:100820009003EAE6F2E09C012F773327238B880FB1
:10083000892F881F990B9195878B81E0848B089570
:10084000CF93DF93EC0160E08E810E946A0161E04A
:100850008E810E946A0160E08E810E946A018BE8AD
:1008600091E00197F1F7DF91CF910895CF92DF9258
:10087000EF92FF920F931F93CF93DF936C017C0154
:1008800087E0E80EF11CD0E0C0E0062F10E0B801D0
:100890000C2E02C0759567950A94E2F76170F70116
:1008A00081917F010E946A012196C430D10579F7B8
:1008B000C601DF91CF911F910F91FF90EF90DF90D4
:1008C000CF900C942004CF92DF92EF92FF920F937F
:1008D0001F93CF93DF93EC01F62E642F8C810E943F
:1008E0006A018D818F3F19F060E00E946A010F2D2F
:1008F00010E08F8584FF25C06E0187E0C80ED11CF3
:10090000F12CE12CB8010E2C02C0759567950A9464
:10091000E2F76170F60181916F010E946A01FFEFB9
:10092000EF1AFF0A88E0E816F10461F7CE01DF91C3
:10093000CF911F910F91FF90EF90DF90CF900C948B
:100940002004B80184E0759567958A95E1F7CE019A
:100950000E9436046F2DCE01DF91CF911F910F9130
:10096000FF90EF90DF90CF900C94360440E0682F1A
:1009700089E994E00C946304CF93DF93823029F4E7
:100980009091A80498609093A8048093AC0410926E
:10099000AD0480E48093AE0480E18093AF0480E5F1
:1009A0008093B00480919D040E94870080919E04F2
:1009B0008F3F11F00E94870080919F040E94870062
:1009C000C9E9D4E09E01295934408091A80484FDEE
:1009D0000AC084E090E02196281739073CF48E8104
:1009E0000E948700EFCF88E090E0F5CF8BE39DE099
:1009F0000197F1F760E080919D040E946A0160E038
:100A000080919F040E946A0180919E048F3F19F09B
:100A100060E00E946A018091A80484FD39C063E00F
:100A200089E994E00E943604CBE4D6E4CE01019734
:100A3000F1F763E089E994E00E9436042197F1F729
:100A400063E089E994E00E94360483E592E001972F
:100A5000F1F762E089E994E00E9436048091A804ED
:100A600080620E94B60484E08093A9048CE00E9416
:100A7000B60481E00E94B6048BE39FE10197F1F791
:100A800082E08093AA0486E0DF91CF910C94B604B3
:100A900080620E94B6048BE496E40197F1F780919E
:100AA000A80480620E94B60483E592E00197F1F702
:100AB0008091A80480620E94B604D0CF9091AC04CB
:100AC000691710F06FEF690FE62FF0E0E756FB4F64
:100AD0009489890F80680C94B60441E00E946304F5
:100AE00081E090E0089541E0682F89E994E00E9458
:100AF000630481E090E008951F93CF93DF93D82F94
:100B0000162FC42F0E945E05C15020F080E20E9483
:100B10007305FACF612F8D2FDF91CF911F910C9428
:100B20005E0585ED8093BC0080915F049091600428
:100B3000A0916104B09162040796A11DB11D23E04C
:100B4000B695A795979587952A95D1F72091BC00E2
:100B500024FD03C010925D04089540915F045091FC
:100B600060046091610470916204452B462B472B11
:100B700069F30097A105B10541F02AE22A95F1F742
:100B800000C00197A109B109E1CF80915E040C94E6
:100B900050022F923F924F925F926F927F928F926C
:100BA0009F92AF92BF92CF92DF92EF92FF920F93FC
:100BB0001F93CF93DF9300D000D0CDB7DEB79C83D7
:100BC0008B837C0141E8E40EF11C6C0150E8C50EFA
:100BD000D11C8C010E571F4F8D579F4F2C018B81BD
:100BE0009C818C579F4F4C0122242A94AB80BC805F
:100BF00097E8A90EB11CEB81FC81EB57FF4FFA83FC
:100C0000E983F7018081F6019081891709F4BAC060
:100C1000EB81FC81E80FF11D308037FE6DC0F801DB
:100C20009081891739F0F501208131812F5F3F4F85
:100C300031832083F8018083F2012082832D807626
:100C4000F401803609F441C0832D829586708E5F51
:100C50008083F8012081F4018081820F9927991FF8
:100C6000813891059CF180E8682E621AF894F601AB
:100C70004081F8018081841708F044C0F42FF81BEC
:100C80008F2FF60180837894F80160814617E8F58C
:100C9000712C50E06B817C81CB01860D971D0E94E9
:100CA0004510F80160814B815C81460F511DBA01EE
:100CB000A3018B819C810E944510F7018081F8017E
:100CC0009081891BF7018083F8011082F7019081E0
:100CD0009F5F9083F8018081392F381B97FF02C0F6
:100CE000F7011082F2012081F40190819317A9F09D
:100CF0003226F201308285CFF40180818111E6CF66
:100D00003082A7CF862D840FBCCF461B50E08B814D
:100D10009C81860F911DBC01CCCF32122AC04B8121
:100D20005C81480F511DCA01E981FA8140815181DE
:100D30004F5F5F4F51834083F7013081F80130836B
:100D40000097B1F20F900F900F900F90DF91CF911D
:100D50001F910F91FF90EF90DF90CF90BF90AF90D9
:100D60009F908F907F906F905F904F903F902F90CB
:100D70000895F5018081918101969183808390E0AF
:100D800080E0DACF90E080E0DDCF1F93CF93DF9358
:100D9000182FD62FCBE4C627C82764EB82E991E051
:100DA0000E94FE03612F82E991E00E94FE036D2FF5
:100DB00082E991E00E94FE036C2F82E991E00E949B
:100DC000FE036FEF82E991E00E94FE0382E991E069
:100DD0000E94C9059093670380936603009731F0E2
:100DE0000E94A600DF91CF911F91089580E0FACF75
:100DF0009F92AF92BF92CF92DF92EF92FF920F93AA
:100E00001F93CF93DF9399E0899FF0011124E65956
:100E1000FD4F01811581212F30E0220F232F221F4A
:100E2000330B200F311D232B11F08C3178F060E053
:100E30008AE3DF91CF911F910F91FF90EF90DF90A8
:100E4000CF90BF90AF909F900C94C506D82F908004
:100E5000A280B380C480D680E780F084C3E1C82735
:100E6000C027C127C925CA25CB25CC25CD25CE2510
:100E7000CF2567EE82E991E00E94FE036EE082E9F1
:100E800091E00E94FE036D2F82E991E00E94FE0333
:100E9000692D82E991E00E94FE03602F82E991E0D2
:100EA0000E94FE036A2D82E991E00E94FE036B2DF1
:100EB00082E991E00E94FE0365E082E991E00E94F0
:100EC000FE036C2D82E991E00E94FE03612F82E90E
:100ED00091E00E94FE036D2D82E991E00E94FE03E5
:100EE0006E2D82E991E00E94FE036F2D82E991E070
:100EF0000E94FE036C2F6F7782E991E00E94FE034F
:100F00006FEF82E991E00E94FE0382E991E00E9486
:100F1000C9059093670380936603009769F0DF919A
:100F2000CF911F910F91FF90EF90DF90CF90BF90E6
:100F3000AF909F900C94A600DF91CF911F910F91DD
:100F4000FF90EF90DF90CF90BF90AF909F9008956B
:100F5000CF92DF92EF92FF920F931F93CF93DF9385
:100F6000CDB7DEB7A1970FB6F894DEBF0FBECDBFE9
:100F70008C01083E83E0180778F480E30E94730533
:100F80000436110548F480E30E9473050A30110508
:100F900018F480E30E947305980150E040E019A224
:100FA0008E010F5D1F4F8AE0C82ED12CE12CF12C51
:100FB000CA01B901A70196010E941D10605DF801E8
:100FC00062938F01211531054105510589F730974D
:100FD00061F001900020E9F73197AF01401B510B00
:100FE000B80189E994E00E94DD01A1960FB6F8945A
:100FF000DEBF0FBECDBFDF91CF911F910F91FF904C
:10100000EF90DF90CF900895009769F0FC01019078
:101010000020E9F73197AF01481B590BBC0189E962
:1010200094E00C94DD010895CF93809100018F5FCF
:10103000863041F180930001C0917C02C87FE0912D
:10104000000186E0E89FF0011124EE5FFE4F8081F1
:10105000C82BC0937C0261E08CE00E945E05E2E058
:10106000F1E030E020E0C7708081C8130EC046E098
:10107000429FC001439F900D11248D5F9E4FCF91E1
:101080000C94040810920001D7CF2F5F3F4F369683
:101090002630310549F788E691E0F1CF1F920F9293
:1010A0000FB60F9211242F933F938F939F93AF937B
:1010B000BF938091950490919604A0919704B0916C
:1010C00098043091920323E0230F2D3758F50196B1
:1010D000A11DB11D209392038093950490939604D3
:1010E000A0939704B09398048091930390919403F4
:1010F000A0919503B09196030196A11DB11D809317
:10110000930390939403A0939503B0939603BF9198
:10111000AF919F918F913F912F910F900FBE0F90A4
:101120001F90189526E8230F0296A11DB11DD2CF5E
:101130001F920F920FB60F9211242F933F934F934C
:101140005F936F937F938F939F93AF93BF93EF932F
:10115000FF938091B900887F803609F44AC0F0F58A
:10116000883209F4A7C018F5803109F49BC0B8F49F
:10117000882309F4F9C0883009F494C0FF91EF91F5
:10118000BF91AF919F918F917F916F915F914F919F
:101190003F912F910F900FBE0F901F90189588319F
:1011A00009F488C0803251F780935B0414C0803406
:1011B00009F49DC040F48033B9F38833F9F6809385
:1011C0005B0485ECB0C0803509F485C0883509F42E
:1011D00096C0883499F60E949105D0CF883909F4D9
:1011E0008CC038F5883729F050F4883611F08037F4
:1011F00029F683E080935D041092650257C0883819
:1012000009F47BC0803919F0803809F0B7CF80919C
:101210006502803208F071C0E091650281E08E0FB6
:10122000809365028091BB00F0E0EB5BFD4F808313
:101230003DC0803B39F0E0F4803A09F479C0883A47
:1012400009F09CCF84E080935D04109244021092D8
:101250004302E0916802F09169020995809143028E
:1012600081110FC081E0809343021092230209C0D4
:10127000803C09F4A6CF883C09F4A3CF883B09F051
:101280007DCFE091440281E08E0F80934402F0E034
:10129000ED5DFD4F80818093BB0090914402809171
:1012A000430229C0809138048093BB0085EC809371
:1012B000BC0064CF90915A0480915904981758F556
:1012C000E0915A0481E08E0F80935A04F0E0E75CCD
:1012D000FB4F8081E9CFE0915A0481E08E0F80932B
:1012E0005A048091BB00F0E0E75CFB4F8083909153
:1012F0005A04809159049817C8F285E8D8CFE09134
:101300005A0481E08E0F80935A048091BB00F0E074
:10131000E75CFB4F808380915C0481115CCF81E0AE
:101320008093370484EA8093BC0010925D0426CF3A
:1013300085EC8093BC0010925D0480916502803240
:1013400030F4E0916502F0E0EB5BFD4F10826091BC
:10135000650270E0E0916602F091670285E492E038
:101360000995109265020ACF10925B0434CF1F9248
:101370000F920FB60F921124CF92DF92EF92FF924D
:101380000F931F932F933F934F935F936F937F938D
:101390008F939F93AF93BF93CF93EF93FF93B19AA4
:1013A00080919D0390919E0380549C4F90939E0347
:1013B00080939D0380919D0390919E03909389005B
:1013C0008093880080912102882371F0109221027D
:1013D000189B26C081E08093A303B59A80916F008B
:1013E000806280936F001CC08091A2038F5F809306
:1013F000A2038091A303843009F043C08091A2032B
:10140000893030F58091990390E095958795809388
:101410009903189B05C08091990380688093990374
:10142000FF91EF91CF91BF91AF919F918F917F915C
:101430006F915F914F913F912F911F910F91FF906D
:10144000EF90DF90CF900F900FBE0F901F901895E8
:10145000B59A80916F00806280936F0080919703AE
:1014600090919803189929C0FC01E957FF4F80819A
:1014700091810196918380831092A20381E08093F1
:10148000A3038091A3038330E9F5E091A003F091D9
:10149000A103808120919F0333B190E0022E02C00E
:1014A000959587950A94E2F7832780FD11C01092E5
:1014B000A20382E08093A30325C0609199030E9458
:1014C000FE0380E090E0892BB9F20E940000D4CFA7
:1014D0008091A203893008F043C03091990381E0E4
:1014E00090E001C0880F2A95EAF7908130FF36C05E
:1014F0008095892380838091990390E095958795C5
:10150000809399038091A303823099F48091A20380
:10151000811196C0E091A003F091A1038081909188
:101520009F0321E030E001C0220F9A95EAF7822B59
:1015300080838091A303813009F072CF8091A20350
:10154000882309F44ACF8091A203883308F468CF36
:101550001092A30380916F008D7F43CF892BCACF58
:101560008091A203893059F4308181E090E001C07C
:10157000880F2A95EAF7809583238083C3CF8091D3
:10158000A4038F5F8093A4039091A503891750F55E
:101590001092A20380919B0390919C03A091A403BD
:1015A000A80FB92FB11D8C9180939903808141E0E0
:1015B00050E001C0440F2A95EAF7842B8083809184
:1015C0008400909185008A5A9C4F90939E0380934B
:1015D0009D0380919D0390919E0390938900809339
:1015E000880090CF81E080939A03E0909B03F09075
:1015F0009C03C0909703D0909803F7018081807678
:10160000803679F4C18110E000E00C1778F4F7011E
:10161000E00FF11F6081C6010E94FE030F5F1F4FA4
:10162000F4CFC081C295C670CE5FEDCF80E090E070
:10163000892B11F00E9400001092A20381E03ACFA2
:101640008091A2038F3008F474CFE091A003F09151
:10165000A103208130919F0381E090E001C0880FB9
:101660003A95EAF78095822380831092A20381E065
:101670008093A303E0919703F0919803E357FF4F02
:101680008081918101969183808353CF1F920F9225
:101690000FB60F9211248F939F93EF93FF93B59AF8
:1016A000EFE6F0E080818F7D8083809186009091CD
:1016B000870080529E4F90939E0380939D0380915C
:1016C0009D0390919E039093890080938800B19A26
:1016D00080818260808384E08093A3031092A203C0
:1016E00081E080932102FF91EF919F918F910F9064
:1016F0000FBE0F901F901895CF93DF93E7E8F4E0AB
:101700001382128288EE93E0A0E0B0E08483958398
:10171000A683B7838EE491E091838083C1EBD4E00C
:1017200086E0888380E8898388E08A831B821C8224
:101730001D821E8286E00E9487002FB7F894809158
:10174000950490919604A0919704B09198042FBFAE
:101750008B839C83AD83BE838091010190E0909345
:10176000940480939304E9E9F4E01382128280E602
:1017700091E0918380838CE084838FEF85838BE07D
:10178000868389E0878385E0808784E0818783E0A2
:1017900082871386148615861686178681E0DF9168
:1017A000CF910C94BC04789484B5826084BD84B5D8
:1017B000816084BD85B5826085BD85B5816085BD4C
:1017C00080916E00816080936E0010928100809104
:1017D000810082608093810080918100816080938C
:1017E0008100809180008160809380008091B100B1
:1017F00084608093B1008091B00081608093B000DC
:1018000080917A00846080937A0080917A0082606F
:1018100080937A0080917A00816080937A00809131
:101820007A00806880937A001092C100EAE6F2E0C4
:101830001082399623E0E636F207D1F783E38093EE
:101840007C02E6EAF3E08FE8DF011D928A95E9F772
:1018500087E00E948700EBEAF0E02491E7E9F0E0FE
:10186000E491F0E0EE0FFF1FE458FF4F45915491D3
:1018700080E091E031E0291741F08F5F932F082E2F
:1018800001C0990F0A94EAF7F6CF5093A103409351
:10189000A00380939F0386EA93E09093980380933C
:1018A00097032098E091A003F091A103208130914B
:1018B0009F0381E090E001C0880F3A95EAF7809598
:1018C0008223808310928000C1E0C0938100109237
:1018D000A303B59A80916F00806280936F0080911E
:1018E0008100887F8160809381001092690310924B
:1018F000680310926404109286040E9432028BEDF9
:1019000091E090936902809368028CED91E090934E
:1019100067028093660289E380930101C0936304A8
:101920008093850481E00E947102811107C080913B
:101930008E03882309F4ABC081E011C081E280935B
:101940000101C09363048093850410926404109293
:10195000860481E00E947102882349F380E080932D
:101960008E0382E00E94BC048DE691E00E94040890
:1019700061E080E00E945E0587E791E00E94040834
:1019800085EF0E9473058DE791E00E9404080E9494
:10199000B6014B015C0170EDC72E77E0D72EE12C2C
:1019A000F12C0E94B601681979098A099B09683EE1
:1019B000734081059105A8F3B1E0CB1AD108E10885
:1019C000F108E8EE8E0EE3E09E1EA11CB11CC114CE
:1019D000D104E104F10429F781E00E94B6048BE30D
:1019E0009FE10197F1F761E080E00E945E0585E8E4
:1019F00091E00E94040881E0809300010E94140895
:101A000045EE842E55EC952E60E0C62E60E0D62E75
:101A1000BB24BA9426E0322E35E0A32E2FB7F894DB
:101A20008091950490919604A0919704B0919804A8
:101A30002FBF4091B4045091B5046091B6047091E9
:101A4000B704841B950BA60BB70B4597A105B105F1
:101A500008F46DC02FB7F894809195049091960486
:101A6000A0919704B09198042FBF8093B4049093F1
:101A7000B504A093B604B093B704D091B20480919A
:101A8000B304D13CA0F081958093B30412C080913F
:101A9000010190E090939404809393046FEF70E0C1
:101AA0000E94E70310928D0310928C0345CFD03231
:101AB00050F38091B304D80FD093B2041091B104C5
:101AC000812F0E948700D11105C060E0812F0E9404
:101AD0006A012DC0DF3F11F461E0F8CFE12FF0E0A3
:101AE000E859FF4FE491E33009F450C040F4E1308D
:101AF000D1F0E23009F445C0D7FDEECFE6CFE730B4
:101B000009F450C0E83009F455C0E430A9F78091D9
:101B100080008062809380008D2F90E090938B00F6
:101B200080938A0004C084B5806884BDD7BD86EAEE
:101B300093E00E94C905FC019093670380936603BC
:101B4000892B59F0D181DC3140F480818B3B09F441
:101B5000C8C0C0F58A3B09F4C6C080918E038111CC
:101B6000F4C020E090E080E020FD44C226FD25C2C4
:101B700027FD43C2C114D10409F450CF0E940000D4
:101B800049CF84B5806284BDD8BDD1CF809180001B
:101B90008068809380008D2F90E0909389008093DF
:101BA0008800C5CF8091B00080688093B000D0934A
:101BB000B300BDCF8091B00080628093B000D0931D
:101BC000B400B5CF8F3B09F45EC08F3E31F6028181
:101BD0000C3118F66381B481A58156814085318529
:101BE00022859385848510E0E9E0E09FE001E19F94
:101BF000D00D1124C659DD4F6883B983AA835B8356
:101C00004C833D832E839F8388876FE78FE60E94F6
:101C1000C50640E160E080E00E947C0560E080E075
:101C20000E945E058BE891E00E9404082D81898165
:101C300090E0222339F0F0E82F9F90011124820FC9
:101C4000932F911D0E94A80760E08CE00E945E0522
:101C500029E0209FF001219FF00D1124E659FD4F4E
:101C60008081E2E0F1E030E020E08770908189132C
:101C700062C0329EC001339E900D11248D5F9E4F35
:101C80000E9404086ACF4281EAE6F2E081E0928590
:101C9000491303C09685D917D1F08F5F39968C31DF
:101CA000B1F7EAE6F2E081E090E0282F3185307369
:101CB00089F439E0389FF001399FF00D1124E6597D
:101CC000FD4F4183D583822F222309F446CF0E9402
:101CD000F80643CF019639968C31910531F720E013
:101CE000F2CF8D2FF4CF8281D81322C0DD23F1F003
:101CF00079E07D9FF0011124E659FD4F80818063DA
:101D000080838D2F0E94F806E0916603F0916703AF
:101D10008281811122CF89E08D9FF0011124E65943
:101D2000FD4F80818F7E8062808317CF82E0CFCF8E
:101D3000D111EACF12CF2F5F3F4F369626303105B3
:101D400009F094CF88E691E09BCFE0918C03F0916D
:101D50008D03EE0FFF1FEE5BFE4F6081718180915E
:101D60009304909194040E94E7039AE3E92E91E092
:101D7000F92E10E000E0D1E0209093040E94B6011B
:101D80002B013C0180915D04811161C0D0935D0401
:101D9000D0935C04B0925B0410925A0410925904E0
:101DA000D093380480913804220C282A20923804D9
:101DB00080913704813009F09CC0109237040E9452
:101DC000B6012B013C01809138048093BB008091C7
:101DD0005F0490916004A0916104B0916204892B2A
:101DE0008A2B8B2BA1F00E94B60120915F043091C9
:101DF0006004409161045091620464197509860978
:101E00009709261737074807590708F441C08091FA
:101E1000BC0083FDD8CF9092BC000E94B6012B017C
:101E20003C0180915D04813009F466C080915A04C0
:101E3000811184C080915A04E9E3F4E0AAE6B3E09A
:101E400090E0981751F121912D939F5FFACF8091E7
:101E50005F0490916004A0916104B0916204892BA9
:101E60008A2B8B2B09F48ECF0E94B60120915F0440
:101E700030916004409161045091620464197509C5
:101E800086099709261737074807590708F07ACFB8
:101E900080915E040E94500280E01092690380935A
:101EA000680387E894E00E947103D7014D915D912A
:101EB0007D012091350430913604822793278417C1
:101EC0009507F1F520918C0330918D03A29EC001FE
:101ED000A39E900D11248A5D9E4F080F191FF801D3
:101EE0008081082E000C990B90938B0380938A03BA
:101EF00038CE8092BC0091CF80915F0490916004B5
:101F0000A0916104B0916204892B8A2B8B2B09F478
:101F100088CF0E94B60120915F0430916004409107
:101F2000610450916204641975098609970926179E
:101F300037074807590708F074CFAACF81E07CCF54
:101F40000F5F1F4F0430110509F016CF80918A03EF
:101F500090918B03009799F010928B0310928A0353
:101F6000882309F4FECD833221F18A3221F1805396
:101F700090E020E88A3008F4F7CD20E8F3CD6FEF49
:101F800070E080919304909194040E94E703809103
:101F90008C0390918D0301968430910529F09093E4
:101FA0008D0380938C03DDCD10928D0310928C03F2
:101FB000D8CD21E0D7CD20E4D5CD10929103109259
:101FC000900310928F030E940D0447E061E085E0CA
:101FD0000E947C05CFCD2430D8F460918F0370919E
:101FE00090033AE0369FA001379F500D1124840FD3
:101FF000951F0AC00E941408BDCD823409F4BACDE1
:10200000209191032111E7CF9093900380938F0348
:102010002F5F2093910344E061E085E00E947C05FE
:1020200061E085E00E945E0580918F0390919003AE
:102030000E94A8070E940D049DCDA1E21A2EAA1BA2
:10204000BB1BFD010DC0AA1FBB1FEE1FFF1FA21768
:10205000B307E407F50720F0A21BB30BE40BF50B65
:10206000661F771F881F991F1A9469F760957095EE
:10207000809590959B01AC01BD01CF010895EE0FB5
:10208000FF1F0590F491E02D09946817790768F413
:10209000FB01DC01E40FF51FA40FB51F02C0029085
:1020A0000E9241505040D8F708950C945710FB0100
:1020B000DC0102C001900D9241505040D8F70895C4
:0420C000F894FFCFC2
:1020C40001390731323841000432384120000331EC
:1020D4003238200000323820200002313420200021
:1020E400014D2A2A20003132334100343536420072
:1020F40037383943002A30234400100020004000C0
:102104008000FE00FD00FB00F70000000000B803A3
:102114008B03FB036103840371036203000000006B
:102124006D05DD01FB030A023F20202000465241D9
:102134004E5A20322E31002863294B72006D656C93
:10214400736F6674004E65753A2000416C743A20D2
:02215400000089
:00000001FF
