:100000000C94D4010C94FC010C94FC010C94FC01A4
:100010000C94FC010C94FC010C94FC010C94FC016C
:100020000C94FC010C94FC010C94550D0C94C60B23
:100030000C94FC010C94FC010C94FC010C94FC014C
:100040000C945D0A0C94FC010C94FC010C94FC01D2
:100050000C94FC010C94FC010C94FC010C94FC012C
:100060000C94A70A0C94FC010000000000000000A2
:10007000002F000000000700070000147F147F1409
:1000800000242A7F2A12006264081323003649558F
:10009000225000000503000000001C224100000067
:1000A00041221C000014083E08140008083E0808FD
:1000B000000000A060000008080808080000606058
:1000C0000000002010080402003E5149453E000097
:1000D000427F4000004261514946002141454B3179
:1000E000001814127F10002745454539003C4A4945
:1000F00049300001710905030036494949360006B7
:100100004949291E0000363600000000563600001E
:100110000008142241000014141414140000412299
:10012000140800020151090600324959513E007C71
:100130001211127C007F49494936003E414141225B
:10014000007F4141221C007F49494941007F090944
:100150000901003E4149497A007F0808087F0000F4
:10016000417F4100002040413F01007F08142241AF
:10017000007F40404040007F020C027F007F040867
:10018000107F003E4141413E007F09090906003EC3
:100190004151215E007F09192946004649494931EC
:1001A0000001017F0101003F4040403F001F20400F
:1001B000201F003F4038403F0063140814630007CD
:1001C0000870080700615149454300007F41410024
:1001D00000552A552A55000041417F0000040201C4
:1001E00002040040404040400000010204000020A2
:1001F00054545478007F48444438003844444420E0
:1002000000384444487F00385454541800087E098C
:1002100001020018A4A4A47C007F08040478000054
:10022000447D4000004080847D00007F1028440011
:100230000000417F4000007C04180478007C080422
:10024000047800384444443800FC2424241800185E
:10025000242418FC007C080404080048545454204A
:1002600000043F444020003C4040207C001C2040D3
:10027000201C003C4030403C004428102844001C16
:10028000A0A0A07C004464544C44000008774100C6
:100290000000006300000000417708000008040827
:1002A0000804003A4040207A003D4040403D002193
:1002B00054545479007D1211127D0039444444395C
:1002C000003D4242423D000205020000007E01491D
:1002D0005573007C1010081C000101010101FC5F36
:1002E000DC60E461C462F663D664B065DF66B5675E
:1002F000AF68FFFFAE2000B0C8001040813FA1A64C
:10030000A83FA4D301D5F0D922DA12DB208D143214
:10031000303234006D656C736F6674200028632979
:100320004B72002028666B61204652414E5A2900CC
:10033000322E3300444953504120004E65753A2017
:10034000005468726F74746C6549443A20307800C8
:10035000416C743A20000000000800020100000314
:10036000040700000000000000000000000025005D
:1003700028002B0000000000240027002A000404AD
:10038000040404040404020202020202030303033D
:100390000303010204081020408001020408102019
:1003A0000102040810208B0D11241FBECFEFD8E0EE
:1003B000DEBFCDBF24E0AEE6B1E001C01D92A53D99
:1003C000B207E1F711E0A0E0B1E0EEEAF6E202C028
:1003D00005900D92AE36B107D9F711E0C4EDD1E02A
:1003E00004C02197FE010E943413C33DD107C9F711
:1003F0000E94350E0C9455130C94000090E0FC0103
:10040000EE56FC4F249182589C4FFC018491882326
:1004100099F090E0880F991FFC01EC58FC4FA591D2
:10042000B491FC01E659FC4F859194918FB7F894F3
:10043000EC91E22BEC938FBF0895CF93DF93FC01F7
:1004400029E18EE241E050E033E071E09081907666
:100450009036D1F4918190938503A0918503A150AA
:10046000109284039FEF609184036A1790F4C09107
:100470008403CE0FDF2FD11D6881962760918403FE
:100480006F5F60938403EFCF9081929596709E5F2B
:10049000E2CFAE0FBF2FB11D9C93F89490918303D0
:1004A000913059F490918203981738F01092830399
:1004B00090916F009D7F90936F007894909183034B
:1004C000913039F490918203943108F4BFCF70E0F9
:1004D000BDCF9091830391110EC0F89490916F005D
:1004E0009F7D90936F00B59B09C090916F009062C3
:1004F00090936F0078947111A9CF51C0A09180039F
:10050000B09181039C9160917F03EA0102C0CC0FFE
:10051000DD1F6A95E2F79C2B9C936091840070919B
:1005200085006A5A7C4F70937E0360937D036091CF
:100530007D0370917E0370938900609388007894A6
:10054000F0937C03E0937B031092840310927A0370
:100550009081909379033093830310928203B19A30
:1005600090916F00926090936F009091830393300D
:10057000E1F390917A03992381F0E0917703F09170
:100580007803E757FF4F80819181019691838083A3
:1005900083E090E0DF91CF910895909183038B31B8
:1005A00008F08150215009F050CF809111049091B2
:1005B00012040196909312048093110486E090E057
:1005C000E9CF90E0FC01EA5AFC4F2491FC01EE5681
:1005D000FC4F3491FC01E258FC4FE491EE23C9F04A
:1005E000222339F0233001F1A8F4213019F122300F
:1005F00029F1F0E0EE0FFF1FE659FC4FA591B491F1
:100600008FB7F894EC91611126C030953E233C934E
:100610008FBF08952730A9F02830C9F0243049F75A
:10062000809180008F7D03C0809180008F778093C0
:100630008000DFCF84B58F7784BDDBCF84B58F7D1D
:10064000FBCF8091B0008F778093B000D2CF8091A4
:10065000B0008F7DF9CF3E2BDACF3FB7F894809171
:10066000710390917203A0917303B091740326B546
:10067000A89B05C02F3F19F00196A11DB11D3FBFDA
:10068000BA2FA92F982F8827BC01CD01620F711DA9
:10069000811D911D42E0660F771F881F991F4A95A3
:1006A000D1F7089508950895AF92BF92CF92DF9247
:1006B000EF92FF920F931F93CF93DF936C017B0117
:1006C0008B01040F151FEB015E01AE18BF08C017A8
:1006D000D10759F06991D601ED91FC910190F0811B
:1006E000E02DC6010995892B79F7C501DF91CF91DE
:1006F0001F910F91FF90EF90DF90CF90BF90AF9040
:1007000008958093BB0084E88093BC0080E491E06E
:100710002091BC0027FD08950197D1F780917603C1
:10072000846080937603089594EA9093BC0020E45B
:1007300031E09091BC0097FF0CC08093BB0084E82F
:100740008093BC0080E491E02091BC0027FF0AC0A8
:1007500008952150310969F7809176038160809373
:1007600076030895019781F7809176038260F7CF31
:100770001F93CF93DF93EC01142F4F83688785E09D
:1007800090E09D838C838FEF6623D9F081E0860F04
:100790000E94940384E88093BC0080E491E020915F
:1007A000BC0027FF03C08091BB0008C00197B9F7C8
:1007B0008091760380618093760380E094E9909342
:1007C000BC0090E08095909502C0959587951A950C
:1007D000E2F780FD15C080E08E832FB7F8948091FA
:1007E000750490917604A0917704B09178042FBF9E
:1007F00088839983AA83BB83DF91CF911F9108954A
:1008000083E0EACFEF92FF920F931F93CF93DF9392
:100810007C018B0188E70E94940380E40E9481039D
:10082000E7010E0D1F1DC017D10751F484E9809315
:10083000BC00DF91CF911F910F91FF90EF90089531
:1008400089910E948103EFCFEF92FF920F931F9344
:10085000CF93DF93182FE92E062F88E70E94940389
:1008600080E00E948103F12EC12FDE2D89910E942C
:1008700081038C2F8F198017C8F384E98093BC0003
:10088000DF91CF911F910F91FF90EF900895CF933B
:10089000DF9300D000D01F92CDB7DEB7E2E4F2E0E4
:1008A000808361836055698391E29A8392E0980F17
:1008B0009F709B8390E0029624E0959587952A95FA
:1008C000E1F7805F8C838FE78D8365E0CE01019631
:1008D0000E9424040F900F900F900F900F90DF91C3
:1008E000CF910895813820F4683010F40C944704B7
:1008F00008950F931F93CF93DF93893009F45CC061
:10090000C82F8A30A0F5883009F43EC08091420299
:100910008A3708F082C0C03208F47FC0C052EFEDC1
:10092000F2E0E491CE1708F07DC088E70E949403BE
:1009300080E40E948103F6E0CF9FE001112410E0E3
:1009400000E0C859DF4FFE01E00FF11F84910E94C3
:1009500081030F5F1F4F06301105A9F784E98093CB
:10096000BC00809142028A5F8093420256C08A3066
:1009700081F16091430280E0CD3041F6DF91CF916B
:100980001F910F910C947204809142028150982F14
:10099000990F890F60914302880F0E94720480E2D0
:1009A0000E947904809142028150982F990F890FFB
:1009B00060914302880FE2CF80914202609143022E
:1009C0008D3028F48C5F982F990F890FF3CF8EE725
:1009D000D5CF60914302673000F56F5F909142027E
:1009E000892F880FF2CF9F5F292F30E0220F331F0E
:1009F000A90141525D4FFA0184918F3F71F0F901D5
:100A0000E252FD4FE491E052FF0BEC17FD0759F75E
:100A1000FA01C491CF3F09F088CFDF91CF911F91A8
:100A20000F91089590E0D0E0DFCF1F93CF93DF9335
:100A3000182FEC019C2F911BFE0184912196882395
:100A400019F00E947904F6CF892F90E0DF91CF91C1
:100A50001F9108951F93CF93DF93182FEC019C2FC4
:100A6000911B8991882319F00E947904F8CF892F6E
:100A700090E0DF91CF911F910895CF92DF92EF9296
:100A8000FF920F931F93CF93DF93CDB7DEB7A1975C
:100A90000FB6F894DEBF0FBECDBF6B01BC0190E076
:100AA00080E019A28E010F5D1F4F0D2C000CEE0887
:100AB000FF08A70196010E941213E62FCA01B9018F
:100AC000EA30F4F4E05DD801EE938D01232B242B62
:100AD000252B21F0AC17BD0761F78E01C8010E94DC
:100AE0002A05A1960FB6F894DEBF0FBECDBFDF91E9
:100AF000CF911F910F91FF90EF90DF90CF900895CD
:100B0000E95CE1CFCF93DF93D82FC0917503CF5F1E
:100B10006C2F8EE10E947204D15020F080E20E947E
:100B20007904FACF6C2F8EE1DF91CF910C9472048F
:100B300090E080E00895089520911F02260F33274A
:100B4000331F21323105ECF420913D04FC0190E08B
:100B500080E0243069F082E00895A0911F02219185
:100B6000AC0141505E4FA40FB52FB11D2C930196DF
:100B7000861798F380911F02680F60931F0280E030
:100B8000089581E0089510923D0481E080933C0433
:100B90001092170461E082E10E94E10261E083E1CA
:100BA0000E94E102E9EBF0E080818E7F808380810A
:100BB0008D7F808388E48093B80085E48093BC00B7
:100BC0000895CF93DF9391E09093FE018823B9F0CD
:100BD000C091B800D091BA008091BC008A7B80930C
:100BE000BC0060E082E10E94E10260E083E10E94DB
:100BF000E1020E94C305D093BA00C093B800DF9110
:100C0000CF9108958F929F92AF92BF92CF92DF9231
:100C1000EF92FF920F931F93CF93DF93D0916604CF
:100C2000D13208F0D7C0182FC09165040E942D035F
:100C30006B017C0180913D0481116BC082E0809347
:100C40003D0410933C048FEF80933B0410923A04D0
:100C5000D0933904A5E4B4E0E9E1F4E080E0D813EE
:100C600091C01092180480911804CC0FC82BC09327
:100C7000180480911704813009F088C0109217047D
:100C80000E942D036B017C01809118048093BB00AE
:100C900080913F0490914004A0914104B09142049E
:100CA000892B8A2B8B2BA1F00E942D0300913F04EE
:100CB0001091400420914104309142046C197D0947
:100CC0008E099F09061717072807390708F442C03D
:100CD0008091BC0083FDD8CF85EC8093BC000E943E
:100CE0002D036B017C0180913D04823009F450C0DA
:100CF00080913B048F3F09F46FC080913B048032A8
:100D000009F46CC080913B04803309F469C084E02D
:100D100026C080913F0490914004A0914104B0917D
:100D20004204892B8A2B8B2B09F484CF0E942D033C
:100D300080903F0490904004A0904104B090420401
:100D40006C197D098E099F0986169706A806B906B3
:100D500008F070CF80913E040E94E10585E010927A
:100D600044041092660410924304DF91CF911F91C6
:100D70000F91FF90EF90DF90CF90BF90AF909F903A
:100D80008F9008959D9191938F5F69CF85EEA5CF48
:100D900080913F0490914004A0914104B09142049D
:100DA000892B8A2B8B2B09F49ECF0E942D03009157
:100DB0003F041091400420914104309142046C1989
:100DC0007D098E099F09061717072807390708F0BC
:100DD0008ACFC0CF81E0C3CF80E0C1CF82E0BFCF58
:100DE00083E0BDCF0895E091470380914603E81763
:100DF00030F4F0E0E85BFC4F808190E008958FEFE5
:100E00009FEF089590914703809146032FEF3FEFA6
:100E1000981748F4E92FF0E0E85BFC4F208130E0C0
:100E20009F5F90934703C901089580914603909175
:100E30004703891B990B0895CF92DF92EF92FF929F
:100E40000F931F93CF93DF937C01CB018A012091F5
:100E50004304222389F0EB016B01C40ED51ECC158F
:100E6000DD0569F06991D701ED91FC910190F08168
:100E7000E02DC7010995F3CF642F0E949C05C8019E
:100E8000DF91CF911F910F91FF90EF90DF90CF9066
:100E90000895CF93DF931F92CDB7DEB7698320917A
:100EA00043042223F9F020916604203258F021E017
:100EB00030E0FC013383228390E080E00F90DF91EB
:100EC000CF91089580914404E82FF0E0EB5BFB4F55
:100ED000998190838F5F809344048093660481E0BE
:100EE00090E0ECCF61E0CE0101960E949C05F7CF27
:100EF000609315047093160491E0909343048093DB
:100F00006504109244041092660487E694E00E94FF
:100F1000490781E00C94020690E080E008959C016E
:100F2000DC01A058BF4FEC9191E09E0F9C93E20F23
:100F3000F32FF11D608397FD1C920895CF93DF93EB
:100F4000EC01C83E83E0D80778F480E30E9479047E
:100F5000C436D10548F480E30E947904CA30D10533
:100F600018F480E30E9479046AE070E0CE01DF911A
:100F7000CF910C943D0590917503690F982F990FAF
:100F8000890F880F0C947204CF93809100018F5FBA
:100F9000863041F180930001C0915A02C87FE091F0
:100FA000000186E0E89FF0011124EE5FFE4F808192
:100FB000C82BC0935A0261E08CE00E94BB07E2E0BC
:100FC000F1E030E020E0C7708081C8130EC046E039
:100FD000429FC001439F900D11248D5F9E4FCF9182
:100FE0000C942A0510920001D7CF2F5F3F4F369601
:100FF0002630310549F788E691E0F1CF80916D0305
:1010000090916E03E8E4F2E09C012F773327238B65
:10101000880F892F881F990B9195878B81E0848B8E
:101020000895EF92FF921F93CF93DF93CDB7DEB772
:10103000C058D1090FB6F894DEBF0FBECDBFCE01A8
:1010400001967C0180E8F70111928A95E9F710E09A
:10105000612F80E00E94720460E870E0C7010E9486
:1010600002041F5F1830A1F760E080E00E9447048F
:10107000C058DF4F0FB6F894DEBF0FBECDBFDF9173
:10108000CF911F91FF90EF90089585ED8093BC0064
:1010900080913F0490914004A0914104B09142049A
:1010A0000796A11DB11D23E0B695A7959795879545
:1010B0002A95D1F72091BC0024FD03C010923D0475
:1010C000089540913F045091400460914104709113
:1010D0004204452B462B472B69F30097A105B10528
:1010E00041F02AE22A95F1F700C00197A109B10960
:1010F000E1CF80913E040C94E1052F923F924F92F4
:101100005F926F927F928F929F92AF92BF92CF9297
:10111000DF92EF92FF920F931F93CF93DF9300D054
:1011200000D0CDB7DEB79C838B837C0141E8E40E11
:10113000F11C6C0150E8C50ED11C8C010E571F4FDD
:101140008D579F4F2C018B819C818C579F4F4C0159
:1011500022242A94AB80BC8097E8A90EB11CEB81B5
:10116000FC81EB57FF4FFA83E983F7018081F60199
:101170009081891709F4BAC0EB81FC81E80FF11D59
:10118000308037FE6DC0F8019081891739F0F50184
:10119000208131812F5F3F4F31832083F80180838D
:1011A000F2012082832D8076F401803609F441C05B
:1011B000832D829586708E5F8083F8012081F401F3
:1011C0008081820F9927991F813891059CF180E8D1
:1011D000682E621AF894F6014081F8018081841724
:1011E00008F044C0F42FF81B8F2FF6018083789409
:1011F000F80160814617E8F5712C50E06B817C8125
:10120000CB01860D971D0E943A13F80160814B8136
:101210005C81460F511DBA01A3018B819C810E9404
:101220003A13F7018081F8019081891BF7018083CF
:10123000F8011082F70190819F5F9083F80180810F
:10124000392F381B97FF02C0F7011082F20120816D
:10125000F40190819317A9F03226F201308285CFF4
:10126000F40180818111E6CF3082A7CF862D840FD3
:10127000BCCF461B50E08B819C81860F911DBC0129
:10128000CCCF32122AC04B815C81480F511DCA015C
:10129000E981FA81408151814F5F5F4F51834083E3
:1012A000F7013081F80130830097B1F20F900F9071
:1012B0000F900F90DF91CF911F910F91FF90EF90C2
:1012C000DF90CF90BF90AF909F908F907F906F9066
:1012D0005F904F903F902F900895F501808191810C
:1012E00001969183808390E080E0DACF90E080E007
:1012F000DDCF1F93CF93DF93182FD62FCBE4C627D4
:10130000C82764EB8EE691E00E948F07612F8EE67E
:1013100091E00E948F076D2F8EE691E00E948F076B
:101320006C2F8EE691E00E948F076FEF8EE691E0C2
:101330000E948F078EE691E00E947D0890934503FE
:1013400080934403009729F0DF91CF911F910C9473
:101350001D02DF91CF911F9108959F92AF92BF928E
:10136000CF92DF92EF92FF920F931F93CF93DF9371
:1013700099E0899FF0011124E85BFD4F01811581FF
:10138000212F30E0220F232F221F330B200F311D7E
:10139000232B11F08C3178F060E08AE3DF91CF915C
:1013A0001F910F91FF90EF90DF90CF90BF90AF9083
:1013B0009F900C947909D82F9080A280B380C4802C
:1013C000D680E780F084C3E1C827C027C127C9259C
:1013D000CA25CB25CC25CD25CE25CF2567EE8EE69B
:1013E00091E00E948F076EE08EE691E00E948F07E9
:1013F0006D2F8EE691E00E948F07692D8EE691E0B9
:101400000E948F07602F8EE691E00E948F076A2D61
:101410008EE691E00E948F076B2D8EE691E00E9490
:101420008F0765E08EE691E00E948F076C2D8EE6B7
:1014300091E00E948F07612F8EE691E00E948F0756
:101440006D2D8EE691E00E948F076E2D8EE691E065
:101450000E948F076F2D8EE691E00E948F076C2F00
:101460006F778EE691E00E948F076FEF8EE691E036
:101470000E948F078EE691E00E947D0890934503BD
:1014800080934403009769F0DF91CF911F910F91F2
:10149000FF90EF90DF90CF90BF90AF909F900C9413
:1014A0001D02DF91CF911F910F91FF90EF90DF9080
:1014B000CF90BF90AF909F9008951F920F920FB65C
:1014C0000F9211242F933F938F939F93AF93BF93CA
:1014D0008091750490917604A0917704B09178047E
:1014E0003091700323E0230F2D3758F50196A11D8D
:1014F000B11D209370038093750490937604A0939C
:101500007704B09378048091710390917203A09155
:101510007303B09174030196A11DB11D80937103F3
:1015200090937203A0937303B0937403BF91AF9130
:101530009F918F913F912F910F900FBE0F901F9011
:10154000189526E8230F0296A11DB11DD2CF1F9238
:101550000F920FB60F9211242F933F934F935F93E7
:101560006F937F938F939F93AF93BF93EF93FF936B
:101570008091B900887F803609F44AC0F0F588323E
:1015800009F4A7C018F5803109F49BC0B8F488238A
:1015900009F4F9C0883009F494C0FF91EF91BF912C
:1015A000AF919F918F917F916F915F914F913F91FB
:1015B0002F910F900FBE0F901F901895883109F44E
:1015C00088C0803251F780933B0414C0803409F402
:1015D0009DC040F48033B9F38833F9F680933B041F
:1015E00085ECB0C0803509F485C0883509F496C013
:1015F000883499F60E944508D0CF883909F48CC008
:1016000038F5883729F050F4883611F0803729F6FC
:1016100083E080933D041092410257C0883809F45A
:101620007BC0803919F0803809F0B7CF8091410232
:10163000803208F071C0E091410281E08E0F80930A
:1016400041028091BB00F0E0EF5DFD4F80833DC023
:10165000803B39F0E0F4803A09F479C0883A09F027
:101660009CCF84E080933D041092200210921F02D0
:10167000E0914602F0914702099580911F02811185
:101680000FC081E080931F021092FF0109C0803CCF
:1016900009F4A6CF883C09F4A3CF883B09F07DCF9D
:1016A000E091200281E08E0F80932002F0E0E15073
:1016B000FE4F80818093BB009091200280911F0299
:1016C00029C0809118048093BB0085EC8093BC00F6
:1016D00064CF90913A0480913904981758F5E091BD
:1016E0003A0481E08E0F80933A04F0E0E75EFB4F0E
:1016F0008081E9CFE0913A0481E08E0F80933A0433
:101700008091BB00F0E0E75EFB4F808390913A044C
:10171000809139049817C8F285E8D8CFE0913A044F
:1017200081E08E0F80933A048091BB00F0E0E75E89
:10173000FB4F808380913C0481115CCF81E08093DA
:10174000170484EA8093BC0010923D0426CF85ECF8
:101750008093BC0010923D0480914102803230F4AD
:10176000E0914102F0E0EF5DFD4F10826091410297
:1017700070E0E0914402F091450281E292E0099527
:10178000109241020ACF10923B0434CF1F920F9265
:101790000FB60F921124CF92DF92EF92FF920F9328
:1017A0001F932F933F934F935F936F937F938F93E9
:1017B0009F93AF93BF93CF93EF93FF93B19A809191
:1017C0007D0390917E0380549C4F90937E03809381
:1017D0007D0380917D0390917E0390938900809397
:1017E00088008091FD01882371F01092FD01189B03
:1017F00026C081E080938303B59A80916F00806258
:1018000080936F001CC0809182038F5F809382035E
:1018100080918303843009F043C080918203893032
:1018200030F58091790390E09595879580937903C1
:10183000189B05C080917903806880937903FF919C
:10184000EF91CF91BF91AF919F918F917F916F91C8
:101850005F914F913F912F911F910F91FF90EF90CA
:10186000DF90CF900F900FBE0F901F901895B59AF4
:1018700080916F00806280936F00809177039091D8
:101880007803189929C0FC01E957FF4F80819181A5
:101890000196918380831092820381E08093830379
:1018A000809183038330E9F5E0918003F091810317
:1018B000808120917F0333B190E0022E02C0959584
:1018C00087950A94E2F7832780FD11C01092820366
:1018D00082E08093830325C0609179030E948F0783
:1018E00080E090E0892BB9F20E940000D4CF809173
:1018F0008203893008F043C03091790381E090E0A1
:1019000001C0880F2A95EAF7908130FF36C0809594
:10191000892380838091790390E0959587958093C2
:10192000790380918303823099F48091820381113D
:1019300096C0E0918003F0918103808190917F03B4
:1019400021E030E001C0220F9A95EAF7822B8083D4
:1019500080918303813009F072CF809182038823C4
:1019600009F44ACF80918203883308F468CF10923B
:10197000830380916F008D7F43CF892BCACF8091E5
:101980008203893059F4308181E090E001C0880FF2
:101990002A95EAF7809583238083C3CF80918403BF
:1019A0008F5F8093840390918503891750F510927F
:1019B000820380917B0390917C03A0918403A80F04
:1019C000B92FB11D8C9180937903808141E050E063
:1019D00001C0440F2A95EAF7842B8083809184000C
:1019E000909185008A5A9C4F90937E0380937D034B
:1019F00080917D0390917E0390938900809388006D
:101A000090CF81E080937A03E0907B03F0907C0399
:101A1000C0907703D0907803F7018081807680367C
:101A200079F4C18110E000E00C1778F4F701E00FC1
:101A3000F11F6081C6010E948F070F5F1F4FF4CF17
:101A4000C081C295C670CE5FEDCF80E090E0892B5B
:101A500011F00E9400001092820381E03ACF809141
:101A600082038F3008F474CFE0918003F0918103FA
:101A7000208130917F0381E090E001C0880F3A958A
:101A8000EAF78095822380831092820381E080931D
:101A90008303E0917703F0917803E357FF4F808150
:101AA000918101969183808353CF1F920F920FB63D
:101AB0000F9211248F939F93EF93FF93B59AEFE6C4
:101AC000F0E080818F7D80838091860090918700F7
:101AD00080529E4F90937E0380937D0380917D037F
:101AE00090917E039093890080938800B19A8081C1
:101AF0008260808384E0809383031092820381E07C
:101B00008093FD01FF91EF919F918F910F900FBEF8
:101B10000F901F901895CF93DF93E7E6F4E01382C0
:101B2000128288EE93E0A0E0B0E084839583A683E0
:101B3000B7838EE491E091838083CEECD4E086E09D
:101B4000888380E8898388E08A831B821C821D82C7
:101B50001E8286E00E94FE012FB7F89480917504E2
:101B600090917604A0917704B09178042FBF8B8375
:101B70009C83AD83BE838091010190E090937404B7
:101B800080937304E9E7F4E01382128280E691E027
:101B90009183808314821582168217828AE090E0F6
:101BA0009187808712861386148615861686178677
:101BB000108A928B818B138A148A158A168A178A47
:101BC000108E118E938F828F148E158E168E178E17
:101BD00010A211A212A294A383A315A216A217A267
:101BE00010A611A612A613A695A784A716A617A637
:101BF00010AA11AA12AA13AA14AA96AB85AB17AA07
:101C000010AE11AE12AE13AE14AE15AE97AF86AFD6
:101C10001092B9041092BA041092BB041092BC0442
:101C20001092BD041092BE041092BF049093C104A0
:101C30008093C0041092C2041092C3041092C40492
:101C40001092C5041092C6041092C7041092CA04E0
:101C50001092CB041092CC041092CD041092C804C0
:101C60001092C904DF91CF910895CF93DF93CDB740
:101C7000DEB76C970FB6F894DEBF0FBECDBF789479
:101C800084B5826084BD84B5816084BD85B5826081
:101C900085BD85B5816085BD80916E008160809332
:101CA0006E0010928100809181008260809381009B
:101CB00080918100816080938100809180008160AB
:101CC000809380008091B10084608093B100809106
:101CD000B00081608093B00080917A00846080932E
:101CE0007A0080917A00826080937A0080917A00F5
:101CF000816080937A0080917A00806880937A0076
:101D00001092C100E8E4F2E01082399623E0E43456
:101D1000F207D1F783E380935A02E6E8F3E08FE815
:101D2000DF011D928A95E9F787E00E94FE01E9E94B
:101D3000F3E02491E5E8F3E0E491F0E0EE0FFF1F1B
:101D4000E659FC4F4591549180E091E031E029172C
:101D500041F08F5F932F082E01C0990F0A94EAF784
:101D6000F6CF509381034093800380937F0386E8EE
:101D700093E090937803809377032098E091800319
:101D8000F0918103208130917F0381E090E001C0D8
:101D9000880F3A95EAF7809582238083109280001D
:101DA00011E01093810010928303B59A80916F0027
:101DB000806280936F0080918100887F8160809332
:101DC000810010924703109246031092440410922F
:101DD00066040E94C30582E593E0909347028093D6
:101DE000460283E593E0909345028093440289E3A1
:101DF00080930101109343048093650481E00E9465
:101E00000206811107C080916C03882309F400C188
:101E100081E011C081E2809301011093430480931B
:101E20006504109244041092660481E00E94020648
:101E3000882349F380E080936C031092B90088E412
:101E40008093B80084E08093BC00E4EFF2E0DE0110
:101E500011969E01245E3F4FCD0144914D933196E2
:101E60002A173B07D1F72FEA2C8F6CE10E9424043C
:101E70000E9411088091C504882309F450C0109273
:101E8000B90098E49093B80094E09093BC000E944D
:101E900094038FEF0E94810384E98093BC0050E09B
:101EA00040E06091C5048DE794E00E94B80341E0F2
:101EB00050E06091C50486E894E00E94B80342E0D7
:101EC00050E06091C5048FE894E00E94B80343E0BD
:101ED00050E06091C50488E994E00E94B80344E0B2
:101EE00050E06091C50481EA94E00E94B80345E0A7
:101EF00050E06091C5048AEA94E00E94B80346E08D
:101F000050E06091C50483EB94E00E94B80347E081
:101F100050E06091C5048CEB94E00E94B8030E94ED
:101F2000110861E080E00E94BB0784E393E00E9417
:101F3000150580E393E00E94150583E293E00E947B
:101F4000150562E081E00E94BB078DE193E00E94ED
:101F500015058CEF0E94790484E193E00E94150539
:101F60008FE093E00E94150584E08093750361E0A3
:101F700080E00E94BB078BE393E00E94150581E09F
:101F8000809300010E94C40719E035EE332E45EC22
:101F9000842E50E0A52E50E0B52E99249A942FB7A8
:101FA000F8948091750490917604A0917704B09193
:101FB00078042FBF4091D1045091D2046091D30492
:101FC0007091D404841B950BA60BB70B4597A10504
:101FD000B10508F46DC02FB7F89480917504909105
:101FE0007604A0917704B09178042FBF8093D10438
:101FF0009093D204A093D304B093D4040091CF045F
:102000008091D004013CA0F081958093D00412C04F
:102010008091010190E090937404809373046FEFBA
:1020200070E00E94780710926B0310926A03F0CE62
:10203000003250F38091D004080F0093CF04F09049
:10204000CE048F2D0E94FE01011105C060E08F2D8E
:102050000E94E1022DC00F3F11F461E0F8CFEF2D97
:10206000F0E0EA5AFC4FE491E33009F465C040F433
:10207000E130D1F0E23009F45AC007FDEECFE6CFEF
:10208000E73009F465C0E83009F46AC0E430A9F724
:1020900080918000806280938000802F90E09093F8
:1020A0008B0080938A0004C084B5806884BD07BD1E
:1020B00086E893E00E947D08FC019093450380939D
:1020C0004403892B61F001810C3148F480818B3B02
:1020D00009F415C108F04CC08A3B09F412C1809183
:1020E0006C0381113EC120E090E080E020FD75C2CC
:1020F00026FD8CC227FF73C220916F03211176C287
:1021000090936E0380936D032F5F20936F0384E0A1
:102110000E94820561E085E00E94BB0780916D030B
:1021200090916E030E949E070E94FE0758C284B5DC
:10213000806284BD08BDBCCF8091800080688093A0
:102140008000802F90E09093890080938800B0CF2A
:102150008091B00080688093B0000093B300A8CF56
:102160008091B00080628093B0000093B400A0CF53
:102170008F3B09F49BC08F3E09F0B1CF82818C3137
:1021800008F0ADCF73800481458136812085F184CC
:102190009285E3846484189FF0011124E85BFD4F6D
:1021A00070820183428333832483F5829683E7829E
:1021B00060866FE78FE60E947909CDB6DEB660E0F3
:1021C00080E00E947204EDB7FEB7EE57F1090FB63A
:1021D000F894FEBF0FBEEDBF8DB79EB70196DC0130
:1021E000EEE71D92EA95E9F76EE770E00E940204BF
:1021F00060E080E00E9472040FB6F894DEBE0FBE6D
:10220000CDBE60E080E00E94BB0780E593E00E94C5
:102210001505802F90E0FF2031F0F0E8FF9E90013F
:102220001124820F931F0E949E0760E08CE00E94A1
:10223000BB07E2E0F1E030E020E0872D877090817D
:10224000891385C046E0429FC001439F900D112431
:102250008D5F9E4F0E942A0563E080E00E94BB07CD
:1022600081E493E00E941505712C762C6624E60C1F
:10227000F72CF11CE11480E1F80690F480E30E9451
:1022800079049FEFE916F10409F050F480E30E940D
:102290007904A0E1EA16F10418F480E30E947904BD
:1022A00060E170E0C7010E943D0519CF4281E8E47A
:1022B000F2E081E09285491303C096850917A9F0E1
:1022C0008F5F39968C31B1F7E8E4F2E021E030E03D
:1022D000822F9185907361F4129FF001139FF00D8E
:1022E0001124E85BFD4F418305830E94AD09F7CEC1
:1022F0002F5F3F4F39962C31310551F7F0CE802FAB
:10230000F4CF8281081320C00023E1F0109FF00178
:102310001124E85BFD4F808180638083802F0E94C1
:10232000AD09E0914403F091450382818111D7CE3C
:10233000109FF0011124E85BFD4F80818F7E806249
:102340008083CDCE82E0D1CF0111EBCFC8CE2F5FFD
:102350003F4F36962630310509F071CF88E691E07F
:1023600079CFE0916A03F0916B03EE0FFF1FEE5BF4
:10237000FE4F6081718180917304909174040E947A
:1023800078079AE3C92E91E0D92EF12CE12C01E0D7
:10239000209073040E942D032B013C0180913D0489
:1023A000811161C000933D0400933C0490923B0472
:1023B00010923A0410923904009318048091180482
:1023C000220C282A2092180480911704813009F0E9
:1023D0009EC0109217040E942D032B013C01809196
:1023E00018048093BB0080913F0490914004A09119
:1023F0004104B0914204892B8A2B8B2BA1F00E94BF
:102400002D0320913F0430914004409141045091AC
:102410004204641975098609970926173707480782
:10242000590708F441C08091BC0083FDD8CF809249
:10243000BC000E942D032B013C0180913D048130A2
:1024400009F468C080913A04811186C080913A04F1
:10245000A9E1B4E0E8E4F3E090E0981751F12D91A0
:1024600021939F5FFACF80913F0490914004A09107
:102470004104B0914204892B8A2B8B2B09F48ECF17
:102480000E942D0320913F0430914004409141046B
:102490005091420464197509860997092617370770
:1024A0004807590708F07ACF80913E040E94E10561
:1024B00080E0109247038093460387E694E00E94F1
:1024C0000207F601419151916F012091150430915D
:1024D0001604822793278417950709F03FC020919F
:1024E0006A0330916B0345E0429FC001439F900D0A
:1024F00011248A5D9E4FE80EF91ED7018C91082E9B
:10250000000C990B9093690380936803ECCD309293
:10251000BC008FCF80913F0490914004A091410472
:10252000B0914204892B8A2B8B2B09F486CF0E9411
:102530002D0320913F04309140044091410450917B
:102540004204641975098609970926173707480751
:10255000590708F072CFA8CF81E07ACFBFEFEB1A0E
:10256000FB0AE4E0EE16F10409F012CF8091680353
:1025700090916903009799F0109269031092680393
:10258000882309F4B0CD833221F18A3221F18053BE
:1025900090E020E88A3008F4A9CD20E8A5CD6FEFBF
:1025A00070E080917304909174040E947807809188
:1025B0006A0390916B0301968430910529F0909302
:1025C0006B0380936A038FCD10926B0310926A03A2
:1025D0008ACD21E089CD20E487CD0E94C407A114D3
:1025E000B10409F4DCCC0E940000D9CC243008F0FE
:1025F0008BCD60916D0370916E033AE0369FA00120
:10260000379F500D1124840F951F7ACD10926F03C0
:1026100010926E0310926D030E94FE0787E00E94E5
:102620008205DDCFA1E21A2EAA1BBB1BFD010DC046
:10263000AA1FBB1FEE1FFF1FA217B307E407F50772
:1026400020F0A21BB30BE40BF50B661F771F881F4E
:10265000991F1A9469F760957095809590959B01E4
:10266000AC01BD01CF010895EE0FFF1F0590F4915D
:10267000E02D09946817790768F4FB01DC01E40F89
:10268000F51FA40FB51F02C002900E92415050409A
:10269000D8F708950C944C13FB01DC0102C00190A3
:0E26A0000D9241505040D8F70895F894FFCFA6
:1026AE0001390731323841000432384120000331FC
:1026BE003238200000323820200002313420200031
:1026CE00014D32382000313233410034353642006C
:1026DE0037383943002A30234400100020004000D0
:1026EE008000FE00FD00FB00F7000000000049071F
:1026FE001C078C07F20615070207F3060000000000
:0E270E00980554038C079B053F2020200000F7
:00000001FF
