:100000000C9482010C94AA010C94AA010C94AA01EC
:100010000C94AA010C94AA010C94AA010C94AA01B4
:100020000C94AA010C94AA010C94D1100C94420FC8
:100030000C94AA010C94AA010C94AA010C94AA0194
:100040000C94D90D0C94AA010C94AA010C94AA0149
:100050000C94AA010C94AA010C94AA010C94AA0174
:100060000C94230E0C94AA014E65753A20006D6520
:100070006C736F6674002863294B7200323032341F
:1000800000202F2000322E330044495350412000DD
:1000900041546D656761333238500041546D656776
:1000A000613136380041546D65676138380041541C
:1000B0006D6567613800535620332C343A30780030
:1000C000535620323A00416C743A2000436F6D6DF4
:1000D000756E696361742E6572726F7200436F6E24
:1000E0006E65637426446973706174636800526559
:1000F0006C65617365202A2D427574746F6E004EB5
:1001000065753A2000535620363A00535620353A4A
:1001100000756E6B6E6F776E20465300313238413A
:1001200020465300323841204653003132382046B1
:1001300053003134204653004D32382046530032AC
:100140003820465300535631303A002D2D2D0053A0
:100150005620382C393A00535631323A0073656CC8
:100160006674657374006F7065726174696E6700A0
:10017000535631313A004F6E6520536869667420DA
:10018000627574746F6E0054776F2053686966747B
:1001900020627574746F6E00465245444920772E74
:1001A000204252414B45005357442D465245444945
:1001B000004D61747269782D465245444900416E84
:1001C000612E2D506F74692046312D463400496EE2
:1001D00063722E2D456E632E2046312D46340075F8
:1001E0006E6B6E6F776E2048617264776172650026
:1001F000416E616C6F672E2D506F746900496E639C
:10020000722E456E632E2053776974636800496EC1
:1002100063722E2D456E636F64657200756E6B6E32
:100220006F776E20486172647761726500466F7205
:10023000772D4F66662D5265762D537700466F7287
:10024000772D5265762D537700535631352D313742
:100250003A00535631332C31343A002E2E2E2E2EA6
:100260002E2E2E2E2E2E2E2E2E2E2E003C203030D8
:1002700030203E20202020202020202E00425241ED
:100280004B453A2046006E6F204252414B45005389
:100290005634343A004F50435F494D4D20616374EA
:1002A000006E6F204F50435F494D4D00535634331D
:1002B0003A000000000800020100000304070000EB
:1002C00000000000000000000000250028002B00B6
:1002D00000000000240027002A0004040404040491
:1002E00004040202020202020303030303030102E5
:1002F00004081020408001020408102001020408B4
:100300001020071111241FBECFEFD8E0DEBFCDBFF4
:1003100024E0A2E8B1E001C01D92AB3EB207E1F7D4
:1003200011E0A0E0B1E0E2E3FEE202C005900D9230
:10033000A238B107D9F711E0C2E8D1E004C0219793
:10034000FE010E94F616C138D107C9F70E94551167
:100350000C9417170C94000090E0FC01E251FD4F43
:10036000249186529D4FFC018491882399F090E05E
:10037000880F991FFC01E053FD4FA591B491FC013A
:10038000EA53FD4F859194918FB7F894EC91E22B4D
:10039000EC938FBF0895CF93DF93FC0129E18EE2A8
:1003A00041E050E033E071E0908190769036D1F4F6
:1003B00091819093BC03A091BC03A1501092BB0308
:1003C0009FEF6091BB036A1790F4C091BB03CE0FFF
:1003D000DF2FD11D688196276091BB036F5F60930B
:1003E000BB03EFCF9081929596709E5FE2CFAE0FE8
:1003F000BF2FB11D9C93F8949091BA03913059F49A
:100400009091B903981738F01092BA0390916F0049
:100410009D7F90936F0078949091BA03913039F456
:100420009091B903943108F4BFCF70E0BDCF9091A3
:10043000BA0391110EC0F89490916F009F7D909334
:100440006F00B59B09C090916F00906290936F0010
:1004500078947111A9CF51C0A091B703B091B8039E
:100460009C916091B603EA0102C0CC0FDD1F6A9532
:10047000E2F79C2B9C9360918400709185006A5AEE
:100480007C4F7093B5036093B4036091B403709193
:10049000B50370938900609388007894F093B30358
:1004A000E093B2031092BB031092B103908190933A
:1004B000B0033093BA031092B903B19A90916F00D0
:1004C000926090936F009091BA039330E1F3909112
:1004D000B103992381F0E091AE03F091AF03E757A8
:1004E000FF4F8081918101969183808383E090E02A
:1004F000DF91CF9108959091BA038B3108F081502C
:10050000215009F050CF8091480490914904019600
:10051000909349048093480486E090E0E9CF90E00E
:10052000FC01EE54FD4F2491FC01E251FD4F34914A
:10053000FC01E652FD4FE491EE23C9F0222339F08D
:10054000233001F1A8F4213019F1223029F1F0E033
:10055000EE0FFF1FEA53FD4FA591B4918FB7F894AA
:10056000EC91611126C030953E233C938FBF0895D6
:100570002730A9F02830C9F0243049F78091800055
:100580008F7D03C0809180008F7780938000DFCFC4
:1005900084B58F7784BDDBCF84B58F7DFBCF809111
:1005A000B0008F778093B000D2CF8091B0008F7D64
:1005B000F9CF3E2BDACF3FB7F8948091AA03909100
:1005C000AB03A091AC03B091AD0326B5A89B05C0C9
:1005D0002F3F19F00196A11DB11D3FBFBA2FA92FC2
:1005E000982F8827BC01CD01620F711D811D911DBF
:1005F00042E0660F771F881F991F4A95D1F708952B
:100600002FB7F8946091A6037091A7038091A80377
:100610009091A9032FBF08950F931F93CF93DF935A
:100620000E9400030091E7041091E8042091E9047E
:100630003091EA04601B710B820B930B65317105DD
:100640008105910508F452C00E9400036093E704FD
:100650007093E8048093E9049093EA04C091E50460
:100660008091E604C13C20F081958093E60402C0AD
:10067000C032D0F38091E604C80FC093E504D09156
:10068000E4048D2F0E94AC01C11108C060E08D2FE1
:10069000DF91CF911F910F910C948F02CF3F11F4F6
:1006A00061E0F5CFED2FF0E0EE54FD4FE491E33043
:1006B00039F138F4E130B1F0E230E9F0C7FDF0CFC4
:1006C000E5CFE73041F1E83071F1E430B9F78091DE
:1006D0008000806280938000D0E0D0938B00C09334
:1006E0008A0004C084B5806884BDC7BDDF91CF9106
:1006F0001F910F91089584B5806284BDC8BDF6CF67
:1007000080918000806880938000D0E0D093890041
:10071000C0938800EBCF8091B00080688093B000D8
:10072000C093B300E3CF8091B00080628093B000AB
:10073000C093B400DBCF8F929F92AF92BF92CF92C3
:10074000DF92EF92FF924B015C010E94DB026B0192
:100750007C010E940C030E94DB026C197D098E094A
:100760009F09683E73408105910598F321E0821A44
:100770009108A108B10888EEC80E83E0D81EE11CDC
:10078000F11C81149104A104B10429F7FF90EF90AA
:10079000DF90CF90BF90AF909F908F900895089575
:1007A0000895AF92BF92CF92DF92EF92FF920F9394
:1007B0001F93CF93DF936C017B018B01040F151FF7
:1007C000EB015E01AE18BF08C017D10759F069915F
:1007D000D601ED91FC910190F081E02DC6010995C3
:1007E000892B79F7C501DF91CF911F910F91FF9070
:1007F000EF90DF90CF90BF90AF9008950895209133
:10080000A401260F3327331F21323105ECF4209148
:100810009404FC0190E080E0243069F082E00895C7
:10082000A091A4012191AC014C575E4FA40FB52FAC
:10083000B11D2C930196861798F38091A401680F3F
:100840006093A40180E0089581E0089510929404DB
:1008500081E08093930410926E0461E082E10E9433
:100860008F0261E083E10E948F02E9EBF0E080817A
:100870008E7F808380818D7F808388E48093B80021
:1008800085E48093BC000895CF93DF9391E090932B
:1008900083018823B9F0C091B800D091BA0080914B
:1008A000BC008A7B8093BC0060E082E10E948F02E2
:1008B00060E083E10E948F020E942604D093BA0078
:1008C000C093B800DF91CF910895CF92DF92EF925D
:1008D000FF920F931F93CF93DF93D091BD0481E0DC
:1008E000D13208F09CC0C091BC040E94DB026B01B5
:1008F0007C018091940481116CC082E08093940407
:1009000081E0809393048FEF80939204109291047E
:10091000D0939004ACE9B4E0E0E7F4E080E0D813D1
:100920008DC010926F0480916F04CC0FC82BC093C0
:100930006F0480916E04813009F084C010926E04BF
:100940000E94DB026B017C0180916F048093BB00ED
:100950008091960490919704A0919804B091990485
:10096000892B8A2B8B2BA1F00E94DB02009196042D
:100970001091970420919804309199046C197D0985
:100980008E099F09061717072807390708F442C080
:100990008091BC0083FDD8CF85EC8093BC000E9481
:1009A000DB026B017C0180919404823009F44CC01D
:1009B000809192048F3F09F469C080919204803243
:1009C00009F466C080919204803309F463C084E026
:1009D00026C08091960490919704A0919804B091BC
:1009E0009904892B8A2B8B2B09F483CF0E94DB027D
:1009F00000919604109197042091980430919904E5
:100A00006C197D098E099F090617170728073907F2
:100A100008F06FCF809195040E94440485E0109205
:100A20009B041092BD0410929A04DF91CF911F9104
:100A30000F91FF90EF90DF90CF9008959D9191934B
:100A40008F5F6DCF85EEA9CF80919604909197042A
:100A5000A0919804B0919904892B8A2B8B2B09F4CF
:100A6000A2CF0E94DB02009196041091970420917E
:100A70009804309199046C197D098E099F09061715
:100A800017072807390708F08ECFC4CF80E0C7CFFB
:100A900082E0C5CF83E0C3CFCF92DF92EF92FF9287
:100AA0000F931F93CF93DF93D82FC62F613208F097
:100AB00098C00E94DB026B017C018091940481113B
:100AC0006BC081E080939404809393049FEF909394
:100AD0009204109291049C0F9093900480936F0461
:100AE00080916F04DD0FD82BD0936F0480916E043A
:100AF000813009F078C010926E040E94DB026B0115
:100B00007C0180916F048093BB008091960490914A
:100B10009704A0919804B0919904892B8A2B8B2B70
:100B2000A1F00E94DB02009196041091970420919D
:100B30009804309199046C197D098E099F09061754
:100B400017072807390708F448C08091BC0083FDC7
:100B5000D8CF85EC8093BC000E94DB026B017C0146
:100B600080919404813009F440C0809191048C17E5
:100B700010F4C0919104E0E7F4E0ACE4B4E080E06C
:100B80008C1355C08C2FDF91CF911F910F91FF9047
:100B9000EF90DF90CF900895809196049091970404
:100BA000A0919804B0919904892B8A2B8B2B09F47E
:100BB00084CF0E94DB02009196041091970420914B
:100BC0009804309199046C197D098E099F090617C4
:100BD00017072807390708F070CF809195040E9405
:100BE0004404C0E0CFCF85EEB5CF809196049091BC
:100BF0009704A0919804B0919904892B8A2B8B2B90
:100C000009F4AECF0E94DB02009196041091970484
:100C100020919804309199046C197D098E099F09DF
:100C2000061717072807390708F09ACFD6CF9191F2
:100C30009D938F5FA5CF0895E0916A03809169032A
:100C4000E81730F4F0E0E45BFB4F808190E008951A
:100C50008FEF9FEF089590916A03809169032FEFC2
:100C60003FEF981748F4E92FF0E0E45BFB4F208159
:100C700030E09F5F90936A03C901089580916903F2
:100C800090916A03891B990B0895CF92DF92EF929E
:100C9000FF920F931F93CF93DF937C01CB018A01C7
:100CA00020919A04222389F0EB016B01C40ED51E1A
:100CB000CC15DD0569F06991D701ED91FC910190AA
:100CC000F081E02DC7010995F3CF642F0E94FF0347
:100CD000C801DF91CF911F910F91FF90EF90DF90AE
:100CE000CF900895CF93DF931F92CDB7DEB769837E
:100CF00020919A042223F9F02091BD04203258F06B
:100D000021E030E0FC013383228390E080E00F900B
:100D1000DF91CF91089580919B04E82FF0E0E45695
:100D2000FB4F998190838F5F80939B048093BD04D8
:100D300081E090E0ECCF61E0CE0101960E94FF03DC
:100D4000F7CF60936C0470936D0491E090939A04D4
:100D50008093BC0410929B041092BD048EEB94E02F
:100D60000E9472060C94650490E080E008959C0156
:100D7000DC01A058BF4FEC9191E09E0F9C93E20FD5
:100D8000F32FF11D608397FD1C92089580917003ED
:100D900090917103E3E6F2E09C012F773327238BD8
:100DA000880F892F881F990B9195878B81E0848B01
:100DB00008958F929F92AF92BF920F931F93CF93FC
:100DC000DF93CDB7DEB7A1970FB6F894DEBF0FBEA5
:100DD000CDBF19A2423008F44AE08E010F5D1F4FCB
:100DE000842E912CB12CA12CA50194010E94D41623
:100DF000E62FB901CA01EA3044F5E05DD801EE936F
:100E00008D01232B242B252B79F790E080E0109780
:100E100069F0FD0101900020E9F73197AF014A1B0D
:100E20005B0BBD018CEC94E00E94D103A1960FB640
:100E3000F894DEBF0FBECDBFDF91CF911F910F9110
:100E4000BF90AF909F908F900895E95CD7CF0097A7
:100E500069F0FC0101900020E9F73197AF01481BD0
:100E6000590BBC018CEC94E00C94D10390E080E031
:100E70000895CF93DF93EC0160E08E810E948F0292
:100E800061E08E810E948F0260E08E810E948F025D
:100E90008BE891E00197F1F7DF91CF910895CF9220
:100EA000DF92EF92FF920F931F93CF93DF936C012A
:100EB0007C0187E0E80EF11CD0E0C0E0062F10E0D6
:100EC000B8010C2E02C0759567950A94E2F761701F
:100ED000F70181917F010E948F022196C430D105D4
:100EE00079F7C601DF91CF911F910F91FF90EF909D
:100EF000DF90CF900C943907CF92DF92EF92FF9260
:100F00000F931F93CF93DF93EC01F62E642F8C8108
:100F10000E948F028D818F3F19F060E00E948F0246
:100F20000F2D10E08F8584FF25C06E0187E0C80E6D
:100F3000D11CF12CE12CB8010E2C02C075956795DF
:100F40000A94E2F76170F60181916F010E948F02AD
:100F5000FFEFEF1AFF0A88E0E816F10461F7CE010F
:100F6000DF91CF911F910F91FF90EF90DF90CF9085
:100F70000C943907B80184E0759567958A95E1F777
:100F8000CE010E944F076F2DCE01DF91CF911F91AF
:100F90000F91FF90EF90DF90CF900C944F0740E0BF
:100FA000682F8CEC94E00C947C07CF93DF93823015
:100FB00029F49091DB0498609093DB048093DF0424
:100FC0001092E00480E48093E10480E18093E204E5
:100FD00080E58093E3048091D0040E94AC0180916D
:100FE000D1048F3F11F00E94AC018091D2040E9485
:100FF000AC01CCECD4E09E012C5C34408091DB044D
:1010000084FD0AC084E090E02196281739073CF45B
:101010008E810E94AC01EFCF88E090E0F5CF8BE3AA
:101020009DE00197F1F760E08091D0040E948F026B
:1010300060E08091D2040E948F028091D1048F3FA2
:1010400019F060E00E948F028091DB0484FD39C0BA
:1010500063E08CEC94E00E944F07CBE4D6E4CE0131
:101060000197F1F763E08CEC94E00E944F07219721
:10107000F1F763E08CEC94E00E944F0783E592E087
:101080000197F1F762E08CEC94E00E944F078091A9
:10109000DB0480620E94CF0784E08093DC048CE054
:1010A0000E94CF0781E00E94CF078BE39FE1019769
:1010B000F1F782E08093DD0486E0DF91CF910C941C
:1010C000CF0780620E94CF078BE496E40197F1F787
:1010D0008091DB0480620E94CF0783E592E0019754
:1010E000F1F78091DB0480620E94CF07D0CF90910E
:1010F000DF04691710F06FEF690FE62FF0E0E4539B
:10110000FB4F9489890F80680C94CF070C94770863
:10111000CF93809100018F5F863041F18093000171
:10112000C0917502C87FE091000186E0E89FF00160
:101130001124EE5FFE4F8081C82BC093750261E0E1
:101140008CE00E948608E2E0F1E030E020E0C77029
:101150008081C8130EC046E0429FC001439F900D9E
:1011600011248D5F9E4FCF910C94270710920001A0
:10117000D7CF2F5F3F4F36962630310549F78AE7A4
:1011800091E0F1CF81E00E94CF078BE39FE10197CF
:10119000F1F7089541E00E947C0781E090E0089516
:1011A000462F682F70E090E080E00C94D906CF9332
:1011B000C82F6AE070E082958F700E94D0086AE0C4
:1011C00070E08C2F8F70CF910C94D0080F931F93E9
:1011D000CF93DF938C01D0E0C0E0F801EC0FFD1F4E
:1011E0006491662339F041E08CEC94E00E947C0726
:1011F0002196F3CFCE01DF91CF911F910F910895EA
:10120000823091F030F4813059F06AE070E00C9453
:10121000D008833061F08430C1F780E990E002C0EB
:101220008EEA90E00C94E60885EA90E0FBCF8BE92B
:1012300090E0F8CF0C94E60841E0682F8CEC94E045
:101240000E947C0781E090E008950E94C20860E05F
:1012500080E00E94860889E890E00E941A0985E8EB
:1012600090E00E941A0981E890E00E941A098CE738
:1012700090E00E941A0961E080E00E94860886E7FB
:1012800090E00E941A0985EF0E941C098EE690E00A
:101290000E941A0960ED77E080E090E00E949B03D5
:1012A0000C94C2081092A4031092A3030E94250973
:1012B00061E080E00E94860888E690E00E941A09BA
:1012C00081E0809300010C9488081F93CF93DF93F3
:1012D000D82F162FC42F0E947708C15020F080E22B
:1012E0000E941C09FACF612F8D2FDF91CF911F91A2
:1012F0000C947708CF93DF9380916F03882379F163
:10130000C0910101CC2359F1D1E0D0939A04C0934C
:10131000BC0410929B041092BD0467EF8EEB94E026
:101320000E9472060E946504D0939A0410929B0456
:101330001092BD0461E08C2F0E944C0510926A034C
:10134000809369038EEB94E00E942B06C82F0E94C5
:10135000650483E6C73E21F082E6C73B09F08FEFC4
:10136000DF91CF910895CF92DF92EF92FF920F938A
:101370001F93CF93C82F0E940003E0916202009157
:101380005E0210915F0220916002309161026B0158
:101390007C01C01AD10AE20AF30A9701860188EE9D
:1013A00093E0E89FA001E99F500D1124052E000C49
:1013B000660B770B401751076207730768F461E00B
:1013C0008E2F0E9486088FE791E00E942707809168
:1013D00062028F5F809362020E94000300915E02AE
:1013E00010915F022091600230916102AB01BC015B
:1013F000401B510B620B730B28EE33E0C29FC00100
:10140000C39F900D1124092E000CAA0BBB0B84174F
:101410009507A607B707E0F440E160E080E00E948E
:10142000650961E080E00E9486088CEC90E00E94F3
:101430001A090E940C030E947A098336D1F781E0D1
:10144000CF911F910F91FF90EF90DF90CF90089573
:1014500080E0F6CFCF93DF931092A3030E94C208DF
:1014600060E080E00E94860880EC90E00E94E60840
:101470006AE070E0809175030E94D00861E080E02E
:101480000E94860886EB90E00E94E608C0917703F0
:10149000D0E0DC2FCC2760917603C60FD11DC1159B
:1014A00080E1D80780F480E30E941C09CF3FD1057A
:1014B00009F048F480E30E941C09C031D10518F4FA
:1014C00080E30E941C09BE0190E080E040E1DF91D2
:1014D000CF910C94D906CF93DF93EC01C83E83E003
:1014E000D80778F480E30E941C09C436D10548F47B
:1014F00080E30E941C09CA30D10518F480E30E94E1
:101500001C09BE0190E080E04AE0DF91CF910C948D
:10151000D90685ED8093BC00809196049091970444
:10152000A0919804B09199040796A11DB11D23E0E4
:10153000B695A795979587952A95D1F72091BC00E8
:1015400024FD03C010929404089540919604509194
:1015500097046091980470919904452B462B472B72
:1015600069F30097A105B10541F02AE22A95F1F748
:1015700000C00197A109B109E1CF809195040C94B5
:1015800044042F923F924F925F926F927F928F927C
:101590009F92AF92BF92CF92DF92EF92FF920F9302
:1015A0001F93CF93DF9300D000D0CDB7DEB79C83DD
:1015B0008B837C0141E8E40EF11C6C0150E8C50E00
:1015C000D11C8C010E571F4F8D579F4F2C018B81C3
:1015D0009C818C579F4F4C0122242A94AB80BC8065
:1015E00097E8A90EB11CEB81FC81EB57FF4FFA8302
:1015F000E983F7018081F6019081891709F4BAC067
:10160000EB81FC81E80FF11D308037FE6DC0F801E1
:101610009081891739F0F501208131812F5F3F4F8B
:1016200031832083F8018083F2012082832D80762C
:10163000F401803609F441C0832D829586708E5F57
:101640008083F8012081F4018081820F9927991FFE
:10165000813891059CF180E8682E621AF894F601B1
:101660004081F8018081841708F044C0F42FF81BF2
:101670008F2FF60180837894F80160814617E8F592
:10168000712C50E06B817C81CB01860D971D0E94EF
:10169000FC16F80160814B815C81460F511DBA0137
:1016A000A3018B819C810E94FC16F7018081F801C7
:1016B0009081891BF7018083F8011082F7019081E6
:1016C0009F5F9083F8018081392F381B97FF02C0FC
:1016D000F7011082F2012081F40190819317A9F0A3
:1016E0003226F201308285CFF40180818111E6CF6C
:1016F0003082A7CF862D840FBCCF461B50E08B8154
:101700009C81860F911DBC01CCCF32122AC04B8127
:101710005C81480F511DCA01E981FA8140815181E4
:101720004F5F5F4F51834083F7013081F801308371
:101730000097B1F20F900F900F900F90DF91CF9123
:101740001F910F91FF90EF90DF90CF90BF90AF90DF
:101750009F908F907F906F905F904F903F902F90D1
:101760000895F5018081918101969183808390E0B5
:1017700080E0DACF90E080E0DDCF1F93CF93DF935E
:10178000182FD62FCBE4C627C82764EB8BEC91E04B
:101790000E94B706612F8BEC91E00E94B7066D2F77
:1017A0008BEC91E00E94B7066C2F8BEC91E00E94CD
:1017B000B7066FEF8BEC91E00E94B7068BEC91E0DF
:1017C0000E94C10A90935B0280935A02009729F00D
:1017D000DF91CF911F910C94CB01DF91CF911F919D
:1017E00008959F92AF92BF92CF92DF92EF92FF92B5
:1017F0000F931F93CF93DF93682F70E099E0899F39
:10180000F0011124ED59FD4F15812181412F50E048
:10181000440F452F441F550B240F352F311D909138
:10182000A403911112C0232B09F094C060E08AE355
:10183000DF91CF911F910F91FF90EF90DF90CF90AC
:10184000BF90AF909F900C94BD0B8C3178F7232BF9
:1018500011F493E09183D82F89E0869FF001879F50
:10186000F00D1124ED59FD4F9080A180B280C3800E
:10187000D480E680F7800085C3E1CD27C127C92544
:10188000CA25CB25CC25CD25CE25CF25C02767EE73
:101890008BEC91E00E94B7066EE08BEC91E00E9429
:1018A000B7066D2F8BEC91E00E94B706692D8BEC8B
:1018B00091E00E94B7066A2D8BEC91E00E94B7067A
:1018C0006B2D8BEC91E00E94B7066C2D8BEC91E0B8
:1018D0000E94B70665E08BEC91E00E94B7066D2D83
:1018E0008BEC91E00E94B706612F8BEC91E00E9497
:1018F000B7066E2D8BEC91E00E94B7066F2D8BEC36
:1019000091E00E94B706602F8BEC91E00E94B70631
:101910006C2F6F778BEC91E00E94B7066FEF8BEC2A
:1019200091E00E94B7068BEC91E00E94C10A90936F
:101930005B0280935A02009789F0DF91CF911F914B
:101940000F91FF90EF90DF90CF90BF90AF909F905E
:101950000C94CB018C3108F47ECF68CFDF91CF910E
:101960001F910F91FF90EF90DF90CF90BF90AF90BD
:101970009F900895EF92FF920F931F93CF93DF9361
:101980008DEB93E00E94C10AFC0190935B0280936F
:101990005A02892B09F448C08081C181823A09F436
:1019A0004EC090F5803AE9F1813A09F444C0CC3157
:1019B000D8F58B3B09F4ECC008F049C08A3BA1F58F
:1019C00082818C13E9C0CC2309F4E4C049E0C49FB0
:1019D000F0011124ED59FD4F8081806380838C2FAD
:1019E0000E94F10BE0915A02F0915B028281811119
:1019F0001BC069E0C69FF0011124ED59FD4F8081A5
:101A00008F7E8062808310C0833AE9F0843D79F64E
:101A1000C03251F48381883039F484818093620329
:101A200003C0828180936803DF91CF911F910F9152
:101A3000FF90EF900895828180935F03F5CF8281BC
:101A400080936003F1CF828180936103EDCF8F3B60
:101A500009F46EC08F3E41F792819C3128F7538183
:101A60000481458136812085F1848285E384148553
:101A7000C92FD0E069E0969FF0011124ED59FD4F88
:101A800050830183428333832483F5828683E782F4
:101A900010876FE78FE60E94BD0B212F30E0322FB9
:101AA00022272E0D311D30935D0220935C02809120
:101AB000A4038111B9CF40E160E00E94650960E0B4
:101AC00080E00E94860886EC90E00E941A09802F30
:101AD00090E0FF2031F040E8F49E90011124820F45
:101AE000931F0E946B0A60E08CE00E94860889E0E8
:101AF0008C9FF0018D9FF00D1124ED59FD4F8081D9
:101B0000E2E0F1E030E020E087709081891347C087
:101B100046E0429FC001439F900D11248D5F9E4F70
:101B2000DF91CF911F910F91FF90EF900C942707B9
:101B30004281A3E6B2E0FD0181E09285491303C032
:101B400096859C17B1F08F5F39968C31B1F721E003
:101B500030E0822F19969C911997907391F499E037
:101B6000929FF001939FF00D1124ED59FD4F418399
:101B7000C583DF91CF911F910F91FF90EF900C944F
:101B8000F10B2F5F3F4F19962C31310511F74CCFD8
:101B90008C2FEFCF82E0EDCFC11124CF45CF2F5F47
:101BA0003F4F36962630310509F0AFCF8AE791E0F6
:101BB000B7CF1F920F920FB60F9211242F933F931E
:101BC0008F939F93AF93BF938091A6039091A703A8
:101BD000A091A803B091A9033091A50323E0230F9E
:101BE0002D3758F50196A11DB11D2093A5038093B3
:101BF000A6039093A703A093A803B093A903809191
:101C0000AA039091AB03A091AC03B091AD030196F0
:101C1000A11DB11D8093AA039093AB03A093AC03C5
:101C2000B093AD03BF91AF919F918F913F912F9151
:101C30000F900FBE0F901F90189526E8230F029665
:101C4000A11DB11DD2CF1F920F920FB60F9211247A
:101C50002F933F934F935F936F937F938F939F93B4
:101C6000AF93BF93EF93FF938091B900887F803645
:101C700009F44AC0F0F5883209F4A7C018F580319C
:101C800009F49BC0B8F4882309F4F9C0883009F43A
:101C900094C0FF91EF91BF91AF919F918F917F91F0
:101CA0006F915F914F913F912F910F900FBE0F90C9
:101CB0001F901895883109F488C0803251F78093BD
:101CC000920414C0803409F49DC040F48033B9F309
:101CD0008833F9F68093920485ECB0C0803509F41E
:101CE00085C0883509F496C0883499F60E94890A1F
:101CF000D0CF883909F48CC038F5883729F050F4F2
:101D0000883611F0803729F683E08093940410928E
:101D1000C60157C0883809F47BC0803919F0803873
:101D200009F0B7CF8091C601803208F071C0E09110
:101D3000C60181E08E0F8093C6018091BB00F0E068
:101D4000EA55FE4F80833DC0803B39F0E0F4803A95
:101D500009F479C0883A09F09CCF84E08093940418
:101D60001092A5011092A401E091C901F091CA015D
:101D700009958091A40181110FC081E08093A40195
:101D80001092840109C0803C09F4A6CF883C09F474
:101D9000A3CF883B09F07DCFE091A50181E08E0FB4
:101DA0008093A501F0E0EC57FE4F80818093BB004B
:101DB0009091A5018091A40129C080916F04809326
:101DC000BB0085EC8093BC0064CF9091910480911E
:101DD0009004981758F5E091910481E08E0F80935C
:101DE0009104F0E0E059FB4F8081E9CFE09191044C
:101DF00081E08E0F809391048091BB00F0E0E05968
:101E0000FB4F808390919104809190049817C8F2C1
:101E100085E8D8CFE091910481E08E0F8093910402
:101E20008091BB00F0E0E059FB4F808380919304E8
:101E300081115CCF81E080936E0484EA8093BC00C2
:101E40001092940426CF85EC8093BC0010929404E9
:101E50008091C601803230F4E091C601F0E0EA558D
:101E6000FE4F10826091C60170E0E091C701F091D1
:101E7000C80186EA91E009951092C6010ACF109236
:101E8000920434CF1F920F920FB60F921124CF926B
:101E9000DF92EF92FF920F931F932F933F934F93F5
:101EA0005F936F937F938F939F93AF93BF93CF93E2
:101EB000EF93FF93B19A8091B4039091B50380544E
:101EC0009C4F9093B5038093B4038091B403909199
:101ED000B5039093890080938800809182018823C4
:101EE00071F010928201189B26C081E08093BA03A2
:101EF000B59A80916F00806280936F001CC08091C2
:101F0000B9038F5F8093B9038091BA03843009F0DD
:101F100043C08091B903893030F58091B00390E0DF
:101F2000959587958093B003189B05C08091B00369
:101F300080688093B003FF91EF91CF91BF91AF91F3
:101F40009F918F917F916F915F914F913F912F91D1
:101F50001F910F91FF90EF90DF90CF900F900FBEE9
:101F60000F901F901895B59A80916F0080628093B2
:101F70006F008091AE039091AF03189929C0FC01C6
:101F8000E957FF4F80819181019691838083109260
:101F9000B90381E08093BA038091BA038330E9F5F5
:101FA000E091B703F091B80380812091B60333B17B
:101FB00090E0022E02C0959587950A94E2F7832758
:101FC00080FD11C01092B90382E08093BA0325C04E
:101FD0006091B0030E94B70680E090E0892BB9F2CF
:101FE0000E940000D4CF8091B903893008F043C02B
:101FF0003091B00381E090E001C0880F2A95EAF7A4
:10200000908130FF36C08095892380838091B00312
:1020100090E0959587958093B0038091BA038230C4
:1020200099F48091B903811196C0E091B703F091C2
:10203000B80380819091B60321E030E001C0220F07
:102040009A95EAF7822B80838091BA03813009F058
:1020500072CF8091B903882309F44ACF8091B903E4
:10206000883308F468CF1092BA0380916F008D7F97
:1020700043CF892BCACF8091B903893059F430817D
:1020800081E090E001C0880F2A95EAF780958323CC
:102090008083C3CF8091BB038F5F8093BB039091FC
:1020A000BC03891750F51092B9038091B203909147
:1020B000B303A091BB03A80FB92FB11D8C918093DE
:1020C000B003808141E050E001C0440F2A95EAF757
:1020D000842B808380918400909185008A5A9C4F44
:1020E0009093B5038093B4038091B4039091B503AA
:1020F000909389008093880090CF81E08093B10312
:10210000E090B203F090B303C090AE03D090AF0361
:10211000F70180818076803679F4C18110E000E09B
:102120000C1778F4F701E00FF11F6081C6010E94DF
:10213000B7060F5F1F4FF4CFC081C295C670CE5F48
:10214000EDCF80E090E0892B11F00E94000010920A
:10215000B90381E03ACF8091B9038F3008F474CF8E
:10216000E091B703F091B80320813091B60381E08C
:1021700090E001C0880F3A95EAF78095822380832A
:102180001092B90381E08093BA03E091AE03F0911D
:10219000AF03E357FF4F8081918101969183808344
:1021A00053CF1F920F920FB60F9211248F939F93CC
:1021B000EF93FF93B59AEFE6F0E080818F7D808307
:1021C000809186009091870080529E4F9093B50336
:1021D0008093B4038091B4039091B50390938900E8
:1021E00080938800B19A80818260808384E08093AC
:1021F000BA031092B90381E080938201FF91EF91BD
:102200009F918F910F900FBE0F901F901895CF93B5
:10221000DF93EEEBF4E01382128288EE93E0A0E00D
:10222000B0E084839583A683B78380E691E09183B1
:102230008083C4EED4E086E0888380E8898388E0E8
:102240008A831B821C821D821E8286E00E94AC0152
:102250000E9400036B837C838D839E8380910101A8
:1022600090E09093CB048093CA04ECECF4E01382EA
:10227000128282E791E0918380838CE084838FEFE8
:1022800085838BE0868389E0878385E0808784E08F
:10229000818783E0828713861486158616861786C3
:1022A00081E0DF91CF910C94D507789484B582605A
:1022B00084BD84B5816084BD85B5826085BD85B5EA
:1022C000816085BD80916E00816080936E00109268
:1022D00081008091810082608093810080918100E3
:1022E0008160809381008091800081608093800074
:1022F0008091B10084608093B1008091B0008160D2
:102300008093B00080917A00846080937A008091FD
:102310007A00826080937A0080917A008160809355
:102320007A0080917A00806880937A001092C100D0
:10233000E3E6F2E08FE593E0108239968E179F076F
:10234000D9F783E380937502EDEBF3E08FE8DF01CB
:102350001D928A95E9F787E00E94AC01E5EFF2E073
:102360002491E1EEF2E0E491F0E0EE0FFF1FEA537A
:10237000FD4F4591549180E091E031E0291741F003
:102380008F5F932F082E01C0990F0A94EAF7F6CFBA
:102390005093B8034093B7038093B6038DEB93E05B
:1023A0009093AF038093AE032098E091B703F09130
:1023B000B80320813091B60381E090E001C0880F1E
:1023C0003A95EAF780958223808310928000C1E0DD
:1023D000C09381001092BA03B59A80916F00806219
:1023E00080936F0080918100887F8160809381005D
:1023F00010926A031092690310929B041092BD041C
:102400000E9426048FEC93E09093CA018093C90147
:1024100080ED93E09093C8018093C70189E3809396
:102420000101C0939A048093BC040E946504811149
:1024300007C080916F03882309F42CC181E010C08C
:1024400081E280930101C0939A048093BC041092AE
:102450009B041092BD040E946504882351F380E020
:1024600080936F0382E00E94D5070E9425090E9495
:102470007A09833609F048C060ED77E080E090E0AB
:102480000E949B030E947A098336F1F560E080E0A8
:102490000E9486088EEE90E00E941A090E947A0936
:1024A0008336E1F360E080E00E9486088DED90E0E5
:1024B0000E941A0981E08093A403E3E7F3E083EA32
:1024C00093E011928E179F07E1F781E080936202FB
:1024D0000E94000360935E0270935F02809360022B
:1024E0009093610280915C0290915D02892B09F0CA
:1024F000E1C00E940C030E94BA0C8FE00E94B30955
:10250000882381F30E9452098091A40381110CC099
:1025100061E00E9486088FEF90E00E941A0981E036
:10252000809300010E948808C0E0D0E00E940C0364
:102530000E94BA0C8091A403882309F485C080917D
:10254000A303882309F480C0109168038091670376
:102550001817B9F060E082E00E948608143618F47B
:1025600080E20E941C091A3018F480E20E941C09C3
:102570006AE070E0812F0E94D00880916803809308
:10258000670323E6C22E23E0D22E3FE5A32E33E0DD
:10259000B32E03E0F12CD6018D916D01F50111915F
:1025A0005F01811709F44BC0F1101FC060E080E0AB
:1025B0000E948608F12FF072EF2E8CE315FF80E267
:1025C0000E941C0960E086E00E94860880E2E1101B
:1025D00001C08EE30E941C0960E08FE00E94860823
:1025E0008CE714FF8EE20E941C0963E08DEF800FE0
:1025F0000E9486088CE710FF8EE20E941C0963E0AF
:102600008EEF800F0E9486088CE711FF8EE20E94F9
:102610001C0963E08FEF800F0E9486088CE712FF91
:102620008EE20E941C0963E0802F0E9486088CE7DE
:1026300013FF8EE20E941C09F60131971083F39478
:102640000C5F24E0F212A7CF80916F03811132C199
:1026500020E080E020FDABC126FDABC127FF14C008
:102660009091A4039111D9C1833609F0A4C11092AD
:10267000720310927103109270030E94C60647E025
:1026800061E085E00E946509209709F44FCF0E9420
:1026900000004ACF8091010190E09093CB04809399
:1026A000CA046FEF70E00E94A10610926E031092B0
:1026B0006D03C4CE64E670E080E090E00E949B036E
:1026C000C6E2D1E00BE0E02E0E940C03D990BFE2FD
:1026D000BD1508F4ECC0B0905C02C0905D02FB2C0C
:1026E000FE24FC24FD2465EE8BEC91E00E94B706ED
:1026F00060E18BEC91E00E94B70661E08BEC91E029
:102700000E94B70662E08BEC91E00E94B70662E09F
:102710008BEC91E00E94B70660E18BEC91E00E94A7
:10272000B7066B2D8BEC91E00E94B7066C2D8BECFD
:1027300091E00E94B7066D2D8BEC91E00E94B706E8
:1027400060E08BEC91E00E94B70660E18BEC91E0D9
:102750000E94B70660E08BEC91E00E94B70660E053
:102760008BEC91E00E94B70660E08BEC91E00E9458
:10277000B70660E08BEC91E00E94B7066F2D6F7793
:102780008BEC91E00E94B7066FEF8BEC91E00E941A
:10279000B7068BEC91E00E94C10A90935B02809394
:1027A0005A02009711F00E94CB0181E080936202EF
:1027B0000E94000360935E0270935F028093600248
:1027C000909361020E940C038DEB93E00E94C10A7A
:1027D000DC0190935B0280935A02892B39F08C9133
:1027E0008A3B51F460E08AE30E94BD0B85E00E94C1
:1027F000B309882339F386CE853EC1F711968C91B3
:102800001197803199F714968C911497823071F753
:1028100015962C91159730E0C90156E0880F991F45
:102820005A95E1F78078992717964C9117974F772B
:10283000842BF0915C02E0915D02B9017695762FD0
:10284000662777956795772716964C9116974F7759
:10285000460F572F511DF417150641F60E2F10E0A5
:102860008017910719F613968C911397823409F00B
:10287000BDCF45E0220F331F4A95E1F72078189627
:10288000EC911897EF77E22B1A968C911A97F0E853
:102890008F9FA00111241B968C918F77840FE033BA
:1028A00008F012CFF0E0ED58FC4F80830DCF0E946E
:1028B0002A0A2ACE00916D0310916E03D090CA04AB
:1028C000C090CB04F801EE0FFF1FEC5AFE4F608161
:1028D00071818D2D9C2D0E94A1069CE4A92E91E072
:1028E000B92EF12CE12C61E08D2D0E944C05109247
:1028F0006A03809369038EEB94E00E942B06D50156
:102900004D915D915D0120916C0430916D048227A1
:1029100093278417950799F485E0809FF001819FA4
:10292000F00D1124E85CFE4FEE0DFF1D8081082E96
:10293000000C990B90936C0380936B0389CEBFEFCF
:10294000EB1AFB0AE4E0EE16F10469F680916B03E2
:1029500090916C03009791F010926C0310926B03AE
:10296000882309F475CE8332F1F08A32F1F0805376
:1029700020E88A3008F46ECE20E86BCE6FEF70E06E
:102980008D2D9C2D0E94A1060F5F1F4F0430110555
:1029900029F010936E0300936D035ACE10926E03CC
:1029A00010926D0355CE21E054CE20E452CE82E643
:1029B00057CE83E655CE823619F40E94880864CE3D
:1029C0002091720390E0222379F0243088F4609102
:1029D0007003709171039AE0969FA001979F500D2C
:1029E0001124840F952F911D909371038093700390
:1029F0002F5F2093720344E061E085E00E94650947
:102A000061E085E00E9486088091700390917103D7
:102A10000E946B0A0E94C60637CE833619F40E94C4
:102A2000520932CE813019F40E942A0A2DCE82300A
:102A3000E9F41092A3030E94C20860E080E00E94C3
:102A400086088BE091E00E94E608809178030E945E
:102A5000000961E080E00E94860885E091E00E9424
:102A6000E608809179030E9400090ECE833009F0B8
:102A700054C01092A3030E94C20860E080E00E944C
:102A800086088FE491E00E94E60860917B03F0E8FD
:102A90006F9FC001112460917C03680F792F711D15
:102AA000CB0101978E3F9742C8F08BE491E00E94E2
:102AB000E60861E080E00E94860885E491E00E94DB
:102AC000E60880917D0387708230F1F068F48823F6
:102AD00099F08130B1F081E191E010C090E080E0A8
:102AE0004AE00E94D906E5CF8430A1F080F087301B
:102AF00091F78CE191E002C08FE391E00E94E6083B
:102B0000C3CD88E391E0FACF82E391E0F7CF8BE287
:102B100091E0F4CF84E291E0F1CF843009F051C02C
:102B20001092A3030E94C20860E080E00E94860821
:102B300080E791E00E94E60880917E038535B9F533
:102B400086E691E00E94E60861E080E00E94860847
:102B500087E591E00E94E60810917F0317FD21C0F0
:102B600080E30E941C091034E0F480E30E941C09F9
:102B70001032B8F480E30E941C09103190F480E315
:102B80000E941C09183068F480E30E941C0914306C
:102B900040F480E30E941C09123018F480E30E9484
:102BA0001C0962E070E0812F0E94D0086DCD8F3F3C
:102BB00019F48DE591E0C6CF6AE070E00E94D0087C
:102BC000C3CF853009F057C01092A3030E94C208FA
:102BD00060E080E00E94860810917F038091750379
:102BE000863100F5812F83708230B1F08330B9F0E7
:102BF000813079F08CE192E00E94E60861E080E0AB
:102C00000E94860887E891E016FD78CF86E791E07C
:102C100075CF8EE092E0F0CF8DEF91E0EDCF80EFB9
:102C200091E0EACFE12FEF70F0E0E75EF94E0C940F
:102C3000F61629162C162F162F163216FE153516D7
:102C4000FE15FE15FE15FE15FE15FE15FE153816B1
:102C500029168FED91E0D0CF8EEC91E0CDCF8EEBA9
:102C600091E0CACF81EB91E0C7CF87EA91E0C4CF72
:102C700088E991E0C1CF863091F41092A3030E94BD
:102C8000C20860E080E00E94860880917F0387FF91
:102C900003C08DE292E032CF8DE392E02FCF8730F8
:102CA000B1F51092A3030E94C20860E080E00E9488
:102CB000860882E592E00E94E6086AE070E0809172
:102CC00080030E94D0088EE20E941C096AE070E036
:102CD000809181030E94D00861E080E00E94860814
:102CE00089E492E00E94E608809182030E94D7085E
:102CF0008EE20E941C09809183030E94D7088EE215
:102D00000E941C09809184030E94D708BDCC8830A2
:102D1000A1F51092A3030E94C20860E080E00E9427
:102D200086088CEA92E00E94E60880919E038F3F1D
:102D3000D1F481EA92E00E94E60861E080E00E941E
:102D400086088FE892E00E94E60810919F0386E8CB
:102D500092E01F3F09F4D2CE8DE792E00E94E60890
:102D60006AE070E020CF811103C085E992E0E3CFF3
:102D70006AE070E00E94D008E0CF823609F084CC8F
:102D800081E08093A3030E94C20860E080E00E947B
:102D900086088CE692E00E94E60861E080E00E94EE
:102DA00086088BE592E0AACEA1E21A2EAA1BBB1BD5
:102DB000FD010DC0AA1FBB1FEE1FFF1FA217B30707
:102DC000E407F50720F0A21BB30BE40BF50B661F1D
:102DD000771F881F991F1A9469F7609570958095E1
:102DE00090959B01AC01BD01CF010895EE0FFF1F2F
:102DF0000590F491E02D09946817790768F4FB01B8
:102E0000DC01E40FF51FA40FB51F02C002900E9263
:102E100041505040D8F708950C940E17FB01DC0187
:102E200002C001900D9241505040D8F70895F89497
:022E3000FFCFD2
:102E32000139073132384100043238412000033170
:102E420032382000003238202000023134202000A5
:102E5200014D32382000020304050608090A0B0C52
:102E62000D0E0F10112B2CFF313233410034353649
:102E7200420037383943002A302344001000200032
:102E820040008000FE00FD00FB00F7000000000093
:102E920072064506B4061B063E062B061C060000FB
:102EA2000000CA08D103B406FE033F202020002EF2
:022EB20000001E
:00000001FF
