:100000000C945D000C9485000C9485000C94850084
:100010000C9485000C9485000C9485000C9485004C
:100020000C9485000C9485000C94650F0C94D60DEF
:100030000C9485000C9485000C9485000C9485002C
:100040000C946D0C0C9485000C9485000C94850028
:100050000C9485000C9485000C9485000C9485000C
:100060000C94B70C0C9485000000000800020100FD
:100070000003040700000000000000000000000072
:10008000250028002B0000000000240027002A0083
:10009000040404040404040402020202020203032E
:1000A0000303030301020408102040800102040836
:1000B00010200102040810209B0F11241FBECFEF57
:1000C000D8E0DEBFCDBF13E0A0E0B1E0EEEEF8E295
:1000D00002C005900D92A633B107D9F726E0A6E33A
:1000E000B3E001C01D92A439B207E1F710E0CDE5FD
:1000F000D0E004C02197FE010E945414CC35D107F2
:10010000C9F70E94E90F0C9475140C94000090E05C
:10011000FC01EC55FF4F249180579F4FFC018491C7
:10012000882399F090E0880F991FFC01EA57FF4F50
:10013000A591B491FC01E458FF4F859194918FB73C
:10014000F894EC91E22BEC938FBF0895CF93DF935B
:10015000FC0129E18EE241E050E033E071E0908162
:1001600090769036D1F4918190936505A0916505C4
:10017000A150109264059FEF609164056A1790F496
:10018000C0916405CE0FDF2FD11D68819627609145
:1001900064056F5F60936405EFCF908192959670D0
:1001A0009E5FE2CFAE0FBF2FB11D9C93F89490914C
:1001B0006305913059F490916205981738F01092C8
:1001C000630590916F009D7F90936F00789490915C
:1001D0006305913039F490916205943108F4BFCFF2
:1001E00070E0BDCF9091630591110EC0F89490918D
:1001F0006F009F7D90936F00B59B09C090916F0039
:10020000906290936F0078947111A9CF51C0A09122
:100210006005B09161059C9160915F05EA0102C0A3
:10022000CC0FDD1F6A95E2F79C2B9C9360918400B4
:10023000709185006A5A7C4F70935E0560935D05EE
:1002400060915D0570915E057093890060938800F0
:100250007894F0935C05E0935B051092640510922E
:100260005A05908190935905309363051092620569
:10027000B19A90916F00926090936F009091630596
:100280009330E1F390915A05992381F0E09157055D
:10029000F0915805E757FF4F808191810196918336
:1002A000808383E090E0DF91CF9108959091630582
:1002B0008B3108F08150215009F050CF8091F10529
:1002C0009091F20501969093F2058093F10586E0F6
:1002D00090E0E9CF90E0FC01E859FF4F2491FC0148
:1002E000EC55FF4F3491FC01E057FF4FE491EE23B2
:1002F000C9F0222339F0233001F1A8F4213019F19B
:10030000223029F1F0E0EE0FFF1FE458FF4FA591D6
:10031000B4918FB7F894EC91611126C030953E23CB
:100320003C938FBF08952730A9F02830C9F02430BE
:1003300049F7809180008F7D03C0809180008F7786
:1003400080938000DFCF84B58F7784BDDBCF84B509
:100350008F7DFBCF8091B0008F778093B000D2CF9C
:100360008091B0008F7DF9CF3E2BDACF3FB7F89464
:100370008091530590915405A0915505B091560573
:1003800026B5A89B05C02F3F19F00196A11DB11DF0
:100390003FBFBA2FA92F982F8827BC01CD01620F2C
:1003A000711D811D911D42E0660F771F881F991FE7
:1003B0004A95D1F708952FB7F89460914F05709141
:1003C000500580915105909152052FBF08950F93CC
:1003D0001F93CF93DF930E94DB0100919006109151
:1003E00091062091920630919306601B710B820B4F
:1003F000930B653171058105910508F452C00E9487
:10040000DB0160939006709391068093920690931F
:100410009306C0918E0680918F06C13C20F0819595
:1004200080938F0602C0C032D0F380918F06C80F30
:10043000C0938E06D0918D068D2F0E948700C1112A
:1004400008C060E08D2FDF91CF911F910F910C9428
:100450006A01CF3F11F461E0F5CFED2FF0E0E859EC
:10046000FF4FE491E33039F138F4E130B1F0E2309C
:10047000E9F0C7FDF0CFE5CFE73041F1E83071F1A9
:10048000E430B9F780918000806280938000D0E0F2
:10049000D0938B00C0938A0004C084B5806884BD6B
:1004A000C7BDDF91CF911F910F91089584B58062F0
:1004B00084BDC8BDF6CF80918000806880938000A5
:1004C000D0E0D0938900C0938800EBCF8091B0003A
:1004D00080688093B000C093B300E3CF8091B000F8
:1004E00080628093B000C093B400DBCF8F929F9264
:1004F000AF92BF92CF92DF92EF92FF924B015C01DD
:100500000E94B6016B017C010E94E7010E94B601C6
:100510006C197D098E099F09683E7340810591051C
:1005200098F321E0821A9108A108B10888EEC80E5C
:1005300083E0D81EE11CF11C81149104A104B104D4
:1005400029F7FF90EF90DF90CF90BF90AF909F90F2
:100550008F90089508950895AF92BF92CF92DF9241
:10056000EF92FF920F931F93CF93DF936C017B0168
:100570008B01040F151FEB015E01AE18BF08C017F9
:10058000D10759F06991D601ED91FC910190F0816C
:10059000E02DC6010995892B79F7C501DF91CF912F
:1005A0001F910F91FF90EF90DF90CF90BF90AF9091
:1005B0000895089520915803260F3327331F2132C1
:1005C0003105ECF420913D06FC0190E080E0243000
:1005D00069F082E00895A09158032191AC01485C34
:1005E0005C4FA40FB52FB11D2C930196861798F37D
:1005F00080915803680F6093580380E0089581E06C
:10060000089510923D0681E080933C0610921706F3
:1006100061E082E10E946A0161E083E10E946A0177
:10062000E9EBF0E080818E7F808380818D7F808305
:1006300088E48093B80085E48093BC000895CF934C
:10064000DF9391E0909337038823B9F0C091B8000D
:10065000D091BA008091BC008A7B8093BC0060E09E
:1006600082E10E946A0160E083E10E946A010E94C7
:100670000103D093BA00C093B800DF91CF910895E1
:10068000CF92DF92EF92FF920F931F93CF93DF935E
:10069000D091660681E0D13208F09CC0C091650619
:1006A0000E94B6016B017C0180913D0681116CC0F6
:1006B00082E080933D0681E080933C068FEF80933B
:1006C0003B0610923A06D0933906A5E4B6E0E9E17C
:1006D000F6E080E0D8138DC01092180680911806BD
:1006E000CC0FC82BC093180680911706813009F0F3
:1006F00084C0109217060E94B6016B017C018091A4
:1007000018068093BB0080913F0690914006A0910F
:100710004106B0914206892B8A2B8B2BA1F00E94B7
:10072000B60100913F06109140062091410630919C
:1007300042066C197D098E099F09061717072807BD
:10074000390708F442C08091BC0083FDD8CF85EC06
:100750008093BC000E94B6016B017C0180913D0634
:10076000823009F44CC080913B068F3F09F469C088
:1007700080913B06803209F466C080913B0680334D
:1007800009F463C084E026C080913F069091400642
:10079000A0914106B0914206892B8A2B8B2B09F43C
:1007A00083CF0E94B60100913F0610914006209130
:1007B0004106309142066C197D098E099F09061782
:1007C00017072807390708F06FCF80913E060E946F
:1007D0001F0385E0109244061092660610924306AD
:1007E000DF91CF911F910F91FF90EF90DF90CF900D
:1007F00008959D9191938F5F6DCF85EEA9CF8091E4
:100800003F0690914006A0914106B0914206892B87
:100810008A2B8B2B09F4A2CF0E94B60100913F06D0
:100820001091400620914106309142066C197D09D5
:100830008E099F09061717072807390708F08ECF7A
:10084000C4CF80E0C7CF82E0C5CF83E0C3CFCF92D3
:10085000DF92EF92FF920F931F93CF93DF93D82FE6
:10086000C62F613208F098C00E94B6016B017C016E
:1008700080913D0681116BC081E080933D0680939D
:100880003C069FEF90933B0610923A069C0F909384
:1008900039068093180680911806DD0FD82BD09367
:1008A000180680911706813009F078C0109217065B
:1008B0000E94B6016B017C01809118068093BB00F9
:1008C00080913F0690914006A0914106B09142066A
:1008D000892B8A2B8B2BA1F00E94B60100913F0639
:1008E0001091400620914106309142066C197D0915
:1008F0008E099F09061717072807390708F448C00B
:100900008091BC0083FDD8CF85EC8093BC000E9411
:10091000B6016B017C0180913D06813009F440C035
:1009200080913A068C1710F4C0913A06E9E1F6E09E
:10093000A5EFB5E080E08C1355C08C2FDF91CF91EF
:100940001F910F91FF90EF90DF90CF9008958091CD
:100950003F0690914006A0914106B0914206892B36
:100960008A2B8B2B09F484CF0E94B60100913F069D
:100970001091400620914106309142066C197D0984
:100980008E099F09061717072807390708F070CF47
:1009900080913E060E941F03C0E0CFCF85EEB5CF09
:1009A00080913F0690914006A0914106B091420689
:1009B000892B8A2B8B2B09F4AECF0E94B6010091B4
:1009C0003F061091400620914106309142066C1975
:1009D0007D098E099F09061717072807390708F0B0
:1009E0009ACFD6CF91919D938F5FA5CF0895E09137
:1009F000140580911305E81730F4F0E0EB50FA4F3E
:100A0000808190E008958FEF9FEF089590911405F5
:100A1000809113052FEF3FEF981748F4E92FF0E08E
:100A2000EB50FA4F208130E09F5F90931405C9018D
:100A300008958091130590911405891B990B0895D1
:100A4000CF92DF92EF92FF920F931F93CF93DF939A
:100A50007C01CB018A0120914306222389F0EB011E
:100A60006B01C40ED51ECC15DD0569F06991D70167
:100A7000ED91FC910190F081E02DC7010995F3CF34
:100A8000642F0E94DA02C801DF91CF911F910F916C
:100A9000FF90EF90DF90CF900895CF93DF931F9258
:100AA000CDB7DEB76983209143062223F9F0209168
:100AB0006606203258F021E030E0FC0133832283C7
:100AC00090E080E00F90DF91CF91089580914406EF
:100AD000E82FF0E0EB5BF94F998190838F5F809373
:100AE00044068093660681E090E0ECCF61E0CE01A1
:100AF00001960E94DA02F7CF6093150670931606EE
:100B000091E09093430680936506109244061092FC
:100B1000660687E696E00E944D050C94400390E03F
:100B200080E008959C01DC01A058BF4FEC9191E05A
:100B30009E0F9C93E20FF32FF11D608397FD1C9293
:100B4000089580911A0590911B05E7E1F4E09C015E
:100B50002F773327238B880F892F881F990B919527
:100B6000878B81E0848B08958F929F92AF92BF9282
:100B70000F931F93CF93DF93CDB7DEB7A1970FB637
:100B8000F894DEBF0FBECDBF19A2423008F44AE090
:100B90008E010F5D1F4F842E912CB12CA12CA5012D
:100BA00094010E943214E62FB901CA01EA3044F5DB
:100BB000E05DD801EE938D01232B242B252B79F7B3
:100BC00090E080E0109769F0FD0101900020E9F7C6
:100BD0003197AF014A1B5B0BBD0185E796E00E9490
:100BE000AC02A1960FB6F894DEBF0FBECDBFDF9169
:100BF000CF911F910F91BF90AF909F908F900895CC
:100C0000E95CD7CF009769F0FC0101900020E9F77B
:100C10003197AF01481B590BBC0185E796E00C9456
:100C2000AC0290E080E008950C940206CF93DF932D
:100C3000EC0160E08E810E946A0161E08E810E9479
:100C40006A0160E08E810E946A018BE891E0019761
:100C5000F1F7DF91CF910895CF92DF92EF92FF925B
:100C60000F931F93CF93DF936C017C0187E0E80E15
:100C7000F11CD0E0C0E0062F10E0B8010C2E02C03D
:100C8000759567950A94E2F76170F70181917F018C
:100C90000E946A012196C430D10579F7C601DF911F
:100CA000CF911F910F91FF90EF90DF90CF900C9418
:100CB0001606CF92DF92EF92FF920F931F93CF937E
:100CC000DF93EC01F62E642F8C810E946A018D81E6
:100CD0008F3F19F060E00E946A010F2D10E08F85B0
:100CE00084FF25C06E0187E0C80ED11CF12CE12CD9
:100CF000B8010E2C02C0759567950A94E2F76170F1
:100D0000F60181916F010E946A01FFEFEF1AFF0A5D
:100D100088E0E816F10461F7CE01DF91CF911F91D1
:100D20000F91FF90EF90DF90CF900C941606B801D2
:100D300084E0759567958A95E1F7CE010E942C06AF
:100D40006F2DCE01DF91CF911F910F91FF90EF900A
:100D5000DF90CF900C942C0640E0682F85E796E05A
:100D60000C945906CF93DF93823029F49091840636
:100D7000986090938406809388061092890680E498
:100D800080938A0680E180938B0680E580938C06B1
:100D9000809179060E94870080917A068F3F11F03A
:100DA0000E94870080917B060E948700C5E7D6E0FD
:100DB0009E01255736408091840684FD0AC084E058
:100DC00090E02196281739073CF48E810E94870015
:100DD000EFCF88E090E0F5CF8BE39DE00197F1F74E
:100DE00060E0809179060E946A0160E080917B0654
:100DF0000E946A0180917A068F3F19F060E00E949C
:100E00006A018091840684FD39C063E085E796E03D
:100E10000E942C06CBE4D6E4CE010197F1F763E003
:100E200085E796E00E942C062197F1F763E085E7BD
:100E300096E00E942C0683E592E00197F1F762E0CC
:100E400085E796E00E942C068091840680620E94CD
:100E5000AC0684E0809385068CE00E94AC0681E0BD
:100E60000E94AC068BE39FE10197F1F782E080934B
:100E7000860686E0DF91CF910C94AC0680620E94DA
:100E8000AC068BE496E40197F1F7809184068062CA
:100E90000E94AC0683E592E00197F1F78091840609
:100EA00080620E94AC06D0CF90918806691710F03E
:100EB0006FEF690FE62FF0E0EB58F94F9489890F37
:100EC00080680C94AC060C945407CF938091000179
:100ED0008F5F863041F180930001C0912904C87F63
:100EE000E091000186E0E89FF0011124EE5FFE4FE3
:100EF0008081C82BC093290461E08CE00E946307C5
:100F0000E2E0F1E030E020E0C7708081C8130EC05D
:100F100046E0429FC001439F900D11248D5F9E4F7C
:100F2000CF910C94140610920001D7CF2F5F3F4F42
:100F300036962630310549F787E791E0F1CF81E019
:100F40000E94AC068BE39FE10197F1F7089541E021
:100F50000E94590681E090E00895462F682F70E0C6
:100F600090E080E00C94B405823091F030F4813050
:100F700059F06AE070E00C94AD07833061F0843082
:100F8000C1F787E991E002C08CE791E00C9402067A
:100F900084E891E0FBCF8DE891E0F8CFCF93C82FA4
:100FA0006AE070E082958F700E94AD076AE070E0A1
:100FB0008C2F8F70CF910C94AD0741E0682F85E79F
:100FC00096E00E94590681E090E008950E949F07F4
:100FD00060E080E00E94630782EA91E00E941406CC
:100FE00089EA91E00E9414068DEA91E00E941406BD
:100FF00081EB91E00E94140661E080E00E946307AB
:1010000086EB91E00E94140685EF0E94DD078CEBD1
:1010100091E00E94140660ED77E080E090E00E948D
:1010200076020C949F0710924D050E94E60761E03E
:1010300080E00E94630784EC91E00E94140681E046
:10104000809300010C9465071F93CF93DF93D82FF3
:10105000162FC42F0E945407C15020F080E20E9436
:10106000DD07FACF612F8D2FDF91CF911F910C9467
:101070005407CF93DF9380911905882361F1C091C4
:101080000101CC2341F1D1E0D0934306C093650622
:10109000109244061092660667EF87E696E00E947B
:1010A0004D050E944003D0934306109244061092CF
:1010B000660661E08C2F0E9427041092140580932D
:1010C000130587E696E00E940605C82F0E9440039C
:1010D00081E0C73E09F080E0DF91CF910895CF9283
:1010E000DF92EF92FF920F931F93CF93C82F0E942E
:1010F000DB01E09116040091120410911304209179
:101100001404309115046B017C01C01AD10AE20A63
:10111000F30A9701860188EE93E0E89FA001E99F1A
:10112000500D1124052E000C660B770B401751074C
:101130006207730768F461E08E2F0E9463078AECF0
:1011400091E00E941406809116048F5F809316042C
:101150000E94DB01009112041091130420911404E9
:1011600030911504AB01BC01401B510B620B730B9A
:1011700028EE33E0C29FC001C39F900D1124092EB9
:10118000000CAA0BBB0B84179507A607B707D8F46A
:1011900040E160E080E00E94240861E080E00E947D
:1011A00063078CEC91E00E9414060E94E7010E9404
:1011B00039088823D1F3CF911F910F91FF90EF90C1
:1011C000DF90CF90089580E0F6CFCF93DF930E9419
:1011D0009F0760E080E00E9463078DED91E00E9430
:1011E00002066AE070E080911F050E94AD0761E091
:1011F00080E00E94630783EE91E00E940206C091A6
:101200002105D0E0DC2FCC2760912005C60FD11D31
:10121000C11580E1D80780F480E30E94DD07CF3F4D
:10122000D10509F048F480E30E94DD07C031D10503
:1012300018F480E30E94DD07BE0190E080E040E109
:10124000DF91CF910C94B405CF93DF93EC01C83EAE
:1012500083E0D80778F480E30E94DD07C436D10527
:1012600048F480E30E94DD07CA30D10518F480E31A
:101270000E94DD07BE0190E080E04AE0DF91CF915F
:101280000C94B40585ED8093BC0080913F0690914D
:101290004006A0914106B09142060796A11DB11DDE
:1012A00023E0B695A795979587952A95D1F7209134
:1012B000BC0024FD03C010923D06089540913F06F6
:1012C000509140066091410670914206452B462B95
:1012D000472B69F30097A105B10541F02AE22A9551
:1012E000F1F700C00197A109B109E1CF80913E0655
:1012F0000C941F032F923F924F925F926F927F92B6
:101300008F929F92AF92BF92CF92DF92EF92FF9215
:101310000F931F93CF93DF9300D000D0CDB7DEB7EC
:101320009C838B837C0141E8E40EF11C6C0150E846
:10133000C50ED11C8C010E571F4F8D579F4F2C018E
:101340008B819C818C579F4F4C0122242A94AB8027
:10135000BC8097E8A90EB11CEB81FC81EB57FF4FD5
:10136000FA83E983F7018081F6019081891709F4F6
:10137000BAC0EB81FC81E80FF11D308037FE6DC0F3
:10138000F8019081891739F0F501208131812F5FB3
:101390003F4F31832083F8018083F2012082832D27
:1013A0008076F401803609F441C0832D82958670E1
:1013B0008E5F8083F8012081F4018081820F99275C
:1013C000991F813891059CF180E8682E621AF89483
:1013D000F6014081F8018081841708F044C0F42FA1
:1013E000F81B8F2FF60180837894F80160814617EF
:1013F000E8F5712C50E06B817C81CB01860D971D47
:101400000E945A14F80160814B815C81460F511D86
:10141000BA01A3018B819C810E945A14F70180813B
:10142000F8019081891BF7018083F8011082F70190
:1014300090819F5F9083F8018081392F381B97FF3F
:1014400002C0F7011082F2012081F401908193170C
:10145000A9F03226F201308285CFF401808181111A
:10146000E6CF3082A7CF862D840FBCCF461B50E03D
:101470008B819C81860F911DBC01CCCF32122AC07A
:101480004B815C81480F511DCA01E981FA8140817D
:1014900051814F5F5F4F51834083F7013081F801E5
:1014A00030830097B1F20F900F900F900F90DF9163
:1014B000CF911F910F91FF90EF90DF90CF90BF9051
:1014C000AF909F908F907F906F905F904F903F90E4
:1014D0002F900895F50180819181019691838083F9
:1014E00090E080E0DACF90E080E0DDCF1F93CF93F3
:1014F000DF93182FD62FCBE4C627C82764EB8FE7DE
:1015000093E00E949205612F8FE793E00E9492057D
:101510006D2F8FE793E00E9492056C2F8FE793E089
:101520000E9492056FEF8FE793E00E9492058FE78C
:1015300093E00E947A0990930F0480930E04009721
:1015400029F0DF91CF911F910C94A600DF91CF91EC
:101550001F9108959F92AF92BF92CF92DF92EF9228
:10156000FF920F931F93CF93DF93682F70E099E062
:10157000899FF0011124E95EFB4F15812181412FE4
:1015800050E0440F452F441F550B240F352F311DBC
:1015900090914D05911112C0232B09F094C060E089
:1015A0008AE3DF91CF911F910F91FF90EF90DF9031
:1015B000CF90BF90AF909F900C94760A8C3178F7C3
:1015C000232B11F493E09183D82F89E0869FF001BB
:1015D000879FF00D1124E95EFB4F9080A180B280BF
:1015E000C380D480E680F7800085C3E1CD27C12782
:1015F000C925CA25CB25CC25CD25CE25CF25C0276D
:1016000067EE8FE793E00E9492056EE08FE793E02C
:101610000E9492056D2F8FE793E00E949205692D3D
:101620008FE793E00E9492056A2D8FE793E00E9476
:1016300092056B2D8FE793E00E9492056C2D8FE74A
:1016400093E00E94920565E08FE793E00E94920587
:101650006D2D8FE793E00E949205612F8FE793E055
:101660000E9492056E2D8FE793E00E9492056F2DE8
:101670008FE793E00E949205602F8FE793E00E942E
:1016800092056C2F6F778FE793E00E9492056FEFC2
:101690008FE793E00E9492058FE793E00E947A091A
:1016A00090930F0480930E04009789F0DF91CF91FF
:1016B0001F910F91FF90EF90DF90CF90BF90AF9070
:1016C0009F900C94A6008C3108F47ECF68CFDF91F8
:1016D000CF911F910F91FF90EF90DF90CF90BF902F
:1016E000AF909F900895EF92FF920F931F93CF9327
:1016F000DF9386E695E00E947A09FC0190930F043F
:1017000080930E04892B59F0C181CC3140F4808143
:101710008B3B09F4AEC050F48A3B09F4ACC0DF91B6
:10172000CF911F910F91FF90EF9008958F3B09F497
:1017300070C08F3EA1F7C281CC3188F7638154819C
:101740004581368120859185828503851485EC2E1F
:10175000F12C79E0C79FE0011124C95EDB4F68835B
:1017600059834A833B832C839D838E830F83188701
:101770006FE78FE60E94760A812F90E0982F8827E6
:10178000800F911D909311048093100480914D055A
:101790008111C5CF40E160E00E94240860E080E054
:1017A0000E9463078DEE91E00E9414062D818981CD
:1017B00090E0222339F090E8299F90011124820FB4
:1017C000932F911D0E94240960E08CE00E94630722
:1017D00089E08E9DF0018F9DF00D1124E95EFB4F95
:1017E0008081E2E0F1E030E020E0877090818913B1
:1017F0006AC046E0429FC001439F900D11248D5F57
:101800009E4FDF91CF911F910F91FF90EF900C941D
:1018100014064281A7E1B4E0FD0181E092854913FD
:1018200003C09685C917B1F08F5F39968C31B1F737
:1018300021E030E0822F19969C911997907391F4D2
:1018400099E0929FF001939FF00D1124E95EFB4F08
:101850004183C583DF91CF911F910F91FF90EF904E
:101860000C94AA0A2F5F3F4F19962C31310511F7BE
:1018700056CF8C2FEFCF82818C1322C0CC23F1F076
:1018800079E0C79FF0011124E95EFB4F80818063FE
:1018900080838C2F0E94AA0AE0910E04F0910F041D
:1018A000828181113CCF89E0C89FF0011124E95E5B
:1018B000FB4F80818F7E8062808331CF82E0CACFF0
:1018C000C111EACF2CCF2F5F3F4F3696263031051E
:1018D00009F08CCF87E791E094CF1F920F920FB65B
:1018E0000F9211242F933F938F939F93AF93BF93A6
:1018F00080914F0590915005A0915105B0915205EE
:1019000030914E0523E0230F2D3758F50196A11D88
:10191000B11D20934E0580934F0590935005A093E1
:101920005105B09352058091530590915405A091B3
:101930005505B09156050196A11DB11D8093530523
:1019400090935405A0935505B0935605BF91AF9160
:101950009F918F913F912F910F900FBE0F901F90ED
:10196000189526E8230F0296A11DB11DD2CF1F9214
:101970000F920FB60F9211242F933F934F935F93C3
:101980006F937F938F939F93AF93BF93EF93FF9347
:101990008091B900887F803609F44AC0F0F588321A
:1019A00009F4A7C018F5803109F49BC0B8F4882366
:1019B00009F4F9C0883009F494C0FF91EF91BF9108
:1019C000AF919F918F917F916F915F914F913F91D7
:1019D0002F910F900FBE0F901F901895883109F42A
:1019E00088C0803251F780933B0614C0803409F4DC
:1019F0009DC040F48033B9F38833F9F680933B06F9
:101A000085ECB0C0803509F485C0883509F496C0EE
:101A1000883499F60E944209D0CF883909F48CC0E5
:101A200038F5883729F050F4883611F0803729F6D8
:101A300083E080933D0610927A0357C0883809F4FA
:101A40007BC0803919F0803809F0B7CF80917A03D4
:101A5000803208F071C0E0917A0381E08E0F8093AC
:101A60007A038091BB00F0E0E65AFC4F80833DC0D2
:101A7000803B39F0E0F4803A09F479C0883A09F003
:101A80009CCF84E080933D06109259031092580336
:101A9000E0917D03F0917E030995809158038111B7
:101AA0000FC081E0809358031092380309C0803C36
:101AB00009F4A6CF883C09F4A3CF883B09F07DCF79
:101AC000E091590381E08E0F80935903F0E0E85CC8
:101AD000FC4F80818093BB00909159038091580303
:101AE00029C0809118068093BB0085EC8093BC00D0
:101AF00064CF90913A0680913906981758F5E09195
:101B00003A0681E08E0F80933A06F0E0E75EF94FE7
:101B10008081E9CFE0913A0681E08E0F80933A060A
:101B20008091BB00F0E0E75EF94F808390913A0628
:101B3000809139069817C8F285E8D8CFE0913A0627
:101B400081E08E0F80933A068091BB00F0E0E75E63
:101B5000F94F808380913C0681115CCF81E08093B6
:101B6000170684EA8093BC0010923D0626CF85ECD0
:101B70008093BC0010923D0680917A03803230F44D
:101B8000E0917A03F0E0E65AFC4F108260917A030C
:101B900070E0E0917B03F0917C038AE593E0099586
:101BA00010927A030ACF10923B0634CF1F920F9205
:101BB0000FB60F921124CF92DF92EF92FF920F9304
:101BC0001F932F933F934F935F936F937F938F93C5
:101BD0009F93AF93BF93CF93EF93FF93B19A80916D
:101BE0005D0590915E0580549C4F90935E058093B7
:101BF0005D0580915D0590915E05909389008093CD
:101C0000880080913603882371F010923603189B68
:101C100026C081E080936305B59A80916F00806251
:101C200080936F001CC0809162058F5F8093620576
:101C300080916305843009F043C08091620589304A
:101C400030F58091590590E09595879580935905D9
:101C5000189B05C080915905806880935905FF91B4
:101C6000EF91CF91BF91AF919F918F917F916F91A4
:101C70005F914F913F912F911F910F91FF90EF90A6
:101C8000DF90CF900F900FBE0F901F901895B59AD0
:101C900080916F00806280936F00809157059091D2
:101CA0005805189929C0FC01E957FF4F808191819F
:101CB0000196918380831092620581E08093630591
:101CC000809163058330E9F5E0916005F09161054D
:101CD000808120915F0533B190E0022E02C095957E
:101CE00087950A94E2F7832780FD11C01092620560
:101CF00082E08093630525C0609159050E9492059A
:101D000080E090E0892BB9F20E940000D4CF80914E
:101D10006205893008F043C03091590581E090E0B8
:101D200001C0880F2A95EAF7908130FF36C0809570
:101D3000892380838091590590E0959587958093BC
:101D4000590580916305823099F480916205811173
:101D500096C0E0916005F0916105808190915F05EA
:101D600021E030E001C0220F9A95EAF7822B8083B0
:101D700080916305813009F072CF809162058823DC
:101D800009F44ACF80916205883308F468CF109235
:101D9000630580916F008D7F43CF892BCACF8091DF
:101DA0006205893059F4308181E090E001C0880FEC
:101DB0002A95EAF7809583238083C3CF80916405B9
:101DC0008F5F8093640590916505891750F5109297
:101DD000620580915B0590915C05A0916405A80F58
:101DE000B92FB11D8C9180935905808141E050E05D
:101DF00001C0440F2A95EAF7842B808380918400E8
:101E0000909185008A5A9C4F90935E0580935D0562
:101E100080915D0590915E05909389008093880084
:101E200090CF81E080935A05E0905B05F0905C05CF
:101E3000C0905705D0905805F70180818076803694
:101E400079F4C18110E000E00C1778F4F701E00F9D
:101E5000F11F6081C6010E9492050F5F1F4FF4CFF2
:101E6000C081C295C670CE5FEDCF80E090E0892B37
:101E700011F00E9400001092620581E03ACF80913B
:101E800062058F3008F474CFE0916005F091610530
:101E9000208130915F0581E090E001C0880F3A9584
:101EA000EAF78095822380831092620581E0809317
:101EB0006305E0915705F0915805E357FF4F808186
:101EC000918101969183808353CF1F920F920FB619
:101ED0000F9211248F939F93EF93FF93B59AEFE6A0
:101EE000F0E080818F7D80838091860090918700D3
:101EF00080529E4F90935E0580935D0580915D05B5
:101F000090915E059093890080938800B19A8081BA
:101F10008260808384E0809363051092620581E093
:101F200080933603FF91EF919F918F910F900FBE99
:101F30000F901F901895CF93DF93E7E6F6E013829A
:101F4000128288EE93E0A0E0B0E084839583A683BC
:101F5000B7838DE591E091838083CDE8D6E086E07C
:101F6000888380E8898388E08A831B821C821D82A3
:101F70001E8286E00E9487000E94DB016B837C83C7
:101F80008D839E838091010190E0909374068093ED
:101F90007306E5E7F6E0138212828FE691E0918303
:101FA00080838CE084838FEF85838BE0868389E058
:101FB000878385E0808784E0818783E0828713863A
:101FC000148615861686178681E0DF91CF910C94D2
:101FD000B206789484B5826084BD84B5816084BD86
:101FE00085B5826085BD85B5816085BD80916E00B7
:101FF000816080936E0010928100809181008260E8
:102000008093810080918100816080938100809124
:1020100080008160809380008091B1008460809313
:10202000B1008091B00081608093B00080917A000F
:10203000846080937A0080917A00826080937A0035
:1020400080917A00816080937A0080917A00806824
:1020500080937A001092C100E7E1F4E083E195E01B
:10206000108239968E179F07D9F783E3809329044E
:10207000E6E6F5E08FE8DF011D928A95E9F787E053
:102080000E948700EBEAF0E02491E7E9F0E0E491B8
:10209000F0E0EE0FFF1FE458FF4F4591549180E0B0
:1020A00091E031E0291741F08F5F932F082E01C096
:1020B000990F0A94EAF7F6CF5093610540936005B3
:1020C00080935F0586E695E09093580580935705C9
:1020D0002098E0916005F0916105208130915F05C5
:1020E00081E090E001C0880F3A95EAF7809582235D
:1020F000808310928000C1E0C0938100109263053C
:10210000B59A80916F00806280936F00809181000A
:10211000887F8160809381001092140510921305CE
:1021200010924406109266060E9401038AEA92E029
:1021300090937E0380937D038BEA92E090937C03DF
:1021400080937B0389E380930101C09343068093CE
:1021500065060E944003811107C0809119058823FC
:1021600009F495C081E010C081E280930101C09321
:1021700043068093650610924406109266060E94FC
:102180004003882351F380E08093190582E00E9488
:10219000B2060E94E6070E9439088823D9F160ED53
:1021A00077E080E090E00E9476020E943908882360
:1021B00089F160E080E00E94630783EF91E00E9474
:1021C000140681E080934D05EDE1F5E01192B5E054
:1021D000ED34FB07D9F781E0809316040E94DB0100
:1021E0006093120470931304809314049093150465
:1021F0008091100490911104892B09F058C00E941D
:10220000E7010E94730B8FE00E946F08882381F31F
:102210000E94130880914D0581110CC061E00E945D
:10222000630784EC91E00E94140681E08093000132
:102230000E94650715E00AE0C0E0D0E00E94E701D7
:102240000E94730B80911905811131C120E080E05B
:1022500020FDABC126FDABC127FF14C090914D05F9
:102260009111D8C1833609F0A4C110921C051092B7
:102270001B0510921A050E94A10547E061E085E068
:102280000E9424082097D1F20E940000D7CF8091AD
:10229000010190E090937406809373066FEF70E0F5
:1022A0000E947C0510921805109217055BCF64E61A
:1022B00070E080E090E00E947602C6E2D1E00BE0A0
:1022C000E02E0E94E701D990EFE2ED1508F4ECC092
:1022D000B0901004C0901104FB2CFE24FC24FD24BB
:1022E00065EE8FE793E00E94920560E18FE793E04F
:1022F0000E94920561E08FE793E00E94920562E000
:102300008FE793E00E94920562E08FE793E00E94DE
:10231000920560E18FE793E00E9492056B2D8FE7B5
:1023200093E00E9492056C2D8FE793E00E94920546
:102330006D2D8FE793E00E94920560E08FE793E0B8
:102340000E94920560E18FE793E00E94920560E0B1
:102350008FE793E00E94920560E08FE793E00E9490
:10236000920560E08FE793E00E94920560E08FE7BE
:1023700093E00E9492056F2D6F778FE793E00E94A4
:1023800092056FEF8FE793E00E9492058FE793E04D
:102390000E947A0990930F0480930E04009711F025
:1023A0000E94A60081E0809316040E94DB016093E6
:1023B00012047093130480931404909315040E94E4
:1023C000E70186E695E00E947A09DC0190930F040C
:1023D00080930E04892B39F08C918A3B51F460E094
:1023E0008AE30E94760A85E00E946F08882339F309
:1023F0000FCF853EC1F711968C911197803199F7D7
:1024000014968C911497823071F715962C9115972C
:1024100030E0C90156E0880F991F5A95E1F780789E
:10242000992717964C9117974F77842BF0911004AA
:10243000E0911104B9017695762F66277795679517
:10244000772716964C9116974F77460F572F511DA9
:10245000F417150641F60E2F10E08017910719F6B4
:1024600013968C911397823409F0BDCF45E0220F6B
:10247000331F4A95E1F720781896EC911897EF777B
:10248000E22B1A968C911A97F0E88F9FA0011124E5
:102490001B968C918F77840FE03308F012CFF0E019
:1024A000E35EFA4F80830DCF0E94E508B3CEE09043
:1024B0001705F0901805B0907306A0907406F70108
:1024C000EE0FFF1FEF5AFE4F608171818B2D9A2D09
:1024D0000E947C0599E4892E91E0992ED12CC12C83
:1024E00061E08B2D0E942704109214058093130540
:1024F00087E696E00E940605D4014D915D914D015D
:102500002091150630911606822793278417950788
:1025100091F41E9DF0011F9DF00D1124EB5CFE4F08
:10252000EC0DFD1D8081082E000C990B9093160573
:10253000809315058BCEBFEFCB1ADB0AE4E0CE16F5
:10254000D10471F68091150590911605009791F0D0
:102550001092160510921505882309F477CE833260
:1025600001F18A3201F1805320E88A3008F470CEFC
:1025700020E86DCE6FEF70E08B2D9A2D0E947C05C8
:10258000FFEFEF1AFF0A84E0E816F10429F0F09259
:102590001805E09217055ACE1092180510921705EB
:1025A00055CE21E054CE20E452CE82E657CE83E6CB
:1025B00055CE823619F40E94650764CE20911C0521
:1025C00090E0222371F0243080F460911A0570911C
:1025D0001B05069FA001079F500D1124840F952F06
:1025E000911D90931B0580931A052F5F20931C0566
:1025F00044E061E085E00E94240861E085E00E94FB
:10260000630780911A0590911B050E9424090E947E
:10261000A10538CE833619F40E94130833CE8130D9
:1026200019F40E94E5082ECE8230D9F40E949F074B
:1026300060E080E00E94630782E092E00E94020670
:10264000809122050E94B40761E080E00E94630748
:1026500088E092E00E940206809123050E94B40760
:1026600011CE833059F50E949F0760E080E00E9400
:1026700063078EE092E00E9402068091280585356E
:1026800099F484E192E00E94020661E080E00E94F9
:10269000630787E292E00E94020662E070E08091A8
:1026A00029050E94AD07EECD8F3F19F48EE192E02F
:1026B000EACF6AE070E00E94AD07E7CF843009F00E
:1026C00052C00E949F0760E080E00E946307E09193
:1026D000290580911F058631F0F4E3708CE492E0C7
:1026E000E23051F08DE592E0E33031F08EE392E09C
:1026F000E13011F08DE292E00E94020661E080E09C
:102700000E9463078091290586FF2AC081EB92E031
:102710000E940206B7CDEF70F0E0EF56FC4E0C942D
:1027200054147A13A113A413A413A7137E13AA138A
:102730007E137E137E137E137E137E137E13AD13E2
:102740007A138AE692E0D8CF8BE792E0D5CF8BE878
:1027500092E0D2CF88E992E0CFCF82EA92E0CCCF6C
:1027600082EC92E0D5CF853081F40E949F0760E033
:1027700080E00E9463078091290587FF03C083EDF5
:1027800092E0C6CF83EE92E0C3CF8630A1F50E94DF
:102790009F0760E080E00E9463078FEE92E00E9456
:1027A00002066AE070E080912A050E94AD078EE281
:1027B0000E94DD076AE070E080912B050E94AD0762
:1027C00061E080E00E94630788EF92E00E940206C9
:1027D00080912C050E94CE078EE20E94DD07809139
:1027E0002D050E94CE078EE20E94DD0780912E0506
:1027F0000E94CE0747CD873009F044CD0E949F0745
:1028000060E080E00E94630781E093E00E9402069E
:10281000809148058F3F99F487E093E00E9402067B
:1028200061E080E00E9463078EE193E00E9402066F
:10283000809149058F3F69F484E293E069CF81116B
:1028400003C082E193E0EACF6AE070E00E94AD0746
:10285000E7CF8DE293E00E9402066AE070E080918B
:1028600049051FCFA1E21A2EAA1BBB1BFD010DC0FB
:10287000AA1FBB1FEE1FFF1FA217B307E407F50730
:1028800020F0A21BB30BE40BF50B661F771F881F0C
:10289000991F1A9469F760957095809590959B01A2
:1028A000AC01BD01CF010895EE0FFF1F0590F4911B
:1028B000E02D09946817790768F4FB01DC01E40F47
:1028C000F51FA40FB51F02C002900E924150504058
:1028D000D8F708950C946C14FB01DC0102C0019040
:0E28E0000D9241505040D8F70895F894FFCF64
:1028EE0001390731323841000432384120000331BA
:1028FE0032382000003238202000023134202000EF
:10290E00014D2A2A200002030405060B0C0D0E0FA2
:10291E0010112B2CFF313233410034353642003743
:10292E00383943002A302344001000200040008034
:10293E0000FE00FD00FB00F700000000004D05202A
:10294E00058F05F60419050605F70400000000A71B
:10295E0007AC028F05D9023F2020200041546D653F
:10296E006761380041546D65676138380041546DB8
:10297E006567613136380041546D656761333238B1
:10298E00500044495350412000322E3200202F2057
:10299E000032303234002863294B72006D656C733F
:1029AE006F6674004E65753A20002E00436F6D6D94
:1029BE00756E696361742E6572726F720053562064
:1029CE00323A00535620332C343A307800416C742E
:1029DE003A2000446973706174636820465245441E
:1029EE004900535620353A00535620363A00535676
:1029FE0031313A006F7065726174696E670073658C
:102A0E006C667465737400535631323A00756E6B92
:102A1E006E6F776E20486172647761726500496EE1
:102A2E0063722E2D456E636F64657200496E63721C
:102A3E002E456E632E2053776974636800416E6174
:102A4E006C6F672E2D506F746900496E63722E2D58
:102A5E00456E632E2046312D463400416E612E2D7B
:102A6E00506F74692046312D4634004D6174726981
:102A7E00782D4652454449005357442D46524544FD
:102A8E004900465245444920772E204252414B453B
:102A9E000054776F20536869667420627574746F82
:102AAE006E004F6E6520536869667420627574748B
:102ABE006F6E00466F72772D4F66662D5265762DBE
:102ACE00537700466F72772D5265762D53770053EC
:102ADE005631332C31343A00535631352D31373A85
:102AEE0000535634333A006E6F204F50435F494DBA
:102AFE004D004F50435F494D4D2061637400535656
:102B0E0034343A006E6F204252414B4500425241DE
:062B1E004B453A20460081
:00000001FF
