:100000000C9474000C949C000C949C000C949C0028
:100010000C949C000C949C000C949C000C949C00F0
:100020000C949C000C949C000C940E0C0C947F0A75
:100030000C949C000C949C000C949C000C949C00D0
:100040000C9416090C949C000C949C000C949C003D
:100050000C949C000C949C000C949C000C949C00B0
:100060000C9460090C949C006D656C736F66740051
:100070002863294B72003230323400202F200032A6
:100080002E3300444953504120004E65753A2000FC
:10009000416C743A200000000008000201000003D7
:1000A0000407000000000000000000000000250020
:1000B00028002B0000000000240027002A00040470
:1000C0000404040404040202020202020303030300
:1000D00003030102040810204080010204081020DC
:1000E000010204081020440C11241FBECFEFD8E0F9
:1000F000DEBFCDBF11E0A0E0B1E0E0E3F1E202C07D
:1001000005900D92AE36B107D9F724E0AEE6B1E026
:1001100001C01D92A439B207E1F710E0C4E7D0E0B6
:1001200004C02197FE010E947510C337D107C9F79B
:100130000E949B0C0C9496100C94000090E0FC0123
:10014000EE52FF4F249182549F4FFC0184918823EB
:1001500099F090E0880F991FFC01EC54FF4FA59196
:10016000B491FC01E655FF4F859194918FB7F894B7
:10017000EC91E22BEC938FBF0895CF93DF93FC01BA
:1001800029E18EE241E050E033E071E09081907629
:100190009036D1F4918190938103A0918103A15075
:1001A000109280039FEF609180036A1790F4C091D2
:1001B0008003CE0FDF2FD11D6881962760918003C9
:1001C0006F5F60938003EFCF9081929596709E5FF2
:1001D000E2CFAE0FBF2FB11D9C93F89490917F0397
:1001E000913059F490917E03981738F010927F0364
:1001F00090916F009D7F90936F00789490917F0312
:10020000913039F490917E03943108F4BFCF70E0BF
:10021000BDCF90917F0391110EC0F89490916F0023
:100220009F7D90936F00B59B09C090916F00906285
:1002300090936F0078947111A9CF51C0A0917C0365
:10024000B0917D039C9160917B03EA0102C0CC0FC9
:10025000DD1F6A95E2F79C2B9C936091840070915E
:1002600085006A5A7C4F70937A036093790360919A
:10027000790370917A037093890060938800789471
:10028000F0937803E0937703109280031092760343
:1002900090819093750330937F0310927E03B19AFF
:1002A00090916F00926090936F0090917F039330D4
:1002B000E1F390917603992381F0E0917303F0913B
:1002C0007403E757FF4F808191810196918380836A
:1002D00083E090E0DF91CF91089590917F038B317F
:1002E00008F08150215009F050CF80910D04909179
:1002F0000E04019690930E0480930D0486E090E026
:10030000E9CF90E0FC01EA56FF4F2491FC01EE5248
:10031000FF4F3491FC01E254FF4FE491EE23C9F00A
:10032000222339F0233001F1A8F4213019F12230D1
:1003300029F1F0E0EE0FFF1FE655FF4FA591B491B4
:100340008FB7F894EC91611126C030953E233C9311
:100350008FBF08952730A9F02830C9F0243049F71D
:10036000809180008F7D03C0809180008F77809383
:100370008000DFCF84B58F7784BDDBCF84B58F7DE0
:10038000FBCF8091B0008F778093B000D2CF809167
:10039000B0008F7DF9CF3E2BDACFCF93DF932FB70D
:1003A000F8948091710490917204A0917304B091BB
:1003B00074042FBF40919004509191046091920475
:1003C00070919304841B950BA60BB70B4597A10561
:1003D000B10508F459C02FB7F89480917104909139
:1003E0007204A0917304B09174042FBF80939004A1
:1003F00090939104A0939204B0939304C0918E04BF
:1004000080918F04C13C20F0819580938F0402C0BD
:10041000C032D0F380918F04C80FC0938E04D09166
:100420008D048D2F0E949E00C11106C060E08D2FAB
:10043000DF91CF910C948101CF3F11F461E0F7CFB0
:10044000ED2FF0E0EA56FF4FE491E33029F138F464
:10045000E130B1F0E230D9F0C7FDF0CFE7CFE730BF
:1004600031F1E83061F1E430B9F7809180008062C9
:1004700080938000D0E0D0938B00C0938A0004C0AA
:1004800084B5806884BDC7BDDF91CF91089584B5E0
:10049000806284BDC8BDF8CF809180008068809361
:1004A0008000D0E0D0938900C0938800EDCF809188
:1004B000B00080688093B000C093B300E5CF809116
:1004C000B00080628093B000C093B400DDCF3FB72E
:1004D000F89480916F0390917003A0917103B09193
:1004E000720326B5A89B05C02F3F19F00196A11DE8
:1004F000B11D3FBFBA2FA92F982F8827BC01CD016E
:10050000620F711D811D911D42E0660F771F881FCC
:10051000991F4A95D1F7089508950895AF92BF9213
:10052000CF92DF92EF92FF920F931F93CF93DF93BF
:100530006C017B018B01040F151FEB015E01AE18EE
:10054000BF08C017D10759F06991D601ED91FC9110
:100550000190F081E02DC6010995892B79F7C5013D
:10056000DF91CF911F910F91FF90EF90DF90CF908F
:10057000BF90AF900895089520911F02260F332752
:10058000331F21323105ECF420913904FC0190E055
:1005900080E0243069F082E00895A0911F0221914B
:1005A000AC0141505E4FA40FB52FB11D2C930196A5
:1005B000861798F380911F02680F60931F0280E0F6
:1005C000089581E008951092390481E08093380401
:1005D0001092130461E082E10E94810161E083E1F5
:1005E0000E948101E9EBF0E080818E7F8083808131
:1005F0008D7F808388E48093B80085E48093BC007D
:100600000895CF93DF9391E09093FE018823B9F092
:10061000C091B800D091BA008091BC008A7B8093D1
:10062000BC0060E082E10E94810160E083E10E9401
:1006300081010E94E302D093BA00C093B800DF9119
:10064000CF9108958F929F92AF92BF92CF92DF92F7
:10065000EF92FF920F931F93CF93DF93D091620499
:10066000D13208F0D7C0182FC09161040E946702F0
:100670006B017C018091390481116BC082E0809311
:100680003904109338048FEF8093370410923604A6
:10069000D0933504A1E4B4E0E5E1F4E080E0D813C0
:1006A00091C01092140480911404CC0FC82BC093F5
:1006B000140480911304813009F088C0109213044F
:1006C0000E9467026B017C01809114048093BB003F
:1006D00080913B0490913C04A0913D04B0913E0474
:1006E000892B8A2B8B2BA1F00E94670200913B047F
:1006F00010913C0420913D0430913E046C197D0919
:100700008E099F09061717072807390708F442C002
:100710008091BC0083FDD8CF85EC8093BC000E9403
:1007200067026B017C0180913904823009F450C06A
:10073000809137048F3F09F46FC080913704803275
:1007400009F46CC080913704803309F469C084E0F7
:1007500026C080913B0490913C04A0913D04B0914F
:100760003E04892B8A2B8B2B09F484CF0E946702CD
:1007700080903B0490903C04A0903D04B0903E04D7
:100780006C197D098E099F0986169706A806B90679
:1007900008F070CF80913A040E94010385E0109226
:1007A00040041092620410923F04DF91CF911F9198
:1007B0000F91FF90EF90DF90CF90BF90AF909F9000
:1007C0008F9008959D9191938F5F69CF85EEA5CF0E
:1007D00080913B0490913C04A0913D04B0913E0473
:1007E000892B8A2B8B2B09F49ECF0E9467020091E4
:1007F0003B0410913C0420913D0430913E046C195F
:100800007D098E099F09061717072807390708F081
:100810008ACFC0CF81E0C3CF80E0C1CF82E0BFCF1D
:1008200083E0BDCF0895E091450380914403E8172C
:1008300030F4F0E0EA5BFC4F808190E008958FEFA8
:100840009FEF089590914503809144032FEF3FEF70
:10085000981748F4E92FF0E0EA5BFC4F208130E084
:100860009F5F90934503C90108958091440390913F
:100870004503891B990B0895CF92DF92EF92FF9267
:100880000F931F93CF93DF937C01CB018A012091BB
:100890003F04222389F0EB016B01C40ED51ECC1559
:1008A000DD0569F06991D701ED91FC910190F0812E
:1008B000E02DC7010995F3CF642F0E94BC02C80147
:1008C000DF91CF911F910F91FF90EF90DF90CF902C
:1008D0000895CF93DF931F92CDB7DEB76983209140
:1008E0003F042223F9F020916204203258F021E0E5
:1008F00030E0FC013383228390E080E00F90DF91B1
:10090000CF91089580914004E82FF0E0EF5BFB4F1A
:10091000998190838F5F809340048093620481E08B
:1009200090E0ECCF61E0CE0101960E94BC02F7CFCF
:10093000609311047093120491E090933F048093AC
:100940006104109240041092620483E694E00E94D5
:10095000690481E00C94220390E080E008959C01FA
:10096000DC01A058BF4FEC9191E09E0F9C93E20FE9
:10097000F32FF11D608397FD1C92089580916B0306
:1009800090916C03E6E4F2E09C012F773327238BF0
:10099000880F892F881F990B9195878B81E0848B15
:1009A0000895009769F0FC0101900020E9F7319764
:1009B000AF01481B590BBC0185E794E00C948E02F3
:1009C00090E080E00895CF93DF93EC0160E08E81AA
:1009D0000E94810161E08E810E94810160E08E8130
:1009E0000E9481018BE891E00197F1F7DF91CF91AF
:1009F0000895CF92DF92EF92FF920F931F93CF93C0
:100A0000DF936C017C0187E0E80EF11CD0E0C0E0D0
:100A1000062F10E0B8010C2E02C0759567950A9458
:100A2000E2F76170F70181917F010E9481012196B7
:100A3000C430D10579F7C601DF91CF911F910F9195
:100A4000FF90EF90DF90CF900C94E304CF92DF9271
:100A5000EF92FF920F931F93CF93DF93EC01F62E4B
:100A6000642F8C810E9481018D818F3F19F060E09D
:100A70000E9481010F2D10E08F8584FF25C06E013B
:100A800087E0C80ED11CF12CE12CB8010E2C02C05D
:100A9000759567950A94E2F76170F60181916F018F
:100AA0000E948101FFEFEF1AFF0A88E0E816F104C7
:100AB00061F7CE01DF91CF911F910F91FF90EF90E1
:100AC000DF90CF900C94E304B80184E075956795AE
:100AD0008A95E1F7CE010E94F9046F2DCE01DF91D6
:100AE000CF911F910F91FF90EF90DF90CF900C94DA
:100AF000F90440E0682F85E794E00C94260581E036
:100B00000E9479058BE39FE10197F1F70895CF9358
:100B1000DF93823029F49091840498609093840448
:100B2000809388041092890480E480938A0480E191
:100B300080938B0480E580938C04809179040E94DB
:100B40009E0080917A048F3F11F00E949E00809158
:100B50007B040E949E00C5E7D4E09E0125573440E7
:100B60008091840484FD0AC084E090E021962817D7
:100B700039073CF48E810E949E00EFCF88E090E020
:100B8000F5CF8BE39DE00197F1F760E08091790468
:100B90000E94810160E080917B040E94810180912C
:100BA0007A048F3F19F060E00E94810180918404F3
:100BB00084FD34C063E085E794E00E94F904CBE44F
:100BC000D6E4CE010197F1F763E085E794E00E9457
:100BD000F9042197F1F763E085E794E00E94F904B6
:100BE00083E592E00197F1F762E085E794E00E94E7
:100BF000F9048091840480620E94790584E08093E6
:100C000085048CE00E9479050E947F0582E0809334
:100C1000860486E0DF91CF910C94790580620E9472
:100C200079058BE496E40197F1F780918404806262
:100C30000E94790583E592E00197F1F780918404A1
:100C400080620E947905D5CF90918804691710F0D1
:100C50006FEF690FE62FF0E0EB58FB4F9489890F97
:100C600080680C947905CF93809100018F5F863066
:100C700041F180930001C0915802C87FE0910001CA
:100C800086E0E89FF0011124EE5FFE4F8081C82BC3
:100C9000C093580261E08CE00E942406E2E0F1E09B
:100CA00030E020E0C7708081C8130EC046E0429F4C
:100CB000C001439F900D11248D5F9E4FCF910C94E6
:100CC000D10410920001D7CF2F5F3F4F36962630C8
:100CD000310549F788E691E0F1CF41E00E94260511
:100CE00081E090E0089541E0682F85E794E00E945C
:100CF000260581E090E008951F93CF93DF93D82FCE
:100D0000162FC42F0E942406C15020F080E20E94BA
:100D10007306FACF612F8D2FDF91CF911F910C9425
:100D20002406CF93DF93EC01FE01649121966623A4
:100D300031F041E085E794E00E942605F5CFDF9190
:100D4000CF910895CF92DF92EF92FF920F931F936E
:100D5000CF93DF93CDB7DEB7A1970FB6F894DEBF80
:100D60000FBECDBF8C01083E83E0180778F480E306
:100D70000E9473060436110548F480E30E9473064E
:100D80000A30110518F480E30E947306980150E0C0
:100D900040E019A28E010F5D1F4F8AE0C82ED12CB2
:100DA000E12CF12CCA01B901A70196010E94531050
:100DB000605DF80162938F012115310541055105F0
:100DC00089F7309761F001900020E9F73197AF0182
:100DD000401B510BB80185E794E00E948E02A1965A
:100DE0000FB6F894DEBF0FBECDBFDF91CF911F913C
:100DF0000F91FF90EF90DF90CF90089585ED809355
:100E0000BC0080913B0490913C04A0913D04B091C2
:100E10003E040796A11DB11D23E0B695A7959795B1
:100E200087952A95D1F72091BC0024FD03C010922C
:100E30003904089540913B0450913C0460913D0475
:100E400070913E04452B462B472B69F30097A10573
:100E5000B10541F02AE22A95F1F700C00197A109F6
:100E6000B109E1CF80913A040C9401032F923F9293
:100E70004F925F926F927F928F929F92AF92BF92AA
:100E8000CF92DF92EF92FF920F931F93CF93DF9356
:100E900000D000D0CDB7DEB79C838B837C0141E8C6
:100EA000E40EF11C6C0150E8C50ED11C8C010E57EC
:100EB0001F4F8D579F4F2C018B819C818C579F4FCB
:100EC0004C0122242A94AB80BC8097E8A90EB11C67
:100ED000EB81FC81EB57FF4FFA83E983F7018081B7
:100EE000F6019081891709F4BAC0EB81FC81E80F03
:100EF000F11D308037FE6DC0F8019081891739F0FF
:100F0000F501208131812F5F3F4F31832083F8012C
:100F10008083F2012082832D8076F401803609F4EB
:100F200041C0832D829586708E5F8083F801208179
:100F3000F4018081820F9927991F813891059CF1D6
:100F400080E8682E621AF894F6014081F8018081E9
:100F5000841708F044C0F42FF81B8F2FF60180830C
:100F60007894F80160814617E8F5712C50E06B81A8
:100F70007C81CB01860D971D0E947B10F80160815A
:100F80004B815C81460F511DBA01A3018B819C816D
:100F90000E947B10F7018081F8019081891BF70185
:100FA0008083F8011082F70190819F5F9083F801A0
:100FB0008081392F381B97FF02C0F7011082F201A0
:100FC0002081F40190819317A9F03226F20130823A
:100FD00085CFF40180818111E6CF3082A7CF862DA5
:100FE000840FBCCF461B50E08B819C81860F911DE6
:100FF000BC01CCCF32122AC04B815C81480F511DFD
:10100000CA01E981FA81408151814F5F5F4F51836D
:101010004083F7013081F80130830097B1F20F90DF
:101020000F900F900F90DF91CF911F910F91FF9034
:10103000EF90DF90CF90BF90AF909F908F907F9078
:101040006F905F904F903F902F900895F5018081B1
:10105000918101969183808390E080E0DACF90E0E7
:1010600080E0DDCF1F93CF93DF93182FD62FCBE4F3
:10107000C627C82764EB8EE691E00E94AF04612F7B
:101080008EE691E00E94AF046D2F8EE691E00E9403
:10109000AF046C2F8EE691E00E94AF046FEF8EE6F6
:1010A00091E00E94AF048EE691E00E943607909393
:1010B000430380934203009729F0DF91CF911F9162
:1010C0000C94BD00DF91CF911F9108959F92AF9234
:1010D000BF92CF92DF92EF92FF920F931F93CF9325
:1010E000DF9399E0899FF0011124EA5BFD4F0181B4
:1010F0001581212F30E0220F232F221F330B200FC9
:10110000311D232B11F08C3178F060E08AE3DF9100
:10111000CF911F910F91FF90EF90DF90CF90BF90F4
:10112000AF909F900C943208D82F9080A280B3800B
:10113000C480D680E780F084C3E1C827C027C127D8
:10114000C925CA25CB25CC25CD25CE25CF2567EEB3
:101150008EE691E00E94AF046EE08EE691E00E9480
:10116000AF046D2F8EE691E00E94AF04692D8EE6EC
:1011700091E00E94AF04602F8EE691E00E94AF04E0
:101180006A2D8EE691E00E94AF046B2D8EE691E011
:101190000E94AF0465E08EE691E00E94AF046C2DE2
:1011A0008EE691E00E94AF04612F8EE691E00E94EE
:1011B000AF046D2D8EE691E00E94AF046E2D8EE699
:1011C00091E00E94AF046F2D8EE691E00E94AF0483
:1011D0006C2F6F778EE691E00E94AF046FEF8EE682
:1011E00091E00E94AF048EE691E00E943607909352
:1011F000430380934203009769F0DF91CF911F91E1
:101200000F91FF90EF90DF90CF90BF90AF909F90A5
:101210000C94BD00DF91CF911F910F91FF90EF9043
:10122000DF90CF90BF90AF909F9008951F920F9244
:101230000FB60F9211242F933F938F939F93AF93E9
:10124000BF938091710490917204A0917304B09146
:10125000740430916E0323E0230F2D3758F5019667
:10126000A11DB11D20936E038093710490937204AD
:10127000A0937304B093740480916F0390917003F2
:10128000A0917103B09172030196A11DB11D8093CD
:101290006F0390937003A0937103B0937203BF9197
:1012A000AF919F918F913F912F910F900FBE0F9013
:1012B0001F90189526E8230F0296A11DB11DD2CFCD
:1012C0001F920F920FB60F9211242F933F934F93BB
:1012D0005F936F937F938F939F93AF93BF93EF939E
:1012E000FF938091B900887F803609F44AC0F0F5F9
:1012F000883209F4A7C018F5803109F49BC0B8F40E
:10130000882309F4F9C0883009F494C0FF91EF9163
:10131000BF91AF919F918F917F916F915F914F910D
:101320003F912F910F900FBE0F901F90189588310D
:1013300009F488C0803251F78093370414C0803498
:1013400009F49DC040F48033B9F38833F9F68093F3
:10135000370485ECB0C0803509F485C0883509F4C0
:1013600096C0883499F60E94FE06D0CF883909F4D9
:101370008CC038F5883729F050F4883611F0803762
:1013800029F683E0809339041092410257C08838CF
:1013900009F47BC0803919F0803809F0B7CF80910B
:1013A0004102803208F071C0E091410281E08E0F6D
:1013B000809341028091BB00F0E0EF5DFD4F8083A0
:1013C0003DC0803B39F0E0F4803A09F479C0883AB6
:1013D00009F09CCF84E0809339041092200210928F
:1013E0001F02E0914402F0914502099580911F028D
:1013F00081110FC081E080931F021092FF0109C08C
:10140000803C09F4A6CF883C09F4A3CF883B09F0BF
:101410007DCFE091200281E08E0F80932002F0E0EA
:10142000E150FE4F80818093BB009091200280911B
:101430001F0229C0809114048093BB0085EC809327
:10144000BC0064CF9091360480913504981758F50C
:10145000E091360481E08E0F80933604F0E0EB5E7D
:10146000FB4F8081E9CFE091360481E08E0F8093BD
:1014700036048091BB00F0E0EB5EFB4F80839091DF
:101480003604809135049817C8F285E8D8CFE091EA
:10149000360481E08E0F809336048091BB00F0E02B
:1014A000EB5EFB4F80838091380481115CCF81E03B
:1014B0008093130484EA8093BC001092390426CFF1
:1014C00085EC8093BC0010923904809141028032F7
:1014D00030F4E0914102F0E0EF5DFD4F1082609149
:1014E000410270E0E0914202F091430281E292E019
:1014F0000995109241020ACF1092370434CF1F92FF
:101500000F920FB60F921124CF92DF92EF92FF92BB
:101510000F931F932F933F934F935F936F937F93FB
:101520008F939F93AF93BF93CF93EF93FF93B19A12
:101530008091790390917A0380549C4F90937A0321
:10154000809379038091790390917A039093890035
:10155000809388008091FD01882371F01092FD0135
:10156000189B26C081E080937F03B59A80916F001D
:10157000806280936F001CC080917E038F5F809398
:101580007E0380917F03843009F043C080917E0305
:10159000893030F58091750390E09595879580931B
:1015A0007503189B05C0809175038068809375034F
:1015B000FF91EF91CF91BF91AF919F918F917F91CB
:1015C0006F915F914F913F912F911F910F91FF90DC
:1015D000EF90DF90CF900F900FBE0F901F90189557
:1015E000B59A80916F00806280936F008091730341
:1015F00090917403189929C0FC01E957FF4F80812D
:10160000918101969183808310927E0381E0809383
:101610007F0380917F038330E9F5E0917C03F091B3
:101620007D03808120917B0333B190E0022E02C0C4
:10163000959587950A94E2F7832780FD11C0109253
:101640007E0382E080937F0325C0609175030E9432
:10165000AF0480E090E0892BB9F20E940000D4CF63
:1016600080917E03893008F043C03091750381E09A
:1016700090E001C0880F2A95EAF7908130FF36C0CC
:101680008095892380838091750390E09595879557
:101690008093750380917F03823099F480917E035B
:1016A000811196C0E0917C03F0917D03808190913F
:1016B0007B0321E030E001C0220F9A95EAF7822BEC
:1016C000808380917F03813009F072CF80917E0307
:1016D000882309F44ACF80917E03883308F468CFC9
:1016E00010927F0380916F008D7F43CF892BCACFEB
:1016F00080917E03893059F4308181E090E001C00F
:10170000880F2A95EAF7809583238083C3CF809141
:1017100080038F5F8093800390918103891750F538
:1017200010927E038091770390917803A0918003BB
:10173000A80FB92FB11D8C9180937503808141E072
:1017400050E001C0440F2A95EAF7842B80838091F2
:101750008400909185008A5A9C4F90937A038093DD
:1017600079038091790390917A0390938900809313
:10177000880090CF81E080937603E0907703F0902B
:101780007803C0907303D0907403F7018081807652
:10179000803679F4C18110E000E00C1778F4F7018D
:1017A000E00FF11F6081C6010E94AF040F5F1F4F61
:1017B000F4CFC081C295C670CE5FEDCF80E090E0DF
:1017C000892B11F00E94000010927E0381E03ACF35
:1017D00080917E038F3008F474CFE0917C03F09108
:1017E0007D03208130917B0381E090E001C0880F70
:1017F0003A95EAF780958223808310927E0381E0F8
:1018000080937F03E0917303F0917403E357FF4FDC
:101810008081918101969183808353CF1F920F9293
:101820000FB60F9211248F939F93EF93FF93B59A66
:10183000EFE6F0E080818F7D80838091860090913B
:10184000870080529E4F90937A0380937903809112
:10185000790390917A039093890080938800B19ADC
:1018600080818260808384E080937F0310927E0376
:1018700081E08093FD01FF91EF919F918F910F90F7
:101880000FBE0F901F901895CF93DF93E3E6F4E01F
:101890001382128288EE93E0A0E0B0E08483958307
:1018A000A683B7838EE491E091838083CDE8D4E072
:1018B00086E0888380E8898388E08A831B821C8293
:1018C0001D821E8286E00E949E002FB7F8948091B0
:1018D000710490917204A0917304B09174042FBFAD
:1018E0008B839C83AD83BE838091010190E09093B4
:1018F000700480936F04E5E7F4E01382128280E6BF
:1019000091E0918380838CE084838FEF85838BE0EB
:10191000868389E0878385E0808784E0818783E010
:1019200082871386148615861686178681E0DF91D6
:10193000CF910C948705789484B5826084BD84B57A
:10194000816084BD85B5826085BD85B5816085BDBA
:1019500080916E00816080936E0010928100809172
:1019600081008260809381008091810081608093FA
:101970008100809180008160809380008091B1001F
:1019800084608093B1008091B00081608093B0004A
:1019900080917A00846080937A0080917A008260DE
:1019A00080937A0080917A00816080937A008091A0
:1019B0007A00806880937A001092C10082E493E0FC
:1019C000E6E4F2E0108239968E179F07D9F783E399
:1019D00080935802E2E8F3E08FE8DF011D928A95D8
:1019E000E9F787E00E949E00E9EDF0E02491E5EC44
:1019F000F0E0E491F0E0EE0FFF1FE655FF4F459158
:101A0000549180E091E031E0291741F08F5F932FEE
:101A1000082E01C0990F0A94EAF7F6CF50937D0380
:101A200040937C0380937B0382E893E0909374035C
:101A3000809373032098E0917C03F0917D032081D3
:101A400030917B0381E090E001C0880F3A95EAF77E
:101A500080958223808310928000C1E0C093810032
:101A600010927F03B59A80916F00806280936F001F
:101A700080918100887F816080938100109245036E
:101A80001092440310924004109262040E94E302F8
:101A90008CE892E090934502809344028DE892E0B6
:101AA000909343028093420289E380930101C093A3
:101AB0003F048093610481E00E942203811107C0EA
:101AC00080916A03882309F4C4C081E011C081E2D7
:101AD00080930101C0933F048093610410924004FD
:101AE0001092620481E00E942203882349F380E07F
:101AF00080936A0382E00E9487050E947F0560E070
:101B000080E00E94240683E890E00E9491068FE71F
:101B100090E00E9491068BE790E00E94910686E794
:101B200090E00E94910661E080E00E94240680E738
:101B300090E00E94910685EF0E94730688E690E08F
:101B40000E9491060E9467026B017C0160ED862E67
:101B500067E0962EA12CB12C0E94CD010E94670255
:101B60006C197D098E099F09683E734081059105B6
:101B700098F3B1E08B1A9108A108B108E8EECE0EF7
:101B8000E3E0DE1EE11CF11C81149104A104B10408
:101B900029F70E947F0561E080E00E9424068AE820
:101BA00090E00E94910681E0809300010E9433063C
:101BB00035EE932E45ECA42E50E0C52E50E0D52EE8
:101BC000D1E0BB24BA94C9E026E0822E0E94CD0168
:101BD00082E893E00E943607FC01909343038093D0
:101BE0004203892B61F011811C3148F480818B3BC9
:101BF00009F4C7C008F03DC08A3B09F4C4C0809115
:101C00006A038111F0C020E090E080E020FD24C252
:101C100026FD3BC227FF22C220916D03211125C260
:101C200090936C0380936B032F5F20936D0344E0CC
:101C300061E085E00E947C0661E085E00E94240668
:101C400080916B0390916C030E94A2060E94BE04D7
:101C500005C28091010190E09093700480936F041D
:101C60006FEF70E00E94980410926903109268036D
:101C70002CCF8F3B09F45CC08F3E09F0C0CF0281AE
:101C80000C3108F0BCCF6381E480558146813085FA
:101C9000F18422859385848510E0C09FF001C19F67
:101CA000F00D1124EA5BFD4F6083E1825283438390
:101CB0003483F5822683978380876FE78FE60E94BF
:101CC000320840E160E080E00E947C0660E080E055
:101CD0000E94240680E990E00E9491068E2D90E0FB
:101CE000FF2031F040E8F49E90011124820F931FF1
:101CF0000E94A20660E08CE00E942406C09FF001D2
:101D0000C19FF00D1124EA5BFD4F8081E2E0F1E01C
:101D100030E020E08770908189135BC0829EC00113
:101D2000839E900D11248D5F9E4F0E94D10467CF3A
:101D30004281E6E4F2E081E09285491303C0968592
:101D40001917A9F08F5F39968C31B1F7E6E4F2E00C
:101D500021E030E0822F9185907361F4C29FF00101
:101D6000C39FF00D1124EA5BFD4F418315830E9450
:101D7000660845CF2F5F3F4F39962C31310551F71B
:101D80003ECF812FF4CF8281181320C01123E1F0C0
:101D9000C19FF0011124EA5BFD4F80818063808345
:101DA000812F0E946608E0914203F09143038281F3
:101DB000811125CFC19FF0011124EA5BFD4F808185
:101DC0008F7E806280831BCF82E0D1CF1111EBCF59
:101DD00016CF2F5F3F4F36962630310509F09BCF47
:101DE00088E691E0A2CFE0916803F0916903EE0FDD
:101DF000FF1FEE5BFE4F6081718180916F049091B7
:101E000070040E9498049AE3E92E91E0F92E10E004
:101E100000E030906F040E9467022B013C0180912A
:101E20003904811161C0D0933904D0933804B09241
:101E300037041092360410923504D0931404809124
:101E40001404330C382A3092140480911304813026
:101E500009F09EC0109213040E9467022B013C01FE
:101E6000809114048093BB0080913B0490913C04CA
:101E7000A0913D04B0913E04892B8A2B8B2BA1F0BD
:101E80000E94670220913B0430913C0440913D0444
:101E900050913E046419750986099709261737077A
:101EA0004807590708F441C08091BC0083FDD8CF92
:101EB000A092BC000E9467022B013C018091390472
:101EC000813009F468C080913604811186C0809108
:101ED0003604E5E1F4E0A6E4B3E090E0981751F1B0
:101EE00021912D939F5FFACF80913B0490913C0408
:101EF000A0913D04B0913E04892B8A2B8B2B09F4D1
:101F00008ECF0E94670220913B0430913C044091A7
:101F10003D0450913E0464197509860997092617F6
:101F200037074807590708F07ACF80913A040E9492
:101F3000010380E0109245038093440383E694E01C
:101F40000E942204D7014D915D917D0120911104E1
:101F500030911204822793278417950709F03FC018
:101F6000209168033091690345E0429FC001439F7F
:101F7000900D11248A5D9E4F080F191FF801808172
:101F8000082E000C990B90936703809366033BCE59
:101F90009092BC008FCF80913B0490913C04A09123
:101FA0003D04B0913E04892B8A2B8B2B09F486CFFC
:101FB0000E94670220913B0430913C0440913D0413
:101FC00050913E0464197509860997092617370749
:101FD0004807590708F072CFA8CF81E07ACF0F5F8A
:101FE0001F4F0430110509F014CF809166039091C2
:101FF0006703009799F01092670310926603882395
:1020000009F401CE833221F18A3221F1805390E02C
:1020100020E88A3008F4FACD20E8F6CD6FEF70E0C2
:1020200080916F04909170040E94980480916803DD
:102030009091690301968430910529F0909369038A
:1020400080936803E0CD1092690310926803DBCDA2
:1020500021E0DACD20E4D8CD0E943306C114D104AA
:1020600009F4B4CD0E940000AECD243008F0DCCDE0
:1020700060916B0370916C033AE0369FA001379F2B
:10208000500D1124840F951FCBCD10926D0310922B
:102090006C0310926B030E94BE0447E061E085E090
:1020A0000E947C06DBCFA1E21A2EAA1BBB1BFD01FE
:1020B0000DC0AA1FBB1FEE1FFF1FA217B307E40727
:1020C000F50720F0A21BB30BE40BF50B661F771F7F
:1020D000881F991F1A9469F760957095809590955F
:1020E0009B01AC01BD01CF010895EE0FFF1F0590CC
:1020F000F491E02D09946817790768F4FB01DC017D
:10210000E40FF51FA40FB51F02C002900E924150BC
:102110005040D8F708950C948D10FB01DC0102C0EB
:1021200001900D9241505040D8F70895F894FFCF98
:10213000013907313238410004323841200003317F
:1021400032382000003238202000023134202000B4
:10215000014D3238200031323341003435364200EF
:1021600037383943002A3023440010002000400053
:102170008000FE00FD00FB00F70000000000690485
:102180003C04AC04120435042204130400000000D3
:0E2190006D068E02AC04BB023F202020000032
:00000001FF
